:1000000000800010FD0000002713000029130000ED
:1000100000000000000000000000000000000000E0
:100020000000000000000000000000002B13000092
:1000300000000000000000002D130000994900009E
:1000400025130000251300002513000025130000D0
:1000500025130000251300002513000025130000C0
:1000600025130000251300002513000025130000B0
:1000700025130000251300002513000025130000A0
:100080002513000025130000251300002513000090
:100090002513000025130000251300002513000080
:1000A0002513000025130000251300002513000070
:1000B0002513000025130000251300000000000098
:1000C0007888000000010010880000007888000097
:1000D00000000020000000007888000000400020A0
:1000E0000000000088010010647200000000002081
:1000F00000000000004000200000000010B5104C7F
:10010000104B9C4206D2A2686168206801F00FF98A
:100110000C34F5E70C4B9C4205D26168206801F075
:100120000FF90834F6E701F067F8084B002B02D00E
:1001300000E000BF03E004F0C7FE00F09FF9FEE717
:10014000C0000000E4000000FC000000000000000F
:1001500010B5064C2378002B07D1054B002B02D09D
:10016000044800E000BF0123237010BD8801001087
:100170000000000078880000084B10B5002B03D069
:100180000749084800E000BF07480368002B00D17A
:1001900010BD064B002BFBD09847F9E7000000008C
:1001A0008C01001078880000880100100000000019
:1001B000F0B517000600002085B00193214B019A8D
:1001C0001B78214D5343EA19D35C0C00834236D18E
:1001D0000A9BF01A04F05EFE0B9B0290E01A04F0FA
:1001E00059FE2200174BAE191B7803905A43B05C9E
:1001F0000B9A0A2653430A9AAD18EB5CC51804F013
:100200007FFF039A029B944663441900714305F0F3
:1002100049F90800310005F05FF86D104519002D0F
:1002200003DDFF2D02DDFF2500E00125054B019ACE
:100230001B7801205A431300034AD219D55405B044
:10024000F0BDC04618010010A4030010F0B5060070
:100250000D0014001F0089B0A31B012B02DC7B1BC7
:10026000012B6FDDA319DA0FD3185B100293EB1982
:10027000DA0FD3185B100393029A2B002900019523
:1002800000943000FFF794FF3B00029A3900019779
:1002900000943000FFF78CFF039B22002900019798
:1002A00000942000FFF784FF039B32002900019790
:1002B00000963000FFF77CFF234B039A1978029BCE
:1002C0004A439B1804930498204B185C002824D1BF
:1002D000080079436843059119180690085D895D07
:1002E0009A18401805998C469C446146095D41184E
:1002F0006046805D0918905D125D091802980791AB
:1003000006991818415C8C46079961448918059A2A
:10031000825C5118049AC91099542900039B029ACF
:100320003000FFF793FF22003B0003990298FFF78C
:100330008DFF22002900039B0298FFF787FF029C94
:10034000039D89E709B0F0BD18010010A403001057
:10035000F7B5214D214E2A78337821495A4300239D
:100360001800934202D058540133FAE704F0C8FE53
:10037000FF2105F097F81A4F013139702C7804F0FD
:10038000BFFE2B78FF21019305F08CF83C19013159
:10039000013C2170347804F0B3FE2B78013C5C43BF
:1003A000019BFF21FB181C1905F07CF8013C013171
:1003B0002170347804F0A4FEFF2105F073F82D7845
:1003C000013C6C4301313955002133786A1E013BF1
:1003D0000800FFF73BFFF7BD180100101C010010DB
:1003E000A4030010F8B5184E00243500803504230E
:1003F0005B421F1BFFB200223900200003F0E6F829
:100400002B00803B188022000021380003F0DEF82A
:10041000002128803A00080003F0D8F82B000022C1
:10042000803318802100100003F0D0F86B1CFF33DC
:100430001880064B04340235E4B29D42D7D1300017
:1004400003F06AF8F8BDC046A4010010A402001031
:1004500010B502F057F96E22054B3C201A70054B7F
:10046000163A1A7002F0B6FA0122034B1A7010BD48
:10047000180100101C0100106C2C0010F8B5FFF7DB
:10048000E7FF04F0A1FA04F00DFEFFF7ABFFFFF762
:100490005FFF124B124F1D78124B1C78002319007E
:1004A000A94214DA0022A24206DA0F48FE18B65C0E
:1004B000181886540132F6E701311B19F0E70020C5
:1004C00002F046FA002802D0022003F037F802F0CA
:1004D000A7F80028F3D10120F8BDC0461C01001088
:1004E000A403001018010010862C001010B502485B
:1004F00001F084FC10BDC0467429001010B5010045
:10050000014800F059FD10BD242A001010B5FF214C
:10051000024800F051FDC0B210BDC046242A0010B0
:10052000F8B543B204000D00002B07DA0021772054
:10053000FFF7F6FF012831D87F231C40A02688232F
:1005400080279B013606F750FFF7E0FF8A239B01C7
:10055000F750FFF7DBFF2000FFF7D0FF280EFFF773
:10056000CDFF280CC0B2FFF7C9FF280AC0B2FFF7C1
:10057000C5FFE8B2FFF7C2FF9520402C03D09438A6
:10058000482C00D18630FFF7B9FF0A24FFF7BEFFE1
:10059000030603D5013CE4B2002CF7D1F8BDFFFF00
:1005A00073B58823A02480223F4D9B012406E2508E
:1005B00028003E4900F0F6FC28000022082100F047
:1005C000E5FC842364259B01E358013DEDB2FFF770
:1005D0009DFF002DF9D129004020FFF7A1FF040065
:1005E00001284BD1D52148204900FFF799FF012868
:1005F00015D1FFF78BFF01AC28550135042DF8D13B
:10060000A378012B3AD1E378AA2B37D1284D80214A
:10061000E920C905FFF784FF011E11D115E029006B
:10062000E920FFF77DFF4126012801D80224E926B1
:10063000204D00213000FFF773FF002820D116E085
:10064000013DADB2002D19D0E1E77A20FFF768FF38
:10065000002813D10500FFF759FF60550135042D1F
:10066000F9D123780C245B060FD42C000DE08021F7
:1006700050208900FFF754FF002806D0002404E032
:10068000013DADB2002DF9D0D3E70B4BA0221C7079
:10069000882380219B011206D150FFF737FF60426B
:1006A0006041C0B276BDC046242A0010801A060000
:1006B000E02E0000A861000075290010F8B51D00AB
:1006C000244B07001B7816001B0700D44902512059
:1006D000FFF726FF002801D0012431E01E4CFFF770
:1006E00015FFFF2804D1013CA4B2002CF7D1F3E799
:1006F000FE28F1D1194C641BA41BA4B2002E07D113
:10070000002F11D0013DADB201353E007D1904E04E
:10071000013EFFF7FBFEB6B2F0E7FFF7F7FE3070E1
:100720000136B542F9D105E0013DADB2FFF7EEFE6D
:10073000002DF9D1013CA4B2FFF7E8FE002CF9D15D
:100740008823A02280219B011206D150FFF7DEFEF4
:100750002000F8BD7529001030750000020200006D
:10076000064B1A68831ED168002002398B4203D2DF
:1007700050784343906918187047C0467829001094
:100780000F4B10B51A68002303808368040018001B
:10079000012B13D0D16801208B420FD2002B03D143
:1007A0001178032900D15369E360002B03D01800AE
:1007B000FFF7D6FF00E050692061002010BDC04661
:1007C00078290010F0B5040085B0012854D92C4BCD
:1007D0001D68EB6898424FD22E78022E32D0032E3D
:1007E00038D0012E48D181B24B08C91889B24B0AC2
:1007F0000193244BCA05D20D296903AF9A4204D054
:10080000019B3800591802230EE0019B380059184B
:100810003300FFF753FF021E2ED12969019B0131DE
:10082000C918330002A80530FFF748FF002823D17C
:100830007B7838781B0203431811E2071DD4180592
:10084000000D1AE02B69C2B2010AC918520003ADAB
:10085000330007E07F22042329690240C409920083
:10086000611803AD2800FFF729FF002804D168783C
:100870002B780002184300E0012005B0F0BDC0460F
:1008800078290010FF01000070B5048805000134CC
:10089000A4B2002C01D1032322E00369002BFAD07B
:1008A00022071BD101330F4A0361C0681668002874
:1008B00003D1B388A342EED910E073782209013B3B
:1008C0001A420BD1FFF77EFF0123984208D9F36843
:1008D0009842E0D2E860FFF743FF286100232C80B4
:1008E000180070BD78290010F7B504000D002B78B2
:1008F000202B01D10135FAE72F3B5A425341002703
:10090000ED18A7602B78202B01D901972EE020004D
:10091000FFF736FF404B06001B689B681F7078E0AE
:10092000009B1B78002B68D00822009BDB7A1340C9
:100930005BD162680099581CC95CD35C994254D160
:1009400003000B28F6D1D37A002B62D13B6898685C
:10095000C37ADB0656D5437D017D1B020B43C27E65
:100960001904837E120213430B43A36060680200E4
:1009700003000B32934203D100220821130013E03D
:10098000202119700133F5E72F2B12D02E2B3BD0ED
:1009900091420ED91F00613F192F01D8203BDBB2D5
:1009A000571C8354FAB233005E1CEB5CF6B2202B6A
:1009B000EAD8AD192026019A9E425241C272200007
:1009C000FFF7DEFE061E16D1134F3B689B680093AF
:1009D0000F23228821691A40520111330098FFF732
:1009E0006DFE00289CD0012613E02000FFF74CFF8D
:1009F0000028EDD00600032E0BD163680326DB7AB6
:100A0000002B06D1042604E00829D2D10A000331C4
:100A1000C9E73000FEBDC0467829001070B5164BFE
:100A200001001C6890B00620002C23D00023A37086
:100A30006B4608ADA56003A80493FFF755FF002897
:100A400018D12B780330002B14D01023EE7A1E40DF
:100A500010D16B7D297D1B02EA7E0B431904AB7E0E
:100A6000120213430B4363620F9B30002362012386
:100A7000E661A37010B070BD782900102F4BF7B558
:100A80001C68002307000D000192138006209C4281
:100A900053D0A3780138DB074FD5236AE2699B1A4C
:100AA0008B4200D29DB20097002D45D0E669F30538
:100AB0001BD1700A617804F00BFC00290BD1002EC9
:100AC00001D1606A02E0A06AFFF77CFE01282FD9FD
:100AD0000023A062E370A06AFFF742FE002827D03F
:100AE000E3785A1C1818E270E062E3692E1CDA05FC
:100AF0008023D20D9B009B1A9BB29D4200D91E1CE5
:100B0000B6B2381E00D000983300E16AFFF7D6FD78
:100B100000280DD1E369AD1B9B19E361009BADB2C9
:100B20009B190093019B1B88F618019B1E80BBE755
:100B300000230120A37000E02800FEBD78290010EA
:100B4000294BF7B51C680623002C4AD0A278013B3C
:100B5000D20746D5256A854200D905000022E369FF
:100B6000E261954238D066787602002B12D03100CF
:100B7000681E5F1E04F026FB31000190380004F06F
:100B800021FB019B834205D373423B40E361ED1A95
:100B9000A06A01E0606AA062B5420CD9FFF712FEBC
:100BA00001281BD9E368984218D2E369A0629B1917
:100BB000E361AD1BF0E7E3695B19E361FFF7D0FD8B
:100BC00000280BD06B0ADAB2ED0501D1E27003E028
:100BD0000132C318E270E362002302E00023A37035
:100BE00001331800FEBDC0467829001030B5154B02
:100BF00004001B688DB00620002B20D004AD9D6042
:100C000001AB63602000FFF76FFE002815D12B7841
:100C1000002B0FD0EB7ADB0601D404200FE06B7DB4
:100C2000297D1B020B43EA7E1904AB7E120213439B
:100C30000B43A3602000FFF7A3FD0328EDD00DB008
:100C400030BDC0467829001010B513000A0001001D
:100C5000014800F031F810BDF06C000000B589B01B
:100C600072B6124902A800F070F8029B019301339A
:100C700004D124220E490F48FFF7E6FF059B039A93
:100C800096201A60019200F098FA029B01930133BA
:100C900004D1242206490748FFF7D6FF039A069B92
:100CA00096201A60019200F088FADEE738230200ED
:100CB000216D0000706D00000FB4012010B504F02C
:100CC000EDF8FFFF036870B504000D00013304D197
:100CD000242206490648FFF7B7FF6368002D01D0BC
:100CE000E26800E02269136070BDC046216D00001B
:100CF000706D000070B50D000400160000F078FB68
:100D00006B1C07D00021200000F09AFB310020006E
:100D100000F090FB70BD10B50122FFF7EBFF10BD96
:100D200070B50D000400160000F062FB6B1C0BD0C8
:100D300031002000FFF7C6FF0121200000F080FBFA
:100D40000021200000F076FB70BD10B50022FFF7F7
:100D5000E7FF10BD10B50400034B083303601C30DF
:100D600000F048FC200010BD886D000010B50400A4
:100D7000FFF7F0FF200000F0EDFA200010BDFFFFAC
:100D800070B5050004000E4B0E00083308C528009E
:100D90001822002104F0D2F8002320003100E36182
:100DA00023626363A363E364064A23001C3000F0FC
:100DB000BFFB28003100FFF7AEFF200070BDC0462A
:100DC000886D0000230E000003000A0010B51C30DF
:100DD0000121002A04D01A6200225A630132110054
:100DE00000F01CFC10BD030010B50A001C300029E7
:100DF00003D000229963DA640132022100F00EFC74
:100E000010BD436910B50100002B04D10368002B0D
:100E100006D0984704E00068002801D004319847C4
:100E200010BD10B5012903D0022904D1383000E0EB
:100E30002030FFF7E6FF10BD10B50400431C12D0B0
:100E40000B685A1C0CD09C4208D12000896800F025
:100E50000BFC0021200000F023FC04E00C31EFE744
:100E60000148FFF729FF10BD986D000010B5030081
:100E700088420AD00B00421C07D003004A1C04D051
:100E80000348FFF719FF01235B42180010BDC0465D
:100E9000A96D00000B685A1C05D0834201D1486837
:100EA00002E00C31F6E718007047FFFF10B50400B0
:100EB000431C07D0FFF7EEFF0400431C02D1024899
:100EC000FFF7FAFE200010BDBA6D000010B501203A
:100ED00003F0E4FF074A13681818EFF3088188420B
:100EE00005D30C220120044B40421A6001E010603F
:100EF0001800704704010010E873001010B50028B6
:100F000001D0FFF7ABFEFEE7704710B5040000F01C
:100F100021FA200010BDFFFF73B504000E48002524
:100F2000083020600820E0600C48261D60610698AB
:100F30006560257225610090300000F0E9FC2B000F
:100F400030002269E16800F063FD3000616900F063
:100F500095FD200076BDC046F86D000040420F00B0
:100F600070B5094D04002B6883420BD0061D026941
:100F7000C1680023300000F04BFD6169300000F0D3
:100F80007DFD2C6070BDC0467C29001002610022EE
:100F900010B5034BC1601A60FFF7E2FF10BDC046F9
:100FA0007C290010002210B5024B41611A60FFF746
:100FB000D7FF10BD7C29001070B50D000400FFF7AD
:100FC000CFFF2900201D00F09DFD70BD10B504006D
:100FD00043684269991800F0BFF8E36A002B04D116
:100FE000A369002B07D0984705E0A069002802D02C
:100FF00021001C31984710BD10B5040000F0B4F872
:101000000023A361E36210BD10B50400044B083354
:101010000360FFF7F1FF200000F0ACF8200010BDE6
:101020000C6E000010B50400FFF7EEFF200000F08A
:1010300091F9200010BD70B50D00040000F094F887
:101040006561206900F068F82918200000F084F834
:1010500070BD70B504000D0003681B689847636895
:101060001D6070BD036870B5DB6804009847636855
:101070005A682368002A02D19B68984713E05B688E
:101080001568984763682D1A5A68002D07DC916827
:1010900059601B68002BEAD050689847E7E723683F
:1010A00010681B69984770BD70B50D0072B64B6033
:1010B000002346680A607468002C05D02168511A24
:1010C00002D42300A468F7E7002B05D103687560FC
:1010D0001B691000984700E09D60AC6062B670BD6F
:1010E00010B572B6426853688B420CD19B6853604E
:1010F0000268002B02D1936898470BE012691868C8
:10110000904707E01300002B04D09A689142F9D170
:101110008A689A6062B610BD10B503685B6898472C
:1011200010BD10B503689B68984710BD084B10B5FB
:1011300008330360002343608360C360040000F051
:1011400025F804492061FFF784FF200010BDC04648
:10115000206E00002311000010B50A000300011DDD
:101160000069FFF7A1FF10BD10B5011D0069FFF771
:10117000B7FF10BD10B50400034B08330360FFF741
:10118000F3FF200010BDC046206E000000487047ED
:10119000486E000010B50248FFF764FF10BDC0465E
:1011A000486E000070B5040000F0E8FC050000F097
:1011B000E5FC401BA042FAD370BDFA2310B59B009A
:1011C0005843FFF7EFFF10BD70B50A4CA568A36840
:1011D0002A00002B0AD180225E5952059A18043346
:1011E0001660C02BF7D180225205A260103080001B
:1011F000815070BD00ED00E07FB580203F49400286
:10120000CA6F8E240243CA672322002020253C4B4C
:101210003C499A60223A0A603B49A4000A6018627D
:1012200019593A4A114001910199A943C8250191E0
:1012300001992D02294319510090354800998142A6
:1012400004D8C046009901310091F7E70121002040
:1012500019645964586459645C6C29480C42FBD089
:101260008E218026C825890044582D0214400394FD
:10127000039C34430394039C2C43445023248460F4
:10128000445822400292029CB4430294029A2A4398
:1012900042500120DC681A4901220442FAD003209E
:1012A000086700204A67486710004A675C6F144A65
:1012B00001210442FAD08E20916780001558154C08
:1012C0002C4014501558144C2C401450002091649C
:1012D000D164D064D164DA6C0A42FCD02321084A7C
:1012E0001161012259691142FCD000220B4B1A6096
:1012F0001A600B4B01321A607FBDC0460480044067
:1013000000800440F0400440F4400440FF25000009
:10131000C3090000FFFBFFFFFFFEFFFFC08004408A
:10132000C88004407047704770477047704700237B
:1013300010B5934203D21C585C500433F9E710BD3A
:1013400000231A008B4202D21A500433FAE7704786
:101350000020704710B503F0E7FD10BD10B5040084
:10136000431C04D11E2217491748FFF76DFC174B89
:101370001A68002A06D101321A60154A1549D36F3E
:101380000B43D3670122002C12D0134B9C420FD089
:10139000124B9C420CD0124B9C4209D0114B9C42E8
:1013A00006D0114B9C4203D0104BE1184A424A41EF
:1013B0002000110000F058F90120A404E40EA04020
:1013C00010BDC046506E0000756D000088290010E9
:1013D0000480044040000100281400002C16000086
:1013E00030180000341A0000381C0000C4E1FFFF70
:1013F00070B505000C0029604B1C11D00800FFF7E8
:10140000ADFF2414074BA400E318EB60064B6860A3
:10141000E3182B61054BE3186B61054BE418AC60D6
:1014200070BDC046002200A0802200A0002100A0C4
:10143000002000A010B5006800F032F910BDFFFFD9
:10144000036870B504000D00013304D1432209493B
:101450000948FFF7F9FB002D06D0012D09D1A2683C
:10146000636811680B4303E0A268616813688B43EB
:10147000136070BD506E0000706D0000F7B5012163
:101480000D008540134C636A2B4221D0124B86001D
:10149000F058019300281BD023682B4218D16368B1
:1014A0002B4206D0E3692B4203D00C4B1B689847B4
:1014B000E5612369074F2B4209D03B6A2B4206D0D6
:1014C000064B019A1B680221905998473D6265625C
:1014D000F7BDC046004000A0902900108C290010E4
:1014E00010B50020FFF7CAFF10BD10B50120FFF7AF
:1014F000C5FF10BD10B50220FFF7C0FF10BD10B52D
:101500000320FFF7BBFF10BD10B50420FFF7B6FFA7
:1015100010BD10B50520FFF7B1FF10BD10B50620B6
:10152000FFF7ACFF10BD10B50720FFF7A7FF10BDF8
:10153000F7B505002748814202DD0120404248E01E
:101540002548264C02600020820016590096002E85
:101550003BD11351224C2860E36F224F224E3B4374
:10156000E3671F248B0349120C401821A446040092
:101570009B0F59435E346144A400A1518121012491
:10158000890071589B000F00210081400F433900F2
:101590008127BF00F151A021802609065B18B60102
:1015A00099592700019161468F40019940B2B94392
:1015B00099510E4BD158FFF707FE1F222B68009858
:1015C00013409C400A4B1C6003E001300828BBD14B
:1015D000B3E7FEBD131102008C2900109029001002
:1015E0000480044080000900008004409C6E0000DC
:1015F00000E100E000210368064A9B0010B5995005
:10160000012281210068044C824089006358934381
:10161000635010BD90290010008004400368012031
:10162000984070B50F4C2368034200D16062C543F7
:1016300026680C4B2E402660012909D1002A03D0D0
:101640005A68104358600CE05A6815405D6008E025
:10165000002A03D01A691043186102E01A69154084
:101660001D6170BD004000A070B504000D00431C5A
:1016700004D1152207490848FFF7E6FA074BE405AD
:10168000E40DE418072322681D409A4315432560A2
:1016900070BDC046BC6E0000756D00000040044087
:1016A00070B504000D00431C05D11D220F491048E0
:1016B000FFF7CAFA06E081231B01984214D00D4BB4
:1016C000984211D00C4BE405E40DE4182368042D76
:1016D00004D18022D2001343236005E01822ED00DC
:1016E000934315401D43256070BDC046BC6E00008D
:1016F000756D0000140A00000040044070B50C1C19
:1017000005000021201C03F023FF002809D1FE2141
:10171000201C890503F030FF002803D0FE24A40517
:1017200000E0002480232D689B00E85804F0C0FDF1
:10173000211C04F0B9FA03F05FFF81239B00E850FD
:1017400070BD8023F7B5812704689B00E258BF0075
:10175000E059E15001920D0004F0AAFD061C019829
:1017600004F0A6FD011C301C04F0D4F8061C28006F
:1017700004F056FD011C301C04F096FA03F03CFF07
:10178000E051F7BDF7B50F00060050493800FFF7EC
:101790008DFBC3B20500FF2B02D14D48FFF78CFA39
:1017A0004C4B01211A78019310000840031E04D00D
:1017B0000A410B000A4200D081E001242100994037
:1017C000019A4548127873600A4301990A70434AA6
:1017D00099008A5809333260C26F110080221206C4
:1017E0001143C1672000984003003D4A3800526809
:1017F000364913433A4A5360FFF71EFB3768394AAC
:101800003B68394913430C223B607B6813437B6080
:101810007A68364B13407B607B680193344B1868C1
:1018200003F0D0FCFE2301381B0140011840019B4E
:1018300018437860E8B207281DD803F0B9FC040A01
:101840001016040A1016A023DB00FC500222294BBC
:1018500010E0A123DB00FC500222274B0AE0A22368
:10186000DB00FC500222254B04E0A3230222DB0014
:10187000FC50234BFA508022C12352019B00FA50A6
:101880000123C0225B4292001E49BB500C32B9506A
:10189000043ABB5080231C499B00F950FB58053A81
:1018A0009B08FF3ABB5004227B68300093437B6067
:1018B000FFF747FF30000021FFF720FFF7BD134877
:1018C000FFF7FAF901235B4277E7C046046F000097
:1018D000706F0000B0290010048004409C6F00006D
:1018E000008004400100060040420F001FF0FFFF8F
:1018F00008010010040500000C050000140500009C
:101900001C05000001100000204E00008A6F00003E
:10191000F0B5334E87B00091040031000098019279
:101920000293FFF7C3FA2F4D070029000198FFF734
:10193000BDFA2D4903900298FFF7B8FA2B4904909D
:101940000C98FFF7B3FA039905903800FFF78EFA69
:10195000059907000498FFF789FA01003800FFF79E
:1019600085FA2060431C04D1482221492148FFF711
:101970006BF92368204A93420FD0204A934219D131
:1019800080201F49C002CB6F1E4A0343CB67012151
:101990001D4B1960536803310AE08020184900018B
:1019A000CB6F184A0343CB670121184B196053686A
:1019B0000B43536031000098FFF73EFA290001986D
:1019C000FFF73AFA08490298FFF736FA0C9B013301
:1019D00003D006490C98FFF72FFA07B0F0BDC046B8
:1019E000EC700000A46F0000E06F000028710000A0
:1019F0002870000071700000000004400080054065
:101A000004800440008004409C8004409480044092
:101A1000F8B50E000221140002681D00536807008B
:101A20008B435360331F0C2B06D9032C04D965223A
:101A300010491148FFF708F98023E0010340013EF7
:101A40001E43A30734003968DB0F0A689B01120CA0
:101A500012041C4314430D220C604B6893436A1E0E
:101A600095410222AD001D434D604B6813434B600E
:101A7000F8BDC0462870000085700000F7B502244C
:101A800005000E0002685368A34353601A4B1B689D
:101A900001932100019803F095FB04F0C1FB071CA2
:101AA000300004F0BDFB011C381C03F033FFFC21A7
:101AB000890503F0B9FD05F0A9F803F053F905F025
:101AC0006FF8FF280FDC2B680C4A1C61196801387D
:101AD0000A4002211A601A680002104318605A680E
:101AE0000A435A6007E0802302345B009C42D0D155
:101AF0000348FFF7E1F8F7BD08010010FF0000FF01
:101B0000C370000002220368D8681042FCD004228F
:101B10009960D9681142FCD098687047104B70B535
:101B20001A68002A1AD1012580210E4A1D60D36F40
:101B3000C9000B43D3670C4B0C4C186802230C49AB
:101B4000636003F03FFB0138E0600A4965601320E1
:101B5000FFF73AFB8022084B12031A6070BDC046A3
:101B6000B4290010048004400801001000800140E6
:101B700040420F009511000000E100E0044B10B559
:101B80001B68002B01D1FFF7C9FF024B986810BDFD
:101B9000B4290010008001400121034B98615A696B
:101BA0000A435A617047C046008001400121024A41
:101BB00053698B4353617047008001400122014B00
:101BC0001A60704700800140704770477047704747
:101BD000FF22014B1A707047BA29001010B502F0AD
:101BE000E3F810BD0D4B30B51A8800239A4213D18B
:101BF000FF250B4C0B4AE15C002902D0D15C01317E
:101C000004E0D05C002804D0FF2801D1D15400E0CA
:101C1000D5540133072BEED130BDC046CC2900107E
:101C2000BC500010BD290010034B185C0138434222
:101C30005841C0B27047C046BD290010002210B5FF
:101C40001D4B19781A701D4A5078002801D00120C8
:101C50001870D078002803D0022418782043187018
:101C60001078002803D00424187820431870907846
:101C7000002803D008241878204318701079002811
:101C800003D010241878204318705079002803D00E
:101C900020241878204318709279002A03D040201D
:101CA0001A7802431A701B78054A180008409943B5
:101CB000044B1070197010BDBC290010BC500010EE
:101CC000C5290010C4290010014B18797047C0467F
:101CD000BC500010014B58787047C046BC500010F3
:101CE000014BD8787047C046BC5000100023094A09
:101CF0001380094A1370094A1370094A13700122AC
:101D0000084B52421A80084A084B1A600922084BB5
:101D10001A707047CC290010CB290010D42900106C
:101D2000C6290010C8290010307B0000D0290010FF
:101D3000CA29001010B50248FFF7D8FF10BDC046F1
:101D4000C729001037B572B600210422244B802524
:101D500059601961234BED001A608E22224B9200CC
:101D60009C582C4380259C509C586D002C439C50C3
:101D700001225A671400596719004B6F1A4D01224E
:101D80002340FAD114002B676A676B674B6F164AC2
:101D90002340FBD18E245364516CA40093601367DD
:101DA0005360155911492940802501910199294312
:101DB000C825019101992D0229431151A0228421A6
:101DC0001206890153500A4953500A4953500A4B8D
:101DD0009860001C01688D464068804737BDC0464A
:101DE000004000A010E000E000800440FF2500005B
:101DF000042100000821000000ED00E07047FFFF13
:101E0000F0B5C1B00E0000F051FE00F05BFE802383
:101E1000DB029B1B0400984200D91C0000F03CFE32
:101E20008027134801F0F2FA00257F00A5421CD25A
:101E300080216846490000F013FEFF2804D8631B88
:101E4000BB4201D90B4806E0A819694602F0EEFC36
:101E5000002804D0084801F0D9FA012006E0013535
:101E60000648FF3501F0C6FAE0E7002041B0F0BDBA
:101E70009A7C0000A67C0000C17C0000137D00005D
:101E8000F7B501260024514B514D1E70514B1C805B
:101E9000FC23DB002B8000F037FE2100200000F047
:101EA00051FE300001F0FAF90094019406F0C3FCF1
:101EB0000421494800F0AEFDA0420FD100F0F6FD2C
:101EC0000820404200F0D4FD0421684600F0C8FD1F
:101ED000042101A800F0C4FD00F0DEFD01273F4E03
:101EE0007F423F4C2368B34200D03E4C2368B3424C
:101EF00000D03D4C2368B34200D03C4C2368B34231
:101F000017D020233A485B422B8001F07FFA009BD8
:101F1000002B03D0374B019A9A4240D8364801F043
:101F200075FA364801F072FAFC23DB002B80344846
:101F300020E0344B34482B8001F05CFA0A216068C1
:101F40002F8001F0DAFA6368009A934227D3A068E1
:101F5000FFF7F8FE17E0FFF7C3FE002834D1FFF7C4
:101F6000B9FE0028F7D001990098FFF749FF002833
:101F700026D0264801F04AFA05E0FFF75FFEFFF79A
:101F8000A3FE002804D1FFF79FFE0028F5D01BE038
:101F9000FFF79AFE002817D0FFF750FEF8E71C4B1A
:101FA0001C482B8001F026FA00980A212F8001F0AE
:101FB000A4FAFC231848DB002B8001F027FACEE7B7
:101FC000164801F023FA8CE7F7BDC0461601001051
:101FD0000E010010842C0010877D00001EAB07B09E
:101FE000F4FF030004FF030004FE030004F00300F9
:101FF0008F7D0000FF7F0300A37D0000206D0000A7
:10200000BA7D0000FF070000D57D0000DF7D0000E5
:102010001FF8FFFF057E0000197E0000FB7D000019
:10202000F8B50024012001F039F9454BFC271C804C
:1020300000F06AFD434D444B44482B8001F0CEF83C
:102040000123434E30213370424BFF001C70424B42
:1020500060201C702F8001F0DFF9404801F0CAF9C0
:102060003821602001F0D8F93D4801F0C3F9402142
:10207000602001F0D1F93B4801F0BCF94821602013
:1020800001F0CAF9384801F0B5F96021282001F0C3
:10209000C3F9364801F0AEF9013C35482C8001F017
:1020A000A9F934482F8001F0A5F902232C80337060
:1020B00002F08AFC043485B2FFF7C0FD7821682065
:1020C00001F0AAF90A21200001F0FAF902F07CFCE3
:1020D000FA239B00EB18984203D902F075FC013CEF
:1020E00085B201F0D9FE002808D001F0D5FE041E0B
:1020F00002D0FFF7A3FDF8E7FFF7C2FE01F0C0FE34
:10210000002807D001F0BCFE002802D0FFF796FDA2
:10211000F8E7040001F0BAFE002802D1002CCBD170
:1021200006E001F0B3FE002802D0FFF787FDF8E7D4
:102130000123337000F0E8FC002001F0AFF8F8BD97
:10214000842C00100E01001000F8FFFFCC77000077
:102150001601001017010010100100103E7E000053
:10216000437E0000487E00004D7E0000527E00004D
:10217000587E00005C7E0000F0B5714C1E00238884
:102180008BB005000F0004920993002E06D00020AA
:10219000322300901A00010000F0C8FCFC23DB0091
:1021A0002380002E16D001F071F80400012001F008
:1021B00075F801F087FD390002001439681EC9B2B4
:1021C000C0B20A2301F080F95E4801F013F9200043
:1021D00001F064F8049B0B2B02DC5B4A584B1A801D
:1021E0003BB203930123594C009328B22200039978
:1021F00000F0B2FC049B172B02DC534B504A1380B7
:10220000ABB21D00012608352DB205932200330024
:1022100003992800009600F09FFCBBB20693043B94
:102220001BB207930096330022000799280000F0A4
:1022300093FC049B2F2B01DD454B00E0424B012416
:10224000059D424E3E4A10352DB21380039923005E
:1022500032002800009400F07FFC23003200079930
:102260002800009400F078FC069B0094083B1BB209
:102270000893320023000899280000F06DFC049BAD
:102280005F2B02DC304A2E4B1A800124059D2F4F14
:1022900018352DB223003A0003992800009400F06D
:1022A0005BFC23003A0007992800009400F054FCDE
:1022B00023003A0008992800009400F04DFC069E87
:1022C00023000C3E36B200943A003100280000F0A2
:1022D00043FC049B9F2B02DC1B4A194B1A800125EF
:1022E000059C1A4F203424B22B003A000399200099
:1022F000009500F031FC2B003A0007992000009572
:1023000000F02AFC2B003A0008992000009500F00C
:1023100023FC2B003A0031002000009500F01CFC4B
:1023200006992B0010393A0009B20095200000F000
:1023300013FC6A46024B928C1A800BB0F0BDC0466B
:102340000E010010EB7E00008A520000A8840000FD
:1023500000F8FFFFF7B500250126012000F09EFFE1
:102360008A4B20201D7001F07DFC01F0ABFC03F0D6
:102370009FFF874B041C1D703500864B1B78002B7C
:1023800000D101E1002D00D1FEE0012D00D095E04B
:10239000814D002E36D0012700F0B6FB7F42102180
:1023A00020202F8000F0CEFB7C4801F023F89921FB
:1023B000282000F0C7FB7A4801F01CF8FC2379487C
:1023C000DB002B8001F016F877482F8001F012F81F
:1023D000FC235821DB0000202B8000F0B3FB734866
:1023E00001F014F8724F380001F010F8380001F0D5
:1023F0000DF8380001F00AF8380001F007F86D48D0
:1024000001F004F89921302000F09CFB01F05AFC07
:10241000252802DC01235B4200E0674B2B8002236E
:10242000664A00933021013BA42000F095FB362141
:10243000182000F087FB624800F0DCFF42211820E2
:1024400000F080FB01F03EFC282801DD5D4800E043
:102450005D48FC2700F0CEFF0223FF005B4A2F807F
:1024600060210093A420013B00F076FB6621182038
:1024700000F068FB564800F0BDFF7221182000F004
:1024800061FB01F01FFC252802DD4B4B2B8000E097
:102490002F8001F017FC0A2101F012F84D4800F0DE
:1024A000A9FFFC23DB002B8001F00CFC00230200C1
:1024B00076217020FFF760FE02255EE7022D00D036
:1024C00060E7FFF7BBFB01F0DBFC002808D001F060
:1024D000D7FC002801D105004FE7FFF7AFFBF6E777
:1024E00001F0E6FC00282CD08421201CC90503F053
:1024F0004DF8002807D03849201C03F029F800289F
:1025000008D0364909E08421201CC90503F03EF8B3
:10251000002801D0324900E03249201C03F084F841
:102520003149041C03F028F8002802D0FF2001F0F4
:1025300099FB2E49201C03F01FF800281BD02B4CC0
:1025400019E001F0AFFC002800D116E72449201C57
:1025500003F0BEFC8421C905041C03F003F8002825
:1025600002D0202001F07EFB0021201C02F0F0FFB1
:10257000002800D00024201C03F030FE00B201F03F
:1025800053FB00260125F8E6F7BDC04617010010F1
:10259000DF290010DD2900100E010010677E000009
:1025A000807D00007B7E00007D7E0000887E000034
:1025B000A37E0000BE7E000000F8FFFF64840000E0
:1025C0003B7D0000D97E0000E37E00008684000091
:1025D000EE7E0000EB7E000000000442CDCC4C3CBF
:1025E0000000A03F000020400000504200007F4358
:1025F000012210B5084B00201A7000F04FFE07486A
:1026000000F0ECFD02F0D0F902F0E6F901F0CCFBAD
:1026100002F0E0F910BDC046DD2900106471000031
:10262000014B18787047C046DD290010F7B500242B
:10263000FC2725005826FF00292D48D802F0C4F9B0
:10264000234B1A689042F7D91E301860012D0BD029
:10265000002D02D0022D22D035E01E4B28001D8017
:1026600000F060FA01252EE0FC21E2B2C900002052
:1026700000F0CCFF184B194A18806E23517810785F
:10268000490840081C34181A711A00952B00A4B28E
:1026900000F062FAFE2C16D90024022513E00E4B3E
:1026A0000E4A1F806E23107851784008181A490886
:1026B0006D3B0093711A00F04FFA3F34084BA4B2FF
:1026C0009C4200D9FF25FFF7FFFA0028B4D0F7BDE0
:1026D000D0730010842C00100E0100105A7F0000EF
:1026E000FF03000010B5202001F0BCFA1022034BBC
:1026F0001A80034BEF321A7010BDC046124F001003
:10270000DC290010F8B5FFF773FF10220124FF2524
:102710002B4B1A702B4B1C602B4B1D70FFF7E2FFED
:10272000FFF752FA28000025FFF74FFAFFF756FA95
:10273000FFF758FAFFF74BFA00F0FFF9FFF776FFC3
:10274000200000F0ABFD214F3D8000F0DDF9204E70
:10275000300000F043FD200000F0A0FDFC221D4BE6
:10276000D2001A803D8000F0CFF9300000F036FD35
:10277000194F1A4E3D703470FFF752FCFFF7EAFD17
:1027800001F084FA280000F089FD154B15481C70F3
:10279000154B3C701C70347000F020FD00F0AEFF53
:1027A000FFF716FA0520FFF73FFAA84203D10F4BB7
:1027B0001B78AB4202D1002001F036FAF8BDC046CA
:1027C000DE290010E4290010DC290010842C001000
:1027D000CC7700000E01001017010010100100104E
:1027E000160100106874000012010010BA290010D0
:1027F000F8B5274D274C0023EE5E0023E75E264BFD
:1028000000211A786F239B1A2B80244B21801B7880
:10281000042B2FD8180002F0CBFC031B2525250024
:1028200001F0A9F80020FFF7D0F900F081FB0122A8
:102830001B4B1C481A7000F0DDFD1B4B0A21188849
:1028400000F03EFE194800F0D5FD00F0A3FB18E0B3
:10285000174B00211A680F2307201340072B0ED9AE
:1028600078200CE0134A1278002A0AD00533D8B237
:10287000002104E00F4B1B78002B02D02F2000F02A
:102880001BFEFF231E401F402E802780F8BDC04640
:102890007C2C0010822C0010752C0010BA2900101E
:1028A00016010010F97E0000B8290010067F000014
:1028B000D8290010BB290010F0B51F4B85B01A783D
:1028C0000393002A36D000240B2A02D80C239C1A2A
:1028D000E4B20127194B002055251F7000F0E0FBE2
:1028E0000322174EA4B231780020CB1C691A61185C
:1028F0000092513200F04EFC380000F0D1FB032270
:1029000031780020CB1C691A61180092513200F016
:1029100007FC04220B4B1A803378E41A0A4B573415
:102920001C800A4B186800F065FD039B039A1B7816
:10293000013B137005B0F0BDF02900101601001026
:10294000742C00107C2C0010822C0010E829001040
:10295000F8B5070000F088FE1A4D2C6802F034F834
:10296000194E201A3378194C984202D92368002B4B
:1029700014D12368002B0FD100F0F8FF01F05AF8B2
:1029800001F04CF9FFF798FFFFF732FF002F01D15C
:1029900000F000FB01232360002011E002F014F896
:1029A0000B4A33781818136828600133136000232A
:1029B0002360FFF70BF9FFF715F9FFF709F901207D
:1029C000F8BDC046EC290010DE290010E4290010F3
:1029D000D829001010B501000400FA20800002F090
:1029E0007BFC064B14211870200002F0EBFBC0B2F8
:1029F000002800D10130024B187010BDDE290010F4
:102A0000EB4E001010B5024800F0FAFB10BDC046B6
:102A1000E029001070B50F4D06002B780C00102B2C
:102A20000BD030002C70FDF7F9FF041E0DD13100E2
:102A3000094802F0B3FB20000AE0084805F03AFE1E
:102A400003000120002BECD002E0082301202B70B2
:102A500070BDC0460C0100103C2A0010F429001083
:102A600013B56B469C1D2200FEF708F8208816BDA2
:102A700010B5074B002804DADA6941428A4200D2D5
:102A80005042DB69C018FEF75BF8024B187010BDAE
:102A9000F42900104B2A001010B50020FEF750F862
:102AA000014B187010BDC0464B2A0010034B10B5E7
:102AB000186AFEF745F8024B187010BDF429001093
:102AC0004B2A0010014BD8697047C046F42900100A
:102AD0000123812213B5074C5B4200935201064B40
:102AE00006492000FEF718FA054A06492000FEF7BD
:102AF0002FFC13BD242A0010180C00002412000023
:102B000000010010090F000010B5002001F0A8FA24
:102B10000023024A1380024A138010BD7C2C00104F
:102B2000822C001010B501F09BFA10BD13B504AC57
:102B30002488009401F034FC13BD10B501F0F2FAC2
:102B400010BDFFFF024B1880024B19807047C04632
:102B50007C2C0010822C0010F0B58FB00B9114A9C2
:102B600009780A90089111780591517802320991FB
:102B70000092012B76D1059B0733DB100C936B463B
:102B80001B8D07930493002303936B460C21595E1E
:102B9000059B8B4200DCF0E00723CA171A4052184D
:102BA000D21053B20A93764B0B4004D50822013B56
:102BB00052421343013380221BB21A416B469B8D54
:102BC0000D9206930293002301936B4604229B5EB1
:102BD000099A93423EDA0C9A0A995343009A521882
:102BE000D35C0D9A1A422DD0089B664C012B09D15B
:102BF000069B019903985918079B2288181809B257
:102C000000B21DE06B461027DF5F6B4608269E5F13
:102C100022883100380001F091FB049B31005D1CDB
:102C20002DB22288280001F089FB029B22885E1CBD
:102C300036B23100380001F081FB310028002288D3
:102C400001F07CFB019B01330193029B02339BB299
:102C50000293BAE7039B01330393049B02339BB2B5
:102C6000049392E7042B00D087E00023099A934253
:102C700000DB82E09BB202936B469B8D002507939D
:102C8000029B079A5B00D3189BB21AB201331BB2A6
:102C900004936B461B8D039206930193059BAB42F5
:102CA00067DD009B384A1B7812681B115B009E5A37
:102CB000089B022B19D1069B6C001C19A4B227B2E9
:102CC000013432000399380024B201F037FB32009E
:102CD0000399200001F032FB32000499200001F03A
:102CE0002DFB32000499380007E0029B079A9918DF
:102CF0006B4632000420185E09B201F01FFB0F2260
:102D0000009B1B781340204A5B0012689E5A089B68
:102D1000022B1AD1069B6C001C19A4B2A71C3FB24F
:102D2000033432000399380024B201F007FB32006B
:102D30000399200001F002FB32000499200001F009
:102D4000FDFA32000499380007E0029B079A9918AF
:102D50003200019B09B2581C00B201F0EFFA009B4F
:102D6000023501330093019B2DB202339BB20193D4
:102D700094E7029B01331BB278E70FB0F0BDC04669
:102D8000070000800E010010702C0010F0B5130039
:102D90004D4A8DB00B901068049142781100059255
:102DA000F72208390A40511E8A410599C910521864
:102DB0000992099902784A43511C4B431A00821820
:102DC0001279053352B20A920022C31803926A465E
:102DD000127B0A9952B291426BDD09991A78022945
:102DE00003D00133089393B204E0991C5B780891F7
:102DF0001B02134300936B469B89002506936B4689
:102E00009B8D0793069B079A5B00D3189BB21AB25F
:102E100001331BB201920293059BAB4244DD0122B8
:102E2000009B13420ED0294B1B78022B07D1049B29
:102E30006C00E418264EA4B227B2328811E0244B6D
:102E40001A8822E0234E244B32881B88934225D0D7
:102E50001E4B1B78022B18D1049B6C00E418A4B203
:102E600027B239000198013401F068FA24B232889F
:102E70003900029801F062FA32882100019801F0CD
:102E80005DFA32882100029806E0049B0798E91851
:102E9000069B09B2181800B201F050FA009B0135E8
:102EA0005B0800936DB2B7E7039B01330393089B64
:102EB0008DE70020094B18560A9BC018034B1B785E
:102EC00058430DB0F0BDC046782C0010160100101C
:102ED0000E010010842C00101A01001017010010C0
:102EE00010B5114B1C68F7236178080008381840AA
:102EF000431E9841CB10C3182078434301335A43F3
:102F000000230432A056834208DA0022914202DBF9
:102F1000013252B2FAE701335BB2F4E7034B1B789C
:102F20005BB2181810BDC046782C001017010010B5
:102F300010B5124B1888124BC2B21B78012B03D16B
:102F4000FF2100280AD00EE0022B07D101331A40DE
:102F50001100930019430A01114304E00F231101EA
:102F600003401943C9B2074B074A186801F0E6FF4E
:102F70000023064A1380064A138010BD762C0010E9
:102F800011010010642A0010602200007C2C001047
:102F9000822C0010064B10B51968064B186801F01A
:102FA00063FA054B1B78002B01D1FFF7C1FF10BD61
:102FB000702C0010642A00106C2C0010F7B500284B
:102FC0005AD02E4B1E78B04201DB701E00B22C4B43
:102FD0001C78042C07D12B4B1B784343DA0FD318F2
:102FE0005B109BB20AE0022C46D1264B19780323D2
:102FF0004143CA171340591889108BB2224A1288CC
:103000000192204A00281CDD1278204FD20862432A
:1030100000242500301A84422ADA5B1B9BB2290067
:103020009C4663464E1BCB18B6B29BB2964204DA5E
:10303000FB5C4E1C7B54B1B2F3E70134A4B20D002B
:10304000E9E71278114D624380B2D210B6B28642DF
:103050000ED91900CC1AA4B2944205DA4C1CA4B2C1
:103060002F5D6F542100F5E7013080B20B00EEE7D1
:103070006A46054B92881A80F7BDC0461C010010B5
:10308000110100101801001014010010862C00100E
:1030900010B5024800F0A2FA10BDC0466A7C0000DC
:1030A000014B18807047C04614010010012130B553
:1030B000002590B2091A4000404209B200B2954280
:1030C00010DA002906DB023084B2013A611812B22C
:1030D00020B209B26B1C9BB21DB25B0001335918C0
:1030E00009B2ECE730BD012130B5002590B2091AD4
:1030F0004000404209B200B2954210DA002906DBD6
:10310000023084B2013A611812B220B209B26B1CCB
:103110009BB21DB25B000133591809B2ECE730BD18
:10312000F0B585B003930AAB00255D5F1400012D57
:103130002EDD83B200938BB20193009BAEB29B193C
:103140001BB20293019B2A00F7183FB201233900FA
:103150000298FFF7ABFF009B013C1C19A41B24B293
:1031600002232A0039002000FFF7A0FF0399019BEA
:10317000013959188E1B36B204232A003100200071
:10318000FFF794FF08232A0031000298FFF78EFF13
:1031900005B0F0BDF7B51C0008AB0027DF5F012FBD
:1031A0001ADD83B2B8B241180DB2013C4100013AB8
:1031B0009A18641A1E1824B2101A00B201233A0099
:1031C0002900B6B20094FFF78EFF30B200940223BC
:1031D0003A002900FFF787FFF7BDFFFF054B064ABE
:1031E00018600378013313704378044A0133137075
:1031F0007047C046782C0010752C0010742C0010FD
:103200000E4A0F4B10B504001A60FFF741FF012270
:103210000C4B0D481A700D4BDB321A800C4B2C3ABC
:103220001A80FFF7DBFF11220A4B20001A800022D0
:10323000094B1A80094B08321A7010BD862C0010F9
:10324000642A0010812C0010647100006A2A0010AA
:103250007E2C00101A010010762C0010682A001035
:1032600010B5084B09B21B6800B29B78D21A064B06
:10327000D2B21B78002B02D0FFF788FD01E0FFF7E8
:103280002FFE10BD782C0010812C0010024B1878F6
:10329000431E9841C0B27047812C001009490A4A68
:1032A0000A4B002805D001200870DC211180B022D3
:1032B00005E00870064909781180064A12781A80DC
:1032C0007047C046812C00106A2A00107E2C001026
:1032D000180100101C01001010B50B4C0B49002305
:1032E000E25E0B4B09881B685B785800091A094895
:1032F000007840B28A4203DDC018FFF75FFE02E0AB
:10330000C3189B18238010BD822C00107E2C001047
:10331000782C00101001001070B52B4B04001A68B7
:10332000D378002B03D0602801D9203CE4B20E2CC6
:1033300021D8200001F03CFF461F1F1F1F1F1F1F29
:103340000E1F081F1F1B46000022204B1A80FFF78C
:10335000C3FF37E01D4910780B882022181A1C4B38
:1033600080B208801978C0B2FFF77AFF2AE0002205
:10337000164B1A8026E0154D12780023E85E154B97
:103380001B889B1A98420BDB00232B80124B1B7867
:10339000002B17D0FFF7A0FF0D4B2878197802E01B
:1033A0000B4BC0B219782200FFF75AFF202C06D130
:1033B0000A4B1B785BB2002B01D0401001302B88E8
:1033C0001818288070BDC046782C00107C2C001086
:1033D000822C00106A2A0010120100101701001040
:1033E00010B504002078002803D00134FFF794FFC3
:1033F000F8E710BD10B5FFF7F3FF10BD10B50D20B5
:10340000FFF78AFF0A20FFF787FF10BD10B5FFF70F
:10341000E7FFFFF7F3FF10BD024B1880024B198046
:103420007047C0467C2C0010822C00100023F0B5A1
:10343000050089B00E00984203D13020FFF76CFFE1
:103440001CE05C1C28006B4431001F0001F040FFB1
:1034500028003970310001F0B5FE2300051EF0D1BF
:103460006B46013C1B5D18003730C0B2092B01D8F8
:103470003033D8B2FFF750FF002CF1D109B0F0BDC6
:1034800010B5041E03DA2D20FFF746FF64420A211F
:103490002000FFF7CBFF10BD10B5002903D1C0B24B
:1034A000FFF73AFF07E00A2902D1FFF7E9FF02E040
:1034B000C9B2FFF7BBFF10BD10B5FFF7EDFF10BDA0
:1034C00010B5FFF7E9FF10BD10B5044C208004488B
:1034D000018019001000FFF7DFFF10BD7C2C0010E9
:1034E000822C001010B5002903D1C0B2FFF714FFE1
:1034F00002E0C9B2FFF79AFF10BD10B5FFF7F2FF67
:10350000FFF77CFF10BDFFFF10B50248FEF776FC09
:1035100010BDC046802C00108021002310B5054A44
:103520008900C45AD45202338B42FAD1024B1A603A
:1035300010BDC0466C2A0010702C0010F3B5FFB00F
:1035400000283FD0404240B241001F4A00281ADD07
:103550000D00802400236D446400D65A0130EE52E1
:103560000233A042F9D100234C428025E018AD007F
:1035700040196D46105AE85202339942F5D1802124
:103580000023890018E0FF30002384464C421719BD
:10359000634505DC68465D007E5B01334653F7E713
:1035A0000023A342EBD080256E465818AD00401989
:1035B000D55A02333552F4E76846C05AD052023326
:1035C0008B42F9D17FB0F3BD6C2A001089104901FC
:1035D000D210C0100A43C00210437047F8B58027CC
:1035E00004000025074E7F00A27861782078FFF75D
:1035F000EDFF6B000135F0520334BD42F4D1024BB4
:103600001E60F8BD6C2A0010702C001070B51F24CD
:10361000050025400C40641B23B253431B12EB18DA
:103620003F2544114E112C40C00A3540C9122D1BB4
:10363000091A55434A4312122D1280181BB26419FD
:10364000021C002800DA002212B2D202181C002B41
:1036500000DA00201043231C002C00DA00231BB2E8
:103660005B01184380B270BD70B51A4B1A4C1968D3
:1036700022681E00194D91421DD02368002B03D1F2
:103680008021174809010DE02368012B03D1802117
:103690001448090106E08021236809011248022B21
:1036A00000D01248FFF7DCF9802223681201336052
:1036B0002B689B182B600E4B0E4A1B6A9B182A68BE
:1036C000934205D200242C60FFF7E6F90A4B1C70E8
:1036D00070BDC04648530010C052001084730010E3
:1036E0007D6B00107D5300107D5B00107D6300102A
:1036F000F429001000F8FFFF2C53001010B501F062
:1037000011F8012000F030FF10BDFFFF00B5002BC5
:103710003CD104283AD801F04BFD030E242B320093
:10372000002349B2994204DB0B1C0A2900DD0A235D
:10373000DBB2174A13E0174B89001B68164ACB58B7
:10374000164813601B88164A11781A004A43D2B2F1
:1037500002701B12934200DD13004B43114A137099
:1037600014E00F4B1B7859430F4B19700F4B0CE0B3
:103770000B4B1B7859430E4B19700E4B05E0084B51
:103780001B7859430C4B19700C4B1A7000BDC04686
:10379000244F0010204F0010044F00100F4F001056
:1037A000EB4E0010EC4E0010184F0010E74E0010CA
:1037B000254F0010004F00101A4F0010E84E001067
:1037C000002A11D1094B1870094B1B785943094B3A
:1037D0001970094B09491A70094B1A8001230B70A3
:1037E00008490B70084B1A707047C046EF4E001026
:1037F000EB4E0010FD4E00100C4F0010EA4E001072
:10380000264F0010E94E0010F04E001010B50024B5
:103810000D4B1B78A34201D00C4B1C780C4B1B7832
:10382000002B0AD00B4B187802F042FD0A4902F037
:1038300071F8011C0948FDF761FF200000F0AEFEA1
:10384000074B1C8010BDC046E94E00100D4F001004
:103850007E730010144F001000007F4324530010AB
:103860008073001010B500280FD1084B1870084B5A
:103870001870084B1880084B1870084B1870084BCC
:103880001870084B1870FFF7C1FF10BDEA4E00100A
:10389000FD4E0010264F0010F04E00100D4F00108E
:1038A000104F0010E94E001010B5041E03D1FFF7B1
:1038B000D9FF014B1C7010BDE64E001070B505001D
:1038C0000C1E12D10800FFF7EFFF0122074B1D600D
:1038D000074B1C80074B1A70074B08321A70074BB6
:1038E0001C70074B1C70074B1C7070BDF84E00100D
:1038F000FE4E0010E64E0010244F0010184F00102E
:10390000254F00101A4F001010B500281FD1104A83
:103910001378002B1BD00F4B1978002917D10E4CB0
:103920000E48237800685B001B5A0D48834201D182
:1039300011700CE00B4A181210700B4ADBB21268BF
:103940009B009858FFF7BAFF23780133237010BD0E
:10395000F44E0010E64E0010164F00101C4F0010E1
:10396000FFFF0000154F0010084F001010B5002099
:10397000FFF7CAFF10BD10B50020FFF795FF10BD7F
:10398000F8B5002848D1254A1378002B44D0244BA1
:103990001B78002B40D1234C234D238828685B00E3
:1039A000195A002912D1214B1B78002B02D02180FB
:1039B00001880BE01E4B11701878002809D0080010
:1039C000FFF7A2FF23882A685B00995A01271F2668
:1039D00002E0FFF747FF1FE00A008B103A4013D0C8
:1039E0008811C9120A0001000F20103A52B231406A
:1039F00018400023FFF78AFE23882A6801339BB210
:103A000023805B00995AE7E73F20090A1840FFF737
:103A1000D7FE238801332380F8BDC046E64E001050
:103A2000FD4E0010FE4E0010F84E0010F14E00103A
:103A3000F44E001010B50020FFF7A2FF10BDFFFFED
:103A4000F7B5002800D0ABE0564B1B78002B00D117
:103A5000A6E0554B1878002802D1FFF703FF9FE03E
:103A6000524C013818702378002B26D1504D514804
:103A70002B885A1C504B51001B68CB5A0721194008
:103A800001704E49981208704D4899050078890ECA
:103A900041431B0721704B49DB0F0B7093B24A4A1D
:103AA0002B801278934208D3484B1878002802D014
:103AB000121A2A8001E0FFF7D5FE2378013B23701C
:103AC000434B444C1D7801356DB21D70424B1B7841
:103AD00001933A4B1E78019B9E19404B1B78F618B8
:103AE0003F4BF6B219782670002907D0280001F064
:103AF000F3FB3C4B1B785843361826702078242162
:103B0000243001F0CFFC002721700E000021364B3D
:103B1000364CDF57364B27705956002907D02800FE
:103B200001F0DAFB334B1B7858433F182770324BB8
:103B30001978002910D0280001F0CEFB2F4B184037
:103B400004D5022301385B42184301302C4B1B780B
:103B500058432378C0182070019B3F2B0AD022784D
:103B6000131C52B2092A01DD092304E01A0602D50A
:103B7000002300E000232370224B9A5D224B1A7031
:103B80000C4A237812785343204A12785A43204B28
:103B90001B885B1153431F4ADBB213701E4A13701C
:103BA000F7BDC046EA4E0010FD4E00100C4F00104D
:103BB000264F0010FC4E0010044F0010194F00104B
:103BC000EB4E0010174F00100F4F0010EC4E00107E
:103BD000F04E00100E4F0010EF4E0010154F001069
:103BE000254F0010004F0010244F0010F24E00101F
:103BF000184F0010E74E00101A4F0010010000800F
:103C0000E84E0010AE840000F34E0010ED4E0010A0
:103C1000124F0010104F00100D4F001010B5002073
:103C2000FFF70EFF10BDFFFF10B5031C002800DAE0
:103C300000230A4A1BB21288934200DD13B2084ADD
:103C40001380DA0FD3185B100A3B1BB2181C002B31
:103C500000DA0020C0B200F05BFC10BD1E010010B5
:103C6000124F001010B5002803DBFF2802DDFF20F3
:103C700000E00020034B1880034B0020185EFFF784
:103C8000D3FF10BD1E010010124F0010054B10B5E0
:103C90001888202801D9103000E0083000B2FFF762
:103CA000C3FF10BD124F0010054B10B51888202817
:103CB00001D9203800E0083800B2FFF7B5FF10BD89
:103CC000124F0010014B18887047C046124F001069
:103CD00010B50248FEF792F810BDC046EE4E001037
:103CE0000122014B1A717047BC5000100022014B99
:103CF0001A717047BC5000100122014B5A71704775
:103D0000BC5000100022014B5A717047BC5000108B
:103D10000122014B9A717047BC5000100022014BE8
:103D20009A717047BC5000100122014B5A707047C5
:103D3000BC5000100022014B5A707047BC5000105C
:103D40000122014BDA707047BC5000100022014B79
:103D5000DA707047BC5000100022014B9A70704717
:103D6000BC5000100022014B1A707047BC5000106C
:103D700010B5054B9A79002A02D0FFF787FF01E0C2
:103D800001229A7010BDC046BC50001010B5054B02
:103D90009A79002A02D0FFF787FF01E001221A700A
:103DA00010BDC046BC50001010B5204C204920006A
:103DB000FDF719F820001F49FDF706F81E4C1F49B2
:103DC0002000FDF710F820001D49FCF7FDFF1D4CF9
:103DD0001D492000FDF707F820001C49FCF7F4FFFF
:103DE0001B4C1C492000FCF7FEFF20001A49FCF781
:103DF000EBFF1A4C1A492000FCF7F5FF2000194987
:103E0000FCF7E2FF184C19492000FCF7ECFF2000FA
:103E10001749FCF7D9FF174C17492000FCF7E3FFBF
:103E200016492000FCF7D0FF10BDC046C45000105A
:103E3000ED3C0000E13C000014510010053D000085
:103E4000F93C0000284F00101D3D0000113D00000E
:103E50006C500010353D0000293D0000784F0010E7
:103E60004D3D0000413D0000CC4F0010653D00007D
:103E70008D3D00001C500010593D0000713D0000B8
:103E8000014B18797047C046BC500010014B58795F
:103E90007047C046BC500010014B98797047C0462F
:103EA000BC500010014B18787047C046BC50001041
:103EB000014B98787047C046BC50001070B526483A
:103EC000FFF79EF9254E26493000FCF759FF254D96
:103ED000254C2A0021003000FDF73AFA234E2449F0
:103EE0003000FCF74DFF2A0021003000FDF730FACA
:103EF000204E21493000FCF743FF2A00210030000A
:103F0000FDF726FA1D4E1E493000FCF739FF2A0046
:103F100021003000FDF71CFA1A4E1B493000FCF757
:103F20002FFF2A0021003000FDF712FA174E184922
:103F30003000FCF725FF2A0021003000FDF708FAC9
:103F4000144E15493000FCF71BFF2A0030002100F9
:103F5000FDF7FEF970BDC046C84F0010C4500010F8
:103F60008412010000010010550D000014510010D2
:103F700070080100284F0010881401006C500010D8
:103F8000941A0100784F00106C060100CC4F00100D
:103F9000C43201001C5000107C0E0100074B1A882F
:103FA00082420AD01880A023054A06491B06995070
:103FB0000549C000585000219950704764510010C5
:103FC000882000000700F8FF8821000070B58A23D0
:103FD000A024042224069B01E2508023064D5B04AA
:103FE0006351FFF7DBFF8023044A5B01A350C04607
:103FF000C046635170BDC046042200008422000008
:1040000070B58823A024042224069B01E25080235B
:10401000064D5B046351FFF7C1FF8023044A5B0137
:10402000A350C046C046635170BDC0460422000084
:104030008422000010B5074C07492000FDF7A2FBC1
:1040400020000521FDF77DFB04492000FDF756FB0C
:1040500010BDC04668510010FC0402009A99993EB8
:1040600010B504002020FFF7B1FF0020FFF7C8FFC4
:104070002120FFF7ABFF0020FFF7C2FF2220FFF750
:10408000A5FF2000FFF78AFFA023882204211B063A
:10409000920199508021084A49049950802107488B
:1040A0004901074C99501951C046C04601389950F2
:1040B0000028F8D110BDC04604220000409700003F
:1040C0008422000010B52020FFF780FF0020FFF7BA
:1040D00097FF2120FFF77AFF0020FFF791FF2220B2
:1040E000FFF774FF0020FFF759FFA0238822042167
:1040F0001B06920199508021074A4904995080215A
:1041000006484901064C99501951C046C04601382D
:1041100099500028F8D110BD0422000040970000FB
:104120008422000070B5A0250124784E2D06FFF7EB
:1041300081FFAC510A20FDF740F8754B0A20EC5086
:10414000FDF73BF8AC510A20FDF737F82000FFF7E8
:104150003DFF8E204000FFF753FF0220FFF736FFA0
:1041600080204000FFF74CFF0320FFF72FFF694836
:10417000FFF746FF0820FFF729FF6748FFF740FFDA
:104180000C20FFF723FF0020FFF73AFF0F20FFF777
:104190001DFF2000FFF734FF2020FFF717FF00204E
:1041A000FFF72EFF2120FFF711FF0020FFF728FF68
:1041B0001020FFF70BFF0020FFF722FF1120FFF771
:1041C00005FF80204001FFF71BFF0A20FCF7F5FFE9
:1041D0003020FFF7FBFE0020FFF712FF3120FFF732
:1041E000F5FEDB20FFF70CFF3220FFF7EFFE00208B
:1041F000FFF706FF3320FFF7E9FE0020FFF700FF7F
:104200003420FFF7E3FEDB20FFF7FAFE3520FFF74F
:10421000DDFE0020FFF7F4FE3620FFF7D7FEAF20CB
:10422000FFF7EEFE3720FFF7D1FE0020FFF7E8FE94
:104230003820FFF7CBFEDB20FFF7E2FE3920FFF747
:10424000C5FE0020FFF7DCFE0A20FCF7B6FFFF20CA
:10425000FFF7BCFE0320FFF7D3FE5020FFF7B6FEAA
:104260002E48FFF7CDFE5120FFF7B0FE2C48FFF798
:10427000C7FE5220FFF7AAFE2A4D0520FFF7C0FE19
:104280005320FFF7A3FE2800FFF7BAFE5420FFF7E4
:104290009DFE2548FFF7B4FE5520FFF797FE234CFF
:1042A0000320FFF7ADFE5620FFF790FE2000FFF73A
:1042B000A7FE5720FFF78AFE1D48FFF7A1FE5820F2
:1042C000FFF784FE2800FFF79BFE5920FFF77EFED4
:1042D0002000FFF795FEB020FFF778FE1548FFF7A6
:1042E0008FFEFF20FFF772FE0020FFF789FE0720F8
:1042F000FFF76CFE1048FFF783FEC820FCF75DFF58
:104300002220FFF763FEFFF7DDFE70BD04220000F0
:1043100084220000301000000808000003020000A2
:10432000090A000021100000020600000307000037
:10433000070500000125000017100000F8B584B241
:104340001500DB2C26D88EB2AF2E23D82020FFF705
:104350003DFE3000FFF754FE2120FFF737FE20001E
:10436000FFF74EFE2220FFF731FEA024882304220F
:1043700024069B01E25080278023074E5B047F01C7
:10438000A3512800A751FFF709FE044BE750C04690
:10439000C046A751F8BDC046042200008422000098
:1043A000F0B587B01C000CAB1B880493904202DD73
:1043B000030010001A00A14202DD0B0021001C00C6
:1043C000DC284BDCB02949DC131CDC2A00DDDC23B3
:1043D0001BB20393B02C00DDDC24061C002800DA9D
:1043E000002636B20B1C002900DA0023A0251BB2E0
:1043F00002932D06039B9E4230DC2020FFF7E6FD52
:104400006B461889FFF7FCFD2120FFF7DFFDB3B2F3
:1044100018000193FFF7F4FD2220FFF7D7FD882253
:1044200004239201AB50802780220D4B52047F0160
:10443000029EEA50EF500593B4420BDD0498FFF75B
:10444000ADFD084BEF50C046C046059B0136EF500E
:1044500036B2F1E7019E013636B2CBE707B0F0BDC8
:104460000422000084220000F8B5040003200E009E
:10447000FFF7ACFD1C48FFF7C3FD2020FFF7A6FDAA
:104480000020FFF7BDFD2120FFF7A0FD0020FFF772
:10449000B7FD2220FFF79AFD144BE7180025635D56
:1044A0005B00985BFFF7ACFD635D01355B00985BDB
:1044B000FFF7A6FD6E2DF2D10025635D5B00985BD2
:1044C000FFF79EFD635D01355B00985BFFF798FD8C
:1044D0006E2DF2D16E34BC42E0D10320FFF776FDA1
:1044E0000348FFF78DFDF8BD38100000D02500000F
:1044F0003010000070B504000D001822002100F0FB
:104500001DFD29002000FCF720FC200070BDFFFFEE
:104510007F23812110B50A4C8EB018402070094AC3
:104520000901684600F09AFB22785E21684600F097
:10453000E0FB2478684600F0DBFB20000EB010BDE5
:104540007D730010140A0000002210B5044B1020E7
:104550001A70044B01321A70FFF7DAFF10BDC04623
:104560007D7300108873001070B5094C0500236836
:10457000013304D1242207490748FCF765FB002DCD
:1045800001D0E36800E0236962681A6070BDC0462C
:1045900030530010216D0000706D0000A0228021BA
:1045A000030012064905D80701D5284800E028482D
:1045B0001150A02280215B1012068905D80701D571
:1045C000224800E022481150A02280215B101206F0
:1045D000C905D80701D51D4800E01D481150A0228B
:1045E00080215B1012060906D80701D5174800E0A4
:1045F00017481150A02280215B1012064903D807EA
:1046000001D5144800E014481150A02280215B100D
:1046100012068903D80701D50E4800E00E48115054
:10462000A02280215B101206C903D80701D50948D2
:1046300000E00948115080215B100904002B01D0D3
:10464000044B00E0044BD1507047C04604220000E8
:1046500084220000082200008822000070B5244B4C
:1046600000241A7801231340224A234D1370A342D9
:1046700028D000262149224A0B68581C08601B7864
:104680009657DBB2A64203D00322921B1341DCB241
:104690001C4A2C701368984211D31B4B18680130C8
:1046A00018601868042801D1002018601B6817489A
:1046B000DB02C3180B60802109015B1813602878A6
:1046C000FFF76CFF200001F0F3FD114901F022F922
:1046D000011C1048FDF712F82B780F4A1C190F4BDC
:1046E00064101C801378591C11700D4AD45470BD8D
:1046F0002C5300107E7300107C5300108851001062
:1047000020010010A4520010C05200107D53001070
:1047100000007F4324530010A47300108073001026
:104720008C51001010B50C4C0C492000FDF72AF8F4
:1047300020001F21FDF705F820000949FCF7DEFFE6
:104740000848094B5A2183610023C362FCF773FCBC
:10475000FFF7FAFE10BDC0462453001040270200A8
:10476000CDCCCC3D4C5300105D46000010B5194C2B
:104770002000FCF7DBFC184B184A23600023184983
:10478000A361E3622000FCF7E3FD16491648FFF73A
:10479000B1FE16491648FFF7ADFE16491648FFF759
:1047A000A9FE16491648FFF7A5FE16491648FFF759
:1047B000A1FE16491648FFF79DFE16491648FFF759
:1047C00099FE16491648FFF795FE16491648FFF759
:1047D00091FE10BD4C530010146E0000000100103B
:1047E00009100000D03801008C520010D43A0100AA
:1047F0008C730010D83C0100A8520010DC3E010070
:104800007051001044290200C4520010482B0200CD
:10481000DC5200104C2D0200F4520010502F020008
:104820000C530010A422010030530010F0B585B0E5
:104830000600029172B64D4B984202D8050B2B032D
:1048400013E04B4B1C2598420CD84A4B013D984233
:1048500008D8494B013D984204D8484D8542AD41A6
:104860006D421835464BEB189B039B1B594259412F
:10487000CBB201933223434C434F23606560434BDB
:10488000A560390020009847404A3B680392002BFE
:1048900001D0012068E0E4229202964260D1019B9F
:1048A000002B3BD0012301933423FA212360384BA2
:1048B000890018686560A56000F084FC324FE060F4
:1048C000324B3900200098473B68002BE1D132334E
:1048D000236065602D4BA5603900200098473B6838
:1048E000002BD6D1019B002B18D133232360029BD0
:1048F000FA21A36080235B00E360254B89001868E0
:10490000666000F05FFC204D2061290020001F4BF5
:10491000984728680028BCD162B625E03B23236075
:10492000E023FA219B0063601A4B8900A360184BB7
:10493000186800F047FC144FE060144B3900200069
:1049400098473B68002BA4D13233236065600F4B3E
:10495000A5603900200098473B68002BC5D098E738
:10496000019A002AC1D09EE705B0F0BDFF7F01008B
:10497000FF7F0300FFFF0200FF7F0200FFFF010037
:10498000EEFF0300A8730010BC730010F11FFF1F9F
:1049900008010010FF030000024A13680A33136085
:1049A0007047C046CC730010044B054A07215A607B
:1049B00000229A601960034B1A60704710E000E013
:1049C000FF520700CC730010014B18687047C046B7
:1049D000CC7300107047FFFFA023802104201B062A
:1049E00089015A5810B5024380205A50294A400183
:1049F000995801438020995099584004014301205F
:104A00009950995801439950234924485A580243D0
:104A10005A5023480021FCF743FE00212148FCF7AF
:104A20003FFE00212048FCF73BFE00211F48FCF719
:104A300037FE00211E48FCF733FE00211D48FCF71D
:104A40002FFE00211C48FCF72BFE00211B48FCF721
:104A500027FE00211A48FCF723FE00211948FCF725
:104A60001FFE00211848FCF71BFE00211748FCF729
:104A700017FE00211648FCF713FE00211548FCF72D
:104A80000FFE00211448FCF70BFE00211348FCF731
:104A900007FE10BD0420000008200000F8FF0700FA
:104AA0000007020004090200080B02000C0D0200BE
:104AB000100F020014110200181302001C1502004E
:104AC0002017020024190200281B02002C1D0200DE
:104AD000301F020034210200382302003C2502006E
:104AE000036870B504000D00013304D12422064987
:104AF0000648FCF7A9F86368002D01D0E26800E0E1
:104B00002269136070BDC046216D0000706D000009
:104B1000036810B50400013304D12C22054906486E
:104B2000FCF792F8636960681B681840431E98415F
:104B300010BDC046216D0000706D000010B5012150
:104B4000FCF77EFC10BD70B504002500FFF7F6FFF2
:104B50001835606BFCF726FB28000121FFF7C0FF2A
:104B600001212000FFF7BCFF606BFCF71BFB00215D
:104B70002000FFF7B5FF606BFCF714FB2800002155
:104B8000FFF7AEFF606BFCF70DFB70BD10B50400C6
:104B9000FFF7D4FF606BFCF705FB00212000FFF757
:104BA0009FFF606BFCF7FEFA200001211830FFF731
:104BB00097FF606BFCF7F6FA01212000FFF790FFEA
:104BC00010BDF8B504000F000825FFF7B7FF606BB4
:104BD000FCF7E8FA0121013DA940260039402000F8
:104BE0001836FFF77DFF01213000FFF779FF606B7A
:104BF000FCF7D8FA00213000FFF772FF002DE6D154
:104C000001212000FFF76CFFF8BD70B504002500FE
:104C1000FFF794FF183501212000FFF761FF012104
:104C20002800FFF75DFF00212000FCF709FC0421AC
:104C30002000FCF7FFFB606BFCF7B4FA00212800B2
:104C4000FFF74EFF2000FFF763FF0023984203D1D8
:104C5000606BFCF7A7FA0123180070BDF8B51826A1
:104C600004000D0017000021320000F067F9290050
:104C70002000A519FCF74FF832002800002100F0B1
:104C80005DF939002800FCF746F82800FFF756FFC9
:104C900028000421FCF7CEFB2000FFF74FFF042182
:104CA0002000FCF7C7FB23000026012730331E70CD
:104CB00028006763FFF742FF2000FFF73FFF39003E
:104CC0002000FFF70DFF31002800FFF709FF606BA0
:104CD000FCF768FA2000FFF759FF2000FFF756FFA6
:104CE0002000FFF753FF2000FFF750FF2000F8BD22
:104CF000704770B50D0016000400FFF724FF012374
:104D0000290020009943FFF75CFF2000FFF77DFF9B
:104D100031002000FFF755FF2000FFF776FF20004D
:104D2000FFF734FF70BDFFFF10B5064B064819783A
:104D300000F0D2FA054B186039235843044B188011
:104D400010BDC04621010010983A0000D873001031
:104D5000D473001010B50248FDF750F810BDC046DE
:104D6000DC730010454AF8B5564692464B005B0D81
:104D70009A444D465F4644465246F0B48946050083
:104D80000C000E000700132A22DC002A47DB5246E3
:104D90003B4B134198460B0042461340034311D04E
:104DA000384A394B01F0C2FA0022002300F0AAFB76
:104DB000002805D0002C41DB4E46434600279E4389
:104DC000380031003CBC90469946A246AB46F8BD3F
:104DD0005246332A08DD8023DB009A45F2D10200D7
:104DE0000B0001F0A3FAEDE7284A94460122634440
:104DF0005242DA4093460242E4D0224A224B01F06A
:104E000095FA0022002300F07DFB0028D8D0002C6A
:104E10001ADB5B464E469F4338003100D2E7194A01
:104E2000194B01F083FA0022002300F06BFB0028ED
:104E3000C6D0002C16DB00270026C1E7802352468F
:104E40005B0313419944B7E75346142B12D0342324
:104E5000524601279B1A9F407F19AF429B415B42FC
:104E60009944D6E76400640825430027002DA7D0A5
:104E7000074EA5E7133B9C46E144CAE701FCFFFF50
:104E8000FFFF0F009C7500883CE4377EEDFBFFFFC1
:104E90000000F0BFC317C01858407047084B10B54A
:104EA0000400002B02D0002100E000BF054B186871
:104EB000836A002B00D098472000FCF71FF8C046FB
:104EC00000000000348500000E4B70B500251E0068
:104ED0000D4CE41AA410A54204D0AB00F358984737
:104EE0000135F8E703F088FB084B00251E00084C4D
:104EF000E41AA410A54204D0AB00F358984701353A
:104F0000F8E770BD048600000486000004860000F7
:104F10003086000010B5034B0100186800F062F8FD
:104F200010BDC0468401001010B5034B0100186885
:104F300000F00CF810BDC046840100100300821878
:104F4000934202D019700133FAE7704770B505003B
:104F5000002944D00C1F2368002B00DAE418280035
:104F600000F024F91E4A13681100002B02D163607F
:104F7000146031E0A3420DD92268A018834203D106
:104F800018685B688218226063600C6024E0A242AB
:104F900003D813005A68002AF9D11E689819A04254
:104FA0000BD12168711858181960824214D1106809
:104FB0005268411819605A600EE0A04202D90C23D1
:104FC0002B6009E021686018824203D110685268A2
:104FD0004118216062605C60280000F0E8F870BD54
:104FE000E4730010032370B5CD1C9D430835060003
:104FF0000C2D01D20C2501E0002D01DBA94202D9C4
:105000000C23336048E0300000F0D0F8234B1C68DC
:105010001A002100002913D00B685B1B0DD40B2B49
:1050200002D90B60CC181EE08C4202D16368136079
:105030001AE04B6863600C0016E00C004968E9E771
:10504000174C2368002B03D1300000F095F8206046
:105050002900300000F090F8431C18D00323C41C32
:105060009C43A0420DD12560300000F0A0F8200044
:1050700007220B30231D9043C31A0ED05A42E25030
:105080000BE0211A300000F077F8431CEBD10C2321
:105090003000336000F08BF8002070BDE473001026
:1050A000E0730010104B70B51C680500A36B002B5B
:1050B00015D11820FFF72EFF0C4BA06303800C4B7B
:1050C000012243800B4B83800B4BC3800B4B03812E
:1050D000052343810633838100230261436100225B
:1050E000A36B1D615A6170BD840100100E33000076
:1050F000CDABFFFF341200006DE6FFFFECDEFFFFDB
:10510000154B10B51C68A36B002B15D11820FFF7A9
:1051100001FF124BA0630380114B01224380114B0E
:105120008380114BC380114B0381052343810633D8
:105130008381002302614361A46B0D4A2069616988
:105140000C4B00F02DFA01220023801859412061F8
:1051500061614800400810BD840100100E3300005A
:10516000CDABFFFF341200006DE6FFFFECDEFFFF6A
:105170002D7F954C2DF45158002370B5064C050039
:1051800008002360FBF7A6FE431C03D12368002B15
:1051900000D02B6070BDC046E8730010031C0A7875
:1051A00001311A700133002AF9D1704770477047F6
:1051B00002B4714649084900095C49008E4402BCAA
:1051C0007047C046002243088B4274D303098B42C8
:1051D0005FD3030A8B4244D3030B8B4228D3030CC7
:1051E0008B420DD3FF22090212BA030C8B4202D369
:1051F0001212090265D0030B8B4219D300E0090A91
:10520000C30B8B4201D3CB03C01A5241830B8B4299
:1052100001D38B03C01A5241430B8B4201D34B0382
:10522000C01A5241030B8B4201D30B03C01A5241E7
:10523000C30A8B4201D3CB02C01A5241830A8B426C
:1052400001D38B02C01A5241430A8B4201D34B0255
:10525000C01A5241030A8B4201D30B02C01A5241B9
:10526000CDD2C3098B4201D3CB01C01A524183096D
:105270008B4201D38B01C01A524143098B4201D3A7
:105280004B01C01A524103098B4201D30B01C01AD2
:105290005241C3088B4201D3CB00C01A524183084C
:1052A0008B4201D38B00C01A524143088B4201D379
:1052B0004B00C01A5241411A00D2014652411046D9
:1052C0007047FFE701B5002000F0F0F802BDC046CE
:1052D0000029F7D076E7704703460B437FD40022BE
:1052E00043088B4274D303098B425FD3030A8B427A
:1052F00044D3030B8B4228D3030C8B420DD3FF22E4
:10530000090212BA030C8B4202D31212090265D0B1
:10531000030B8B4219D300E0090AC30B8B4201D364
:10532000CB03C01A5241830B8B4201D38B03C01AAB
:105330005241430B8B4201D34B03C01A5241030B22
:105340008B4201D30B03C01A5241C30A8B4201D3D3
:10535000CB02C01A5241830A8B4201D38B02C01A7E
:105360005241430A8B4201D34B02C01A5241030AF5
:105370008B4201D30B02C01A5241CDD2C3098B42DA
:1053800001D3CB01C01A524183098B4201D38B0157
:10539000C01A524143098B4201D34B01C01A5241FA
:1053A00003098B4201D30B01C01A5241C3088B423F
:1053B00001D3CB00C01A524183088B4201D38B002A
:1053C000C01A524143088B4201D34B00C01A5241CC
:1053D000411A00D201465241104670475DE0CA0FA3
:1053E00000D04942031000D34042534000229C4663
:1053F00003098B422DD3030A8B4212D3FC2289016D
:1054000012BA030A8B420CD3890192118B4208D342
:10541000890192118B4204D389013AD0921100E0A4
:105420008909C3098B4201D3CB01C01A52418309B8
:105430008B4201D38B01C01A524143098B4201D3E5
:105440004B01C01A524103098B4201D30B01C01A10
:105450005241C3088B4201D3CB00C01A524183088A
:105460008B4201D38B00C01A5241D9D243088B42E0
:1054700001D34B00C01A5241411A00D20146634683
:1054800052415B10104601D34042002B00D54942E7
:10549000704763465B1000D3404201B5002000F026
:1054A00005F802BD0029F8D016E770477047C046DE
:1054B0008446101C62468C46191C634600E0C046B8
:1054C0001FB501F003FB002801D40021C8421FBD15
:1054D00010B501F057FA4042013010BD10B501F08F
:1054E000F5FA002801DB002010BD012010BDC046E8
:1054F00010B501F0EBFA002801DD002010BD0120FD
:1055000010BDC04610B501F07DFA002801DC002076
:1055100010BD012010BDC04610B501F073FA00287F
:1055200001DA002010BD012010BDC0468446081CD1
:105530006146FFE71FB500F073FB002801D400218E
:10554000C8421FBD10B500F0FFFA4042013010BD47
:1055500010B500F065FB002801DB002010BD012024
:1055600010BDC04610B500F05BFB002801DD002037
:1055700010BD012010BDC04610B500F00DFB002885
:1055800001DC002010BD012010BDC04610B500F0A8
:1055900003FB002801DA002010BD012010BDC04629
:1055A000F0B54F464646C0B41604360C9946330053
:1055B00005042C0C070C150C63437E436F436543B5
:1055C0001C0CAD1964199C46A64203D980235B02CA
:1055D000984647446346250CEF191D044B464A4341
:1055E00043432D0C240464199918C91920000CBCDC
:1055F00090469946F0BDC0469E2110B5C905041CD1
:10560000FFF7C4FF002803D1201C00F0E7FD10BD08
:105610009E21201CC90500F05BFC00F0DFFD80230B
:105620001B069C466044F2E7F8B54A024302440078
:105630004E00C50F240E28009B09360EC90F920993
:105640008D4259D0A01B002800DC8DE0002E1AD11D
:10565000002A00D079E05A0704D00F221A40042A09
:1056600000D004335A0138D50134FF2C00D189E031
:1056700028009B015B0AE4B25B02E4055B0A23435A
:10568000C0071843F8BDFF2CE5D08021C9040A43A8
:105690001B2800DD89E016002021C640081A824040
:1056A000511E8A4132439B1A5A0114D59B019E090F
:1056B000300001F0FFFA05388640844265DC041BA7
:1056C000330020200134E340041BA640721E9641A3
:1056D00000243343BFE75A07BFD1DF082800FF2C5F
:1056E0002FD1002F00D187E08022D20313003B434B
:1056F0005B025B0AFF24BFE7A11B002949DD002EE6
:1057000029D0FF2CA7D08026F60432431B2900DDC8
:105710008DE017002026CF40711A8A40511E8A4121
:105720003A439B185A01D6D50134FF2C64D001228C
:1057300076491A405B080B4013438CE7031ECAD11D
:1057400000207B025B0AE4B296E701380028AAD069
:10575000FF2C9DD17FE7002A00D17CE70139002989
:10576000DFD0FF2CD2D176E7002820D1601CC0B258
:10577000012853DD80279E1AFF0437402FD0D61A08
:105780000D0095E72800002376E7614B241A33408B
:1057900061E700294DD1611CCEB2012E2FDDFF291A
:1057A0002AD09B185B080C0055E701227BE7002CF0
:1057B0001BD1002B5BD0C04300280CD0FF2E7ED025
:1057C0001B2800DD92E01D002024C540201A8340E4
:1057D000581E83412B43D31A34000D0064E7002E7A
:1057E00000D065E700200024ABE7FF2E67D08024BF
:1057F000E40440422343E3E7FF2400233CE7002C7A
:1058000061D1002B7ED0002A00D124E79B185A01D9
:1058100000D460E73E4A0C0013401CE7002C1ED168
:10582000002B2FD1002A66D013000D0013E70122B0
:1058300077E7002C1FD1002B5AD0C94300290BD089
:10584000FF2E50D01B295FDC1F002024CF40611A9F
:105850008B40591E8B413B439B18340062E7002B61
:105860001CD1002A4AD013000D00FF24F3E61300D8
:1058700034000D00EFE6FF2E35D08024E4044942C9
:105880002343DFE7002A00D1E5E68027981AFF04CA
:10589000074000D152E7D31A0D00DCE6FF24002AAE
:1058A00000D1D8E68020DB08C003034204D0D20830
:1058B000024201D113000D00DB00FF24CBE61300F0
:1058C000FF240D00C7E6002B0DD0FF24002A00D1D5
:1058D000C1E68021DB08C9030B42EDD0D2080A42A1
:1058E000EAD11300E8E71300FF24B4E6012372E7CE
:1058F00013003400AFE60027002022E780270020B5
:10590000FF03F1E61300A6E60123A5E7FFFFFF7DF5
:10591000FFFFFFFBF0B5564644465F464D46F0B4E8
:1059200044024600C70F83B08846650A360EBA4661
:105930003DD0FF2E22D00023EC00802599469B46C7
:10594000ED0425437F3E43465C025800DB0F640AAA
:10595000000E984636D0FF2830D080230021E40086
:10596000DB041C437F38301A019048464246084306
:10597000724E800030587A4013008746002D44D183
:1059800008239946063B9B46DDE70122FF200024C1
:105990001A406402C305640AD2071C431443200062
:1059A00003B03CBC90469946A246AB46F0BD002DE4
:1059B00020D104239946033B9B46C4E7002C17D112
:1059C000022102E0002C0AD10121321A01924A463A
:1059D00043460A435A48920082587B40974620002B
:1059E00001F068F9431F76309C4040420021BAE73D
:1059F0000321B8E7280001F05DF9431F9D40002313
:105A00007630464299469B469DE70C239946093BD2
:105A10009B4698E780240022E403FF20B9E7002496
:105A2000C2468B465A465346022AAED0032A7DD040
:105A3000012A31D1012200201A400024A9E70122C5
:105A4000101A1B2856DD1A4000200024A1E78023ED
:105A5000DB031D424BD18023DB032B435C02640A32
:105A60003A00FF2095E76D016001854230D2019A2E
:105A70000024013A01921B220127290064006D00D5
:105A8000002901DBA84201D82D1A3C43013A002A23
:105A9000F3D16A1E95412C4301987F300028CEDD5A
:105AA000620704D00F222240042A00D004342201CD
:105AB00003D5244A019814408030FE2800DD64E7B5
:105AC0000122A401640AC0B21A4062E72C00A9E7CF
:105AD0002D1A1A220124CFE76B02BCD500248023A3
