:1000000000800010FD000000EB120000ED12000067
:1000100000000000000000000000000000000000E0
:10002000000000000000000000000000EF120000CF
:100030000000000000000000F1120000BD480000B8
:10004000E9120000E9120000E9120000E9120000C4
:10005000E9120000E9120000E9120000E9120000B4
:10006000E9120000E9120000E9120000E9120000A4
:10007000E9120000E9120000E9120000E912000094
:10008000E9120000E9120000E9120000E912000084
:10009000E9120000E9120000E9120000E912000074
:1000A000E9120000E9120000E9120000E912000064
:1000B000E9120000E9120000E9120000000000004F
:1000C0009C87000000010010880000009C87000051
:1000D00000000020000000009C870000004000207D
:1000E0000000000088010010045000000000002003
:1000F00000000000004000200000000010B5104C7F
:10010000104B9C4206D2A2686168206801F0F1F8A9
:100110000C34F5E70C4B9C4205D26168206801F075
:10012000F1F80834F6E701F049F8084B002B02D04B
:1001300000E000BF03E004F059FE00F09FF9FEE785
:10014000C0000000E4000000FC000000000000000F
:1001500010B5064C2378002B07D1054B002B02D09D
:10016000044800E000BF0123237010BD8801001087
:10017000000000009C870000084B10B5002B03D046
:100180000749084800E000BF07480368002B00D17A
:1001900010BD064B002BFBD09847F9E7000000008C
:1001A0008C0100109C8700008801001000000000F6
:1001B000F0B51F0006000020214B224D1B7885B0B2
:1001C00053430192EA19D35C0C00834235D10A9B58
:1001D000F01A04F0F1FD0B9B0290E01A04F0ECFD24
:1001E000174B2A191B7803905E43905D0A9A0A26E2
:1001F00053430B9AAD18EB5CC51804F013FF039A38
:10020000029B944663441900714305F0DDF8080031
:10021000310004F0F3FF6D104519002D03DDFF2DB3
:1002200002DDFF2500E00125054B019A1B78012026
:100230005A431300034AD219D55405B0F0BDC04645
:100240001C010010B6060010F0B507000C001500E8
:100250001E0089B0EB1B012B02DC331B012B71DD6F
:10026000EB19DA0FD3185B100493A319DA0FD31824
:100270005B100393049A2300210001940095380039
:10028000FFF796FF3300049A31000196009538007D
:10029000FFF78EFF039B2A0021000196009528009E
:1002A000FFF786FF039B3A00210001960097380074
:1002B000FFF77EFF244B1A78049B53439C46039B15
:1002C000634419000593214B595C002925D139005D
:1002D00051436A4398180692025D079113000A0081
:1002E0001A49805D89180A5D9A181218039B885D67
:1002F00016491218C818079BC15C63465218134967
:10030000C9180B5D895D9C46069B6244C05C059BD9
:1003100012188A180D49D210CA542100039B049A5E
:100320003800FFF791FF2A00330003990498FFF784
:100330008BFF2A002100039B0498FFF785FF049D93
:10034000039C87E709B0F0BD1C010010B606001041
:10035000F7B5224D224E2A783378224F5A43002394
:100360001800934203D0F91808700133F9E704F03C
:1003700059FEFF2105F028F82C780131397004F07E
:1003800051FE3378013CFF215C43019305F01CF8DA
:10039000013139552C7804F045FE3378013C5C433B
:1003A0000093019BFF21FB181C1905F00DF8013C7F
:1003B0000131217004F036FE009BFF21FF1805F08B
:1003C00003F8013F01313970002134782A78631E27
:1003D000013A0800FFF738FFF7BDC04618010010CA
:1003E0001C010010B6060010F8B5184E00243500A8
:1003F000803504235B421F1BFFB20022390020001E
:1004000003F0AEF82B00803B18802200002138005A
:1004100003F0A6F8002128803A00080003F0A0F8B5
:100420002B000022803318802100100003F098F880
:100430006B1CFF331880064B04340235E4B29D4236
:10044000D7D1300003F032F8F8BDC046A401001047
:10045000A402001010B502F037F96E22044B1A7096
:10046000044B163A1A70044B573A1A7010BDC04626
:10047000180100101C0100109C06001010B5FFF7B9
:10048000E9FF04F033FA04F09FFDFFF7ADFFFFF73B
:100490005FFF02F0A7F8002808D0002002F03AFA27
:1004A0000028F6D0012003F013F8F2E7012010BD78
:1004B00010B5024801F084FC10BDC046A403001032
:1004C00010B50100014800F059FD10BD54040010A2
:1004D00010B5FF21024800F051FDC0B210BDC0466A
:1004E00054040010F8B543B204000D00002B07DAE5
:1004F00000217720FFF7F6FF012831D87F231C4029
:10050000A026882380279B013606F750FFF7E0FFDF
:100510008A239B01F750FFF7DBFF2000FFF7D0FF96
:10052000280EFFF7CDFF280CC0B2FFF7C9FF280A3D
:10053000C0B2FFF7C5FFE8B2FFF7C2FF9520402C1D
:1005400003D09438482C00D18630FFF7B9FF0A2435
:10055000FFF7BEFF030603D5013CE4B2002CF7D140
:10056000F8BDFFFF73B58823A02480223F4D9B0177
:100570002406E25028003E4900F0F6FC2800002244
:10058000082100F0E5FC842364259B01E358013D2C
:10059000EDB2FFF79DFF002DF9D129004020FFF7B4
:1005A000A1FF040001284BD1D52148204900FFF7C5
:1005B00099FF012815D1FFF78BFF01AC28550135B4
:1005C000042DF8D1A378012B3AD1E378AA2B37D1A7
:1005D000284D8021E920C905FFF784FF011E11D1B4
:1005E00015E02900E920FFF77DFF4126012801D809
:1005F0000224E926204D00213000FFF773FF002878
:1006000020D116E0013DADB2002D19D0E1E77A20EE
:10061000FFF768FF002813D10500FFF759FF605569
:100620000135042DF9D123780C245B060FD42C005E
:100630000DE0802150208900FFF754FF002806D0EC
:10064000002404E0013DADB2002DF9D0D3E70B4BFF
:10065000A0221C70882380219B011206D150FFF735
:1006600037FF60426041C0B276BDC04654040010FE
:10067000801A0600E02E0000A8610000A50300100B
:10068000F8B51D00244B07001B7816001B0700D48B
:1006900049025120FFF726FF002801D0012431E054
:1006A0001E4CFFF715FFFF2804D1013CA4B2002C1B
:1006B000F7D1F3E7FE28F1D1194C641BA41BA4B2B7
:1006C000002E07D1002F11D0013DADB201353E0003
:1006D0007D1904E0013EFFF7FBFEB6B2F0E7FFF73D
:1006E000F7FE30700136B542F9D105E0013DADB2FB
:1006F000FFF7EEFE002DF9D1013CA4B2FFF7E8FEB2
:10070000002CF9D18823A02280219B011206D15010
:10071000FFF7DEFE2000F8BDA503001030750000D5
:1007200002020000064B1A68831ED16800200239BD
:100730008B4203D250784343906918187047C046E3
:10074000A80300100F4B10B51A68002303808368BC
:1007500004001800012B13D0D16801208B420FD266
:10076000002B03D11178032900D15369E360002BDA
:1007700003D01800FFF7D6FF00E050692061002089
:1007800010BDC046A8030010F0B5040085B00128D4
:1007900054D92C4B1D68EB6898424FD22E78022E0C
:1007A00032D0032E38D0012E48D181B24B08C9185F
:1007B00089B24B0A0193244BCA05D20D296903AFB4
:1007C0009A4204D0019B3800591802230EE0019B85
:1007D000380059183300FFF753FF021E2ED1296944
:1007E000019B0131C918330002A80530FFF748FF0B
:1007F000002823D17B7838781B0203431811E207C5
:100800001DD41805000D1AE02B69C2B2010AC918DF
:10081000520003AD330007E07F2204232969024020
:10082000C4099200611803AD2800FFF729FF0028D2
:1008300004D168782B780002184300E0012005B04D
:10084000F0BDC046A8030010FF01000070B5048889
:1008500005000134A4B2002C01D1032322E0036976
:10086000002BFAD022071BD101330F4A0361C06865
:100870001668002803D1B388A342EED910E073783C
:100880002209013B1A420BD1FFF77EFF0123984258
:1008900008D9F3689842E0D2E860FFF743FF286187
:1008A00000232C80180070BDA8030010F7B50400C9
:1008B0000D002B78202B01D10135FAE72F3B5A424E
:1008C00053410027ED18A7602B78202B01D9019701
:1008D0002EE02000FFF736FF404B06001B689B68A8
:1008E0001F7078E0009B1B78002B68D00822009BCB
:1008F000DB7A13405BD162680099581CC95CD35CF9
:10090000994254D103000B28F6D1D37A002B62D13F
:100910003B689868C37ADB0656D5437D017D1B0290
:100920000B43C27E1904837E120213430B43A36060
:100930006068020003000B32934203D100220821B9
:10094000130013E0202119700133F5E72F2B12D08B
:100950002E2B3BD091420ED91F00613F192F01D899
:10096000203BDBB2571C8354FAB233005E1CEB5CB5
:10097000F6B2202BEAD8AD192026019A9E425241A8
:10098000C2722000FFF7DEFE061E16D1134F3B6831
:100990009B6800930F23228821691A40520111336A
:1009A0000098FFF76DFE00289CD0012613E0200080
:1009B000FFF74CFF0028EDD00600032E0BD1636833
:1009C0000326DB7A002B06D1042604E00829D2D1C5
:1009D0000A000331C9E73000FEBDC046A80300107D
:1009E00070B5164B01001C6890B00620002C23D077
:1009F0000023A3706B4608ADA56003A80493FFF71E
:100A000055FF002818D12B780330002B14D0102369
:100A1000EE7A1E4010D16B7D297D1B02EA7E0B43CE
:100A20001904AB7E120213430B4363620F9B300029
:100A300023620123E661A37010B070BDA80300100B
:100A40002F4BF7B51C68002307000D00019213809F
:100A500006209C4253D0A3780138DB074FD5236A88
:100A6000E2699B1A8B4200D29DB20097002D45D0BF
:100A7000E669F3051BD1700A617804F0BBFB00291D
:100A80000BD1002E01D1606A02E0A06AFFF77CFE64
:100A900001282FD90023A062E370A06AFFF742FE6D
:100AA000002827D0E3785A1C1818E270E062E36946
:100AB0002E1CDA058023D20D9B009B1A9BB29D420F
:100AC00000D91E1CB6B2381E00D000983300E16A6F
:100AD000FFF7D6FD00280DD1E369AD1B9B19E3613B
:100AE000009BADB29B190093019B1B88F618019BDC
:100AF0001E80BBE700230120A37000E02800FEBD9C
:100B0000A8030010294BF7B51C680623002C4AD017
:100B1000A278013BD20746D5256A854200D9050057
:100B20000022E369E261954238D066787602002BB4
:100B300012D03100681E5F1E04F0D6FA3100019019
:100B4000380004F0D1FA019B834205D373423B4045
:100B5000E361ED1AA06A01E0606AA062B5420CD9B7
:100B6000FFF712FE01281BD9E368984218D2E36907
:100B7000A0629B19E361AD1BF0E7E3695B19E361D8
:100B8000FFF7D0FD00280BD06B0ADAB2ED0501D1DA
:100B9000E27003E00132C318E270E362002302E076
:100BA0000023A37001331800FEBDC046A803001047
:100BB00030B5154B04001B688DB00620002B20D0EB
:100BC00004AD9D6001AB63602000FFF76FFE00285D
:100BD00015D12B78002B0FD0EB7ADB0601D4042043
:100BE0000FE06B7D297D1B020B43EA7E1904AB7E6F
:100BF000120213430B43A3602000FFF7A3FD032859
:100C0000EDD00DB030BDC046A803001010B51300E4
:100C10000A000100014800F031F810BD146C00001A
:100C200000B589B072B6124902A800F070F8029BB4
:100C30000193013304D124220E490F48FFF7E6FF48
:100C4000059B039A96201A60019200F098FA029B85
:100C50000193013304D1242206490748FFF7D6FF48
:100C6000039A069B96201A60019200F088FADEE74C
:100C700038230200456C0000946C00000FB4012082
:100C800010B504F09DF8FFFF036870B504000D0077
:100C9000013304D1242206490648FFF7B7FF6368F1
:100CA000002D01D0E26800E02269136070BDC046EB
:100CB000456C0000946C000070B50D000400160037
:100CC00000F078FB6B1C07D00021200000F09AFB9D
:100CD0003100200000F090FB70BD10B50122FFF73D
:100CE000EBFF10BD70B50D000400160000F062FBB4
:100CF0006B1C0BD031002000FFF7C6FF0121200044
:100D000000F080FB0021200000F076FB70BD10B5E4
:100D10000022FFF7E7FF10BD10B50400034B0833B6
:100D200003601C3000F048FC200010BDAC6C0000DB
:100D300010B50400FFF7F0FF200000F0EDFA2000EE
:100D400010BDFFFF70B5050004000E4B0E00083308
:100D500008C528001822002104F082F80023200092
:100D60003100E36123626363A363E364064A230003
:100D70001C3000F0BFFB28003100FFF7AEFF200061
:100D800070BDC046AC6C0000E70D000003000A0017
:100D900010B51C300121002A04D01A6200225A63C7
:100DA0000132110000F01CFC10BD030010B50A0058
:100DB0001C30002903D000229963DA640132022139
:100DC00000F00EFC10BD436910B50100002B04D1EA
:100DD0000368002B06D0984704E00068002801D083
:100DE0000431984710BD10B5012903D0022904D160
:100DF000383000E02030FFF7E6FF10BD10B50400EA
:100E0000431C12D00B685A1C0CD09C4208D1200005
:100E1000896800F00BFC0021200000F023FC04E0B6
:100E20000C31EFE70148FFF729FF10BDBC6C000053
:100E300010B5030088420AD00B00421C07D0030003
:100E40004A1C04D00348FFF719FF01235B42180036
:100E500010BDC046CD6C00000B685A1C05D0834203
:100E600001D1486802E00C31F6E718007047FFFF37
:100E700010B50400431C07D0FFF7EEFF0400431C2D
:100E800002D10248FFF7FAFE200010BDDE6C000020
:100E900010B5012003F094FF074A13681818EFF308
:100EA0000881884205D30C220120044B40421A607D
:100EB00001E0106018007047040100108851001014
:100EC00010B5002801D0FFF7ABFEFEE7704710B564
:100ED000040000F021FA200010BDFFFF73B50400EC
:100EE0000E480025083020600820E0600C48261DD0
:100EF000606106986560257225610090300000F001
:100F0000E9FC2B0030002269E16800F063FD30004D
:100F1000616900F095FD200076BDC0461C6D0000A3
:100F200040420F0070B5094D04002B6883420BD07E
:100F3000061D0269C1680023300000F04BFD6169A5
:100F4000300000F07DFD2C6070BDC046AC03001089
:100F50000261002210B5034BC1601A60FFF7E2FF87
:100F600010BDC046AC030010002210B5024B416119
:100F70001A60FFF7D7FF10BDAC03001070B50D006D
:100F80000400FFF7CFFF2900201D00F09DFD70BD7C
:100F900010B5040043684269991800F0BFF8E36A8D
:100FA000002B04D1A369002B07D0984705E0A06966
:100FB000002802D021001C31984710BD10B5040054
:100FC00000F0B4F80023A361E36210BD10B5040083
:100FD000044B08330360FFF7F1FF200000F0ACF88A
:100FE000200010BD306D000010B50400FFF7EEFFCB
:100FF000200000F091F9200010BD70B50D00040034
:1010000000F094F86561206900F068F82918200064
:1010100000F084F870BD70B504000D0003681B6813
:10102000984763681D6070BD036870B5DB68040095
:10103000984763685A682368002A02D19B689847DA
:1010400013E05B681568984763682D1A5A68002D8D
:1010500007DC916859601B68002BEAD050689847FC
:10106000E7E7236810681B69984770BD70B50D00ED
:1010700072B64B60002346680A607468002C05D085
:101080002168511A02D42300A468F7E7002B05D188
:10109000036875601B691000984700E09D60AC60B4
:1010A00062B670BD10B572B6426853688B420CD1FF
:1010B0009B6853600268002B02D1936898470BE04D
:1010C00012691868904707E01300002B04D09A6853
:1010D0009142F9D18A689A6062B610BD10B5036872
:1010E0005B68984710BD10B503689B68984710BDB2
:1010F000084B10B508330360002343608360C3606E
:10110000040000F025F804492061FFF784FF200067
:1011100010BDC046446D0000E710000010B50A0085
:101120000300011D0069FFF7A1FF10BD10B5011DEF
:101130000069FFF7B7FF10BD10B50400034B08337B
:101140000360FFF7F3FF200010BDC046446D0000B0
:10115000004870476C6D000010B50248FFF764FF4F
:1011600010BDC0466C6D000070B5040000F0E8FCD6
:10117000050000F0E5FC401BA042FAD370BDFA2345
:1011800010B59B005843FFF7EFFF10BD70B50A4C38
:10119000A568A3682A00002B0AD180225E59520557
:1011A0009A1804331660C02BF7D180225205A26032
:1011B00010308000815070BD00ED00E07FB58020D0
:1011C0003F494002CA6F8E240243CA67232200208F
:1011D00020253C4B3C499A60223A0A603B49A400D6
:1011E0000A60186219593A4A114001910199A943BC
:1011F000C825019101992D022943195100903548C4
:101200000099814204D8C046009901310091F7E766
:101210000121002019645964586459645C6C2948A0
:101220000C42FBD08E218026C825890044582D020F
:1012300014400394039C34430394039C2C43445074
:1012400023248460445822400292029CB4430294B6
:10125000029A2A4342500120DC681A4901220442C2
:10126000FAD00320086700204A67486710004A67E1
:101270005C6F144A01210442FAD08E2091678000ED
:101280001558154C2C4014501558144C2C40145023
:1012900000209164D164D064D164DA6C0A42FCD03D
:1012A0002321084A1161012259691142FCD0002210
:1012B0000B4B1A601A600B4B01321A607FBDC0469F
:1012C0000480044000800440F0400440F4400440A6
:1012D000FF250000C3090000FFFBFFFFFFFEFFFF2B
:1012E000C0800440C8800440704770477047704712
:1012F0007047002310B5934203D21C585C5004334E
:10130000F9E710BD00231A008B4202D21A500433B1
:10131000FAE770470020704710B503F097FD10BD45
:1013200010B50400431C04D11E2217491748FFF7CB
:101330006DFC174B1A68002A06D101321A60154A53
:101340001549D36F0B43D3670122002C12D0134BE6
:101350009C420FD0124B9C420CD0124B9C4209D0A5
:10136000114B9C4206D0114B9C4203D0104BE1180C
:101370004A424A412000110000F058F90120A4041B
:10138000E40EA04010BDC046746D0000996C0000D2
:10139000B80300100480044040000100281400003D
:1013A0002C16000030180000341A0000381C000011
:1013B000C4E1FFFF70B505000C0029604B1C11D083
:1013C0000800FFF7ADFF2414074BA400E318EB60FF
:1013D000064B6860E3182B61054BE3186B61054B06
:1013E000E418AC6070BDC046002200A0802200A0BE
:1013F000002100A0002000A010B5006800F032F924
:1014000010BDFFFF036870B504000D00013304D167
:10141000432209490948FFF7F9FB002D06D0012DA9
:1014200009D1A268636811680B4303E0A268616890
:1014300013688B43136070BD746D0000946C0000E2
:10144000F7B501210D008540134C636A2B4221D072
:10145000124B8600F058019300281BD023682B42C2
:1014600018D163682B4206D0E3692B4203D00C4BA2
:101470001B689847E5612369074F2B4209D03B6AF7
:101480002B4206D0064B019A1B68022190599847BF
:101490003D626562F7BDC046004000A0C003001079
:1014A000BC03001010B50020FFF7CAFF10BD10B537
:1014B0000120FFF7C5FF10BD10B50220FFF7C0FFE8
:1014C00010BD10B50320FFF7BBFF10BD10B5042001
:1014D000FFF7B6FF10BD10B50520FFF7B1FF10BD37
:1014E00010B50620FFF7ACFF10BD10B50720FFF7C1
:1014F000A7FF10BDF7B505002748814202DD012096
:10150000404248E02548264C0260002082001659DF
:101510000096002E3BD11351224C2860E36F224FDE
:10152000224E3B43E3671F248B0349120C401821D2
:10153000A44604009B0F59435E346144A400A151AA
:1015400081210124890071589B000F0021008140F6
:101550000F4339008127BF00F151A02180260906E1
:101560005B18B60199592700019161468F40019996
:1015700040B2B94399510E4BD158FFF707FE1F22D5
:101580002B68009813409C400A4B1C6003E001301C
:101590000828BBD1B3E7FEBD13110200BC03001045
:1015A000C003001004800440800009000080044053
:1015B000C06D000000E100E000210368064A9B00C6
:1015C00010B59950012281210068044C82408900A5
:1015D00063589343635010BDC00300100080044063
:1015E00003680120984070B50F4C2368034200D176
:1015F0006062C54326680C4B2E402660012909D144
:10160000002A03D05A68104358600CE05A6815400D
:101610005D6008E0002A03D01A691043186102E0F7
:101620001A6915401D6170BD004000A070B504002E
:101630000D00431C04D1152207490848FFF7E6FABC
:10164000074BE405E40DE418072322681D409A4384
:101650001543256070BDC046E06D0000996C000028
:101660000040044070B504000D00431C05D11D224C
:101670000F491048FFF7CAFA06E081231B01984280
:1016800014D00D4B984211D00C4BE405E40DE41836
:101690002368042D04D18022D2001343236005E087
:1016A0001822ED00934315401D43256070BDC046D0
:1016B000E06D0000996C0000140A00000040044036
:1016C00070B50C1C05000021201C03F0D3FE00287F
:1016D00009D1FE21201C890503F0E0FE002803D07B
:1016E000FE24A40500E0002480232D689B00E85818
:1016F00004F070FD211C04F069FA03F00FFF812350
:101700009B00E85070BD8023F7B5812704689B00DB
:10171000E258BF00E059E15001920D0004F05AFD7B
:10172000061C019804F056FD011C301C04F084F8DE
:10173000061C280004F006FD011C301C04F046FACB
:1017400003F0ECFEE051F7BDF7B50F00060050497D
:101750003800FFF78DFBC3B20500FF2B02D14D48C7
:10176000FFF78CFA4C4B01211A78019310000840C6
:10177000031E04D00A410B000A4200D081E001247C
:1017800021009940019A4548127873600A430199F3
:101790000A70434A99008A5809333260C26F1100B7
:1017A000802212061143C1672000984003003D4A81
:1017B00038005268364913433A4A5360FFF71EFB1C
:1017C0003768394A3B68394913430C223B607B68D0
:1017D00013437B607A68364B13407B607B680193D0
:1017E000344B186803F080FCFE2301381B014001D4
:1017F0001840019B18437860E8B207281DD803F011
:1018000069FC040A1016040A1016A023DB00FC5021
:101810000222294B10E0A123DB00FC500222274BBF
:101820000AE0A223DB00FC500222254B04E0A323A4
:101830000222DB00FC50234BFA508022C1235201CC
:101840009B00FA500123C0225B4292001E49BB500C
:101850000C32B950043ABB5080231C499B00F9500C
:10186000FB58053A9B08FF3ABB5004227B683000C6
:1018700093437B60FFF747FF30000021FFF720FF15
:10188000F7BD1348FFF7FAF901235B4277E7C0463B
:10189000286E0000946E0000E003001004800440F5
:1018A000C06E0000008004400100060040420F00AE
:1018B0001FF0FFFF08010010040500000C050000E8
:1018C000140500001C05000001100000204E00005F
:1018D000AE6E0000F0B5334E87B0009104003100C9
:1018E000009801920293FFF7C3FA2F4D07002900D9
:1018F0000198FFF7BDFA2D4903900298FFF7B8FA57
:101900002B4904900C98FFF7B3FA0399059038001F
:10191000FFF78EFA059907000498FFF789FA01008E
:101920003800FFF785FA2060431C04D14822214982
:101930002148FFF76BF92368204A93420FD0204AD1
:10194000934219D180201F49C002CB6F1E4A034326
:10195000CB6701211D4B1960536803310AE08020D9
:1019600018490001CB6F184A0343CB670121184B7C
:10197000196053680B43536031000098FFF73EFA3B
:1019800029000198FFF73AFA08490298FFF736FA5A
:101990000C9B013303D006490C98FFF72FFA07B0D0
:1019A000F0BDC04610700000C86E0000046F00005B
:1019B0004C7000004C6F0000956F00000000044068
:1019C0000080054004800440008004409C80044066
:1019D00094800440F8B50E000221140002681D0036
:1019E000536807008B435360331F0C2B06D9032C1D
:1019F00004D9652210491148FFF708F98023E00156
:101A00000340013E1E43A30734003968DB0F0A6818
:101A10009B01120C12041C4314430D220C604B68F2
:101A200093436A1E95410222AD001D434D604B68F1
:101A300013434B60F8BDC0464C6F0000A96F000017
:101A4000F7B5022405000E0002685368A3435360F3
:101A50001A4B1B6801932100019803F045FB04F029
:101A600071FB071C300004F06DFB011C381C03F0F7
:101A7000E3FEFC21890503F069FD05F059F803F048
:101A800003F905F01FF8FF280FDC2B680C4A1C61D6
:101A9000196801380A4002211A601A6800021043CE
:101AA00018605A680A435A6007E0802302345B00DA
:101AB0009C42D0D10348FFF7E1F8F7BD08010010C0
:101AC000FF0000FFE76F000002220368D8681042A1
:101AD000FCD004229960D9681142FCD09868704704
:101AE000104B70B51A68002A1AD1012580210E4AC0
:101AF0001D60D36FC9000B43D3670C4B0C4C1868A7
:101B000002230C49636003F0EFFA0138E0600A49F0
:101B100065601320FFF73AFB8022084B12031A601E
:101B200070BDC046E40300100480044008010010AA
:101B30000080014040420F005911000000E100E028
:101B4000044B10B51B68002B01D1FFF7C9FF024BF6
:101B5000986810BDE4030010008001400121034B90
:101B600098615A690A435A617047C0460080014033
:101B70000121024A53698B43536170470080014041
:101B80000122014B1A607047008001407047704786
:101B900070477047FF22014B1A707047EA0300102C
:101BA00010B502F0CBF810BD0D4B30B51A880023EC
:101BB0009A4213D1FF250B4C0B4AE15C002902D05D
:101BC000D15C013104E0D05C002804D0FF2801D1B1
:101BD000D15400E0D5540133072BEED130BDC046BF
:101BE000FC0300105C2E0010ED030010034B185C8A
:101BF000013843425841C0B27047C046ED0300105F
:101C0000002210B51D4B19781A701D4A5078002813
:101C100001D001201870D078002803D00224187851
:101C2000204318701078002803D00424187820432B
:101C300018709078002803D0082418782043187072
:101C40001079002803D01024187820431870507998
:101C5000002803D020241878204318709279002A95
:101C600003D040201A7802431A701B78054A1800E6
:101C700008409943044B1070197010BDEC0300101C
:101C80005C2E0010F5030010F4030010014B1879CE
:101C90007047C0465C2E0010014B58787047C04614
:101CA0005C2E0010014BD8787047C0465C2E0010A7
:101CB0000023094A1380094A1370094A1370094A1C
:101CC00013700122084B52421A80084A084B1A60CE
:101CD0000922084B1A707047FC030010FB03001028
:101CE00004040010F6030010F8030010547A0000FA
:101CF00000040010FA03001010B50248FFF7D8FFE7
:101D000010BDC046F703001037B572B6002104229B
:101D1000244B802559601961234BED001A608E22F7
:101D2000224B92009C582C4380259C509C586D005F
:101D30002C439C5001225A671400596719004B6FBD
:101D40001A4D01222340FAD114002B676A676B6792
:101D50004B6F164A2340FBD18E245364516CA40070
:101D600093601367536015591149294080250191EB
:101D700001992943C825019101992D022943115147
:101D8000A02284211206890153500A4953500A495E
:101D900053500A4B9860001C01688D46406880478C
:101DA00037BDC046004000A010E000E000800440C5
:101DB000FF250000042100000821000000ED00E0E4
:101DC0007047FFFFF0B5C1B00E0000F039FE00F023
:101DD00043FE8023DB029B1B0400984200D91C00B9
:101DE00000F024FE8027134801F0DAFA00257F0076
:101DF000A5421CD280216846490000F0FBFDFF2867
:101E000004D8631BBB4201D90B4806E0A8196946F8
:101E100002F09EFC002804D0084801F0C1FA01201D
:101E200006E001350648FF3501F0AEFAE0E7002094
:101E300041B0F0BDBE7B0000CA7B0000E57B000026
:101E4000377C0000F7B501260024514B514D1E7020
:101E5000514B1C80FC23DB002B8000F01FFE210077
:101E6000200000F039FE300001F0E2F90094019406
:101E700006F073FC0421494800F096FDA0420FD102
:101E800000F0DEFD0820404200F0BCFD0421684661
:101E900000F0B0FD042101A800F0ACFD00F0C6FD8B
:101EA00001273F4E7F423F4C2368B34200D03E4C57
:101EB0002368B34200D03D4C2368B34200D03C4C71
:101EC0002368B34217D020233A485B422B8001F0AD
:101ED00067FA009B002B03D0374B019A9A4240D8F7
:101EE000364801F05DFA364801F05AFAFC23DB006F
:101EF0002B80344820E0344B34482B8001F044FAE6
:101F00000A2160682F8001F0C2FA6368009A934248
:101F100027D3A068FFF7F8FE17E0FFF7C3FE0028FD
:101F200034D1FFF7B9FE0028F7D001990098FFF7E8
:101F300049FF002826D0264801F032FA05E0FFF7D5
:101F40005FFEFFF7A3FE002804D1FFF79FFE0028E5
:101F5000F5D01BE0FFF79AFE002817D0FFF750FEE0
:101F6000F8E71C4B1C482B8001F00EFA00980A2160
:101F70002F8001F08CFAFC231848DB002B8001F045
:101F80000FFACEE7164801F00BFA8CE7F7BDC04612
:101F9000160100100E010010B4060010AB7C00000A
:101FA0001EAB07B0F4FF030004FF030004FE0300B0
:101FB00004F00300B37C0000FF7F0300C77C000037
:101FC000446C0000DE7C0000FF070000F97C00008C
:101FD000037D00001FF8FFFF297D00003D7D00000C
:101FE0001F7D0000F8B50024012001F021F9454BC8
:101FF000FC271C8000F052FD434D444B44482B808D
:1020000001F0B6F80123434E30213370424BFF00FC
:102010001C70424B60201C702F8001F0C7F94048B3
:1020200001F0B2F93821602001F0C0F93D4801F01B
:10203000ABF94021602001F0B9F93B4801F0A4F967
:102040004821602001F0B2F9384801F09DF9602183
:10205000282001F0ABF9364801F096F9013C3548EB
:102060002C8001F091F934482F8001F08DF9022382
:102070002C80337002F03AFC043485B2FFF7C0FDC7
:102080007821682001F092F90A21200001F0E2F99C
:1020900002F02CFCFA239B00EB18984203D902F0C3
:1020A00025FC013C85B201F0C1FE002808D001F0FA
:1020B000BDFE041E02D0FFF7A3FDF8E7FFF7C2FE46
:1020C00001F0A8FE002807D001F0A4FE002802D0ED
:1020D000FFF796FDF8E7040001F0A2FE002802D108
:1020E000002CCBD106E001F09BFE002802D0FFF7C8
:1020F00087FDF8E70123337000F0D0FC002001F0E9
:1021000097F8F8BDB40600100E01001000F8FFFFAC
:10211000F0760000160100101701001010010010E9
:10212000627D0000677D00006C7D0000717D000015
:10213000767D00007C7D0000807D0000F0B5714C54
:102140001E0023888BB005000F0004920993002E17
:1021500006D00020322300901A00010000F0B0FCED
:10216000FC23DB002380002E16D001F059F8040078
:10217000012001F05DF801F06FFD39000200143913
:10218000681EC9B2C0B20A2301F068F95E4801F0C6
:10219000FBF8200001F04CF8049B0B2B02DC5B4A9F
:1021A000584B1A803BB203930123594C009328B239
:1021B0002200039900F09AFC049B172B02DC534B7E
:1021C000504A1380ABB21D00012608352DB205938D
:1021D0002200330003992800009600F087FCBBB270
:1021E0000693043B1BB20793009633002200079925
:1021F000280000F07BFC049B2F2B01DD454B00E009
:10220000424B0124059D424E3E4A10352DB21380AB
:102210000399230032002800009400F067FC23009B
:10222000320007992800009400F060FC069B00949F
:10223000083B1BB20893320023000899280000F0E5
:1022400055FC049B5F2B02DC304A2E4B1A80012484
:10225000059D2F4F18352DB223003A000399280011
:10226000009400F043FC23003A00079928000094F2
:1022700000F03CFC23003A0008992800009400F08C
:1022800035FC069E23000C3E36B200943A00310025
:10229000280000F02BFC049B9F2B02DC1B4A194BEF
:1022A0001A800125059C1A4F203424B22B003A00D5
:1022B00003992000009500F019FC2B003A000799C3
:1022C0002000009500F012FC2B003A000899200035
:1022D000009500F00BFC2B003A0031002000009527
:1022E00000F004FC06992B0010393A0009B2009561
:1022F000200000F0FBFB6A46024B928C1A800BB068
:10230000F0BDC0460E0100100F7E00008A52000092
:10231000CC83000000F8FFFFF7B50025012601205F
:1023200000F086FF8A4B20201D7001F065FC01F053
:1023300093FC03F04FFF874B041C1D703500864B48
:102340001B78002B00D101E1002D00D1FEE0012D12
:1023500000D095E0814D002E36D0012700F09EFB85
:102360007F42102120202F8000F0B6FB7C4801F036
:102370000BF89921282000F0AFFB7A4801F004F80F
:10238000FC237948DB002B8000F0FEFF77482F808C
:1023900000F0FAFFFC235821DB0000202B8000F026
:1023A0009BFB734800F0FCFF724F380000F0F8FF11
:1023B000380000F0F5FF380000F0F2FF380000F0C0
:1023C000EFFF6D4800F0ECFF9921302000F084FB16
:1023D00001F042FC252802DC01235B4200E0674B50
:1023E0002B800223664A00933021013BA42000F099
:1023F0007DFB3621182000F06FFB624800F0C4FF1F
:102400004221182000F068FB01F026FC282801DD9D
:102410005D4800E05D48FC2700F0B6FF0223FF00A6
:102420005B4A2F8060210093A420013B00F05EFBFB
:102430006621182000F050FB564800F0A5FF7221DD
:10244000182000F049FB01F007FC252802DD4B4B6A
:102450002B8000E02F8001F0FFFB0A2100F0FAFF43
:102460004D4800F091FFFC23DB002B8001F0F4FBD2
:102470000023020076217020FFF760FE02255EE750
:10248000022D00D060E7FFF7BBFB01F0C3FC002882
:1024900008D001F0BFFC002801D105004FE7FFF78D
:1024A000AFFBF6E701F0CEFC00282CD08421201CE5
:1024B000C90502F0FDFF002807D03849201C02F0B2
:1024C000D9FF002808D0364909E08421201CC9051D
:1024D00002F0EEFF002801D0324900E03249201C12
:1024E00003F034F83149041C02F0D8FF002802D070
:1024F000FF2001F081FB2E49201C02F0CFFF0028B5
:102500001BD02B4C19E001F097FC002800D116E7F6
:102510002449201C03F06EFC8421C905041C02F030
:10252000B3FF002802D0202001F066FB0021201C10
:1025300002F0A0FF002800D00024201C03F0E0FDE2
:1025400000B201F03BFB00260125F8E6F7BDC046CE
:10255000170100100F0400100D0400100E010010F0
:102560008B7D0000A47C00009F7D0000A17D000009
:10257000AC7D0000C77D0000E27D000000F8FFFF99
:10258000888300005F7C0000FD7D0000077E000066
:10259000AA830000127E00000F7E000000000442AB
:1025A000CDCC4C3C0000A03F000020400000504239
:1025B00000007F43012210B5084B00201A7000F084
:1025C00037FE074800F0D4FD02F080F902F096F9DA
:1025D00001F0B4FB02F090F910BDC0460D040010EC
:1025E00088700000014B18787047C0460D04001039
:1025F000F7B50024FC2725005826FF00292D48D8D0
:1026000002F074F9234B1A689042F7D91E30186013
:10261000012D0BD0002D02D0022D22D035E01E4B13
:1026200028001D8000F048FA01252EE0FC21E2B2CE
:10263000C900002000F0B4FF184B194A18806E231F
:1026400051781078490840081C34181A711A0095FE
:102650002B00A4B200F04AFAFE2C16D90024022561
:1026600013E00E4B0E4A1F806E23107851784008FD
:10267000181A49086D3B0093711A00F037FA3F347D
:10268000084BA4B29C4200D9FF25FFF7FFFA0028AF
:10269000B4D0F7BD70510010B40600100E01001048
:1026A0007E7E0000FF03000010B5202001F0A4FA98
:1026B0001022034B1A80034BEF321A7010BDC04634
:1026C000B22C00100C040010F8B5FFF773FF1022B5
:1026D0000124FF252B4B1A702B4B1C602B4B1D70BC
:1026E000FFF7E2FFFFF752FA28000025FFF74FFA45
:1026F000FFF756FAFFF758FAFFF74BFA00F0E7F941
:10270000FFF776FF200000F093FD214F3D8000F0A1
:10271000C5F9204E300000F02BFD200000F088FDB0
:10272000FC221D4BD2001A803D8000F0B7F930002A
:1027300000F01EFD194F1A4E3D703470FFF752FC29
:10274000FFF7EAFD01F06CFA280000F071FD154B6F
:1027500015481C70154B3C701C70347000F008FD5F
:1027600000F096FFFFF716FA0520FFF73FFAA842A0
:1027700003D10F4B1B78AB4202D1002001F01EFAAF
:10278000F8BDC0460E040010140400100C04001024
:10279000B4060010F07600000E01001017010010C2
:1027A00010010010160100108C73000012010010BF
:1027B000EA030010F8B5274D274C0023EE5E0023F6
:1027C000E75E264B00211A786F239B1A2B80244B3F
:1027D00021801B78042B2FD8180002F07BFC031BF0
:1027E0002525250001F091F80020FFF7D0F900F031
:1027F00069FB01221B4B1C481A7000F0C5FD1B4BE6
:102800000A21188800F026FE194800F0BDFD00F0EE
:102810008BFB18E0174B00211A680F230720134089
:10282000072B0ED978200CE0134A1278002A0AD020
:102830000533D8B2002104E00F4B1B78002B02D0E7
:102840002F2000F003FEFF231E401F402E80278014
:10285000F8BDC046AC060010B2060010A506001078
:10286000EA030010160100101D7E0000E8030010AE
:102870002A7E000008040010EB030010F0B51F4B87
:1028800085B01A780393002A36D000240B2A02D888
:102890000C239C1AE4B20127194B002055251F7008
:1028A00000F0C8FB0322174EA4B231780020CB1CE5
:1028B000691A61180092513200F036FC380000F0BD
:1028C000B9FB032231780020CB1C691A61180092F1
:1028D000513200F0EFFB04220B4B1A803378E41ADC
:1028E0000A4B57341C800A4B186800F04DFD039BBF
:1028F000039A1B78013B137005B0F0BD2004001053
:1029000016010010A4060010AC060010B20600105C
:1029100018040010F8B5070000F070FE1A4D2C687E
:1029200001F0E4FF194E201A3378194C984202D96D
:102930002368002B14D12368002B0FD100F0E0FF97
:1029400001F042F801F034F9FFF798FFFFF732FF8A
:10295000002F01D100F0E8FA01232360002011E0EC
:1029600001F0C4FF0B4A337818181368286001334C
:10297000136000232360FFF70BF9FFF715F9FFF74A
:1029800009F90120F8BDC0461C0400100E04001017
:10299000140400100804001010B5024800F0FAFBFF
:1029A00010BDC0461004001070B50F4D06002B7806
:1029B0000C00102B0BD030002C70FEF711F8041E09
:1029C0000DD13100094802F07BFB20000AE00848E5
:1029D00005F002FE03000120002BECD002E00823EA
:1029E00001202B7070BDC0460C0100106C0400105B
:1029F0002404001013B56B469C1D2200FEF720F83E
:102A0000208816BD10B5074B002804DADA69414268
:102A10008A4200D25042DB69C018FEF773F8024BBD
:102A2000187010BD240400107B04001010B50020A5
:102A3000FEF768F8014B187010BDC0467B0400100B
:102A4000034B10B5186AFEF75DF8024B187010BD05
:102A5000240400107B040010014BD8697047C04665
:102A6000240400100123812213B5074C5B4200931C
:102A70005201064B06492000FEF730FA054A064986
:102A80002000FEF747FC13BD54040010180C000092
:102A90002412000000010010CD0E000010B500202F
:102AA00001F0A8FA0023024A1380024A138010BDE5
:102AB000AC060010B206001010B501F09BFA10BD74
:102AC00013B504AC2488009401F049FC13BD10B583
:102AD00001F0F2FA10BDFFFF024B1880024B198083
:102AE0007047C046AC060010B2060010F0B58FB0BB
:102AF0000B9114A909780A900891117805915178E1
:102B0000023209910092012B76D1059B0733DB102D
:102B10000C936B461B8D07930493002303936B4622
:102B20000C21595E059B8B4200DCF0E00723CA179D
:102B30001A405218D21053B20A93764B0B4004D568
:102B40000822013B52421343013380221BB21A4137
:102B50006B469B8D0D9206930293002301936B4667
:102B600004229B5E099A93423EDA0C9A0A995343D7
:102B7000009A5218D35C0D9A1A422DD0089B664CCD
:102B8000012B09D1069B019903985918079B2288AC
:102B9000181809B200B21DE06B461027DF5F6B46C4
:102BA00008269E5F22883100380001F0BDFB049B9F
:102BB00031005D1C2DB22288280001F0B5FB029B7C
:102BC00022885E1C36B23100380001F0ADFB3100C6
:102BD0002800228801F0A8FB019B01330193029B8E
:102BE00002339BB20293BAE7039B01330393049B26
:102BF00002339BB2049392E7042B00D087E00023BA
:102C0000099A934200DB82E09BB202936B469B8D54
:102C100000250793029B079A5B00D3189BB21AB258
:102C200001331BB204936B461B8D039206930193F1
:102C3000059BAB4267DD009B384A1B7812681B116D
:102C40005B009E5A089B022B19D1069B6C001C1935
:102C5000A4B227B2013432000399380024B201F043
:102C600063FB32000399200001F05EFB32000499FF
:102C7000200001F059FB32000499380007E0029B64
:102C8000079A99186B4632000420185E09B201F0C9
:102C90004BFB0F22009B1B781340204A5B001268FD
:102CA0009E5A089B022B1AD1069B6C001C19A4B2D9
:102CB000A71C3FB2033432000399380024B201F05C
:102CC00033FB32000399200001F02EFB32000499FF
:102CD000200001F029FB32000499380007E0029B34
:102CE000079A99183200019B09B2581C00B201F0F2
:102CF0001BFB009B023501330093019B2DB2023375
:102D00009BB2019394E7029B01331BB278E70FB0AB
:102D1000F0BDC046070000800E010010A0060010A4
:102D2000F0B513004D4A8DB00B90106804914278B5
:102D300011000592F72208390A40511E8A4105996F
:102D4000C91052180992099902784A43511C4B4301
:102D50001A0082181279053352B20A920022C3185F
:102D600003926A46127B0A9952B291426BDD09992D
:102D70001A78022903D00133089393B204E0991C16
:102D80005B7808911B02134300936B469B890025D7
:102D900006936B469B8D0793069B079A5B00D3189F
:102DA0009BB21AB201331BB201920293059BAB4254
:102DB00044DD0122009B13420ED0294B1B78022BCD
:102DC00007D1049B6C00E418264EA4B227B23288C7
:102DD00011E0244B1A8822E0234E244B32881B88B2
:102DE000934225D01E4B1B78022B18D1049B6C00FC
:102DF000E418A4B227B239000198013401F094FA22
:102E000024B232883900029801F08EFA328821000B
:102E1000019801F089FA32882100029806E0049BAB
:102E20000798E918069B09B2181800B201F07CFA5D
:102E3000009B01355B0800936DB2B7E7039B01333C
:102E40000393089B8DE70020094B18560A9BC01876
:102E5000034B1B7858430DB0F0BDC046A8060010C8
:102E6000160100100E010010B40600101A01001027
:102E70001701001010B5114B1C68F723617808008A
:102E800008381840431E9841CB10C318207843439C
:102E900001335A4300230432A056834208DA002249
:102EA000914202DB013252B2FAE701335BB2F4E73E
:102EB000034B1B785BB2181810BDC046A806001063
:102EC0001701001010B5124B1888124BC2B21B78B4
:102ED000012B03D1FF2100280AD00EE0022B07D1DD
:102EE00001331A401100930019430A01114304E011
:102EF0000F23110103401943C9B2074B074A186851
:102F000001F0AEFF0023064A1380064A138010BD6D
:102F1000A60600101101001094040010D025000036
:102F2000AC060010B2060010064B10B51968064B2F
:102F3000186801F03BFA054B1B78002B01D1FFF715
:102F4000C1FF10BDA0060010940400109C060010E4
:102F5000F7B500285AD02E4B1E78B04201DB701E08
:102F600000B22C4B1C78042C07D12B4B1B7843430D
:102F7000DA0FD3185B109BB20AE0022C46D1264B25
:102F8000197803234143CA171340591889108BB28B
:102F9000224A12880192204A00281CDD1278204F14
:102FA000D208624300242500301A84422ADA5B1BCF
:102FB0009BB229009C4663464E1BCB18B6B29BB20F
:102FC000964204DAFB5C4E1C7B54B1B2F3E7013449
:102FD000A4B20D00E9E71278114D624380B2D2101D
:102FE000B6B286420ED91900CC1AA4B2944205DAC0
:102FF0004C1CA4B22F5D6F542100F5E7013080B264
:103000000B00EEE76A46054B92881A80F7BDC04672
:103010001C01001011010010180100101401001013
:10302000B606001010B5024800F0A2FA10BDC04666
:103030008E7B0000014B18807047C04614010010C1
:10304000012130B5002590B2091A4000404209B272
:1030500000B2954210DA002906DB023084B2013A50
:10306000611812B220B209B26B1C9BB21DB25B0098
:103070000133591809B2ECE730BD012130B5002504
:1030800090B2091A4000404209B200B2954210DAEB
:10309000002906DB023084B2013A611812B220B274
:1030A00009B26B1C9BB21DB25B000133591809B207
:1030B000ECE730BDF0B585B003930AAB00255D5F4A
:1030C0001400012D2EDD83B200938BB20193009B7F
:1030D000AEB29B191BB20293019B2A00F7183FB2B4
:1030E000012339000298FFF7ABFF009B013C1C193C
:1030F000A41B24B202232A0039002000FFF7A0FFFE
:103100000399019B013959188E1B36B204232A00FA
:1031100031002000FFF794FF08232A0031000298B5
:10312000FFF78EFF05B0F0BDF7B51C0008AB002718
:10313000DF5F012F1ADD83B2B8B241180DB2013C36
:103140004100013A9A18641A1E1824B2101A00B2EB
:1031500001233A002900B6B20094FFF78EFF30B287
:10316000009402233A002900FFF787FFF7BDFFFF15
:10317000054B064A18600378013313704378044AFC
:10318000013313707047C046A8060010A506001052
:10319000A40600100E4A0F4B10B504001A60FFF78A
:1031A00041FF01220C4B0D481A700D4BDB321A8087
:1031B0000C4B2C3A1A80FFF7DBFF11220A4B200040
:1031C0001A800022094B1A80094B08321A7010BD70
:1031D000B606001094040010B106001088700000BC
:1031E0009A040010AE0600101A010010A606001086
:1031F0009804001010B5084B09B21B6800B29B7808
:10320000D21A064BD2B21B78002B02D0FFF788FDF2
:1032100001E0FFF72FFE10BDA8060010B106001058
:10322000024B1878431E9841C0B27047B106001097
:1032300009490A4A0A4B002805D001200870DC2100
:103240001180B02205E00870064909781180064A0D
:1032500012781A807047C046B10600109A04001018
:10326000AE060010180100101C01001010B50B4C28
:103270000B490023E25E0B4B09881B685B78580002
:10328000091A0948007840B28A4203DDC018FFF7E6
:103290005FFE02E0C3189B18238010BDB206001029
:1032A000AE060010A80600101001001070B52B4BE0
:1032B00004001A68D378002B03D0602801D9203C81
:1032C000E4B20E2C21D8200001F004FF461F1F1F7E
:1032D0001F1F1F1F0E1F081F1F1B46000022204B11
:1032E0001A80FFF7C3FF37E01D4910780B882022B2
:1032F000181A1C4B80B208801978C0B2FFF77AFF09
:103300002AE00022164B1A8026E0154D1278002381
:10331000E85E154B1B889B1A98420BDB00232B8021
:10332000124B1B78002B17D0FFF7A0FF0D4B28780E
:10333000197802E00B4BC0B219782200FFF75AFF50
:10334000202C06D10A4B1B785BB2002B01D0401019
:1033500001302B881818288070BDC046A8060010C0
:10336000AC060010B20600109A0400101201001002
:103370001701001010B504002078002803D0013494
:10338000FFF794FFF8E710BD10B5FFF7F3FF10BD8E
:1033900010B50D20FFF78AFF0A20FFF787FF10BD49
:1033A00010B5FFF7E7FFFFF7F3FF10BD024B1880E2
:1033B000024B19807047C046AC060010B2060010E0
:1033C0000023F0B5050089B00E00984203D13020EB
:1033D000FFF76CFF1CE05C1C28006B4431001F00F1
:1033E00001F008FF28003970310001F07DFE230054
:1033F000051EF0D16B46013C1B5D18003730C0B292
:10340000092B01D83033D8B2FFF750FF002CF1D18F
:1034100009B0F0BD10B5041E03DA2D20FFF746FFFA
:1034200064420A212000FFF7CBFF10BD10B5002930
:1034300003D1C0B2FFF73AFF07E00A2902D1FFF734
:10344000E9FF02E0C9B2FFF7BBFF10BD10B5FFF7FF
:10345000EDFF10BD10B5FFF7E9FF10BD10B5044C2E
:1034600020800448018019001000FFF7DFFF10BD25
:10347000AC060010B206001010B5002903D1C0B28E
:10348000FFF714FF02E0C9B2FFF79AFF10BD10B5B5
:10349000FFF7F2FFFFF77CFF10BDFFFF10B50248FA
:1034A000FEF78EFC10BDC046B00600108021002340
:1034B00010B5054A8900C45AD45202338B42FAD15E
:1034C000024B1A6010BDC0469C040010A0060010FC
:1034D000F3B5FFB000283FD0404240B241001F4A40
:1034E00000281ADD0D00802400236D446400D65AA4
:1034F0000130EE520233A042F9D100234C42802524
:10350000E018AD0040196D46105AE8520233994256
:10351000F5D180210023890018E0FF300023844684
:103520004C421719634505DC68465D007E5B01333C
:103530004653F7E70023A342EBD080256E46581888
:10354000AD004019D55A02333552F4E76846C05AE7
:10355000D05202338B42F9D17FB0F3BD9C040010EE
:1035600089104901D210C0100A43C00210437047AD
:10357000F8B5802704000025074E7F00A278617807
:103580002078FFF7EDFF6B000135F0520334BD42A8
:10359000F4D1024B1E60F8BD9C040010A006001080
:1035A00070B51F24050025400C40641B23B2534313
:1035B0001B12EB183F2544114E112C40C00A354018
:1035C000C9122D1B091A55434A4312122D12801895
:1035D0001BB26419021C002800DA002212B2D202C7
:1035E000181C002B00DA00201043231C002C00DAEA
:1035F00000231BB25B01184380B270BD70B51A4B3B
:103600001A4C196822681E00194D91421DD023687A
:10361000002B03D18021174809010DE02368012BFD
:1036200003D180211448090106E0802123680901A3
:103630001248022B00D01248FFF7DCF980222368E1
:10364000120133602B689B182B600E4B0E4A1B6ACD
:103650009B182A68934205D200242C60FFF7E6F9F4
:103660000A4B1C7070BDC046E8300010603000107E
:10367000245100101D4900101D3100101D3900108B
:103680001D4100102404001000F8FFFFCC30001092
:1036900010B500F0D9FF012000F0F8FE10BDFFFFCB
:1036A00000B5002B3CD104283AD801F013FD030EDD
:1036B000242B3200002349B2994204DB0B1C0A2957
:1036C00000DD0A23DBB2174A13E0174B89001B68A1
:1036D000164ACB58164813601B88164A11781A00F0
:1036E0004A43D2B202701B12934200DD13004B43D7
:1036F000114A137014E00F4B1B7859430F4B19708C
:103700000F4B0CE00B4B1B7859430E4B19700E4BB3
:1037100005E0084B1B7859430C4B19700C4B1A7081
:1037200000BDC046C42C0010C02C0010A42C0010FA
:10373000AF2C00108B2C00108C2C0010B82C00101B
:10374000872C0010C52C0010A02C0010BA2C0010E3
:10375000882C0010002A11D1094B1870094B1B78D6
:103760005943094B1970094B09491A70094B1A80C2
:1037700001230B7008490B70084B1A707047C04644
:103780008F2C00108B2C00109D2C0010AC2C0010E6
:103790008A2C0010C62C0010892C0010902C0010D0
:1037A00010B500240D4B1B78A34201D00C4B1C78A4
:1037B0000C4B1B78002B0AD00B4B187802F00AFD3B
:1037C0000A4902F039F8011C0948FDF779FF200089
:1037D00000F076FE074B1C8010BDC046892C0010FF
:1037E000AD2C00101E510010B42C001000007F43BF
:1037F000C43000102051001010B500280FD1084B24
:103800001870084B1870084B1880084B1870084B3C
:103810001870084B1870084B1870FFF7C1FF10BDE7
:103820008A2C00109D2C0010C62C0010902C00102B
:10383000AD2C0010B02C0010892C001010B5041E07
:1038400003D1FFF7D9FF014B1C7010BD862C00106F
:1038500070B505000C1E12D10800FFF7EFFF012222
:10386000074B1D60074B1C80074B1A70074B083233
:103870001A70074B1C70074B1C70074B1C7070BDF7
:10388000982C00109E2C0010862C0010C42C0010C8
:10389000B82C0010C52C0010BA2C001010B5002850
:1038A0001FD1104A1378002B1BD00F4B1978002919
:1038B00017D10E4C0E48237800685B001B5A0D4848
:1038C000834201D111700CE00B4A181210700B4AA0
:1038D000DBB212689B009858FFF7BAFF23780133D8
:1038E000237010BD942C0010862C0010B62C0010F4
:1038F000BC2C0010FFFF0000B52C0010A82C0010FD
:1039000010B50020FFF7CAFF10BD10B50020FFF76B
:1039100095FF10BDF8B5002848D1254A1378002B33
:1039200044D0244B1B78002B40D1234C234D2388BB
:1039300028685B00195A002912D1214B1B78002BF3
:1039400002D0218001880BE01E4B117018780028EE
:1039500009D00800FFF7A2FF23882A685B00995A64
:1039600001271F2602E0FFF747FF1FE00A008B1028
:103970003A4013D08811C9120A0001000F20103AF2
:1039800052B2314018400023FFF78AFE23882A688C
:1039900001339BB223805B00995AE7E73F20090A75
:1039A0001840FFF7D7FE238801332380F8BDC046B7
:1039B000862C00109D2C00109E2C0010982C0010BE
:1039C000912C0010942C001010B50020FFF7A2FFDE
:1039D00010BDFFFFF7B5002800D0ABE0564B1B78B9
:1039E000002B00D1A6E0554B1878002802D1FFF734
:1039F00003FF9FE0524C013818702378002B26D12A
:103A0000504D51482B885A1C504B51001B68CB5AC3
:103A10000721194001704E49981208704D489905C8
:103A20000078890E41431B0721704B49DB0F0B7057
:103A300093B24A4A2B801278934208D3484B1878A5
:103A4000002802D0121A2A8001E0FFF7D5FE237861
:103A5000013B2370434B444C1D7801356DB21D7002
:103A6000424B1B7801933A4B1E78019B9E19404BA9
:103A70001B78F6183F4BF6B219782670002907D04C
:103A8000280001F0BBFB3C4B1B78584336182670CE
:103A900020782421243001F097FC002721700E00AB
:103AA0000021364B364CDF57364B277059560029CC
:103AB00007D0280001F0A2FB334B1B7858433F1876
:103AC0002770324B1978002910D0280001F096FB9E
:103AD0002F4B184004D5022301385B4218430130B4
:103AE0002C4B1B7858432378C0182070019B3F2B28
:103AF0000AD02278131C52B2092A01DD092304E0FE
:103B00001A0602D5002300E000232370224B9A5DA1
:103B1000224B1A700C4A237812785343204A1278A9
:103B20005A43204B1B885B1153431F4ADBB213706F
:103B30001E4A1370F7BDC0468A2C00109D2C001041
:103B4000AC2C0010C62C00109C2C0010A42C0010D3
:103B5000B92C00108B2C0010B72C0010AF2C0010CB
:103B60008C2C0010902C0010AE2C00108F2C00100C
:103B7000B52C0010C52C0010A02C0010C42C001077
:103B8000922C0010B82C0010872C0010BA2C0010BA
:103B900001000080882C0010D2830000932C0010BC
:103BA0008D2C0010B22C0010B02C0010AD2C001089
:103BB00010B50020FFF70EFF10BDFFFF10B5031C6E
:103BC000002800DA00230A4A1BB21288934200DD63
:103BD00013B2084A1380DA0FD3185B100A3B1BB2EA
:103BE000181C002B00DA0020C0B200F023FC10BD2E
:103BF0001E010010B22C001010B5002803DBFF28B6
:103C000002DDFF2000E00020034B1880034B002062
:103C1000185EFFF7D3FF10BD1E010010B22C00107C
:103C2000054B10B51888202801D9103000E0083065
:103C300000B2FFF7C3FF10BDB22C0010054B10B54A
:103C40001888202801D9203800E0083800B2FFF792
:103C5000B5FF10BDB22C0010014B18887047C0464C
:103C6000B22C001010B50248FEF7AAF810BDC046ED
:103C70008E2C00100122014B1A7170475C2E00102F
:103C80000022014B1A7170475C2E00100122014B7B
:103C90005A7170475C2E00100022014B5A71704718
:103CA0005C2E00100122014B9A7170475C2E0010AF
:103CB0000022014B9A7170475C2E00100122014BCB
:103CC0005A7070475C2E00100022014B5A707047EA
:103CD0005C2E00100122014BDA7070475C2E001040
:103CE0000022014BDA7070475C2E00100022014B5D
:103CF0009A7070475C2E00100022014B1A707047BA
:103D00005C2E001010B5054B9A79002A02D0FFF7FF
:103D100087FF01E001229A7010BDC0465C2E0010A2
:103D200010B5054B9A79002A02D0FFF787FF01E012
:103D300001221A7010BDC0465C2E001010B5204C38
:103D400020492000FDF731F820001F49FDF71EF83B
:103D50001E4C1F492000FDF728F820001D49FDF7E3
:103D600015F81D4C1D492000FDF71FF820001C49C7
:103D7000FDF70CF81B4C1C492000FDF716F820003D
:103D80001A49FDF703F81A4C1A492000FDF70DF8FF
:103D900020001949FCF7FAFF184C19492000FDF7DB
:103DA00004F820001749FCF7F1FF174C17492000D1
:103DB000FCF7FBFF16492000FCF7E8FF10BDC046EA
:103DC000642E0010813C0000753C0000B42E0010F1
:103DD000993C00008D3C0000C82C0010B13C000054
:103DE000A53C00000C2E0010C93C0000BD3C0000AA
:103DF000182D0010E13C0000D53C00006C2D001097
:103E0000F93C0000213D0000BC2D0010ED3C0000FD
:103E1000053D0000014B18797047C0465C2E00102C
:103E2000014B58797047C0465C2E0010014B9879C1
:103E30007047C0465C2E0010014B18787047C04692
:103E40005C2E0010014B98787047C0465C2E001025
:103E500070B52648FFF79EF9254E26493000FCF73D
:103E600071FF254D254C2A0021003000FDF752FA44
:103E7000234E24493000FCF765FF2A002100300062
:103E8000FDF748FA204E21493000FCF75BFF2A007D
:103E900021003000FDF73EFA1D4E1E493000FCF7B0
:103EA00051FF2A0021003000FDF734FA1A4E1B4959
:103EB0003000FCF747FF2A0021003000FDF72AFA06
:103EC000174E18493000FCF73DFF2A002100300052
:103ED000FDF720FA144E15493000FCF733FF2A0095
:103EE00030002100FDF716FA70BDC046682D0010A5
:103EF000642E00108412010000010010190D000052
:103F0000B42E001070080100C82C001088140100A5
:103F10000C2E0010941A0100182D00106C060100E0
:103F20006C2D0010C4320100BC2D00107C0E01006D
:103F3000074B1A8882420AD01880A023054A0649F6
:103F40001B0699500549C0005850002199507047F0
:103F5000042F0010882000000700F8FF88210000CF
:103F600070B58A23A024042224069B01E2508023FA
:103F7000064D5B046351FFF7DBFF8023044A5B01BE
:103F8000A350C046C046635170BDC0460422000025
:103F90008422000070B58823A024042224069B01FB
:103FA000E2508023064D5B046351FFF7C1FF80237D
:103FB000044A5B01A350C046C046635170BDC04671
:103FC000042200008422000010B5074C074920009D
:103FD000FDF7BAFB20000521FDF795FB0449200001
:103FE000FDF76EFB10BDC046082F0010FC04020058
:103FF0009A99993E10B504002020FFF7B1FF0020E8
:10400000FFF7C8FF2120FFF7ABFF0020FFF7C2FF3B
:104010002220FFF7A5FF2000FFF78AFFA0238822B8
:1040200004211B06920199508021084A49049950A5
:10403000802107484901074C99501951C046C04694
:10404000013899500028F8D110BDC0460422000064
:10405000409700008422000010B52020FFF780FF69
:104060000020FFF797FF2120FFF77AFF0020FFF7DE
:1040700091FF2220FFF774FF0020FFF759FFA023D4
:10408000882204211B06920199508021074A490485
:104090009950802106484901064C99501951C04653
:1040A000C046013899500028F8D110BD0422000004
:1040B000409700008422000070B5A0250124784EAE
:1040C0002D06FFF781FFAC510A20FDF758F8754B1C
:1040D0000A20EC50FDF753F8AC510A20FDF74FF8D9
:1040E0002000FFF73DFF8E204000FFF753FF022026
:1040F000FFF736FF80204000FFF74CFF0320FFF75B
:104100002FFF6948FFF746FF0820FFF729FF6748A0
:10411000FFF740FF0C20FFF723FF0020FFF73AFFD7
:104120000F20FFF71DFF2000FFF734FF2020FFF7CF
:1041300017FF0020FFF72EFF2120FFF711FF0020BF
:10414000FFF728FF1020FFF70BFF0020FFF722FFEB
:104150001120FFF705FF80204001FFF71BFF0A2019
:10416000FDF70DF83020FFF7FBFE0020FFF712FFF0
:104170003120FFF7F5FEDB20FFF70CFF3220FFF7C1
:10418000EFFE0020FFF706FF3320FFF7E9FE0020D7
:10419000FFF700FF3420FFF7E3FEDB20FFF7FAFE16
:1041A0003520FFF7DDFE0020FFF7F4FE3620FFF795
:1041B000D7FEAF20FFF7EEFE3720FFF7D1FE00203D
:1041C000FFF7E8FE3820FFF7CBFEDB20FFF7E2FE2B
:1041D0003920FFF7C5FE0020FFF7DCFE0A20FCF7C0
:1041E000CEFFFF20FFF7BCFE0320FFF7D3FE5020D9
:1041F000FFF7B6FE2E48FFF7CDFE5120FFF7B0FEC9
:104200002C48FFF7C7FE5220FFF7AAFE2A4D0520D3
:10421000FFF7C0FE5320FFF7A3FE2800FFF7BAFE0A
:104220005420FFF79DFE2548FFF7B4FE5520FFF709
:1042300097FE234C0320FFF7ADFE5620FFF790FEBC
:104240002000FFF7A7FE5720FFF78AFE1D48FFF763
:10425000A1FE5820FFF784FE2800FFF79BFE59209F
:10426000FFF77EFE2000FFF795FEB020FFF778FEF7
:104270001548FFF78FFEFF20FFF772FE0020FFF7C3
:1042800089FE0720FFF76CFE1048FFF783FEC82069
:10429000FCF775FF2220FFF763FEFFF7DDFE70BD20
:1042A00004220000842200003010000008080000F2
:1042B00003020000090A00002110000002060000AD
:1042C000030700000705000001250000171000008B
:1042D000F8B5050017000C001E00ADB23720FFF73F
:1042E0003FFE2800FFF756FE3620FFF739FEB8B232
:1042F000FFF750FEA4B23920FFF732FE2000FFF78F
:1043000049FE3820FFF72CFEB0B2FFF743FE202015
:10431000FFF726FE2800FFF73DFE2120FFF720FED5
:104320002000FFF737FEF8BD70B584B21600DB2C15
:1043300014D88DB2AF2D11D82020FFF711FE280020
:10434000FFF728FE2120FFF70BFE2000FFF722FEDB
:104350002220FFF705FE3000FFF71CFE70BDF7B509
:104360001C0008AB1B8807000E0015000193824259
:1043700001DC451C2DB2B44201DC741C24B26B1E5E
:10438000621EDBB2D2B2F9B2F0B2FFF7A1FF222077
:10439000FFF7E6FDED1BA41B6C43002C04D0019835
:1043A000FFF7F8FD013CF8E7F7BDFFFFF7B50400A4
:1043B00020200E00FFF7D4FD0020FFF7EBFD2120A9
:1043C000FFF7CEFD0020FFF7E5FD2220FFF7C8FD37
:1043D000104BE31801930025635D01355B009F5B83
:1043E0003800FFF7D7FD3800FFF7D4FD582DF3D183
:1043F0000025635D01355B009F5B3800FFF7CAFD58
:104400003800FFF7C7FD582DF3D1019B58349C426B
:10441000E1D1F7BDD025000070B504000D001822D1
:10442000002100F01DFD29002000FCF770FC200099
:1044300070BDFFFF7F23812110B50A4C8EB018405C
:104440002070094A0901684600F09AFB22785E2133
:10445000684600F0E0FB2478684600F0DBFB2000B3
:104460000EB010BD1D510010140A0000002210B53E
:10447000044B10201A70044B01321A70FFF7DAFF58
:1044800010BDC0461D5100102851001070B5094CD8
:1044900005002368013304D1242207490748FCF7AB
:1044A000B5FB002D01D0E36800E0236962681A6063
:1044B00070BDC046D0300010456C0000946C000008
:1044C000A0228021030012064905D80701D52848FB
:1044D00000E028481150A02280215B1012068905B7
:1044E000D80701D5224800E022481150A02280219F
:1044F0005B101206C905D80701D51D4800E01D480C
:104500001150A02280215B1012060906D80701D5A0
:10451000174800E017481150A02280215B101206B6
:104520004903D80701D5144800E014481150A022CF
:1045300080215B1012068903D80701D50E4800E0E0
:104540000E481150A02280215B101206C903D80723
:1045500001D5094800E00948115080215B10090489
:10456000002B01D0044B00E0044BD1507047C046F3
:10457000042200008422000008220000882200009B
:1045800070B5244B00241A7801231340224A234D8E
:104590001370A34228D000262149224A0B68581CD8
:1045A00008601B789657DBB2A64203D00322921B09
:1045B0001341DCB21C4A2C701368984211D31B4B78
:1045C0001868013018601868042801D100201860AC
:1045D0001B681748DB02C3180B60802109015B18B8
:1045E00013602878FFF76CFF200001F0F3FD1149FC
:1045F00001F022F9011C1048FDF762F82B780F4AF0
:104600001C190F4B64101C801378591C11700D4A33
:10461000D45470BDCC3000101E5100101C3100105D
:10462000282F0010200100104430001060300010CE
:104630001D31001000007F43C430001044510010B1
:10464000205100102C2F001010B50C4C0C492000EC
:10465000FDF77AF820001F21FDF755F820000949E1
:10466000FDF72EF80848094B5A2183610023C362E5
:10467000FCF7C3FCFFF7FAFE10BDC046C4300010C3
:1046800040270200CDCCCC3DEC300010814500002D
:1046900010B5194C2000FCF72BFD184B184A23606D
:1046A00000231849A361E3622000FCF733FE16499A
:1046B0001648FFF7B1FE16491648FFF7ADFE16493A
:1046C0001648FFF7A9FE16491648FFF7A5FE16493A
:1046D0001648FFF7A1FE16491648FFF79DFE16493A
:1046E0001648FFF799FE16491648FFF795FE16493A
:1046F0001648FFF791FE10BDEC300010386D000039
:1047000000010010CD0F0000D03801002C30001047
:10471000D43A01002C510010D83C01004830001060
:10472000DC3E0100102F001044290200643000100C
:10473000482B02007C3000104C2D020094300010F9
:10474000502F0200AC300010A4220100D030001025
:10475000F0B585B00600029172B64D4B984202D872
:10476000050B2B0313E04B4B1C2598420CD84A4BEE
:10477000013D984208D8494B013D984204D8484D24
:104780008542AD416D421835464BEB189B039B1B90
:1047900059425941CBB201933223434C434F2360DA
:1047A0006560434BA560390020009847404A3B684C
:1047B0000392002B01D0012068E0E422920296428D
:1047C00060D1019B002B3BD0012301933423FA21BC
:1047D0002360384B890018686560A56000F084FC90
:1047E000324FE060324B3900200098473B68002B85
:1047F000E1D13233236065602D4BA5603900200084
:1048000098473B68002BD6D1019B002B18D133234E
:104810002360029BFA21A36080235B00E360254BA9
:1048200089001868666000F05FFC204D2061290057
:1048300020001F4B984728680028BCD162B625E0AD
:104840003B232360E023FA219B0063601A4B89001D
:10485000A360184B186800F047FC144FE060144B3D
:104860003900200098473B68002BA4D132332360E5
:1048700065600F4BA5603900200098473B68002B0E
:10488000C5D098E7019A002AC1D09EE705B0F0BDD7
:10489000FF7F0100FF7F0300FFFF0200FF7F020098
:1048A000FFFF0100EEFF0300485100105C510010B3
:1048B000F11FFF1F08010010FF030000024A1368E8
:1048C0000A3313607047C0466C510010044B054A10
:1048D00007215A6000229A601960034B1A607047E2
:1048E00010E000E0FF5207006C510010014B186807
:1048F0007047C0466C5100107047FFFFA023802115
:1049000004201B0689015A5810B5024380205A50D2
:10491000294A4001995801438020995099584004F0
:104920000143012099509958014399502349244843
:104930005A5802435A5023480021FCF793FE0021A5
:104940002148FCF78FFE00212048FCF78BFE002158
:104950001F48FCF787FE00211E48FCF783FE00215C
:104960001D48FCF77FFE00211C48FCF77BFE002160
:104970001B48FCF777FE00211A48FCF773FE002164
:104980001948FCF76FFE00211848FCF76BFE002168
:104990001748FCF767FE00211648FCF763FE00216C
:1049A0001548FCF75FFE00211448FCF75BFE002170
:1049B0001348FCF757FE10BD04200000082000003B
:1049C000F8FF07000007020004090200080B0200BC
:1049D0000C0D0200100F0200141102001813020047
:1049E0001C1502002017020024190200281B0200D7
:1049F0002C1D0200301F0200342102003823020067
:104A00003C250200036870B504000D00013304D199
:104A1000242206490648FCF7F9F86368002D01D006
:104A2000E26800E02269136070BDC046456C00007A
:104A3000946C0000036810B50400013304D12C22EB
:104A400005490648FCF7E2F8636960681B6818408E
:104A5000431E984110BDC046456C0000946C000098
:104A600010B50121FCF7CEFC10BD70B50400250087
:104A7000FFF7F6FF1835606BFCF776FB2800012185
:104A8000FFF7C0FF01212000FFF7BCFF606BFCF7C0
:104A90006BFB00212000FFF7B5FF606BFCF764FBA8
:104AA00028000021FFF7AEFF606BFCF75DFB70BDD7
:104AB00010B50400FFF7D4FF606BFCF755FB002135
:104AC0002000FFF79FFF606BFCF74EFB20000121E9
:104AD0001830FFF797FF606BFCF746FB01212000C1
:104AE000FFF790FF10BDF8B504000F000825FFF791
:104AF000B7FF606BFCF738FB0121013DA9402600A0
:104B0000394020001836FFF77DFF01213000FFF704
:104B100079FF606BFCF728FB00213000FFF772FF84
:104B2000002DE6D101212000FFF76CFFF8BD70B524
:104B300004002500FFF794FF183501212000FFF73E
:104B400061FF01212800FFF75DFF00212000FCF735
:104B500059FC04212000FCF74FFC606BFCF704FBC0
:104B600000212800FFF74EFF2000FFF763FF00231E
:104B7000984203D1606BFCF7F7FA0123180070BD6F
:104B8000F8B5182604000D0017000021320000F0CF
:104B900067F929002000A519FCF79FF832002800CA
:104BA000002100F05DF939002800FCF796F8280094
:104BB000FFF756FF28000421FCF71EFC2000FFF73A
:104BC0004FFF04212000FCF717FC230000260127DB
:104BD00030331E7028006763FFF742FF2000FFF7A5
:104BE0003FFF39002000FFF70DFF31002800FFF7DD
:104BF00009FF606BFCF7B8FA2000FFF759FF2000AF
:104C0000FFF756FF2000FFF753FF2000FFF750FF8C
:104C10002000F8BD704770B50D0016000400FFF7C6
:104C200024FF0123290020009943FFF75CFF2000A7
:104C3000FFF77DFF31002000FFF755FF2000FFF751
:104C400076FF2000FFF734FF70BDFFFF10B5064B65
:104C50000648197800F0D2FA054B186039235843FA
:104C6000044B188010BDC04621010010983A000086
:104C7000785100107451001010B50248FDF7A0F8EB
:104C800010BDC0467C510010454AF8B556469246C4
:104C90004B005B0D9A444D465F4644465246F0B485
:104CA000894605000C000E000700132A22DC002AAA
:104CB00047DB52463B4B134198460B00424613409C
:104CC000034311D0384A394B01F0C2FA00220023C5
:104CD00000F0AAFB002805D0002C41DB4E464346DD
:104CE00000279E43380031003CBC90469946A246BE
:104CF000AB46F8BD5246332A08DD8023DB009A45D7
:104D0000F2D102000B0001F0A3FAEDE7284A944625
:104D1000012263445242DA4093460242E4D0224ADE
:104D2000224B01F095FA0022002300F07DFB0028C1
:104D3000D8D0002C1ADB5B464E469F43380031002A
:104D4000D2E7194A194B01F083FA0022002300F040
:104D50006BFB0028C6D0002C16DB00270026C1E71D
:104D6000802352465B0313419944B7E75346142B03
:104D700012D03423524601279B1A9F407F19AF421D
:104D80009B415B429944D6E76400640825430027B1
:104D9000002DA7D0074EA5E7133B9C46E144CAE788
:104DA00001FCFFFFFFFF0F009C7500883CE4377E8D
:104DB000EDFBFFFF0000F0BFC317C018584070475D
:104DC000084B10B50400002B02D0002100E000BF0A
:104DD000054B1868836A002B00D098472000FCF729
:104DE0006FF8C04600000000588400000E4B70B5FC
:104DF00000251E000D4CE41AA410A54204D0AB00FF
:104E0000F35898470135F8E703F088FB084B002575
:104E10001E00084CE41AA410A54204D0AB00F358BD
:104E200098470135F8E770BD288500002885000007
:104E3000288500005485000010B5034B0100186858
:104E400000F062F810BDC0468401001010B5034B9D
:104E50000100186800F00CF810BDC0468401001075
:104E600003008218934202D019700133FAE77047A9
:104E700070B50500002944D00C1F2368002B00DA10
:104E8000E418280000F024F91E4A13681100002BD2
:104E900002D16360146031E0A3420DD92268A018EA
:104EA000834203D118685B688218226063600C60DB
:104EB00024E0A24203D813005A68002AF9D11E68E0
:104EC0009819A0420BD121687118581819608242B4
:104ED00014D110685268411819605A600EE0A0425F
:104EE00002D90C232B6009E021686018824203D1AB
:104EF000106852684118216062605C60280000F010
:104F0000E8F870BD84510010032370B5CD1C9D439B
:104F1000083506000C2D01D20C2501E0002D01DB27
:104F2000A94202D90C23336048E0300000F0D0F8E9
:104F3000234B1C681A002100002913D00B685B1B4F
:104F40000DD40B2B02D90B60CC181EE08C4202D181
:104F5000636813601AE04B6863600C0016E00C0095
:104F60004968E9E7174C2368002B03D1300000F0B3
:104F700095F820602900300000F090F8431C18D00C
:104F80000323C41C9C43A0420DD12560300000F0D7
:104F9000A0F8200007220B30231D9043C31A0ED027
:104FA0005A42E2500BE0211A300000F077F8431C1F
:104FB000EBD10C233000336000F08BF8002070BD83
:104FC0008451001080510010104B70B51C68050012
:104FD000A36B002B15D11820FFF72EFF0C4BA063FD
:104FE00003800C4B012243800B4B83800B4BC3800F
:104FF0000B4B038105234381063383810023026128
:1050000043610022A36B1D615A6170BD84010010D1
:105010000E330000CDABFFFF341200006DE6FFFF42
:10502000ECDEFFFF154B10B51C68A36B002B15D1F0
:105030001820FFF701FF124BA0630380114B0122E0
:105040004380114B8380114BC380114B0381052397
:10505000438106338381002302614361A46B0D4ABF
:10506000206961690C4B00F02DFA012200238018A1
:105070005941206161614800400810BD8401001061
:105080000E330000CDABFFFF341200006DE6FFFFD2
:10509000ECDEFFFF2D7F954C2DF45158002370B5A9
:1050A000064C050008002360FBF7F6FE431C03D105
:1050B0002368002B00D02B6070BDC04688510010C3
:1050C000031C0A7801311A700133002AF9D17047A4
:1050D0007047704702B4714649084900095C4900AD
:1050E0008E4402BC7047C046002243088B4274D3F2
:1050F00003098B425FD3030A8B4244D3030B8B42D9
:1051000028D3030C8B420DD3FF22090212BA030CE1
:105110008B4202D31212090265D0030B8B4219D3C2
:1051200000E0090AC30B8B4201D3CB03C01A5241E2
:10513000830B8B4201D38B03C01A5241430B8B422A
:1051400001D34B03C01A5241030B8B4201D30B0313
:10515000C01A5241C30A8B4201D3CB02C01A52413A
:10516000830A8B4201D38B02C01A5241430A8B42FD
:1051700001D34B02C01A5241030A8B4201D30B02E6
:10518000C01A5241CDD2C3098B4201D3CB01C01A00
:10519000524183098B4201D38B01C01A524143090A
:1051A0008B4201D34B01C01A524103098B4201D3F8
:1051B0000B01C01A5241C3088B4201D3CB00C01A65
:1051C000524183088B4201D38B00C01A52414308DD
:1051D0008B4201D34B00C01A5241411A00D2014602
:1051E000524110467047FFE701B5002000F0F0F88B
:1051F00002BDC0460029F7D076E7704703460B434F
:105200007FD4002243088B4274D303098B425FD3BF
:10521000030A8B4244D3030B8B4228D3030C8B42EB
:105220000DD3FF22090212BA030C8B4202D31212D1
:10523000090265D0030B8B4219D300E0090AC30BA6
:105240008B4201D3CB03C01A5241830B8B4201D353
:105250008B03C01A5241430B8B4201D34B03C01A3C
:105260005241030B8B4201D30B03C01A5241C30AB4
:105270008B4201D3CB02C01A5241830A8B4201D325
:105280008B02C01A5241430A8B4201D34B02C01A0F
:105290005241030A8B4201D30B02C01A5241CDD2B4
:1052A000C3098B4201D3CB01C01A524183098B42FF
:1052B00001D38B01C01A524143098B4201D34B01E8
:1052C000C01A524103098B4201D30B01C01A52414B
:1052D000C3088B4201D3CB00C01A524183088B42D2
:1052E00001D38B00C01A524143088B4201D34B00BB
:1052F000C01A5241411A00D201465241104670472D
:105300005DE0CA0F00D04942031000D34042534031
:1053100000229C4603098B422DD3030A8B4212D3F1
:10532000FC22890112BA030A8B420CD38901921123
:105330008B4208D3890192118B4204D389013AD060
:10534000921100E08909C3098B4201D3CB01C01A35
:10535000524183098B4201D38B01C01A5241430948
:105360008B4201D34B01C01A524103098B4201D336
:105370000B01C01A5241C3088B4201D3CB00C01AA3
:10538000524183088B4201D38B00C01A5241D9D2BB
:1053900043088B4201D34B00C01A5241411A00D23C
:1053A0000146634652415B10104601D34042002B38
:1053B00000D54942704763465B1000D3404201B5B7
:1053C000002000F005F802BD0029F8D016E770476C
:1053D0007047C0468446101C62468C46191C6346C2
:1053E00000E0C0461FB501F003FB002801D40021F6
:1053F000C8421FBD10B501F057FA4042013010BD40
:1054000010B501F0F5FA002801DB002010BD0120E5
:1054100010BDC04610B501F0EBFA002801DD0020F8
:1054200010BD012010BDC04610B501F07DFA002866
:1054300001DC002010BD012010BDC04610B501F0F8
:1054400073FA002801DA002010BD012010BDC0460B
:105450008446081C6146FFE71FB500F073FB002877
:1054600001D40021C8421FBD10B500F0FFFA404230
:10547000013010BD10B500F065FB002801DB0020F5
:1054800010BD012010BDC04610B500F05BFB002828
:1054900001DD002010BD012010BDC04610B500F098
:1054A0000DFB002801DC002010BD012010BDC0460E
:1054B00010B500F003FB002801DA002010BD012028
:1054C00010BDC046F0B54F464646C0B41604360C73
:1054D0009946330005042C0C070C150C63437E43DE
:1054E0006F4365431C0CAD1964199C46A64203D951
:1054F00080235B02984647446346250CEF191D0440
:105500004B464A4343432D0C240464199918C91986
:1055100020000CBC90469946F0BDC0469E2110B5B7
:10552000C905041CFFF7C4FF002803D1201C00F0AC
:10553000E7FD10BD9E21201CC90500F05BFC00F0BA
:10554000DFFD80231B069C466044F2E7F8B54A0263
:10555000430244004E00C50F240E28009B09360E5E
:10556000C90F92098D4259D0A01B002800DC8DE0A4
:10557000002E1AD1002A00D079E05A0704D00F2259
:105580001A40042A00D004335A0138D50134FF2CC4
:1055900000D189E028009B015B0AE4B25B02E405CC
:1055A0005B0A2343C0071843F8BDFF2CE5D08021D8
:1055B000C9040A431B2800DD89E016002021C640EB
:1055C000081A8240511E8A4132439B1A5A0114D54F
:1055D0009B019E09300001F0FFFA053886408442A5
:1055E00065DC041B330020200134E340041BA6408B
:1055F000721E964100243343BFE75A07BFD1DF082C
:105600002800FF2C2FD1002F00D187E08022D20369
:1056100013003B435B025B0AFF24BFE7A11B002989
:1056200049DD002E29D0FF2CA7D08026F604324376
:105630001B2900DD8DE017002026CF40711A8A401B
:10564000511E8A413A439B185A01D6D50134FF2C8A
:1056500064D0012276491A405B080B4013438CE763
:10566000031ECAD100207B025B0AE4B296E7013830
:105670000028AAD0FF2C9DD17FE7002A00D17CE72B
:1056800001390029DFD0FF2CD2D176E7002820D1C4
:10569000601CC0B2012853DD80279E1AFF043740EA
:1056A0002FD0D61A0D0095E72800002376E7614B2E
:1056B000241A334061E700294DD1611CCEB2012E7E
:1056C0002FDDFF292AD09B185B080C0055E701222B
:1056D0007BE7002C1BD1002B5BD0C04300280CD0F3
:1056E000FF2E7ED01B2800DD92E01D002024C54047
:1056F000201A8340581E83412B43D31A34000D00D7
:1057000064E7002E00D065E700200024ABE7FF2E01
:1057100067D08024E40440422343E3E7FF240023CE
:105720003CE7002C61D1002B7ED0002A00D124E779
:105730009B185A0100D460E73E4A0C0013401CE756
:10574000002C1ED1002B2FD1002A66D013000D0093
:1057500013E7012277E7002C1FD1002B5AD0C94351
:1057600000290BD0FF2E50D01B295FDC1F00202406
:10577000CF40611A8B40591E8B413B439B1834002C
:1057800062E7002B1CD1002A4AD013000D00FF2431
:10579000F3E6130034000D00EFE6FF2E35D0802431
:1057A000E40449422343DFE7002A00D1E5E68027ED
:1057B000981AFF04074000D152E7D31A0D00DCE627
:1057C000FF24002A00D1D8E68020DB08C003034272
:1057D00004D0D208024201D113000D00DB00FF24E7
:1057E000CBE61300FF240D00C7E6002B0DD0FF24ED
:1057F000002A00D1C1E68021DB08C9030B42EDD0AD
:10580000D2080A42EAD11300E8E71300FF24B4E605
:10581000012372E713003400AFE60027002022E7DF
:1058200080270020FF03F1E61300A6E60123A5E789
:10583000FFFFFF7DFFFFFFFBF0B5564644465F4686
:105840004D46F0B444024600C70F83B08846650A4F
:10585000360EBA463DD0FF2E22D00023EC00802524
:1058600099469B46ED0425437F3E43465C02580023
:10587000DB0F640A000E984636D0FF2830D0802314
:105880000021E400DB041C437F38301A01904846B5
:1058900042460843724E800030587A4013008746D3
:1058A000002D44D108239946063B9B46DDE70122A3
:1058B000FF2000241A406402C305640AD2071C4377
:1058C0001443200003B03CBC90469946A246AB4628
:1058D000F0BD002D20D104239946033B9B46C4E72D
:1058E000002C17D1022102E0002C0AD10121321A2A
:1058F00001924A4643460A435A48920082587B40E6
:105900009746200001F068F9431F76309C404042E2
:105910000021BAE70321B8E7280001F05DF9431F31
:105920009D4000237630464299469B469DE70C23D6
:105930009946093B9B4698E780240022E403FF2018
:10594000B9E70024C2468B465A465346022AAED0D7
:10595000032A7DD0012A31D1012200201A400024DF
:10596000A9E70122101A1B2856DD1A400020002446
:10597000A1E78023DB031D424BD18023DB032B43B4
:105980005C02640A3A00FF2095E76D0160018542E0
:1059900030D2019A0024013A01921B2201272900EA
:1059A00064006D00002901DBA84201D82D1A3C4398
:1059B000013A002AF3D16A1E95412C4301987F30A9
:1059C0000028CEDD620704D00F222240042A00D036
:1059D0000434220103D5244A019814408030FE2863
:1059E00000DD64E70122A401640AC0B21A4062E744
:1059F0002C00A9E72D1A1A220124CFE76B02BCD58F
:105A000000248023DB031C436402640A4246FF2017
:105A100051E71C42B3D1F4E721002022C140101A03
:105A20008440621E94410C43620704D00F2222403E
:105A3000042A00D00434620104D5012201201A4056
:105A4000002438E70122A401640A1A40002032E74A
:105A50008023DB031C436402640A5246FF202AE7CA
:105A60005C8400009C840000FFFFFFF7430270B5D8
:105A700042004C005D0AC30F4802120E460A240E73
:105A8000C90FFF2A0FD0FF2C11D00120A24200D055
:105A900070BDB542FCD18B420DD0002AF8D1280050
:105AA000431E9841F4E70120002DF1D1EBE70120DE
:105AB000002EEDD1E9E70020EAE7C0464302F0B549
:105AC00042005D0AC30F4802440A4800120E000E4D
:105AD000C90FFF2A1FD0FF2822D0002A09D16E4209
