:1000000000800010FD0000004F1600005116000097
:1000100000000000000000000000000000000000E0
:100020000000000000000000000000005316000067
:10003000000000000000000055160000D55300002D
:100040004D1600004D1600004D1600004D16000024
:100050004D1600004D1600004D1600004D16000014
:100060004D1600004D1600004D1600004D16000004
:100070004D1600004D1600004D1600004D160000F4
:100080004D1600004D1600004D1600004D160000E4
:100090004D1600004D1600004D1600004D160000D4
:1000A0004D1600004D1600004D1600004D160000C4
:1000B0004D1600004D1600004D1600000000000017
:1000C00038950000000100108800000038950000FD
:1000D00000000020000000003895000000400020D3
:1000E0000000000088010010F84F00000000002010
:1000F00000000000004000200000000010B5104C7F
:10010000104B9C4206D2A2686168206801F0A3FAF5
:100110000C34F5E70C4B9C4205D26168206801F075
:10012000A3FA0834F6E701F0FBF9084B002B02D0E4
:1001300000E000BF03E005F0FDFB00F09FFAFEE7E2
:10014000C0000000E4000000FC000000000000000F
:1001500010B5064C2378002B07D1054B002B02D09D
:10016000044800E000BF0123237010BD8801001087
:100170000000000038950000084B10B5002B03D09C
:100180000749084800E000BF07480368002B00D17A
:1001900010BD064B002BFBD09847F9E7000000008C
:1001A0008C0100103895000088010010000000004C
:1001B000036810B50400013304D12C220549064818
:1001C00000F0D6FE636960681B681840431E9841C2
:1001D00010BDC0465C770000AB77000070B504002E
:1001E0000D001822002105F0DFFB2900200000F09F
:1001F00026FF200070BDFFFF012310B54A080E4CFA
:100200001A4022540D4C8A081A4022540C4CCA0839
:100210001A4022540B4C0A091A4022540A4C4A092B
:100220001A4022548A09094C1A402254C909084A22
:100230000B40135410BDC0460B04001008040010FE
:10024000050400102C040010640400106704001062
:100250000E04001070B50B4C0B4D2378C1B220700A
:1002600000202B70FFF7C8FF2378297802209943DC
:10027000FFF7C2FF2B78217801209943FFF7BCFFDD
:1002800070BDC0462F0400100404001010B51948BA
:10029000FFF78EFF0400601E844117486400FFF7DB
:1002A00087FF002801D004231C431448FFF780FF78
:1002B000002801D008231C431148FFF779FF0028CC
:1002C00001D010231C430F48FFF772FF002801D014
:1002D00020231C430C48FFF76BFF002801D040236C
:1002E0001C430A48FFF764FF002801D080231C4309
:1002F000200010BDD4030010A40100104C04001015
:10030000EC0300101404001030040010BC030010B3
:10031000F7B51DB214B206000F002000290003F04B
:1003200067F80023984233D1089BF01A05F0E8FAE9
:10033000099B0090F81A05F0E3FA009B39B21B18EC
:1003400030B2009303F054F8099B019019B2089B56
:100350000A2618B203F04CF8070005F007FC0099D4
:10036000714305F0D5FD0800310005F0EBFC019B61
:10037000FF187F10C019002803DDFF2802DDFF20D1
:1003800000E00120C2B22900200002F09DFF0123FD
:100390001800FEBDF0B50C0015001E008DB00390D6
:1003A000039BEB1A012B03DC331B012B00DC86E0E3
:1003B000039B2100EB18DA0FD3185B100493A319E9
:1003C000DA0FD3185B100593049A2300019400956B
:1003D0000398FFF79DFF3300049A310001960095C2
:1003E0000398FFF795FF059B2A00210001960095D1
:1003F0002800FFF78DFF039A039B10000093210054
:10040000059B0196FFF784FF6B4610229B5E0693C7
:100410006B4614229B5E06981900079302F0E8FFD2
:10042000002837D16B460C229B5E22B211001800C7
:100430000B92089302F0DCFF2BB207000B99180017
:10044000099302F0D5FF33B21900C71909980A932E
:1004500002F0CEFF0A99C719089802F0C9FF079960
:10046000C719089802F0C4FF0B99C719069802F043
:10047000BFFF0799C719099802F0BAFF0A99C7196F
:10048000069802F0B5FFC719FF10FAB2079906984F
:1004900002F01AFF2100059B049A0398FFF77AFFE8
:1004A0002A00330005990498FFF774FF2A00210001
:1004B000059B0498FFF76EFF049D059C70E70DB047
:1004C000F0BDFFFFF0B5070085B00E001D00140061
:1004D00002F09CFEFB43DB171F40F343DB171E407B
:1004E000244B02971B780396A34200DC5C1E224B30
:1004F0001B78AB4200DC5D1E05F038FB6B46082222
:100500009B5EFF2101936B460C269E5F05F000FD6C
:100510000131CAB20198310002F0D6FE05F026FB87
:10052000FF2105F0F5FC27B20131CAB238003100D5
:1005300002F0CAFE05F01AFBFF2105F0E9FC2EB21D
:100540000131CAB23800310002F0BEFE05F00EFBE8
:10055000FF2105F0DDFC0131CAB20198310002F043
:10056000B3FE2B00220003990298FFF713FF05B09A
:10057000F0BDC046180100101C010010F8B5184E5F
:1005800000243500803504235B421F1BFFB200228C
:100590003900200003F0E0FB2B00803B1880220094
:1005A0000021380003F0D8FB002128803A00080021
:1005B00003F0D2FB2B0000228033188021001000B2
:1005C00003F0CAFB6B1CFF331880064B0434023562
:1005D000E4B29D42D7D1300003F0ACFBF8BDC04679
:1005E000BC010010BC02001010B502F01FFA6E2210
:1005F000044B1A70044B163A1A70044B573A1A708F
:1006000010BDC046180100101C0100106107001049
:10061000002310B51A001800052103F073FC002315
:1006200002201A00190003F06DFC10BD002370B504
:100630001A0004000521180003F064FC00230525BE
:100640001A001900022003F05DFC042265430A4EE3
:1006500000237419A256E178032003F053FC002311
:10066000A95D1A00012003F04DFCA17860780022FA
:1006700003F08AFC70BDC046D4770000F7B50025B2
:10068000FFF7B2FFFFF7C4FF04F0BCFE05F040FA2D
:10069000FFF774FF3A4B3B4A1B781278013B013A53
:1006A00008210020FFF70EFF0020FFF7BFFF04F036
:1006B000A9FE14242E000190142002F021FB3248E0
:1006C00003F09AF9009502F03FF9002856D0002077
:1006D00002F0D8FA0028F6D02C4F3878FFF7D6FD74
:1006E0003870FFF7B7FD2A4B5B78002B03D001343D
:1006F000E0B202F005FB274B5B78002B03D0013CF6
:10070000E0B202F0FDFA0021080002F0B1FBB31CD8
:10071000DEB2300002F0CCFD1F4802F0CFFD0A210E
:10072000200003F0DBFA0021202002F0A1FB0A21C7
:10073000009803F0D3FA04F065FEFA22019B9200C0
:10074000C31A934202D86F1C009D01E0002701905C
:10075000124B5B78002B0CD00020FFF767FF084B93
:10076000084A1B781278013B013A08210020FFF764
:10077000A9FE0B4B00951E703D00A4E70120FEBDB5
:100780001C01001018010010007C0000480400103B
:100790000E0400102C040010FFFF000005040010E0
:1007A0006907001010B5104801F0BCFC0F49104853
:1007B000FFF714FD0F491048FFF710FD0F491048CF
:1007C000FFF70CFD0F491048FFF708FD0F491048CF
:1007D000FFF704FD0F491048FFF700FD0F491048CF
:1007E000FFF7FCFC10BDC04611040010841201008C
:1007F0004C04001070080100A401001088140100CE
:10080000D4030010941A0100BC0300106C06010010
:10081000EC030010C4320100140400107C0E01002F
:100820003004001010B50100014800F059FD10BD62
:100830001805001010B5FF21024800F051FDC0B2AC
:1008400010BDC04618050010F8B543B204000D00F5
:10085000002B07DA00217720FFF7F6FF012831D8B7
:100860007F231C40A026882380279B013606F75053
:10087000FFF7E0FF8A239B01F750FFF7DBFF200023
:10088000FFF7D0FF280EFFF7CDFF280CC0B2FFF70F
:10089000C9FF280AC0B2FFF7C5FFE8B2FFF7C2FFE1
:1008A0009520402C03D09438482C00D18630FFF797
:1008B000B9FF0A24FFF7BEFF030603D5013CE4B2EB
:1008C000002CF7D1F8BDFFFF73B58823A024802248
:1008D0003F4D9B012406E25028003E4900F0F6FC03
:1008E00028000022082100F0E5FC842364259B01F8
:1008F000E358013DEDB2FFF79DFF002DF9D129002E
:100900004020FFF7A1FF040001284BD1D52148204A
:100910004900FFF799FF012815D1FFF78BFF01ACC4
:1009200028550135042DF8D1A378012B3AD1E3786D
:10093000AA2B37D1284D8021E920C905FFF784FF74
:10094000011E11D115E02900E920FFF77DFF4126A6
:10095000012801D80224E926204D00213000FFF7AC
:1009600073FF002820D116E0013DADB2002D19D053
:10097000E1E77A20FFF768FF002813D10500FFF7B1
:1009800059FF60550135042DF9D123780C245B06FD
:100990000FD42C000DE0802150208900FFF754FF78
:1009A000002806D0002404E0013DADB2002DF9D0AE
:1009B000D3E70B4BA0221C70882380219B011206D9
:1009C000D150FFF737FF60426041C0B276BDC046EC
:1009D00018050010801A0600E02E0000A861000033
:1009E0006A040010F8B51D00244B07001B781600A0
:1009F0001B0700D449025120FFF726FF002801D031
:100A0000012431E01E4CFFF715FFFF2804D1013C03
:100A1000A4B2002CF7D1F3E7FE28F1D1194C641BE6
:100A2000A41BA4B2002E07D1002F11D0013DADB2FE
:100A300001353E007D1904E0013EFFF7FBFEB6B232
:100A4000F0E7FFF7F7FE30700136B542F9D105E067
:100A5000013DADB2FFF7EEFE002DF9D1013CA4B28D
:100A6000FFF7E8FE002CF9D18823A02280219B010A
:100A70001206D150FFF7DEFE2000F8BD6A04001018
:100A80003075000002020000064B1A68831ED16810
:100A9000002002398B4203D25078434390691818E2
:100AA0007047C0466C0400100F4B10B51A68002345
:100AB0000380836804001800012B13D0D168012043
:100AC0008B420FD2002B03D11178032900D1536937
:100AD000E360002B03D01800FFF7D6FF00E0506959
:100AE0002061002010BDC0466C040010F0B5040069
:100AF00085B0012854D92C4B1D68EB6898424FD221
:100B00002E78022E32D0032E38D0012E48D181B259
:100B10004B08C91889B24B0A0193244BCA05D20D60
:100B2000296903AF9A4204D0019B38005918022367
:100B30000EE0019B380059183300FFF753FF021EE7
:100B40002ED12969019B0131C918330002A8053053
:100B5000FFF748FF002823D17B7838781B02034336
:100B60001811E2071DD41805000D1AE02B69C2B256
:100B7000010AC918520003AD330007E07F220423A5
:100B800029690240C4099200611803AD2800FFF7EB
:100B900029FF002804D168782B780002184300E070
:100BA000012005B0F0BDC0466C040010FF0100003C
:100BB00070B5048805000134A4B2002C01D10323D0
:100BC00022E00369002BFAD022071BD101330F4A20
:100BD0000361C0681668002803D1B388A342EED928
:100BE00010E073782209013B1A420BD1FFF77EFF18
:100BF0000123984208D9F3689842E0D2E860FFF7F1
:100C000043FF286100232C80180070BD6C04001085
:100C1000F7B504000D002B78202B01D10135FAE740
:100C20002F3B5A4253410027ED18A7602B78202B09
:100C300001D901972EE02000FFF736FF404B060058
:100C40001B689B681F7078E0009B1B78002B68D0A6
:100C50000822009BDB7A13405BD162680099581C24
:100C6000C95CD35C994254D103000B28F6D1D37AE6
:100C7000002B62D13B689868C37ADB0656D5437D6A
:100C8000017D1B020B43C27E1904837E12021343B3
:100C90000B43A3606068020003000B32934203D150
:100CA00000220821130013E0202119700133F5E719
:100CB0002F2B12D02E2B3BD091420ED91F00613F1B
:100CC000192F01D8203BDBB2571C8354FAB23300F2
:100CD0005E1CEB5CF6B2202BEAD8AD192026019AF7
:100CE0009E425241C2722000FFF7DEFE061E16D160
:100CF000134F3B689B6800930F23228821691A4099
:100D0000520111330098FFF76DFE00289CD0012698
:100D100013E02000FFF74CFF0028EDD00600032E63
:100D20000BD163680326DB7A002B06D1042604E08E
:100D30000829D2D10A000331C9E73000FEBDC04600
:100D40006C04001070B5164B01001C6890B00620B2
:100D5000002C23D00023A3706B4608ADA56003A828
:100D60000493FFF755FF002818D12B780330002B90
:100D700014D01023EE7A1E4010D16B7D297D1B020A
:100D8000EA7E0B431904AB7E120213430B436362EA
:100D90000F9B300023620123E661A37010B070BD89
:100DA0006C0400102F4BF7B51C68002307000D00E2
:100DB0000192138006209C4253D0A3780138DB07B0
:100DC0004FD5236AE2699B1A8B4200D29DB20097ED
:100DD000002D45D0E669F3051BD1700A617804F057
:100DE000ADFF00290BD1002E01D1606A02E0A06A9C
:100DF000FFF77CFE01282FD90023A062E370A06AD0
:100E0000FFF742FE002827D0E3785A1C1818E2703A
:100E1000E062E3692E1CDA058023D20D9B009B1A49
:100E20009BB29D4200D91E1CB6B2381E00D000985D
:100E30003300E16AFFF7D6FD00280DD1E369AD1B51
:100E40009B19E361009BADB29B190093019B1B882A
:100E5000F618019B1E80BBE700230120A37000E071
:100E60002800FEBD6C040010294BF7B51C68062352
:100E7000002C4AD0A278013BD20746D5256A85428C
:100E800000D905000022E369E261954238D0667816
:100E90007602002B12D03100681E5F1E04F0C8FEDF
:100EA00031000190380004F0C3FE019B834205D35A
:100EB00073423B40E361ED1AA06A01E0606AA06200
:100EC000B5420CD9FFF712FE01281BD9E3689842FE
:100ED00018D2E369A0629B19E361AD1BF0E7E369F7
:100EE0005B19E361FFF7D0FD00280BD06B0ADAB283
:100EF000ED0501D1E27003E00132C318E270E36254
:100F0000002302E00023A37001331800FEBDC04699
:100F10006C04001030B5154B04001B688DB0062022
:100F2000002B20D004AD9D6001AB63602000FFF773
:100F30006FFE002815D12B78002B0FD0EB7ADB0643
:100F400001D404200FE06B7D297D1B020B43EA7E58
:100F50001904AB7E120213430B43A3602000FFF77A
:100F6000A3FD0328EDD00DB030BDC0466C040010C9
:100F700010B513000A000100014800F031F810BD5F
:100F8000F277000000B589B072B6124902A800F0ED
:100F900070F8029B0193013304D124220E490F48BB
:100FA000FFF7E6FF059B039A96201A60019200F076
:100FB00098FA029B0193013304D124220649074881
:100FC000FFF7D6FF039A069B96201A60019200F065
:100FD00088FADEE7382302005C770000AB77000078
:100FE0000FB4012010B504F08FFCFFFF036870B54B
:100FF00004000D00013304D1242206490648FFF7FE
:10100000B7FF6368002D01D0E26800E02269136039
:1010100070BDC0465C770000AB77000070B50D0076
:101020000400160000F078FB6B1C07D000212000A4
:1010300000F09AFB3100200000F090FB70BD10B56D
:101040000122FFF7EBFF10BD70B50D000400160084
:1010500000F062FB6B1C0BD031002000FFF7C6FFD5
:101060000121200000F080FB0021200000F076FB31
:1010700070BD10B50022FFF7E7FF10BD10B50400EA
:10108000034B083303601C3000F048FC200010BD07
:101090002478000010B50400FFF7F0FF200000F0F6
:1010A000EDFA200010BDFFFF70B5050004000E4BE7
:1010B0000E00083308C528001822002104F074FC33
:1010C000002320003100E36123626363A363E364D0
:1010D000064A23001C3000F0BFFB28003100FFF758
:1010E000AEFF200070BDC046247800004B11000008
:1010F00003000A0010B51C300121002A04D01A6236
:1011000000225A630132110000F01CFC10BD0300E4
:1011100010B50A001C30002903D000229963DA645C
:101120000132022100F00EFC10BD436910B5010030
:10113000002B04D10368002B06D0984704E0006818
:10114000002801D00431984710BD10B5012903D003
:10115000022904D1383000E02030FFF7E6FF10BD4F
:1011600010B50400431C12D00B685A1C0CD09C42D2
:1011700008D12000896800F00BFC0021200000F05D
:1011800023FC04E00C31EFE70148FFF729FF10BD15
:101190003478000010B5030088420AD00B00421CCE
:1011A00007D003004A1C04D00348FFF719FF0123AE
:1011B0005B42180010BDC046457800000B685A1C01
:1011C00005D0834201D1486802E00C31F6E71800EF
:1011D0007047FFFF10B50400431C07D0FFF7EEFF78
:1011E0000400431C02D10248FFF7FAFE200010BDA4
:1011F0005678000010B5012004F086FB074A1368FA
:101200001818EFF30881884205D30C220120044B03
:1012100040421A6001E0106018007047040100109D
:101220007C51001010B5002801D0FFF7ABFEFEE79F
:10123000704710B5040000F021FA200010BDFFFF38
:1012400073B504000E480025083020600820E060D7
:101250000C48261D60610698656025722561009026
:10126000300000F0E9FC2B0030002269E16800F05A
:1012700063FD3000616900F095FD200076BDC04639
:101280009478000040420F0070B5094D04002B68AF
:1012900083420BD0061D0269C1680023300000F0B4
:1012A0004BFD6169300000F07DFD2C6070BDC046D3
:1012B000700400100261002210B5034BC1601A6077
:1012C000FFF7E2FF10BDC04670040010002210B509
:1012D000024B41611A60FFF7D7FF10BD7004001088
:1012E00070B50D000400FFF7CFFF2900201D00F0AE
:1012F0009DFD70BD10B5040043684269991800F067
:10130000BFF8E36A002B04D1A369002B07D09847EC
:1013100005E0A069002802D021001C31984710BDCB
:1013200010B5040000F0B4F80023A361E36210BD1F
:1013300010B50400044B08330360FFF7F1FF2000F1
:1013400000F0ACF8200010BDA878000010B5040033
:10135000FFF7EEFF200000F091F9200010BD70B5FE
:101360000D00040000F094F86561206900F068F851
:101370002918200000F084F870BD70B504000D003D
:1013800003681B68984763681D6070BD036870B58B
:10139000DB680400984763685A682368002A02D112
:1013A0009B68984713E05B681568984763682D1A37
:1013B0005A68002D07DC916859601B68002BEAD041
:1013C00050689847E7E7236810681B69984770BD25
:1013D00070B50D0072B64B60002346680A607468F1
:1013E000002C05D02168511A02D42300A468F7E725
:1013F000002B05D1036875601B691000984700E059
:101400009D60AC6062B670BD10B572B6426853683C
:101410008B420CD19B6853600268002B02D1936809
:1014200098470BE012691868904707E01300002BFB
:1014300004D09A689142F9D18A689A6062B610BD68
:1014400010B503685B68984710BD10B503689B68CA
:10145000984710BD084B10B5083303600023436064
:101460008360C360040000F025F804492061FFF7A1
:1014700084FF200010BDC046BC7800004B14000063
:1014800010B50A000300011D0069FFF7A1FF10BDA0
:1014900010B5011D0069FFF7B7FF10BD10B50400BE
:1014A000034B08330360FFF7F3FF200010BDC04675
:1014B000BC78000000487047E478000010B502488E
:1014C000FFF764FF10BDC046E478000070B504006B
:1014D00000F0E8FC050000F0E5FC401BA042FAD358
:1014E00070BDFA2310B59B005843FFF7EFFF10BD06
:1014F00070B50A4CA568A3682A00002B0AD1802287
:101500005E5952059A1804331660C02BF7D1802219
:101510005205A26010308000815070BD00ED00E0E7
:101520007FB580203F494002CA6F8E240243CA67BC
:101530002322002020253C4B3C499A60223A0A6035
:101540003B49A4000A60186219593A4A11400191B6
:101550000199A943C825019101992D0229431951E7
:10156000009035480099814204D8C0460099013165
:101570000091F7E701210020196459645864596407
:101580005C6C29480C42FBD08E218026C82589003E
:1015900044582D0214400394039C34430394039C49
:1015A0002C43445023248460445822400292029CDD
:1015B000B4430294029A2A4342500120DC681A493B
:1015C00001220442FAD00320086700204A674867D6
:1015D00010004A675C6F144A01210442FAD08E2041
:1015E000916780001558154C2C4014501558144C18
:1015F0002C40145000209164D164D064D164DA6C22
:101600000A42FCD02321084A116101225969114282
:10161000FCD000220B4B1A601A600B4B01321A608F
:101620007FBDC0460480044000800440F040044078
:10163000F4400440FF250000C3090000FFFBFFFF4A
:10164000FFFEFFFFC0800440C88004407047704721
:10165000704770477047002310B5934203D21C585F
:101660005C500433F9E710BD00231A008B4202D20C
:101670001A500433FAE770470020704710B504F0A1
:1016800089F910BD10B50400431C04D11E2217496E
:101690001748FFF76DFC174B1A68002A06D1013274
:1016A0001A60154A1549D36F0B43D3670122002CEA
:1016B00012D0134B9C420FD0124B9C420CD0124BB9
:1016C0009C4209D0114B9C4206D0114B9C4203D046
:1016D000104BE1184A424A412000110000F058F92D
:1016E0000120A404E40EA04010BDC046EC78000028
:1016F000B07700007C04001004800440400001002A
:10170000281400002C16000030180000341A0000C5
:10171000381C0000C4E1FFFF70B505000C00296013
:101720004B1C11D00800FFF7ADFF2414074BA40099
:10173000E318EB60064B6860E3182B61054BE31878
:101740006B61054BE418AC6070BDC046002200A080
:10175000802200A0002100A0002000A010B5006899
:1017600000F032F910BDFFFF036870B504000D00F2
:10177000013304D1432209490948FFF7F9FB002D41
:1017800006D0012D09D1A268636811680B4303E0FC
:10179000A268616813688B43136070BDEC78000029
:1017A000AB770000F7B501210D008540134C636A4B
:1017B0002B4221D0124B8600F058019300281BD0F9
:1017C00023682B4218D163682B4206D0E3692B4271
:1017D00003D00C4B1B689847E5612369074F2B42E8
:1017E00009D03B6A2B4206D0064B019A1B680221A6
:1017F000905998473D626562F7BDC046004000A021
:10180000840400108004001010B50020FFF7CAFF08
:1018100010BD10B50120FFF7C5FF10BD10B50220A7
:10182000FFF7C0FF10BD10B50320FFF7BBFF10BDD1
:1018300010B50420FFF7B6FF10BD10B50520FFF767
:10184000B1FF10BD10B50620FFF7ACFF10BD10B5FD
:101850000720FFF7A7FF10BDF7B505002748814215
:1018600002DD0120404248E02548264C026000206D
:10187000820016590096002E3BD11351224C28604D
:10188000E36F224F224E3B43E3671F248B03491231
:101890000C401821A44604009B0F59435E34614458
:1018A000A400A15181210124890071589B000F00DF
:1018B000210081400F4339008127BF00F151A02151
:1018C000802609065B18B6019959270001916146E7
:1018D0008F40019940B2B94399510E4BD158FFF74F
:1018E00007FE1F222B68009813409C400A4B1C6087
:1018F00003E001300828BBD1B3E7FEBD131102009D
:10190000800400108404001004800440800009005A
:10191000008004403879000000E100E00021036805
:10192000064A9B0010B59950012281210068044CA1
:101930008240890063589343635010BD84040010B3
:101940000080044003680120984070B50F4C236864
:10195000034200D16062C54326680C4B2E402660CE
:10196000012909D1002A03D05A68104358600CE0BD
:101970005A6815405D6008E0002A03D01A691043D8
:10198000186102E01A6915401D6170BD004000A099
:1019900070B504000D00431C04D115220749084806
:1019A000FFF7E6FA074BE405E40DE4180723226885
:1019B0001D409A431543256070BDC046587900000C
:1019C000B07700000040044070B504000D00431CD7
:1019D00005D11D220F491048FFF7CAFA06E08123FE
:1019E0001B01984214D00D4B984211D00C4BE405CA
:1019F000E40DE4182368042D04D18022D20013439F
:101A0000236005E01822ED00934315401D43256037
:101A100070BDC04658790000B0770000140A00007D
:101A20000040044070B50C1C05000021201C04F08F
:101A3000C5FA002809D1FE21201C890504F0D2FA3C
:101A4000002803D0FE24A40500E0002480232D6894
:101A50009B00E85805F062F9211C04F05BFE04F0DD
:101A600001FB81239B00E85070BD8023F7B58127DF
:101A700004689B00E258BF00E059E15001920D005C
:101A800005F04CF9061C019805F048F9011C301CC2
:101A900004F076FC061C280005F0F8F8011C301C48
:101AA00004F038FE04F0DEFAE051F7BDF7B50F00A0
:101AB000060050493800FFF78DFBC3B20500FF2B2D
:101AC00002D14D48FFF78CFA4C4B01211A78019353
:101AD00010000840031E04D00A410B000A4200D047
:101AE00081E0012421009940019A454812787360F1
:101AF0000A4301990A70434A99008A5809333260AF
:101B0000C26F1100802212061143C1672000984065
:101B100003003D4A38005268364913433A4A53603D
:101B2000FFF71EFB3768394A3B68394913430C22DB
:101B30003B607B6813437B607A68364B13407B6065
:101B40007B680193344B186804F072F8FE23013867
:101B50001B0140011840019B18437860E8B2072838
:101B60001DD804F05BF8040A1016040A1016A0230E
:101B7000DB00FC500222294B10E0A123DB00FC50CB
:101B80000222274B0AE0A223DB00FC500222254B55
:101B900004E0A3230222DB00FC50234BFA508022F6
:101BA000C12352019B00FA500123C0225B429200E4
:101BB0001E49BB500C32B950043ABB5080231C491B
:101BC0009B00F950FB58053A9B08FF3ABB50042292
:101BD0007B68300093437B60FFF747FF30000021B4
:101BE000FFF720FFF7BD1348FFF7FAF901235B4227
:101BF00077E7C046A07900000C7A0000A40400102A
:101C000004800440387A000000800440010006008F
:101C100040420F001FF0FFFF080100100405000004
:101C20000C050000140500001C0500000110000058
:101C3000204E0000267A0000F0B5334E87B00091A8
:101C400004003100009801920293FFF7C3FA2F4D70
:101C5000070029000198FFF7BDFA2D49039002986B
:101C6000FFF7B8FA2B4904900C98FFF7B3FA0399E1
:101C700005903800FFF78EFA059907000498FFF7E2
:101C800089FA01003800FFF785FA2060431C04D16F
:101C9000482221492148FFF76BF92368204A9342E3
:101CA0000FD0204A934219D180201F49C002CB6F28
:101CB0001E4A0343CB6701211D4B19605368033152
:101CC0000AE0802018490001CB6F184A0343CB6714
:101CD0000121184B196053680B4353603100009881
:101CE000FFF73EFA29000198FFF73AFA08490298EF
:101CF000FFF736FA0C9B013303D006490C98FFF727
:101D00002FFA07B0F0BDC046887B0000407A000083
:101D10007C7A0000C47B0000C47A00000D7B0000C8
:101D2000000004400080054004800440008004401E
:101D30009C80044094800440F8B50E0002211400F9
:101D400002681D00536807008B435360331F0C2B40
:101D500006D9032C04D9652210491148FFF708F968
:101D60008023E0010340013E1E43A307340039688D
:101D7000DB0F0A689B01120C12041C4314430D2252
:101D80000C604B6893436A1E95410222AD001D43CF
:101D90004D604B6813434B60F8BDC046C47A0000E9
:101DA000217B0000F7B5022405000E00026853688D
:101DB000A34353601A4B1B6801932100019803F061
:101DC00037FF04F063FF071C300004F05FFF011CC5
:101DD000381C04F0D5FAFC21890504F05BF905F004
:101DE0004BFC03F0F5FC05F011FCFF280FDC2B6821
:101DF0000C4A1C61196801380A4002211A601A68ED
:101E00000002104318605A680A435A6007E08023B2
:101E100002345B009C42D0D10348FFF7E1F8F7BDE4
:101E200008010010FF0000FF5F7B00000222036832
:101E3000D8681042FCD004229960D9681142FCD0C5
:101E400098687047104B70B51A68002A1AD101259E
:101E500080210E4A1D60D36FC9000B43D3670C4B22
:101E60000C4C186802230C49636003F0E1FE013852
:101E7000E0600A4965601320FFF73AFB8022084BB7
:101E800012031A6070BDC046A8040010048004400C
:101E9000080100100080014040420F00BD14000006
:101EA00000E100E0044B10B51B68002B01D1FFF7E7
:101EB000C9FF024B986810BDA804001000800140C3
:101EC0000121034B98615A690A435A617047C04621
:101ED000008001400121024A53698B4353617047DE
:101EE000008001400122014B1A60704700800140D0
:101EF0007047704770477047FF22014B1A70704758
:101F0000AE04001010B502F0BDFB10BD0D4B30B596
:101F10001A8800239A4213D1FF250B4C0B4AE15C2F
:101F2000002902D0D15C013104E0D05C002804D04B
:101F3000FF2801D1D15400E0D5540133072BEED155
:101F400030BDC046C0040010282F0010B10400109E
:101F5000034B185C013843425841C0B27047C04639
:101F6000B1040010002210B51D4B19781A701D4ADB
:101F70005078002801D001201870D078002803D0B4
:101F800002241878204318701078002803D0042405
:101F90001878204318709078002803D00824187807
:101FA000204318701079002803D01024187820439B
:101FB00018705079002803D0202418782043187016
:101FC0009279002A03D040201A7802431A701B78B5
:101FD000054A180008409943044B1070197010BD51
:101FE000B0040010282F0010B9040010B80400102D
:101FF000014B18797047C046282F0010014B5878C4
:102000007047C046282F0010014BD8787047C04653
:10201000282F00100023094A1380094A1370094A27
:102020001370094A13700122084B52421A80084A61
:10203000084B1A600922084B1A707047C004001040
:10204000BF040010C8040010BA040010BC04001043
:10205000D0870000C4040010BE04001010B5024870
:10206000FFF7D8FF10BDC046BB04001037B572B6ED
:1020700000210422244B802559601961234BED0077
:102080001A608E22224B92009C582C4380259C5033
:102090009C586D002C439C5001225A6714005967CC
:1020A00019004B6F1A4D01222340FAD114002B67FF
:1020B0006A676B674B6F164A2340FBD18E245364CB
:1020C000516CA4009360136753601559114929405E
:1020D0008025019101992943C825019101992D027B
:1020E00029431151A02284211206890153500A4923
:1020F00053500A4953500A4B9860001C01688D46A2
:102100004068804737BDC046004000A010E000E0B6
:1021100000800440FF250000042100000821000089
:1021200000ED00E07047FFFFF0B5C1B00E0000F019
:1021300053FE00F05DFE8023DB029B1B04009842EF
:1021400000D91C0000F03EFE8027134801F06CFD12
:1021500000257F00A5421CD280216846490000F07E
:1021600015FEFF2804D8631BBB4201D90B4806E0CB
:10217000A819694603F070F8002804D0084801F057
:1021800053FD012006E001350648FF3501F040FD12
:10219000E0E7002041B0F0BD3A8900004689000028
:1021A00061890000B3890000F7B501260024514B76
:1021B000514D1E70514B1C80FC23DB002B8000F026
:1021C00039FE2100200000F053FE300001F074FCC5
:1021D0000094019407F08FF90421494800F0B0FD04
:1021E000A0420FD100F0F8FD0820404200F0D6FDDB
:1021F0000421684600F0CAFD042101A800F0C6FDD4
:1022000000F0E0FD01273F4E7F423F4C2368B34280
:1022100000D03E4C2368B34200D03D4C2368B3420B
:1022200000D03C4C2368B34217D020233A485B428D
:102230002B8001F0F9FC009B002B03D0374B019A57
:102240009A4240D8364801F0EFFC364801F0ECFCE9
:10225000FC23DB002B80344820E0344B34482B80B7
:1022600001F0D6FC0A2160682F8001F054FD6368FC
:10227000009A934227D3A068FFF7F8FE17E0FFF714
:10228000C3FE002834D1FFF7B9FE0028F7D001992A
:102290000098FFF749FF002826D0264801F0C4FC2B
:1022A00005E0FFF75FFEFFF7A3FE002804D1FFF76C
:1022B0009FFE0028F5D01BE0FFF79AFE002817D0FC
:1022C000FFF750FEF8E71C4B1C482B8001F0A0FCE8
:1022D00000980A212F8001F01EFDFC231848DB0026
:1022E0002B8001F0A1FCCEE7164801F09DFC8CE7A5
:1022F000F7BDC046160100100E010010780700104F
:10230000278A00001EAB07B0F4FF030004FF0300A0
:1023100004FE030004F003002F8A0000FF7F030087
:10232000438A0000227800005A8A0000FF0700005C
:10233000758A00007F8A00001FF8FFFFA58A000051
:10234000B98A00009B8A0000F8B50024012001F042
:10235000B3FB454BFC271C8000F06CFD434D444B08
:1023600044482B8001F048FB0123434E3021337059
:10237000424BFF001C70424B60201C702F8001F00C
:1023800059FC404801F044FC3821602001F052FC27
:102390003D4801F03DFC4021602001F04BFC3B48F2
:1023A00001F036FC4821602001F044FC384801F07F
:1023B0002FFC6021282001F03DFC364801F028FC6C
:1023C000013C35482C8001F023FC34482F8001F07B
:1023D0001FFC02232C80337003F014F8043485B200
:1023E000FFF7C0FD7821682001F024FC0A212000BD
:1023F00001F074FC03F006F8FA239B00EB189842F6
:1024000003D902F0FFFF013C85B202F0B3F90028C6
:1024100008D002F0AFF9041E02D0FFF7A3FDF8E7E1
:10242000FFF7C2FE02F09AF9002807D002F096F9F1
:10243000002802D0FFF796FDF8E7040002F094F9B7
:10244000002802D1002CCBD106E002F08DF9002843
:1024500002D0FFF787FDF8E70123337000F0EAFCB4
:10246000002001F029FBF8BD780700100E010010D4
:1024700000F8FFFF6C840000160100101701001027
:1024800010010010DE8A0000E38A0000E88A0000E4
:10249000ED8A0000F28A0000F88A0000FC8A000041
:1024A000F0B5714C1E0023888BB005000F0004921C
:1024B0000993002E06D00020322300901A0001005C
:1024C00000F0CAFCFC23DB002380002E16D001F0B4
:1024D000EBFA0400012001F0EFFA02F061F8390094
:1024E00002001439681EC9B2C0B20A2301F0FAFB17
:1024F0005E4801F08DFB200001F0DEFA049B0B2BFF
:1025000002DC5B4A584B1A803BB203930123594CBF
:10251000009328B22200039900F0B4FC049B172B0F
:1025200002DC534B504A1380ABB21D000126083524
:102530002DB205932200330003992800009600F085
:10254000A1FCBBB20693043B1BB207930096330079
:1025500022000799280000F095FC049B2F2B01DD39
:10256000454B00E0424B0124059D424E3E4A10354A
:102570002DB213800399230032002800009400F04C
:1025800081FC2300320007992800009400F07AFCB7
:10259000069B0094083B1BB2089332002300089965
:1025A000280000F06FFC049B5F2B02DC304A2E4BAE
:1025B0001A800124059D2F4F18352DB223003A00B3
:1025C00003992800009400F05DFC23003A0007996D
:1025D0002800009400F056FC23003A0008992800D7
:1025E000009400F04FFC069E23000C3E36B200948F
:1025F0003A003100280000F045FC049B9F2B02DCD0
:102600001B4A194B1A800125059C1A4F203424B20D
:102610002B003A0003992000009500F033FC2B00BA
:102620003A0007992000009500F02CFC2B003A009E
:1026300008992000009500F025FC2B003A0031009D
:102640002000009500F01EFC06992B0010393A007E
:1026500009B20095200000F015FC6A46024B928CEE
:102660001A800BB0F0BDC0460E0100108B8B00002D
:102670008A5200005691000000F8FFFFF7B50025D0
:102680000126012001F018FA8A4B20201D7001F06C
:1026900057FF01F085FF04F041FB874B041C1D70C0
:1026A0003500864B1B78002B00D101E1002D00D1B5
:1026B000FEE0012D00D095E0814D002E36D001279F
:1026C00000F0B8FB7F42102120202F8000F0D0FBCB
:1026D0007C4801F09DFA9921282000F0C9FB7A4836
:1026E00001F096FAFC237948DB002B8001F090FA88
:1026F00077482F8001F08CFAFC235821DB00002062
:102700002B8000F0B5FB734801F08EFA724F380051
:1027100001F08AFA380001F087FA380001F084FAF3
:10272000380001F081FA6D4801F07EFA99213020DD
:1027300000F09EFB01F034FF252802DC01235B4200
:1027400000E0674B2B800223664A00933021013B57
:10275000A42000F097FB3621182000F089FB624886
:1027600001F056FA4221182000F082FB01F018FF18
:10277000282801DD5D4800E05D48FC2701F048FAAB
:102780000223FF005B4A2F8060210093A420013BBD
:1027900000F078FB6621182000F06AFB564801F033
:1027A00037FA7221182000F063FB01F0F9FE2528AA
:1027B00002DD4B4B2B8000E02F8001F0F1FE0A215F
:1027C00001F08CFA4D4801F023FAFC23DB002B804A
:1027D00001F0E6FE0023020076217020FFF760FE84
:1027E00002255EE7022D00D060E7FFF7BBFB01F09A
:1027F000B5FF002808D001F0B1FF002801D1050085
:102800004FE7FFF7AFFBF6E701F0C0FF00282CD041
:102810008421201CC90503F0EFFB002807D03849AC
:10282000201C03F0CBFB002808D0364909E08421A6
:10283000201CC90503F0E0FB002801D0324900E06C
:102840003249201C03F026FC3149041C03F0CAFB6A
:10285000002802D0FF2001F073FE2E49201C03F057
:10286000C1FB00281BD02B4C19E001F089FF002888
:1028700000D116E72449201C04F060F88421C90522
:10288000041C03F0A5FB002802D0202001F058FE14
:102890000021201C03F092FB002800D00024201C03
:1028A00004F0D2F900B201F02DFE00260125F8E671
:1028B000F7BDC04617010010D3040010D10400106A
:1028C0000E010010078B0000208A00001B8B000007
:1028D0001D8B0000288B0000438B00005E8B0000E6
:1028E00000F8FFFF12910000DB890000798B0000E7
:1028F000838B0000349100008E8B00008B8B0000D6
:1029000000000442CDCC4C3C0000A03F0000204021
:102910000000504200007F43012210B5084B002008
:102920001A7001F0C9F8074801F066F802F05AFD84
:1029300002F088FD01F0A6FE02F082FD10BDC04647
:10294000D1040010047E0000014B18787047C04687
:10295000D1040010F7B50024FC2725005826FF00FD
:10296000292D48D802F04EFD234B1A689042F7D922
:102970001E301860012D0BD0002D02D0022D22D068
:1029800035E01E4B28001D8000F062FA01252EE084
:10299000FC21E2B2C900002001F0FEF9184B194AEF
:1029A00018806E2351781078490840081C34181A92
:1029B000711A00952B00A4B200F064FAFE2C16D90F
:1029C0000024022513E00E4B0E4A1F806E23107860
:1029D00051784008181A49086D3B0093711A00F0AD
:1029E00051FA3F34084BA4B29C4200D9FF25FFF7AF
:1029F000FFFA0028B4D0F7BD64510010780700102A
:102A00000E010010088C0000FF03000010B520200C
:102A100001F096FD1022034B1A80034BEF321A701F
:102A200010BDC046562D0010D0040010F8B5FFF7B9
:102A300073FF10220124FF252D4B1A702D4B1C60B3
:102A40002D4B1D70FFF7E2FFFFF752FA280000251B
:102A5000FFF74FFAFFF756FAFFF758FAFFF74BFA6E
:102A600000F001FAFFF776FF200001F025F8234F70
:102A70003D8000F0DFF9224E300000F0BDFF200065
:102A800001F01AF8FC221F4BD2001A803D8000F0A2
:102A9000D1F9300000F0B0FF1B4F1C4E3D70347078
:102AA000FFF752FCFFF7EAFD01F05EFD280001F0A0
:102AB00003F8174B17481C70174B3C701C70347090
:102AC00000F09AFF01F002FAFFF716FA0520FFF76F
:102AD0003FFA0100A84207D1104B1B78AB4203D04C
:102AE0000F4801F0F7FA02E0002001F00BFDF8BDFD
:102AF000D2040010D8040010D00400107807001091
:102B00006C8400000E01001017010010100100106D
:102B1000160100100881000012010010AE04001020
:102B2000FA8B0000F8B5274D274C0023EE5E0023FA
:102B3000E75E264B00211A786F239B1A2B80244BCB
:102B400021801B78042B2FD8180003F067F8031B93
:102B50002525250001F0FBFA0020FFF7CAF900F057
:102B600055FB01221B4B1C481A7001F051F81B4BFE
:102B70000A21188801F0B2F8194801F049F800F06C
:102B800077FB18E0174B00211A680F23072013402A
:102B9000072B0ED978200CE0134A1278002A0AD0AD
:102BA0000533D8B2002104E00F4B1B78002B02D074
:102BB0002F2001F08FF8FF231E401F402E8027801A
:102BC000F8BDC046700700107607001060070010BF
:102BD000AE04001016010010998B0000AC04001028
:102BE000A68B0000CC040010AF040010F0B51F4B02
:102BF00085B01A780393002A36D000240B2A02D815
:102C00000C239C1AE4B20127194B002055251F7094
:102C100000F04EFB0322174EA4B231780020CB1CEB
:102C2000691A61180092513200F0A9FE380000F0D4
:102C30003FFB032231780020CB1C691A61180092F7
:102C4000513200F036FE04220B4B1A803378E41A1E
:102C50000A4B57341C800A4B186800F0D9FF039BBD
:102C6000039A1B78013B137005B0F0BDE40400101B
:102C7000160100106807001070070010760700109A
:102C8000DC04001070B5050001F0D6F802F0BAFBC4
:102C9000174A184913680978C31A174C8B4211D97F
:102CA0002368002B0ED01060144A136801331360A0
:102CB00000232360FFF71EF9FFF728F9FFF71CF93F
:102CC000012014E000202368834210D101F03AFA79
:102CD00001F09CFA01F08EFBFFF788FFFFF722FF5F
:102CE000002D01D100F0C4FA01230020236070BD43
:102CF000E0040010D2040010D8040010CC0400102E
:102D000010B501000400FA20800003F01BF8064B08
:102D100014211870200002F08BFFC0B2002800D1EF
:102D20000130024B187010BDD2040010542D001059
:102D300010B5024800F072FE10BDC046D404001069
:102D400070B50F4D06002B780C00102B0BD0300007
:102D50002C70FDF7F7FF041E0DD13100094802F079
:102D600053FF20000AE0084806F004FB030001209E
:102D7000002BECD002E0082301202B7070BDC04670
:102D80000C01001030050010E804001013B56B466C
:102D90009C1D2200FEF706F8208816BD10B5074BD3
:102DA000002804DADA6941428A4200D25042DB69E3
:102DB000C018FEF759F8024B187010BDE804001057
:102DC0003F05001010B50020FEF74EF8014B1870BB
:102DD00010BDC0463F050010034B10B5186AFEF742
:102DE00043F8024B187010BDE80400103F050010B6
:102DF000014BD8697047C046E804001001238122C6
:102E000013B5074C5B4200935201064B0649200064
:102E1000FEF716FA054A06492000FEF72DFC13BD01
:102E200018050010180C000024120000000100100A
:102E30003112000010B5002001F07CFD0023024A91
:102E40001380024A138010BD70070010760700102F
:102E500010B501F06FFD10BD13B504AC24880094CB
:102E600001F01FFF13BD10B501F0C2FD10BDFFFF43
:102E7000024B1880024B19807047C0467007001043
:102E800076070010F0B58FB00B9114A909780A905D
:102E90000891117805915178023209910092012B25
:102EA00076D1059B0733DB100C936B461B8D079384
:102EB0000493002303936B460C21595E059B8B42C0
:102EC00000DCF0E00723CA171A405218D21053B2A0
:102ED0000A93764B0B4004D50822013B5242134320
:102EE000013380221BB21A416B469B8D0D920693D3
:102EF0000293002301936B4604229B5E099A93423E
:102F00003EDA0C9A0A995343009A5218D35C0D9AF0
:102F10001A422DD0089B664C012B09D1069B0199C2
:102F200003985918079B2288181809B200B21DE0AF
:102F30006B461027DF5F6B4608269E5F22883100B4
:102F4000380001F093FE049B31005D1C2DB22288F5
:102F5000280001F08BFE029B22885E1C36B23100F5
:102F6000380001F083FE31002800228801F07EFE47
:102F7000019B01330193029B02339BB20293BAE798
:102F8000039B01330393049B02339BB2049392E7A8
:102F9000042B00D087E00023099A934200DB82E0F3
:102FA0009BB202936B469B8D00250793029B079A69
:102FB0005B00D3189BB21AB201331BB204936B4669
:102FC0001B8D039206930193059BAB4267DD009B2B
:102FD000384A1B7812681B115B009E5A089B022B13
:102FE00019D1069B6C001C19A4B227B2013432001F
:102FF0000399380024B201F039FE32000399200011
:1030000001F034FE32000499200001F02FFE32005E
:103010000499380007E0029B079A99186B46320022
:103020000420185E09B201F021FE0F22009B1B78DC
:103030001340204A5B0012689E5A089B022B1AD14B
:10304000069B6C001C19A4B2A71C3FB203343200CB
:103050000399380024B201F009FE320003992000E0
:1030600001F004FE32000499200001F0FFFD32005F
:103070000499380007E0029B079A99183200019BD7
:1030800009B2581C00B201F0F1FD009B023501337A
:103090000093019B2DB202339BB2019394E7029BF4
:1030A00001331BB278E70FB0F0BDC04607000080C7
:1030B0000E01001064070010F0B513004D4A8DB0EA
:1030C0000B9010680491427811000592F72208399C
:1030D0000A40511E8A410599C9105218099209994E
:1030E00002784A43511C4B431A0082181279053367
:1030F00052B20A920022C31803926A46127B0A99BE
:1031000052B291426BDD09991A78022903D001333A
:10311000089393B204E0991C5B7808911B02134357
:1031200000936B469B89002506936B469B8D079306
:10313000069B079A5B00D3189BB21AB201331BB2ED
:1031400001920293059BAB4244DD0122009B134296
:103150000ED0294B1B78022B07D1049B6C00E4187E
:10316000264EA4B227B2328811E0244B1A8822E0FE
:10317000234E244B32881B88934225D01E4B1B784C
:10318000022B18D1049B6C00E418A4B227B23900BA
:103190000198013401F06AFD24B2328839000298A6
:1031A00001F064FD32882100019801F05FFD328852
:1031B0002100029806E0049B0798E918069B09B2D3
:1031C000181800B201F052FD009B01355B08009316
:1031D0006DB2B7E7039B01330393089B8DE7002093
:1031E000094B18560A9BC018034B1B7858430DB067
:1031F000F0BDC0466C070010160100100E01001053
:10320000780700101A0100101701001010B5124BBA
:103210001888124BC2B21B78012B03D1FF21002862
:103220000AD00EE0022B07D101331A40110093009F
:1032300019430A01114304E00F231101034019430C
:10324000C9B2074B074A186802F0AEFB0023064AD2
:103250001380064A138010BD6A0700101101001088
:1032600058050010D02500007007001076070010E8
:1032700010B5074B1A78074B1968074B186801F00F
:1032800037FD064B1B78002B01D1FFF7BFFF10BDA8
:10329000690700106407001058050010610700104E
:1032A00010B5024800F060FD10BDC0460A8900005C
:1032B000014B18807047C04614010010014B188064
:1032C0007047C0461A0100100A4B30B51B88934264
:1032D0000ED0094B84B21B78A34209D9074C25783C
:1032E0008CB2A54204D95943054B1B6818184254A7
:1032F00030BDC0461A010010180100101C0100105A
:1033000058050010F0B51300274A87B004901068E4
:1033100005914778F722390008390A40511E8A4141
:10332000F91052180292029902784A43511C4B43F9
:103330001A0082181279053352B203926A46158A2E
:10334000C318049A0399AA1A52B2914224DD029A30
:103350001C78022A03D001330193A4B204E09A1C22
:103360005B7801921B021C430026B74210DB059BD1
:1033700028B2F11801231C4201D00C4B00E00C4B89
:103380001A7809B20136FFF79FFF640876B2ECE7BE
:103390000135ADB2019BD4E70020064B1856039BC4
:1033A000C01807B0F0BDC0466C0700101401001033
:1033B0006A0700101701001010B5094B82B21B7884
:1033C00093420BD9074A14788AB2944206D95943DA
:1033D000054B1B681818054B1B88435410BDC0468D
:1033E000180100101C0100105805001014010010F5
:1033F00010B5094A147882B2002094420AD9074BCA
:1034000089B21B788B4205D96143054B51181B6863
:1034100089B2585C10BDC046180100101C01001094
:103420005805001070B50F4B15001B788AB20600C6
:10343000934202D8AAB2934212D90B4B1A78B3B274
:103440009A420DD9A94202DD0B0029001D000C0093
:10345000A54205DB21B23000FFF7AEFF0134F7E7EC
:1034600070BDC0461C0100101801001070B50F4B54
:1034700016001B7882B20D00934202D88AB29342A2
:1034800012D90B4B1A78B3B29A420DD9A84202DD79
:10349000030028001D000400A54205DB20B2310016
:1034A000FFF78AFF0134F7E770BDC046180100102E
:1034B0001C01001010B5002A04DA92B251185242D1
:1034C00009B212B28A1812B2FFF7ACFF10BD10B5E4
:1034D0000B00002A04DA92B21018524200B212B263
:1034E0008218013A11B21A00FFF7C0FF10BDF8B5FB
:1034F000060014000F00CB181DB234192A0024B2A4
:10350000FFF790FF2A0039002000FFF78BFF3A00F9
:1035100030002100FFF7AAFF2A0030002100FFF74A
:10352000A5FFF8BDF8B58218CB1805000C0012B243
:103530001BB2002801DA002A2DDB174909788D42D9
:1035400001DB914227DD002C01DA002B23DB13493C
:1035500009788C4201DB99421DDD954202DC1100A5
:103560002A000D009C4202DC190023000C00161CEE
:10357000002A00DA002636B2191C002B00DA0021DE
:103580000FB2AE4207DA3000220039000136FFF7F1
:1035900049FF36B2F5E7F8BD180100101C01001014
:1035A000F0B587B0002878D03D4B1B78984201DBFE
:1035B000581E00B23B4A1478042C07D13A4A1178BD
:1035C0004143CA0F5118491089B20AE0022C64D154
:1035D0000321354A12784243D51729408A189210A0
:1035E00091B2324A15880195314D2D8815802E4AA9
:1035F00000282DDD1278181AD5086C430294002497
:1036000025000490049884421BDA2800491B89B2E3
:1036100003916F46461BFE82FE8A0399B446029EC2
:10362000411889B2B44508DA461CB446214E715C93
:1036300031546146F982F88AEBE70134A4B20500FF
:10364000E0E71D491BB20020095E12B200201EE017
:1036500012789BB25443174FE41085B2029403933F
:10366000039BAB420FD90C00661A029BB6B29E4276
:1036700005DA661CB6B2BB5D3B553400F4E7013594
:10368000ADB22100ECE700210300080012B2FFF701
:1036900049FF6A46054B92881A8007B0F0BDC046C4
:1036A0001C0100101101001018010010140100107D
:1036B0006A0700107A07001076070010F0B587B08F
:1036C00004936B46012400921B880290E21AA340E7
:1036D0005B4212B21BB2039101920593631E009AE2
:1036E0001BB29A4267DD019B002B0CDB1300013BF0
:1036F0001BB20093059B02339BB21AB20592019A4A
:103700009B181BB20193019A630001339B1804229A
:103710001BB20193049B13420FD06B461F899D89F6
:103720001E883819A91909B200B22D19BE19FFF760
:1037300043FE29B230B2FFF73FFE0222049B134240
:103740000FD06B461F899D891E88E019A91B09B2FD
:1037500000B2FFF731FEBE19291B09B230B2FFF7E4
:103760002BFE049B1B070FD56B461D891F889E8966
:10377000E81BA11909B200B2FFF71EFEBE19281BF3
:1037800031B200B2FFF718FE049BDB0702D401340C
:10379000A4B2A3E76B461D891F889E89E81B311BD5
:1037A00009B200B2FFF708FEF61B281B31B200B2C7
:1037B000FFF702FEEBE707B0F0BDF0B58BB01600E7
:1037C000089393B201220790D01A93405B421BB238
:1037D00006938BB20493013B9BB2029310AB1B8800
:1037E00000B2059302339BB2019300230090039330
:1037F0000992039BB3425ADA009B002B0ADB069B1B
:10380000013E02339BB21AB20692009A36B29B185E
:103810001BB20093039C009A0134A4B223B2039319
:10382000630001339B181BB20093099A089B134253
:1038300017D06B46B5B29F8B059B6A009A18049B04
:103840003819591B12B209B200B2FFF733FE6B46AA
:1038500004229A5E6B467D190821595E28B2FFF753
:1038600029FE0222089B134208D1029B013B9BB216
:103870000293019B02339BB20193BAE76B46B7B246
:103880009D8B059B7A009A18049B281BD91B12B2AA
:1038900009B200B2FFF70EFE6B4604229A5E6B4639
:1038A000ED1B0821595E28B2FFF704FEDDE70BB0DF
:1038B000F0BDF0B587B01F000CAB00241C5F019079
:1038C0000E00012C03DC3B00FFF711FE55E06B46B8
:1038D0009B88A1B202935B181BB2009393B203932F
:1038E0004B009BB20493049A039B31009D1A2DB2A6
:1038F0002A000098BFB2FFF7EAFDB6B27B1EF318AC
:103900009BB205936B462A001421595E0098FFF77D
:10391000DEFDA3B29E19049B36B2FF1A3FB23100FE
:103920003A000198FFF7C6FD039B31005D1E029B24
:103930003A005D19ADB228B2FFF7BCFD310001239A
:1039400022000098FFF7BAFEA3B2ED1A2DB23100A3
:10395000022322002800FFF7B1FE059BA2B29E1AA7
:1039600036B20423220031002800FFF7A7FE082307
:10397000220031000098FFF7A1FE07B0F0BDF0B5BE
:1039800087B00C000CA900268E5F012E03DC2100FD
:10399000FFF7C8FD2DE0B7B281B292B27D0004926C
:1039A0000291AAB2C919059209B20391049A059924
:1039B000013B9DB2521A2BB2210012B20398FFF7BD
:1039C000B1FD059B3C19ED1A049B24B2581E029BC5
:1039D0002DB21818C01B00B201233200210000953F
:1039E000FFF7EBFE00950223320021000398FFF75A
:1039F000E4FE07B0F0BDFFFF054B064A18600378F0
:103A0000013313704378044A013313707047C04682
:103A10006C07001060070010680700100E4A0F4B7B
:103A200010B504001A60FFF73BFC01220C4B0D4857
:103A30001A700D4BDB321A800C4B2C3A1A80FFF7B0
:103A4000DBFF11220A4B20001A800022094B1A804A
:103A5000094B08321A7010BD7A0700105805001083
:103A600075070010047E00005E050010720700104C
:103A70001A0100106A0700105C05001010B5084B11
:103A800009B21B6800B29B78D21A064BD2B21B78DF
:103A9000002B02D0FFF710FB01E0FFF733FC10BD55
:103AA0006C07001075070010024B1878431E9841F0
:103AB000C0B270477507001009490A4A0A4B00282E
:103AC00005D001200870DC211180B02205E00870CB
:103AD000064909781180064A12781A807047C04654
:103AE000750700105E050010720700101801001025
:103AF0001C01001010B50B4C0B490023E25E0B4B70
:103B000009881B685B785800091A0948007840B298
:103B10008A4203DDC018FFF743FD02E0C3189B187B
:103B2000238010BD76070010720700106C0700108C
:103B30001001001070B52B4B04001A68D378002BCD
:103B400003D0602801D9203CE4B20E2C21D82000FB
:103B500002F064F8461F1F1F1F1F1F1F0E1F081FA4
:103B60001F1B46000022204B1A80FFF7C3FF37E0DF
:103B70001D4910780B882022181A1C4B80B208802F
:103B80001978C0B2FFF77AFF2AE00022164B1A809C
:103B900026E0154D12780023E85E154B1B889B1A12
:103BA00098420BDB00232B80124B1B78002B17D085
:103BB000FFF7A0FF0D4B2878197802E00B4BC0B23D
:103BC00019782200FFF75AFF202C06D10A4B1B78E8
:103BD0005BB2002B01D0401001302B8818182880D0
:103BE00070BDC0466C07001070070010760700100B
:103BF0005E050010120100101701001010B504003E
:103C00002078002803D00134FFF794FFF8E710BDB7
:103C100010B5FFF7F3FF10BD10B50D20FFF78AFFB9
:103C20000A20FFF787FF10BD10B5FFF7E7FFFFF78A
:103C3000F3FF10BD024B1880024B19807047C0463D
:103C400070070010760700100023F0B5050089B05A
:103C50000E00984203D13020FFF76CFF1CE05C1C83
:103C600028006B4431001F0002F068F8280039700A
:103C7000310001F0DDFF2300051EF0D16B46013C51
:103C80001B5D18003730C0B2092B01D83033D8B2D1
:103C9000FFF750FF002CF1D109B0F0BD10B5041EA4
:103CA00003DA2D20FFF746FF64420A212000FFF7C8
:103CB000CBFF10BD10B5002903D1C0B2FFF73AFF0A
:103CC00007E00A2902D1FFF7E9FF02E0C9B2FFF7D6
:103CD000BBFF10BD10B5FFF7EDFF10BD10B5FFF72E
:103CE000E9FF10BD10B5044C208004480180190084
:103CF0001000FFF7DFFF10BD7007001076070010FF
:103D000010B5002903D1C0B2FFF714FF02E0C9B219
:103D1000FFF79AFF10BD10B5FFF7F2FFFFF77CFF2A
:103D200010BDFFFF10B50248FEF7FCF910BDC046FC
:103D3000740700108021002310B5054A8900C45A79
:103D4000D45202338B42FAD1024B1A6010BDC046E6
:103D5000600500106407001089104901D210C010DE
:103D60000A43C00210437047F8B5802704000025BD
:103D7000074E7F00A27861782078FFF7EDFF6B0097
:103D80000135F0520334BD42F4D1024B1E60F8BD40
:103D9000600500106407001070B51F240500254061
:103DA0000C40641B23B253431B12EB183F254411F4
:103DB0004E112C40C00A3540C9122D1B091A55431B
:103DC0004A4312122D1280181BB26419021C0028DB
:103DD00000DA002212B2D202181C002B00DA0020F6
:103DE0001043231C002C00DA00231BB25B01184394
:103DF00080B270BD0B4B8A00D35810B58000C358F9
:103E000009480A4C13501B88094A10781A0042438B
:103E1000D2B262541B12934200DD13004343054AA1
:103E2000535410BD802D0010642D0010682D00101B
:103E3000542D0010842D001070B51A4B1A4C1968BF
:103E400022681E00194D91421DD02368002B03D11A
:103E50008021174809010DE02368012B03D180213F
:103E60001448090106E08021236809011248022B49
:103E700000D01248FEF78AFF8022236812013360C7
:103E80002B689B182B600E4B0E4A1B6A9B182A68E6
:103E9000934205D200242C60FEF794FF0A4B1C705D
:103EA00070BDC0469C5000104C500010EC500010EB
:103EB0003448001034300010343800103440001002
:103EC000E804001000F8FFFF8050001010B501F06A
:103ED0003FF9012001F0C2F801220021054B080042
:103EE0001A70054B03321A70044A054B1A60FFF72B
:103EF00081FF10BD542D00104C2D00105C9100006E
:103F0000802D001010B50C00002B2CD104282AD8CD
:103F100001F084FE030F141B220000234CB29C42CC
:103F200004DB231C0A2C00DD0A23DBB20E4A1370CB
:103F300019E000212000FFF75DFF14E00B4B1B7818
:103F40005C430B4B1C700B4B0CE0084B1B785C4329
:103F5000094B1C70094B05E0044B1B785C43084B74
:103F60001C70084B1A7010BD4E2D0010542D0010FF
:103F70006B2D00108D2D0010902D0010792D00104C
:103F8000752D00107A2D0010002A11D1094B1870E0
:103F9000094B1B785943094B1970094B09491A7091
:103FA000094B1A8001230B7008490B70084B1A70DB
:103FB0007047C0464B2D0010542D00105A2D001094
:103FC0004A2D00108E2D00107C2D00105B2D00104E
:103FD000502D001010B500240D4B1B78A34201D0CA
:103FE0000C4B1C780C4B1B78002B0AD00B4B187811
:103FF00002F094FE0A4902F0C3F9011C0948FDF7DA
:1040000011FD200001F044F8074B1C8010BDC04694
:104010005B2D0010742D0010D1500010852D001064
:1040200000007F43DC2F0010D250001010B5002894
:104030000FD1084B1870084B1870084B1880084BAC
:104040001870084B1870084B1870084B1870FFF761
:10405000C1FF10BD8E2D00105A2D00107C2D0010B8
:10406000502D0010742D00108C2D00105B2D0010B1
:1040700010B5041E03D1FFF7D9FF014B1C7010BD12
:104080004F2D001070B50C0005000800FFF7F0FF81
:10409000094BA200D5500023084A61008B52012130
:1040A000074A1155074A08311155074A1355074A5F
:1040B0001355074A135570BD882D0010522D00105E
:1040C0004F2D00104E2D00106B2D0010902D001064
:1040D000752D001010B5002901D1FFF7D3FF10BDD9
:1040E00010B500281FD1104A1378002B1BD00F4B9E
:1040F0001978002917D10E4C0E48237800685B0010
:104100001B5A0D48834201D111700CE00B4A181262
:1041100010700B4ADBB212689B009858FFF7DAFF69
:1041200023780133237010BD862D00104F2D001011
:104130006C2D00105C2D0010FFFF0000602D0010A2
:10414000702D001010B50020FFF7CAFF10BD10B58C
:104150000020FFF78DFF10BDF8B5002848D1254A93
:104160001378002B44D0244B1B78002B40D1234CD8
:10417000234D238828685B00195A002912D1214B4E
:104180001B78002B02D0218001880BE01E4B1170A0
:104190001878002809D00800FFF7A2FF23882A68B2
:1041A0005B00995A01271F2602E0FFF73FFF1FE03F
:1041B0000A008B103A4013D08811C9120A0001007E
:1041C0000F20103A52B2314018400023FFF79AFEF8
:1041D00023882A6801339BB223805B00995AE7E762
:1041E0003F20090A1840FFF7CFFE238801332380C0
:1041F000F8BDC0464F2D00105A2D0010522D001052
:10420000882D0010772D0010862D001010B500208D
:10421000FFF7A2FF10BDFFFFF7B5002800D0ABE00D
:10422000564B1B78002B00D1A6E0554B1878002880
:1042300002D1FFF7FBFE9FE0524C01381870237843
:10424000002B26D1504D51482B885A1C504B510001
:104250001B68CB5A0721194001704E49981208700B
:104260004D4899050078890E41431B0721704B4941
:10427000DB0F0B7093B24A4A2B801278934208D31B
:10428000484B1878002802D0121A2A8001E0FFF764
:10429000CDFE2378013B2370434B444C1D78013500
:1042A0006DB21D70424B1B7801933A4B1E78019BF7
:1042B0009E19404B1B78F6183F4BF6B219782670C2
:1042C000002907D0280001F03DFD3C4B1B785843E6
:1042D0003618267020782421243001F019FE00279A
:1042E00021700E000021364B364CDF57364B2770BD
:1042F0005956002907D0280001F024FD334B1B78C4
:1043000058433F182770324B1978002910D02800E5
:1043100001F018FD2F4B184004D5022301385B42F1
:10432000184301302C4B1B7858432378C018207059
:10433000019B3F2B0AD02278131C52B2092A01DDBF
:10434000092304E01A0602D5002300E000232370AD
:10435000224B9A5D224B1A700C4A237812785343F1
:10436000204A12785A43204B1B885B1153431F4A43
:10437000DBB213701E4A1370F7BDC0468E2D0010BD
:104380005A2D00104A2D00107C2D0010582D0010C1
:10439000642D00108F2D0010542D0010782D00106A
:1043A000682D0010842D0010502D0010762D001067
:1043B0004B2D0010602D0010902D0010792D001055
:1043C0004E2D00106A2D00106B2D00108D2D001049
:1043D000752D0010010000807A2D00106C910000F6
:1043E000692D00104C2D0010562D00108C2D001042
:1043F000742D001010B50020FFF70EFF10BDFFFF59
:1044000010B5174B1978002901D100241EE0154A78
:104410001548137800780133DBB213709842F4D852
:104420000124124803786340037000231370104B7B
:104430001B78002B0AD043230E4A1078584347308C
:10444000C0B2107001F07AFC0B4B19700B4B1B784B
:10445000002B01D1002C01D0FFF7BCFD10BDC046E0
:104460008C2D0010592D0010692D00105B2D0010AF
:10447000782D00101D010010742D0010D150001077
:1044800010B5184B00211A7801231340164A17481B
:104490001370174A5156174A002906D0002B04D032
:1044A0000368591C01601B7800E000231249137057
:1044B0000B6802689A4211D3104B1A6801321A60D5
:1044C0001A68042A01D100221A601B680C4ADB0218
:1044D0009B188022120103609B180B60FFF790FF6E
:1044E00010BDC04680500010D1500010E42F0010C5
:1044F00020010010852D0010183000104C500010C5
:104500003430001010B5031C002800DA00230A4ADA
:104510001BB21288934200DD13B2084A1380DA0FEF
:10452000D3185B100A3B1BB2181C002B00DA0020CA
:10453000C0B200F067FD10BD1E010010562D001026
:1045400010B5002803DBFF2802DDFF2000E000207B
:10455000034B1880034B0020185EFFF7D3FF10BDFC
:104560001E010010562D0010054B10B5188820288C
:1045700001D9103000E0083000B2FFF7C3FF10BDD2
:10458000562D0010054B10B51888202801D9203869
:1045900000E0083800B2FFF7B5FF10BD562D00103F
:1045A000014B18887047C046562D001010B50248C0
:1045B000FDF7B8FD10BDC0464D2D00100122014B86
:1045C0001A717047282F00100022014B1A71704792
:1045D000282F00100122014B5A717047282F00101C
:1045E0000022014B5A717047282F00100122014B05
:1045F0009A717047282F00100022014B9A71704762
:10460000282F00100122014B5A707047282F0010EC
:104610000022014B5A707047282F00100122014BD5
:10462000DA707047282F00100022014BDA707047B3
:10463000282F00100022014B9A707047282F00107D
:104640000022014B1A707047282F001010B5054B3F
:104650009A79002A02D0FFF787FF01E001229A70C1
:1046600010BDC046282F001010B5054B9A79002ABE
:1046700002D0FFF787FF01E001221A7010BDC0468B
:10468000282F001010B5204C20492000FCF73FFDDA
:1046900020001F49FCF72CFD1E4C1F492000FCF791
:1046A00036FD20001D49FCF723FD1D4C1D4920004F
:1046B000FCF72DFD20001C49FCF71AFD1B4C1C4982
:1046C0002000FCF724FD20001A49FCF711FD1A4CCC
:1046D0001A492000FCF71BFD20001949FCF708FDD2
:1046E000184C19492000FCF712FD20001749FCF76F
:1046F000FFFC174C17492000FCF709FD1649200064
:10470000FCF7F6FC10BDC046302F0010C945000074
:10471000BD450000802F0010E1450000D545000098
:10472000942D0010F9450000ED450000D82E001032
:104730001146000005460000E42D00102946000047
:104740001D460000382E001041460000694600005A
:10475000882E0010354600004D460000014B1879A8
:104760007047C046282F0010014B58797047C0464B
:10477000282F0010014B98797047C046282F001051
:10478000014B18787047C046282F0010014B9878CD
:104790007047C046282F001070B52648FFF73EF935
:1047A000254E26493000FCF77FFC254D254C2A007C
:1047B00021003000FCF760FF234E24493000FCF755
:1047C00073FC2A0021003000FCF756FF204E2149DF
:1047D0003000FCF769FC2A0021003000FCF74CFF98
:1047E0001D4E1E493000FCF75FFC2A0021003000FE
:1047F000FCF742FF1A4E1B493000FCF755FC2A001B
:1048000021003000FCF738FF174E18493000FCF744
:104810004BFC2A0021003000FCF72EFF144E1549F6
:104820003000FCF741FC2A0030002100FCF724FF97
:1048300070BDC046342E0010302F001084120100CD
:10484000000100107D100000802F00107008010092
:10485000942D001088140100D82E0010941A010025
:10486000E42D00106C060100382E0010C432010047
:10487000882E00107C0E0100074B1A8882420AD055
:104880001880A023054A06491B0699500549C00017
:104890005850002199507047D02F001088200000F8
:1048A0000700F8FF8821000070B58A23A0240422A5
:1048B00024069B01E2508023054D5B046351FFF702
:1048C000DBFF8023034A5B01A350635170BDC046E8
:1048D000042200008422000070B58823A024042252
:1048E00024069B01E2508023054D5B046351FFF7D2
:1048F000C3FF8023034A5B01A350635170BDC046D0
:10490000042200008422000010B5074C0749200053
:10491000FDF7CCF820000521FDF7A7F80449200099
:10492000FDF780F810BDC046D42F0010FC04020033
:104930009A99993E10B504002020FFF7B5FF00209A
:10494000FFF7CAFF2120FFF7AFFF0020FFF7C4FFEA
:104950002220FFF7A9FF2000FFF78EFFA023882267
:1049600004211B06920199508021074A490499505D
:10497000802106484901064C995001381951995037
:104980000028FAD110BDC046042200004097000064
:104990008422000010B52020FFF786FF0020FFF7DB
:1049A0009BFF2120FFF780FF0020FFF795FF2220CB
:1049B000FFF77AFF0020FFF75FFFA0238822042182
:1049C0001B06920199508021064A49049950802182
:1049D00005484901054C9950013819519950002852
:1049E000FAD110BD0422000040970000842200008C
:1049F00070B5A02501247C4E2D06FFF785FFAC5134
:104A00000A20FCF76EFD794B0A20EC50FCF769FD9B
:104A1000AC510A20FCF765FD2000FFF745FF8E2012
:104A20004000FFF759FF0220FFF73EFF80204000C3
:104A3000FFF752FF0320FFF737FF6D48FFF74CFFEA
:104A40000820FFF731FF8120C000FFF745FF0B2052
:104A5000FFF72AFF0020FFF73FFF0C20FFF724FF9E
:104A60000020FFF739FF0F20FFF71EFF2000FFF7A0
:104A700033FF2020FFF718FF0020FFF72DFF212034
:104A8000FFF712FF0020FFF727FF1020FFF70CFFB2
:104A90000020FFF721FF1120FFF706FF80204001D3
:104AA000FFF71AFF0A20FCF71CFD3020FFF7FCFE81
:104AB0000020FFF711FF3120FFF7F6FEDB20FFF7A4
:104AC0000BFF3220FFF7F0FE0020FFF705FF332039
:104AD000FFF7EAFE0020FFF7FFFE3420FFF7E4FEB9
:104AE000DB20FFF7F9FE3520FFF7DEFE0020FFF7A1
:104AF000F3FE3620FFF7D8FEAF20FFF7EDFE37209C
:104B0000FFF7D2FE0020FFF7E7FE3820FFF7CCFECC
:104B1000DB20FFF7E1FE3920FFF7C6FE0020FFF79C
:104B2000DBFE0A20FCF7DDFCFF20FFF7BDFE0320C3
:104B3000FFF7D2FE5020FFF7B7FE2E48FFF7CCFE5E
:104B40005120FFF7B1FE2C48FFF7C6FE5220FFF7B9
:104B5000ABFE2A4D0520FFF7BFFE5320FFF7A4FE52
:104B60002800FFF7B9FE5420FFF79EFE2448FFF708
:104B7000B3FE5520FFF798FE224C0320FFF7ACFE52
:104B80005620FFF791FE2000FFF7A6FE5720FFF703
:104B90008BFE1D48FFF7A0FE5820FFF785FE28007A
:104BA000FFF79AFE5920FFF77FFE2000FFF794FEE3
:104BB000B020FFF779FE1548FFF78EFEFF20FFF7C4
:104BC00073FE0020FFF788FE0720FFF76DFE1048F8
:104BD000FFF782FEC820FCF784FC2220FFF764FE6A
:104BE000FFF7D8FE70BDC0460422000084220000FA
:104BF0003010000003020000090A0000211000002C
:104C00000206000003070000070500000125000060
:104C100017100000F8B5050017000C001E00ADB21B
:104C20003720FFF741FE2800FFF756FE3620FFF73A
:104C30003BFEB8B2FFF750FEA4B23920FFF734FEB6
:104C40002000FFF749FE3820FFF72EFEB0B2FFF735
:104C500043FE2020FFF728FE2800FFF73DFE21201D
:104C6000FFF722FE2000FFF737FEF8BD70B584B2D3
:104C70001600DB2C14D88DB2AF2D11D82020FFF7F1
:104C800013FE2800FFF728FE2120FFF70DFE20006D
:104C9000FFF722FE2220FFF707FE3000FFF71CFE81
:104CA00070BDF7B51C0008AB1B8807000E0015008F
:104CB0000193824201DC451C2DB2B44201DC741C1C
:104CC00024B26B1E621EDBB2D2B2F9B2F0B2FFF7B1
:104CD000A1FF2220FFF7E8FDED1BA41B6C43002C75
:104CE00004D00198FFF7F8FD013CF8E7F7BDFFFF9E
:104CF000F0B50700F5B0202004920391FFF7D4FD32
:104D00000020FFF7E9FD2120FFF7CEFD0020FFF78F
:104D1000E3FD2220FFF7C8FDA024882304222406F7
:104D20009B01E2508023AE4E5B04A35180253B00E3
:104D30006D016E33A55102970593FF2300229C4617
:104D400002990F7804984B783F1860460740039803
:104D50007F003F5A06A81752049817001B18604698
:104D6000034003985B001B5ADC3706A80232C3538A
:104D70006E31B02AE5D102231B1800930193019BE9
:104D8000984F023B1888FFF777FD019BE551188883
:104D9000A551E551A551FFF76FFD019BE5515888DD
:104DA000A551E551A551FFF767FD019BE551988895
:104DB000A551E551A551FFF75FFD019BE551D8884D
:104DC000A551E551A551FFF757FD019BE551188904
:104DD000A551E551A551FFF74FFD019BE5515889BC
:104DE000A551E551A551FFF747FD019BE551988974
:104DF000A551E551A551FFF73FFD019BE55110334A
:104E0000A551E551A5510193B22306AA9B18019A19
:104E10009342B4D1009B023B1888FFF72DFD009B05
:104E2000E5511888A551E551A551FFF725FD009BD7
:104E3000E5515888A551E551A551FFF71DFD009B8F
:104E4000E5519888A551E551A551FFF715FD009B47
:104E5000E551D888A551E551A551FFF70DFD009BFF
:104E6000E5511889A551E551A551FFF705FD009BB6
:104E7000E5515889A551E551A551FFF7FDFC009B6F
:104E8000E5519889A551E551A551FFF7F5FC009B27
:104E9000E5511033A551E551A5510093B22306AA5F
:104EA0009B18009A9342B5D13DAB00930193019BAF
:104EB0001888FFF7E1FC019BE5515888A551E551A1
:104EC000A551FFF7D9FC019BE5519888A551E55103
:104ED000A551FFF7D1FC019BE551D888A551E551BB
:104EE000A551FFF7C9FC019BE5511889A551E55172
:104EF000A551FFF7C1FC019BE5515889A551E5512A
:104F0000A551FFF7B9FC019BE5519889A551E551E1
:104F1000A551FFF7B1FC019BE551D889A551E55199
:104F2000A551FFF7A9FC019BE5511033A551E551AF
:104F3000A5510193019A69AB9342B8D1009B18889F
:104F4000FFF79AFC009BE5515888A551E551A55102
:104F5000FFF792FC009BE5519888A551E551A551BA
:104F6000FFF78AFC009BE551D888A551E551A55172
:104F7000FFF782FC009BE5511889A551E551A55129
:104F8000FFF77AFC009BE5515889A551E551A551E1
:104F9000FFF772FC009BE5519889A551E551A55199
:104FA000FFF76AFC009BE551D889A551E551A55151
:104FB000FFF762FC009BE5511033A551E551A55167
:104FC0000093009A69AB9342B8D1029B02330293DB
:104FD000029A059B934200D0AFE675B0F0BDC04683
:104FE000042200008422000070B504000D00182285
:104FF000002100F0D9FC29002000FCF73AF820003D
:1050000070BDFFFF7F23812110B50A4C8EB0184080
:105010002070094A0901684600F056FB22785E219B
:10502000684600F09CFB2478684600F097FB20005F
:105030000EB010BDD0500010140A0000002210B5B0
:10504000044B10201A70044B01321A70FFF7DAFF7C
:1050500010BDC046D0500010F050001070B5094C83
:1050600005002368013304D1242207490748FBF7D0
:105070007FFF002D01D0E36800E0236962681A60B9
:1050800070BDC046845000105C770000AB77000014
:10509000A0228021030012064905D80701D528481F
:1050A00000E028481150A02280215B1012068905DB
:1050B000D80701D5224800E022481150A0228021C3
:1050C0005B101206C905D80701D51D4800E01D4830
:1050D0001150A02280215B1012060906D80701D5C5
:1050E000174800E017481150A02280215B101206DB
:1050F0004903D80701D5144800E014481150A022F4
:1051000080215B1012068903D80701D50E4800E004
:105110000E481150A02280215B101206C903D80747
:1051200001D5094800E00948115080215B100904AD
:10513000002B01D0044B00E0044BD1507047C04617
:1051400004220000842200000822000088220000BF
:1051500010B50C4C0C492000FCF7A8FC20001F21C6
:10516000FCF783FC20000949FCF75CFC0848094B6C
:105170005A2183610023C362FCF7F1F8FFF75EFF59
:1051800010BDC046DC2F001040270200CDCCCC3D26
:10519000A05000108144000010B5194C2000FCF70D
:1051A00059F9184B184A236000231849A361E36298
:1051B0002000FCF761FA16491648FFF715FF16495B
:1051C0001648FFF711FF16491648FFF70DFF16495D
:1051D0001648FFF709FF16491648FFF705FF16495D
:1051E0001648FFF701FF16491648FFF7FDFE16495E
:1051F0001648FFF7F9FE16491648FFF7F5FE10BDF1
:10520000A0500010B0780000000100103113000021
:10521000D038010000300010D43A0100F4500010E2
:10522000D83C01001C300010DC3E0100D4500010BE
:105230004429020034500010482B0200E82F0010CF
:105240004C2D020050500010502F020068500010EA
:10525000A422010084500010F0B585B00600029130
:1052600072B64D4B984202D8050B2B0313E04B4B03
:105270001C2598420CD84A4B013D984208D8494B0E
:10528000013D984204D8484D8542AD416D421835E4
:10529000464BEB189B039B1B59425941CBB20193E0
:1052A0003223434C434F23606560434BA560390074
:1052B00020009847404A3B680392002B01D0012010
:1052C00068E0E4229202964260D1019B002B3BD021
:1052D000012301933423FA212360384B8900186895
:1052E0006560A56000F0A4FC324FE060324B3900ED
:1052F000200098473B68002BE1D132332360656082
:105300002D4BA5603900200098473B68002BD6D173
:10531000019B002B18D133232360029BFA21A36049
:1053200080235B00E360254B89001868666000F00D
:105330007FFC204D2061290020001F4B98472868E2
:105340000028BCD162B625E03B232360E023FA218C
:105350009B0063601A4B8900A360184B186800F02B
:1053600067FC144FE060144B3900200098473B68FD
:10537000002BA4D13233236065600F4BA560390048
:10538000200098473B68002BC5D098E7019A002A77
:10539000C1D09EE705B0F0BDFF7F0100FF7F030095
:1053A000FFFF0200FF7F0200FFFF0100EEFF03008E
:1053B0000C51001020510010F11FFF1F08010010B8
:1053C000FF030000024A1368013313607047C046B0
:1053D00030510010024A13680A3313607047C04608
:1053E000305100100548064B10B5FA2183610023A7
:1053F0008900C362FBF7B3FF10BDC04634510010F3
:10540000C5530000014B18687047C046305100106A
:1054100010B5074C2000FCF71DF8064B064A236028
:1054200000230649A361E3622000FCF725F910BDC3
:1054300034510010B078000000010010311300005A
:105440007047FFFFA023802104201B0689015A58C2
:1054500010B5024380205A50294A4001995801430F
:10546000802099509958400401430120995099583F
:1054700001439950234924485A5802435A5023481B
:105480000021FCF7A1FA00212148FCF79DFA002138
:105490002048FCF799FA00211F48FCF795FA0021F3
:1054A0001E48FCF791FA00211D48FCF78DFA0021F7
:1054B0001C48FCF789FA00211B48FCF785FA0021FB
:1054C0001A48FCF781FA00211948FCF77DFA0021FF
:1054D0001848FCF779FA00211748FCF775FA002103
:1054E0001648FCF771FA00211548FCF76DFA002107
:1054F0001448FCF769FA00211348FCF765FA10BD5F
:105500000420000008200000F8FF07000007020048
:1055100004090200080B02000C0D0200100F02002B
:1055200014110200181302001C15020020170200BB
:1055300024190200281B02002C1D0200301F02004B
:1055400034210200382302003C250200036870B5B4
:1055500004000D00013304D1242206490648FBF75C
:1055600007FD6368002D01D0E26800E02269136046
:1055700070BDC0465C770000AB770000036810B5D3
:105580000400013304D12C2205490648FBF7F0FC46
:10559000636960681B681840431E984110BDC0468F
:1055A0005C770000AB77000010B50121FCF7DCF858
:1055B00010BD70B504002500FFF7F6FF1835606BCD
:1055C000FBF784FF28000121FFF7C0FF0121200025
:1055D000FFF7BCFF606BFBF779FF00212000FFF7AE
:1055E000B5FF606BFBF772FF28000021FFF7AEFFED
:1055F000606BFBF76BFF70BD10B50400FFF7D4FFC5
:10560000606BFBF763FF00212000FFF79FFF606BDB
:10561000FBF75CFF200001211830FFF797FF606B5C
:10562000FBF754FF01212000FFF790FF10BDF8B5F4
:1056300004000F000825FFF7B7FF606BFBF746FF7C
:105640000121013DA9402600394020001836FFF70E
:105650007DFF01213000FFF779FF606BFBF736FF1C
:1056600000213000FFF772FF002DE6D1012120005C
:10567000FFF76CFFF8BD70B504002500FFF794FF3D
:10568000183501212000FFF761FF01212800FFF7F5
:105690005DFF00212000FCF767F804212000FCF7E3
:1056A0005DF8606BFBF712FF00212800FFF74EFF4B
:1056B0002000FFF763FF0023984203D1606BFBF7E4
:1056C00005FF0123180070BDF8B5182604000D0071
:1056D00017000021320000F067F929002000A51909
:1056E000FBF7ADFC32002800002100F05DF9390025
:1056F0002800FBF7A4FC2800FFF756FF2800042130
:10570000FCF72CF82000FFF74FFF04212000FCF7E6
:1057100025F823000026012730331E702800676318
:10572000FFF742FF2000FFF73FFF39002000FFF79F
:105730000DFF31002800FFF709FF606BFBF7C6FE85
:105740002000FFF759FF2000FFF756FF2000FFF76A
:1057500053FF2000FFF750FF2000F8BD704770B5E1
:105760000D0016000400FFF724FF0123290020008C
:105770009943FFF75CFF2000FFF77DFF3100200019
:10578000FFF755FF2000FFF776FF2000FFF734FFFB
:1057900070BDFFFF10B5064B0648197800F0D2FA2D
:1057A000054B186039235843044B188010BDC04680
:1057B00021010010983A00006C510010685100104F
:1057C00010B50248FCF7AEFC10BDC0467051001089
:1057D000454AF8B5564692464B005B0D9A444D46F5
:1057E0005F4644465246F0B4894605000C000E0060
:1057F0000700132A22DC002A47DB52463B4B1341A9
:1058000098460B0042461340034311D0384A394BA7
:1058100001F0C2FA0022002300F0AAFB002805D004
:10582000002C41DB4E46434600279E4338003100A2
:105830003CBC90469946A246AB46F8BD5246332A38
:1058400008DD8023DB009A45F2D102000B0001F055
:10585000A3FAEDE7284A9446012263445242DA4013
:1058600093460242E4D0224A224B01F095FA0022EC
:10587000002300F07DFB0028D8D0002C1ADB5B460B
:105880004E469F4338003100D2E7194A194B01F0C8
:1058900083FA0022002300F06BFB0028C6D0002C06
:1058A00016DB00270026C1E7802352465B03134125
:1058B0009944B7E75346142B12D03423524601279C
:1058C0009B1A9F407F19AF429B415B429944D6E7A8
:1058D0006400640825430027002DA7D0074EA5E7E4
:1058E000133B9C46E144CAE701FCFFFFFFFF0F00AA
:1058F0009C7500883CE4377EEDFBFFFF0000F0BFA5
:10590000C317C01858407047084B10B50400002B4F
:1059100002D0002100E000BF054B1868836A002B0D
:1059200000D098472000FBF77DFCC0460000000037
:10593000F09100000E4B70B500251E000D4CE41ACE
:10594000A410A54204D0AB00F35898470135F8E7FE
:1059500003F0B0FC084B00251E00084CE41AA4100C
:10596000A54204D0AB00F35898470135F8E770BD65
:10597000C0920000C0920000C0920000F0920000AF
:1059800010B5034B0100186800F062F810BDC04666
:105990008401001010B5034B0100186800F00CF8EA
:1059A00010BDC0468401001003008218934202D04B
:1059B00019700133FAE7704770B50500002944D02B
:1059C0000C1F2368002B00DAE418280000F024F9EB
:1059D0001E4A13681100002B02D16360146031E08D
:1059E000A3420DD92268A018834203D118685B68CE
:1059F0008218226063600C6024E0A24203D8130086
:105A00005A68002AF9D11E689819A0420BD1216862
:105A1000711858181960824214D1106852684118E0
:105A200019605A600EE0A04202D90C232B6009E0F5
:105A300021686018824203D11068526841182160C1
:105A400062605C60280000F0E8F870BD78510010DA
:105A5000032370B5CD1C9D43083506000C2D01D2E3
:105A60000C2501E0002D01DBA94202D90C23336093
:105A700048E0300000F0D0F8234B1C681A002100E9
:105A8000002913D00B685B1B0DD40B2B02D90B60C4
:105A9000CC181EE08C4202D1636813601AE04B6898
:105AA00063600C0016E00C004968E9E7174C2368B6
:105AB000002B03D1300000F095F820602900300061
:105AC00000F090F8431C18D00323C41C9C43A04250
:105AD0000DD12560300000F0A0F8200007220B3027
