:1000000000800010FD0000006B1300006D13000065
:1000100000000000000000000000000000000000E0
:100020000000000000000000000000006F1300004E
:1000300000000000000000007113000045400000B7
:1000400069130000691300006913000069130000C0
:1000500069130000691300006913000069130000B0
:1000600069130000691300006913000069130000A0
:100070006913000069130000691300006913000090
:100080006913000069130000691300006913000080
:100090006913000069130000691300006913000070
:1000A0006913000069130000691300006913000060
:1000B00069130000691300006913000000000000CC
:1000C000007F00000001001088000000007F000099
:1000D0000000002000000000007F00000040002021
:1000E00000000000880100102470000000000020C3
:1000F00000000000004000200000000010B5104C7F
:10010000104B9C4206D2A2686168206801F031F968
:100110000C34F5E70C4B9C4205D26168206801F075
:1001200031F90834F6E701F089F8084B002B02D0CA
:1001300000E000BF03E004F01DFA00F0B7F9FEE7AD
:10014000C0000000E4000000FC000000000000000F
:1001500010B5064C2378002B07D1054B002B02D09D
:10016000044800E000BF0123237010BD8801001087
:1001700000000000007F0000084B10B5002B03D0EA
:100180000749084800E000BF07480368002B00D17A
:1001900010BD064B002BFBD09847F9E7000000008C
:1001A0008C010010007F000088010010000000009A
:1001B000F0B517000600002085B00193214B019A8D
:1001C0001B78214D5343EA19D35C0C00834236D18E
:1001D0000A9BF01A04F0B4F90B9B0290E01A04F0A9
:1001E000AFF92200174BAE191B7803905A43B05C4D
:1001F0000B9A0A2653430A9AAD18EB5CC51804F013
:10020000D5FA039A029B944663441900714304F0A3
:100210009FFC0800310004F0B5FB6D104519002D5E
:1002200003DDFF2D02DDFF2500E00125054B019ACE
:100230001B7801205A431300034AD219D55405B044
:10024000F0BDC04618010010A4030010F0B5060070
:100250000D0014001F0089B0A31B012B02DC7B1BC7
:10026000012B6FDDA319DA0FD3185B100293EB1982
:10027000DA0FD3185B100393029A2B002900019523
:1002800000943000FFF794FF3B00029A3900019779
:1002900000943000FFF78CFF039B22002900019798
:1002A00000942000FFF784FF039B32002900019790
:1002B00000963000FFF77CFF234B039A1978029BCE
:1002C0004A439B1804930498204B185C002824D1BF
:1002D000080079436843059119180690085D895D07
:1002E0009A18401805998C469C446146095D41184E
:1002F0006046805D0918905D125D091802980791AB
:1003000006991818415C8C46079961448918059A2A
:10031000825C5118049AC91099542900039B029ACF
:100320003000FFF793FF22003B0003990298FFF78C
:100330008DFF22002900039B0298FFF787FF029C94
:10034000039D89E709B0F0BD18010010A403001057
:10035000F7B5234D234E2A78337823495A43002397
:100360001800934202D058540133FAE71F4804F0B2
:10037000EFF904F01BFAFF2104F0EAFB1A4F0131F8
:1003800039702C7804F012FA2B78FF21019304F0D5
:10039000DFFB3C190131013C2170347804F006FA8E
:1003A0002B78013C5C43019BFF21FB181C1904F0D6
:1003B000CFFB013C01312170347804F0F7F9FF21C3
:1003C00004F0C6FB2D78013C6C4301313955002106
:1003D00033786A1E013B0800FFF738FFF7BDC046BF
:1003E000180100101C010010A40300104D2AAE706B
:1003F000F8B5184E00243500803504235B421F1BDE
:10040000FFB200223900200002F020FF2B00803BC9
:10041000188022000021380002F018FF00212880F7
:100420003A00080002F012FF2B00002280331880EF
:100430002100100002F00AFF6B1CFF331880064BEE
:1004400004340235E4B29D42D7D1300002F0F0FE10
:10045000F8BDC046A4010010A402001070B502F05F
:1004600073F96E220C4B3C201A700C4B163A1A7022
:1004700002F0E0F901220A4B0A481A7000231C001E
:10048000094900221D18AC5401326E2AFAD16E338C
:100490008B42F6D170BDC046180100101C0100103F
:1004A000742A00108E2A0010D0250000F8B5FFF73E
:1004B000D5FFFFF79DFFFFF74BFF184B184F1D7837
:1004C000184B1C7800231A00AA420DDA164950185E
:1004D0000021A14205DAFE18765C01310670401950
:1004E000F7E701321B19EFE7FF24FF25640002F054
:1004F000B9F800280FD00D4A002317001188F8180A
:10050000468802330680A342F9D10B002B401353D7
:1005100002F06EFCEBE70120F8BDC0461C010010A4
:10052000A4030010180100108E2A0010542A001095
:1005300010B5024801F084FC10BDC04674290010BB
:1005400010B50100014800F059FD10BD0C2A001043
:1005500010B5FF21024800F051FDC0B210BDC046E9
:100560000C2A0010F8B543B204000D00002B07DA86
:1005700000217720FFF7F6FF012831D87F231C40A8
:10058000A026882380279B013606F750FFF7E0FF5F
:100590008A239B01F750FFF7DBFF2000FFF7D0FF16
:1005A000280EFFF7CDFF280CC0B2FFF7C9FF280ABD
:1005B000C0B2FFF7C5FFE8B2FFF7C2FF9520402C9D
:1005C00003D09438482C00D18630FFF7B9FF0A24B5
:1005D000FFF7BEFF030603D5013CE4B2002CF7D1C0
:1005E000F8BDFFFF73B58823A02480223F4D9B01F7
:1005F0002406E25028003E4900F0F6FC28000022C4
:10060000082100F0E5FC842364259B01E358013DAB
:10061000EDB2FFF79DFF002DF9D129004020FFF733
:10062000A1FF040001284BD1D52148204900FFF744
:1006300099FF012815D1FFF78BFF01AC2855013533
:10064000042DF8D1A378012B3AD1E378AA2B37D126
:10065000284D8021E920C905FFF784FF011E11D133
:1006600015E02900E920FFF77DFF4126012801D888
:100670000224E926204D00213000FFF773FF0028F7
:1006800020D116E0013DADB2002D19D0E1E77A206E
:10069000FFF768FF002813D10500FFF759FF6055E9
:1006A0000135042DF9D123780C245B060FD42C00DE
:1006B0000DE0802150208900FFF754FF002806D06C
:1006C000002404E0013DADB2002DF9D0D3E70B4B7F
:1006D000A0221C70882380219B011206D150FFF7B5
:1006E00037FF60426041C0B276BDC0460C2A0010A0
:1006F000801A0600E02E0000A86100007529001095
:10070000F8B51D00244B07001B7816001B0700D40A
:1007100049025120FFF726FF002801D0012431E0D3
:100720001E4CFFF715FFFF2804D1013CA4B2002C9A
:10073000F7D1F3E7FE28F1D1194C641BA41BA4B236
:10074000002E07D1002F11D0013DADB201353E0082
:100750007D1904E0013EFFF7FBFEB6B2F0E7FFF7BC
:10076000F7FE30700136B542F9D105E0013DADB27A
:10077000FFF7EEFE002DF9D1013CA4B2FFF7E8FE31
:10078000002CF9D18823A02280219B011206D15090
:10079000FFF7DEFE2000F8BD75290010307500005F
:1007A00002020000064B1A68831ED168002002393D
:1007B0008B4203D250784343906918187047C04663
:1007C000782900100F4B10B51A6800230380836846
:1007D00004001800012B13D0D16801208B420FD2E6
:1007E000002B03D11178032900D15369E360002B5A
:1007F00003D01800FFF7D6FF00E050692061002009
:1008000010BDC04678290010F0B5040085B001285D
:1008100054D92C4B1D68EB6898424FD22E78022E8B
:1008200032D0032E38D0012E48D181B24B08C918DE
:1008300089B24B0A0193244BCA05D20D296903AF33
:100840009A4204D0019B3800591802230EE0019B04
:10085000380059183300FFF753FF021E2ED12969C3
:10086000019B0131C918330002A80530FFF748FF8A
:10087000002823D17B7838781B0203431811E20744
:100880001DD41805000D1AE02B69C2B2010AC9185F
:10089000520003AD330007E07F22042329690240A0
:1008A000C4099200611803AD2800FFF729FF002852
:1008B00004D168782B780002184300E0012005B0CD
:1008C000F0BDC04678290010FF01000070B5048813
:1008D00005000134A4B2002C01D1032322E00369F6
:1008E000002BFAD022071BD101330F4A0361C068E5
:1008F0001668002803D1B388A342EED910E07378BC
:100900002209013B1A420BD1FFF77EFF01239842D7
:1009100008D9F3689842E0D2E860FFF743FF286106
:1009200000232C80180070BD78290010F7B5040052
:100930000D002B78202B01D10135FAE72F3B5A42CD
:1009400053410027ED18A7602B78202B01D9019780
:100950002EE02000FFF736FF404B06001B689B6827
:100960001F7078E0009B1B78002B68D00822009B4A
:10097000DB7A13405BD162680099581CC95CD35C78
:10098000994254D103000B28F6D1D37A002B62D1BF
:100990003B689868C37ADB0656D5437D017D1B0210
:1009A0000B43C27E1904837E120213430B43A360E0
:1009B0006068020003000B32934203D10022082139
:1009C000130013E0202119700133F5E72F2B12D00B
:1009D0002E2B3BD091420ED91F00613F192F01D819
:1009E000203BDBB2571C8354FAB233005E1CEB5C35
:1009F000F6B2202BEAD8AD192026019A9E42524128
:100A0000C2722000FFF7DEFE061E16D1134F3B68B0
:100A10009B6800930F23228821691A4052011133E9
:100A20000098FFF76DFE00289CD0012613E02000FF
:100A3000FFF74CFF0028EDD00600032E0BD16368B2
:100A40000326DB7A002B06D1042604E00829D2D144
:100A50000A000331C9E73000FEBDC0467829001006
:100A600070B5164B01001C6890B00620002C23D0F6
:100A70000023A3706B4608ADA56003A80493FFF79D
:100A800055FF002818D12B780330002B14D01023E9
:100A9000EE7A1E4010D16B7D297D1B02EA7E0B434E
:100AA0001904AB7E120213430B4363620F9B3000A9
:100AB00023620123E661A37010B070BD7829001095
:100AC0002F4BF7B51C68002307000D00019213801F
:100AD00006209C4253D0A3780138DB074FD5236A08
:100AE000E2699B1A8B4200D29DB20097002D45D03F
:100AF000E669F3051BD1700A617803F03FFF002916
:100B00000BD1002E01D1606A02E0A06AFFF77CFEE3
:100B100001282FD90023A062E370A06AFFF742FEEC
:100B2000002827D0E3785A1C1818E270E062E369C5
:100B30002E1CDA058023D20D9B009B1A9BB29D428E
:100B400000D91E1CB6B2381E00D000983300E16AEE
:100B5000FFF7D6FD00280DD1E369AD1B9B19E361BA
:100B6000009BADB29B190093019B1B88F618019B5B
:100B70001E80BBE700230120A37000E02800FEBD1B
:100B800078290010294BF7B51C680623002C4AD0A1
:100B9000A278013BD20746D5256A854200D90500D7
:100BA0000022E369E261954238D066787602002B34
:100BB00012D03100681E5F1E03F05AFE3100019012
:100BC000380003F055FE019B834205D373423B403E
:100BD000E361ED1AA06A01E0606AA062B5420CD937
:100BE000FFF712FE01281BD9E368984218D2E36987
:100BF000A0629B19E361AD1BF0E7E3695B19E36158
:100C0000FFF7D0FD00280BD06B0ADAB2ED0501D159
:100C1000E27003E00132C318E270E362002302E0F5
:100C20000023A37001331800FEBDC04678290010D0
:100C300030B5154B04001B688DB00620002B20D06A
:100C400004AD9D6001AB63602000FFF76FFE0028DC
:100C500015D12B78002B0FD0EB7ADB0601D40420C2
:100C60000FE06B7D297D1B020B43EA7E1904AB7EEE
:100C7000120213430B43A3602000FFF7A3FD0328D8
:100C8000EDD00DB030BDC0467829001010B513006E
:100C90000A000100014800F031F810BD9C6300001B
:100CA00000B589B072B6124902A800F070F8029B34
:100CB0000193013304D124220E490F48FFF7E6FFC8
:100CC000059B039A96201A60019200F098FA029B05
:100CD0000193013304D1242206490748FFF7D6FFC8
:100CE000039A069B96201A60019200F088FADEE7CC
:100CF00038230200CD6300001C6400000FB4012003
:100D000010B503F021FCFFFF036870B504000D006F
:100D1000013304D1242206490648FFF7B7FF636870
:100D2000002D01D0E26800E02269136070BDC0466A
:100D3000CD6300001C64000070B50D0004001600B7
:100D400000F078FB6B1C07D00021200000F09AFB1C
:100D50003100200000F090FB70BD10B50122FFF7BC
:100D6000EBFF10BD70B50D000400160000F062FB33
:100D70006B1C0BD031002000FFF7C6FF01212000C3
:100D800000F080FB0021200000F076FB70BD10B564
:100D90000022FFF7E7FF10BD10B50400034B083336
:100DA00003601C3000F048FC200010BD34640000DB
:100DB00010B50400FFF7F0FF200000F0EDFA20006E
:100DC00010BDFFFF70B5050004000E4B0E00083388
:100DD00008C528001822002103F006FC002320008B
:100DE0003100E36123626363A363E364064A230083
:100DF0001C3000F0BFFB28003100FFF7AEFF2000E1
:100E000070BDC04634640000670E000003000A0095
:100E100010B51C300121002A04D01A6200225A6346
:100E20000132110000F01CFC10BD030010B50A00D7
:100E30001C30002903D000229963DA6401320221B8
:100E400000F00EFC10BD436910B50100002B04D169
:100E50000368002B06D0984704E00068002801D002
:100E60000431984710BD10B5012903D0022904D1DF
:100E7000383000E02030FFF7E6FF10BD10B5040069
:100E8000431C12D00B685A1C0CD09C4208D1200085
:100E9000896800F00BFC0021200000F023FC04E036
:100EA0000C31EFE70148FFF729FF10BD4464000053
:100EB00010B5030088420AD00B00421C07D0030083
:100EC0004A1C04D00348FFF719FF01235B421800B6
:100ED00010BDC046556400000B685A1C05D0834203
:100EE00001D1486802E00C31F6E718007047FFFFB7
:100EF00010B50400431C07D0FFF7EEFF0400431CAD
:100F000002D10248FFF7FAFE200010BD666400001F
:100F100010B5012003F018FB074A13681818EFF307
:100F20000881884205D30C220120044B40421A60FC
:100F300001E010601800704704010010A871001053
:100F400010B5002801D0FFF7ABFEFEE7704710B5E3
:100F5000040000F021FA200010BDFFFF73B504006B
:100F60000E480025083020600820E0600C48261D4F
:100F7000606106986560257225610090300000F080
:100F8000E9FC2B0030002269E16800F063FD3000CD
:100F9000616900F095FD200076BDC046A4640000A4
:100FA00040420F0070B5094D04002B6883420BD0FE
:100FB000061D0269C1680023300000F04BFD616925
:100FC000300000F07DFD2C6070BDC0467C29001013
:100FD0000261002210B5034BC1601A60FFF7E2FF07
:100FE00010BDC0467C290010002210B5024B4161A3
:100FF0001A60FFF7D7FF10BD7C29001070B50D00F7
:101000000400FFF7CFFF2900201D00F09DFD70BDFB
:1010100010B5040043684269991800F0BFF8E36A0C
:10102000002B04D1A369002B07D0984705E0A069E5
:10103000002802D021001C31984710BD10B50400D3
:1010400000F0B4F80023A361E36210BD10B5040002
:10105000044B08330360FFF7F1FF200000F0ACF809
:10106000200010BDB864000010B50400FFF7EEFFCB
:10107000200000F091F9200010BD70B50D000400B3
:1010800000F094F86561206900F068F829182000E4
:1010900000F084F870BD70B504000D0003681B6893
:1010A000984763681D6070BD036870B5DB68040015
:1010B000984763685A682368002A02D19B6898475A
:1010C00013E05B681568984763682D1A5A68002D0D
:1010D00007DC916859601B68002BEAD0506898477C
:1010E000E7E7236810681B69984770BD70B50D006D
:1010F00072B64B60002346680A607468002C05D005
:101100002168511A02D42300A468F7E7002B05D107
:10111000036875601B691000984700E09D60AC6033
:1011200062B670BD10B572B6426853688B420CD17E
:101130009B6853600268002B02D1936898470BE0CC
:1011400012691868904707E01300002B04D09A68D2
:101150009142F9D18A689A6062B610BD10B50368F1
:101160005B68984710BD10B503689B68984710BD31
:10117000084B10B508330360002343608360C360ED
:10118000040000F025F804492061FFF784FF2000E7
:1011900010BDC046CC6400006711000010B50A0005
:1011A0000300011D0069FFF7A1FF10BD10B5011D6F
:1011B0000069FFF7B7FF10BD10B50400034B0833FB
:1011C0000360FFF7F3FF200010BDC046CC640000B1
:1011D00000487047F464000010B50248FFF764FF50
:1011E00010BDC046F464000070B5040000F0E8FCD7
:1011F000050000F0E5FC401BA042FAD370BDFA23C5
:1012000010B59B005843FFF7EFFF10BD70B50A4CB7
:10121000A568A3682A00002B0AD180225E595205D6
:101220009A1804331660C02BF7D180225205A260B1
:1012300010308000815070BD00ED00E07FB580204F
:101240003F494002CA6F8E240243CA67232200200E
:1012500020253C4B3C499A60223A0A603B49A40055
:101260000A60186219593A4A114001910199A9433B
:10127000C825019101992D02294319510090354843
:101280000099814204D8C046009901310091F7E7E6
:101290000121002019645964586459645C6C294820
:1012A0000C42FBD08E218026C825890044582D028F
:1012B00014400394039C34430394039C2C434450F4
:1012C00023248460445822400292029CB443029436
:1012D000029A2A4342500120DC681A490122044242
:1012E000FAD00320086700204A67486710004A6761
:1012F0005C6F144A01210442FAD08E20916780006D
:101300001558154C2C4014501558144C2C401450A2
:1013100000209164D164D064D164DA6C0A42FCD0BC
:101320002321084A1161012259691142FCD000228F
:101330000B4B1A601A600B4B01321A607FBDC0461E
:101340000480044000800440F0400440F440044025
:10135000FF250000C3090000FFFBFFFFFFFEFFFFAA
:10136000C0800440C8800440704770477047704791
:101370007047002310B5934203D21C585C500433CD
:10138000F9E710BD00231A008B4202D21A50043331
:10139000FAE770470020704710B503F01BF910BD45
:1013A00010B50400431C04D11E2217491748FFF74B
:1013B0006DFC174B1A68002A06D101321A60154AD3
:1013C0001549D36F0B43D3670122002C12D0134B66
:1013D0009C420FD0124B9C420CD0124B9C4209D025
:1013E000114B9C4206D0114B9C4203D0104BE1188C
:1013F0004A424A412000110000F058F90120A4049B
:10140000E40EA04010BDC046FC6400002164000052
:1014100088290010048004404000010028140000C6
:101420002C16000030180000341A0000381C000090
:10143000C4E1FFFF70B505000C0029604B1C11D002
:101440000800FFF7ADFF2414074BA400E318EB607E
:10145000064B6860E3182B61054BE3186B61054B85
:10146000E418AC6070BDC046002200A0802200A03D
:10147000002100A0002000A010B5006800F032F9A3
:1014800010BDFFFF036870B504000D00013304D1E7
:10149000432209490948FFF7F9FB002D06D0012D29
:1014A00009D1A268636811680B4303E0A268616810
:1014B00013688B43136070BDFC6400001C64000063
:1014C000F7B501210D008540134C636A2B4221D0F2
:1014D000124B8600F058019300281BD023682B4242
:1014E00018D163682B4206D0E3692B4203D00C4B22
:1014F0001B689847E5612369074F2B4209D03B6A77
:101500002B4206D0064B019A1B680221905998473E
:101510003D626562F7BDC046004000A09029001002
:101520008C29001010B50020FFF7CAFF10BD10B5C0
:101530000120FFF7C5FF10BD10B50220FFF7C0FF67
:1015400010BD10B50320FFF7BBFF10BD10B5042080
:10155000FFF7B6FF10BD10B50520FFF7B1FF10BDB6
:1015600010B50620FFF7ACFF10BD10B50720FFF740
:10157000A7FF10BDF7B505002748814202DD012015
:10158000404248E02548264C02600020820016595F
:101590000096002E3BD11351224C2860E36F224F5E
:1015A000224E3B43E3671F248B0349120C40182152
:1015B000A44604009B0F59435E346144A400A1512A
:1015C00081210124890071589B000F002100814076
:1015D0000F4339008127BF00F151A0218026090661
:1015E0005B18B60199592700019161468F40019916
:1015F00040B2B94399510E4BD158FFF707FE1F2255
:101600002B68009813409C400A4B1C6003E001309B
:101610000828BBD1B3E7FEBD131102008C290010CE
:1016200090290010048004408000090000800440DC
:101630004865000000E100E000210368064A9B00C5
:1016400010B59950012281210068044C8240890024
:1016500063589343635010BD9029001000800440EC
:1016600003680120984070B50F4C2368034200D1F5
:101670006062C54326680C4B2E402660012909D1C3
:10168000002A03D05A68104358600CE05A6815408D
:101690005D6008E0002A03D01A691043186102E077
:1016A0001A6915401D6170BD004000A070B50400AE
:1016B0000D00431C04D1152207490848FFF7E6FA3C
:1016C000074BE405E40DE418072322681D409A4304
:1016D0001543256070BDC0466865000021640000A8
:1016E0000040044070B504000D00431C05D11D22CC
:1016F0000F491048FFF7CAFA06E081231B01984200
:1017000014D00D4B984211D00C4BE405E40DE418B5
:101710002368042D04D18022D2001343236005E006
:101720001822ED00934315401D43256070BDC0464F
:101730006865000021640000140A000000400440B5
:1017400070B50C1C05000021201C03F057FA00287E
:1017500009D1FE21201C890503F064FA002803D07A
:10176000FE24A40500E0002480232D689B00E85897
:1017700004F0F4F8211C03F0EDFD03F093FA81234B
:101780009B00E85070BD8023F7B5812704689B005B
:10179000E258BF00E059E15001920D0004F0DEF87C
:1017A000061C019804F0DAF8011C301C03F008FC58
:1017B000061C280004F08AF8011C301C03F0CAFD46
:1017C00003F070FAE051F7BDF7B50F00060050497D
:1017D0003800FFF78DFBC3B20500FF2B02D14D4847
:1017E000FFF78CFA4C4B01211A7801931000084046
:1017F000031E04D00A410B000A4200D081E00124FC
:1018000021009940019A4548127873600A43019972
:101810000A70434A99008A5809333260C26F110036
:10182000802212061143C1672000984003003D4A00
:1018300038005268364913433A4A5360FFF71EFB9B
:101840003768394A3B68394913430C223B607B684F
:1018500013437B607A68364B13407B607B6801934F
:10186000344B186803F004F8FE2301381B014001D3
:101870001840019B18437860E8B207281DD802F091
:10188000EDFF040A1016040A1016A023DB00FC501A
:101890000222294B10E0A123DB00FC500222274B3F
:1018A0000AE0A223DB00FC500222254B04E0A32324
:1018B0000222DB00FC50234BFA508022C12352014C
:1018C0009B00FA500123C0225B4292001E49BB508C
:1018D0000C32B950043ABB5080231C499B00F9508C
:1018E000FB58053A9B08FF3ABB5004227B68300046
:1018F00093437B60FFF747FF30000021FFF720FF95
:10190000F7BD1348FFF7FAF901235B4277E7C046BA
:10191000B06500001C660000B0290010048004407F
:1019200048660000008004400100060040420F00AD
:101930001FF0FFFF08010010040500000C05000067
:10194000140500001C05000001100000204E0000DE
:1019500036660000F0B5334E87B0009104003100C8
:10196000009801920293FFF7C3FA2F4D0700290058
:101970000198FFF7BDFA2D4903900298FFF7B8FAD6
:101980002B4904900C98FFF7B3FA0399059038009F
:10199000FFF78EFA059907000498FFF789FA01000E
:1019A0003800FFF785FA2060431C04D14822214902
:1019B0002148FFF76BF92368204A93420FD0204A51
:1019C000934219D180201F49C002CB6F1E4A0343A6
:1019D000CB6701211D4B1960536803310AE0802059
:1019E00018490001CB6F184A0343CB670121184BFC
:1019F000196053680B43536031000098FFF73EFABB
:101A000029000198FFF73AFA08490298FFF736FAD9
:101A10000C9B013303D006490C98FFF72FFA07B04F
:101A2000F0BDC04698670000506600008C6600005C
:101A3000D4670000D46600001D6700000000044069
:101A40000080054004800440008004409C800440E5
:101A500094800440F8B50E000221140002681D00B5
:101A6000536807008B435360331F0C2B06D9032C9C
:101A700004D9652210491148FFF708F98023E001D5
:101A80000340013E1E43A30734003968DB0F0A6898
:101A90009B01120C12041C4314430D220C604B6872
:101AA00093436A1E95410222AD001D434D604B6871
:101AB00013434B60F8BDC046D46600003167000098
:101AC000F7B5022405000E0002685368A343536073
:101AD0001A4B1B6801932100019802F0C9FE03F024
:101AE000F5FE071C300003F0F1FE011C381C03F06A
:101AF00067FAFC21890503F0EDF804F0DDFB02F044
:101B000087FC04F0A3FBFF280FDC2B680C4A1C6148
:101B1000196801380A4002211A601A68000210434D
:101B200018605A680A435A6007E0802302345B0059
:101B30009C42D0D10348FFF7E1F8F7BD080100103F
:101B4000FF0000FF6F67000002220368D8681042A0
:101B5000FCD004229960D9681142FCD09868704783
:101B6000104B70B51A68002A1AD1012580210E4A3F
:101B70001D60D36FC9000B43D3670C4B0C4C186826
:101B800002230C49636002F073FE0138E0600A49E9
:101B900065601320FFF73AFB8022084B12031A609E
:101BA00070BDC046B4290010048004400801001034
:101BB0000080014040420F00D911000000E100E028
:101BC000044B10B51B68002B01D1FFF7C9FF024B76
:101BD000986810BDB4290010008001400121034B1A
:101BE00098615A690A435A617047C04600800140B3
:101BF0000121024A53698B435361704700800140C1
:101C00000122014B1A607047008001407047704705
:101C10007047FFFFFF22014B1A707047B829001070
:101C200010B501F027FC10BD0D4B30B51A8800230C
:101C30009A4213D1FF250B4C0B4AE15C002902D0DC
:101C4000D15C013104E0D05C002804D0FF2801D130
:101C5000D15400E0D5540133072BEED130BDC0463E
:101C6000CA290010884E0010BA290010034B185CD6
:101C7000013843425841C0B27047C046BA290010EB
:101C8000002210B51D4B19781A701D4A5078002893
:101C900001D001201870D078002803D002241878D1
:101CA000204318701078002803D0042418782043AB
:101CB00018709078002803D00824187820431870F2
:101CC0001079002803D01024187820431870507918
:101CD000002803D020241878204318709279002A15
:101CE00003D040201A7802431A701B78054A180066
:101CF00008409943044B1070197010BDB9290010A9
:101D0000884E0010C2290010C1290010014B18791B
:101D10007047C046884E0010014B58787047C04647
:101D2000884E0010014BD8787047C046884E00108E
:101D30000023094A1380094A1370094A1370094A9B
:101D400013700122084B52421A80084A084B1A604D
:101D50000922084B1A707047CA290010C9290010BF
:101D6000D0290010C3290010C6290010DC71000022
:101D7000CC290010C829001010B50248FFF7D8FF81
:101D800010BDC046C429001037B572B60021042228
:101D9000244B802559601961234BED001A608E2277
:101DA000224B92009C582C4380259C509C586D00DF
:101DB0002C439C5001225A671400596719004B6F3D
:101DC0001A4D01222340FAD114002B676A676B6712
:101DD0004B6F164A2340FBD18E245364516CA400F0
:101DE000936013675360155911492940802501916B
:101DF00001992943C825019101992D0229431151C7
:101E0000A02284211206890153500A4953500A49DD
:101E100053500A4B9860001C01688D46406880470B
:101E200037BDC046004000A010E000E00080044044
:101E3000FF250000042100000821000000ED00E063
:101E40007047FFFFF0B5C1B00E0000F05FFD00F07D
:101E500069FD8023DB029B1B0400984200D91C0013
:101E600000F04AFD8027134801F060F900257F004B
:101E7000A5421CD280216846490000F021FDFF28C0
:101E800004D8631BBB4201D90B4806E0A819694678
:101E900002F022F8002804D0084801F047F9012098
:101EA00006E001350648FF3501F034F9E0E700208F
:101EB00041B0F0BD46730000527300006D73000026
:101EC000BF730000F7B501260024514B514D1E7021
:101ED000514B1C80FC23DB002B8000F045FD2100D2
:101EE000200000F05FFD300001F068F800940194DC
:101EF00005F0E5FF0421494800F0BCFCA0420FD1E9
:101F000000F004FD0820404200F0E2FC0421684695
:101F100000F0D6FC042101A800F0D2FC00F0ECFC9B
:101F200001273F4E7F423F4C2368B34200D03E4CD6
:101F30002368B34200D03D4C2368B34200D03C4CF0
:101F40002368B34217D020233A485B422B8001F02C
:101F5000EDF8009B002B03D0374B019A9A4240D8F2
:101F6000364801F0E3F8364801F0E0F8FC23DB00E6
:101F70002B80344820E0344B34482B8001F0CAF8E1
:101F80000A2160682F8001F044F96368009A934247
:101F900027D3A068FFF7F8FE17E0FFF7C3FE00287D
:101FA00034D1FFF7B9FE0028F7D001990098FFF768
:101FB00049FF002826D0264801F0B8F805E0FFF7D1
:101FC0005FFEFFF7A3FE002804D1FFF79FFE002865
:101FD000F5D01BE0FFF79AFE002817D0FFF750FE60
:101FE000F8E71C4B1C482B8001F094F800980A215C
:101FF0002F8001F00EF9FC231848DB002B8001F044
:1020000095F8CEE7164801F091F88CE7F7BDC04689
:10201000160100100E0100108C2A0010337400000D
:102020001EAB07B0F4FF030004FF030004FE03002F
:1020300004F003003B740000FF7F03004F740000B6
:10204000CC63000066740000FF070000817400008C
:102050008B7400001FF8FFFFB1740000C57400000E
:10206000A7740000F8B50024012000F0A7FF454B3D
:10207000FC271C8000F078FC434D444B44482B80E7
:1020800000F03CFF0123434E30213370424BFF00F0
:102090001C70424B60201C702F8001F04DF84048AE
:1020A00001F038F83821602001F046F83D4801F091
:1020B00031F84021602001F03FF83B4801F02AF858
:1020C0004821602001F038F8384801F023F86021F9
:1020D000282001F031F8364801F01CF8013C354861
:1020E0002C8001F017F834482F8001F013F80223F8
:1020F0002C80337001F0BEFF043485B2FFF7C0FDC1
:102100007821682001F018F80A21200001F064F815
:1021100001F0B0FFFA239B00EB18984203D901F0BD
:10212000A9FF013C85B201F01DFA002808D001F09A
:1021300019FA041E02D0FFF7A3FDF8E7FFF7C2FE6D
:1021400001F004FA002807D001F000FA002802D0BC
:10215000FFF796FDF8E7040001F0FEF9002802D130
:10216000002CCBD106E001F0F7F9002802D0FFF7F0
:1021700087FDF8E70123337000F0F6FB002000F044
:102180001DFFF8BD8C2A00100E01001000F8FFFFA3
:10219000786E0000160100101701001010010010E9
:1021A000EA740000EF740000F4740000F974000099
:1021B000FE7400000475000008750000F0B5714C55
:1021C0001E0023888BB005000F0004920993002E97
:1021D00006D00020322300901A00010000F0D6FB48
:1021E000FC23DB002380002E16D000F0DFFE04006D
:1021F000012000F0E3FE01F0CBF8390002001439B1
:10220000681EC9B2C0B20A2300F0EAFF5E4800F0BF
:1022100081FF200000F0D2FE049B0B2B02DC5B4A06
:10222000584B1A803BB203930123594C009328B2B8
:102230002200039900F0C0FB049B172B02DC534BD8
:10224000504A1380ABB21D00012608352DB205930C
:102250002200330003992800009600F0ADFBBBB2CA
:102260000693043B1BB207930096330022000799A4
:10227000280000F0A1FB049B2F2B01DD454B00E063
:10228000424B0124059D424E3E4A10352DB213802B
:102290000399230032002800009400F08DFB2300F6
:1022A000320007992800009400F086FB069B0094FA
:1022B000083B1BB20893320023000899280000F065
:1022C0007BFB049B5F2B02DC304A2E4B1A800124DF
:1022D000059D2F4F18352DB223003A000399280091
:1022E000009400F069FB23003A000799280000944D
:1022F00000F062FB23003A0008992800009400F0E7
:102300005BFB069E23000C3E36B200943A0031007F
:10231000280000F051FB049B9F2B02DC1B4A194B49
:102320001A800125059C1A4F203424B22B003A0054
:1023300003992000009500F03FFB2B003A0007991D
:102340002000009500F038FB2B003A00089920008F
:10235000009500F031FB2B003A0031002000009581
:1023600000F02AFB06992B0010393A0009B20095BB
:10237000200000F021FB6A46024B928C1A800BB0C1
:10238000F0BDC0460E010010977500008A52000093
:10239000547B000000F8FFFFF7B50025012601205F
:1023A00000F00CFE8A4B20201D7000F0C1FF00F0F1
:1023B000EFFF03F0D3FA874B041C1D703500864BEA
:1023C0001B78002B00D101E1002D00D1FEE0012D92
:1023D00000D095E0814D002E36D0012700F0C4FAE0
:1023E0007F42102120202F8000F0DCFA7C4800F092
:1023F00091FE9921282000F0D5FA7A4800F08AFE53
:10240000FC237948DB002B8000F084FE77482F8086
:1024100000F080FEFC235821DB0000202B8000F020
:10242000C1FA734800F082FE724F380000F07EFE61
:10243000380000F07BFE380000F078FE380000F035
:1024400075FE6D4800F072FE9921302000F0AAFA66
:1024500000F09EFF252802DC01235B4200E0674B71
:102460002B800223664A00933021013BA42000F018
:10247000A3FA3621182000F095FA624800F04AFECF
:102480004221182000F08EFA00F082FF282801DD9A
:102490005D4800E05D48FC2700F03CFE0223FF00A1
:1024A0005B4A2F8060210093A420013B00F084FA56
:1024B0006621182000F076FA564800F02BFE7221B3
:1024C000182000F06FFA00F063FF252802DD4B4B67
:1024D0002B8000E02F8000F05BFF0A2100F07CFEE3
:1024E0004D4800F017FEFC23DB002B8000F050FF6E
:1024F0000023020076217020FFF760FE02255EE7D0
:10250000022D00D060E7FFF7BBFB01F01FF80028A9
:1025100008D001F01BF8002801D105004FE7FFF7B4
:10252000AFFBF6E701F02AF800282CD08421201C0C
:10253000C90502F081FB002807D03849201C02F0B1
:102540005DFB002808D0364909E08421201CC9051C
:1025500002F072FB002801D0324900E03249201C11
:1025600002F0B8FB3149041C02F05CFB002802D0E9
:10257000FF2000F0DDFE2E49201C02F053FB002856
:102580001BD02B4C19E000F0F3FF002800D116E718
:102590002449201C02F0F2FF8421C905041C02F02A
:1025A00037FB002802D0202000F0C2FE0021201CB2
:1025B00002F024FB002800D00024201C03F064F962
:1025C00000B200F097FE00260125F8E6F7BDC046F0
:1025D00017010010D4290010D22900100E0100109C
:1025E000137500002C740000277500002975000089
:1025F000347500004F7500006A75000000F8FFFF99
:10260000107B0000E7730000857500008F750000E7
:10261000327B00009A7500009775000000000442AC
:10262000CDCC4C3C0000A03F0000204000005042B8
:1026300000007F43012210B5084B00201A7000F003
:10264000BDFC074800F05AFC01F004FD01F01AFD42
:1026500000F010FF01F014FD10BDC046D22900109B
:1026600010680000014B18787047C046D22900104E
:10267000F7B50024FC2725005826FF00292D48D84F
:1026800001F0F8FC234B1A689042F7D91E3018600D
:10269000012D0BD0002D02D0022D22D035E01E4B93
:1026A00028001D8000F06EF901252EE0FC21E2B229
:1026B000C900002000F0E8FD184B194A18806E236D
:1026C00051781078490840081C34181A711A00957E
:1026D0002B00A4B200F070F9FE2C16D900240225BC
:1026E00013E00E4B0E4A1F806E231078517840087D
:1026F000181A49086D3B0093711A00F05DF93F34D8
:10270000084BA4B29C4200D9FF25FFF7FFFA00282E
:10271000B4D0F7BD907100108C2A00100E0100108B
:1027200006760000FF03000010B5202000F000FE38
:102730001022034B1A80034BEF321A7010BDC046B3
:10274000F04C0010D1290010F8B5FFF773FF1022EC
:102750000124FF252B4B1A702B4B1C602B4B1D703B
:10276000FFF7E2FFFFF752FA28000025FFF74FFAC4
:10277000FFF756FAFFF758FAFFF74AFA00F00DF99B
:10278000FFF776FF200000F019FC214F3D8000F09C
:10279000EBF8204E300000F0B1FB200000F00EFC02
:1027A000FC221D4BD2001A803D8000F0DDF8300085
:1027B00000F0A4FB194F1A4E3D703470FFF752FC25
:1027C000FFF7EAFD00F0C8FD280000F0F7FB154B0D
:1027D00015481C70154B3C701C70347000F08EFB5B
:1027E00000F080FDFFF716FA0520FFF73FFAA84238
:1027F00003D10F4B1B78AB4202D1002000F07AFDD1
:10280000F8BDC046D3290010D8290010D1290010E6
:102810008C2A0010786E00000E01001017010010C5
:102820001001001016010010146B000012010010BE
:10283000B829001010B501000400FA20800002F051
:10284000A1F8064B14211870200002F011F8C0B254
:10285000002800D10130024B187010BDD3290010A0
:10286000EE4C001010B5024800F05AFB10BDC046F7
:10287000D529001070B50F4D06002B780C00102BD9
:102880000BD030002C70FEF7EBF8041E0DD1310098
:10289000094801F0D9FF20000AE0084805F04EFA87
:1028A00003000120002BECD002E0082301202B7054
:1028B00070BDC0460C010010242A0010DC29001055
:1028C00013B56B469C1D2200FEF7FAF8208816BD52
:1028D00010B5074B002804DADA6941428A4200D277
:1028E0005042DB69C018FEF74DF9024B187010BD5D
:1028F000DC290010332A001010B50020FEF742F941
:10290000014B187010BDC046332A0010034B10B5A0
:10291000186AFEF737F9024B187010BDDC29001059
:10292000332A0010014BD8697047C046DC290010DB
:102930000123812213B5074C5B4200935201064BE1
:1029400006492000FEF70AFB054A06492000FEF76B
:1029500021FD13BD0C2A0010180C000024120000E9
:10296000000100104D0F000010B5002000F0DEFE49
:102970000023024A1380024A138010BD842A0010EB
:102980008A2A001010B500F0D1FE10BD13B504ACBA
:102990002488009401F06AF813BD10B500F028FFF8
:1029A00010BDFFFF024B1880024B19807047C046D4
:1029B000842A00108A2A0010F0B58FB00B9114A958
:1029C00009780A900891117805915178023209919D
:1029D0000092012B76D1059B0733DB100C936B46DD
:1029E0001B8D07930493002303936B460C21595EC0
:1029F000059B8B4200DCF0E00723CA171A405218EF
:102A0000D21053B20A93764B0B4004D50822013BF7
:102A100052421343013380221BB21A416B469B8DF5
:102A20000D9206930293002301936B4604229B5E52
:102A3000099A93423EDA0C9A0A995343009A521823
:102A4000D35C0D9A1A422DD0089B664C012B09D1FC
:102A5000069B019903985918079B2288181809B2F8
:102A600000B21DE06B461027DF5F6B4608269E5FB5
:102A700022883100380000F0C7FF049B31005D1C44
:102A80002DB22288280000F0BFFF029B22885E1C26
:102A900036B23100380000F0B7FF3100280022883C
:102AA00000F0B2FF019B01330193029B02339BB202
:102AB0000293BAE7039B01330393049B02339BB257
:102AC000049392E7042B00D087E00023099A9342F5
:102AD00000DB82E09BB202936B469B8D002507933F
:102AE000029B079A5B00D3189BB21AB201331BB248
:102AF00004936B461B8D039206930193059BAB4297
:102B000067DD009B384A1B7812681B115B009E5AD8
:102B1000089B022B19D1069B6C001C19A4B227B28A
:102B2000013432000399380024B200F06DFF320006
:102B30000399200000F068FF32000499200000F0A3
:102B400063FF32000499380007E0029B079A991846
:102B50006B4632000420185E09B200F055FF0F22C8
:102B6000009B1B781340204A5B0012689E5A089B0A
:102B7000022B1AD1069B6C001C19A4B2A71C3FB2F1
:102B8000033432000399380024B200F03DFF3200D4
:102B90000399200000F038FF32000499200000F073
:102BA00033FF32000499380007E0029B079A991816
:102BB0003200019B09B2581C00B200F025FF009BB7
:102BC000023501330093019B2DB202339BB2019376
:102BD00094E7029B01331BB278E70FB0F0BDC0460B
:102BE000070000800E010010782A0010F0B51300D5
:102BF0004D4A8DB00B9010680491427811000592F7
:102C0000F72208390A40511E8A410599C910521805
:102C10000992099902784A43511C4B431A008218C1
:102C20001279053352B20A920022C31803926A46FF
:102C3000127B0A9952B291426BDD09991A780229E6
:102C400003D00133089393B204E0991C5B78089198
:102C50001B02134300936B469B89002506936B462A
:102C60009B8D0793069B079A5B00D3189BB21AB201
:102C700001331BB201920293059BAB4244DD01225A
:102C8000009B13420ED0294B1B78022B07D1049BCB
:102C90006C00E418264EA4B227B2328811E0244B0F
:102CA0001A8822E0234E244B32881B88934225D079
:102CB0001E4B1B78022B18D1049B6C00E418A4B2A5
:102CC00027B239000198013400F09EFE24B2328808
:102CD0003900029800F098FE32882100019800F037
:102CE00093FE32882100029806E0049B0798E918B9
:102CF000069B09B2181800B200F086FE009B013551
:102D00005B0800936DB2B7E7039B01330393089B05
:102D10008DE70020094B18560A9BC018034B1B78FF
:102D200058430DB0F0BDC046802A001016010010B7
:102D30000E0100108C2A00101A010010170100105B
:102D400010B5114B1C68F72361780800083818404B
:102D5000431E9841CB10C3182078434301335A4394
:102D600000230432A056834208DA0022914202DB9B
:102D7000013252B2FAE701335BB2F4E7034B1B783E
:102D80005BB2181810BDC046802A00101701001051
:102D900010B5114B1888114BC2B21B78012B03D10F
:102DA000FF21002808D00CE0022B05D101331A4086
:102DB00011009300194302E00F231A4011000B0188
:102DC0001943074B074A186801F00EFC0023064A16
:102DD0001380064A138010BD7E2A001011010010D6
:102DE0004C2A001060220000842A00108A2A001059
:102DF000064B10B51968064B186800F09BFE054B92
:102E00001B78002B01D1FFF7C3FF10BD782A0010FB
:102E10004C2A0010742A0010F7B500285AD02E4B07
:102E20001E78B04201DB701E00B22C4B1C78042CC3
:102E300007D12B4B1B784343DA0FD3185B109BB29F
:102E40000AE0022C46D1264B197803234143CA17C6
:102E50001340591889108BB2224A12880192204AD5
:102E600000281CDD1278204FD20862430024250080
:102E7000301A84422ADA5B1B9BB229009C466346C7
:102E80004E1BCB18B6B29BB2964204DAFB5C4E1CCA
:102E90007B54B1B2F3E70134A4B20D00E9E7127834
:102EA000114D624380B2D210B6B286420ED91900DB
:102EB000CC1AA4B2944205DA4C1CA4B22F5D6F5414
:102EC0002100F5E7013080B20B00EEE76A46054BC2
:102ED00092881A80F7BDC0461C0100101101001035
:102EE00018010010140100108E2A001010B50248BD
:102EF00000F0B4F910BDC04616730000054B064A39
:102F000018600378013313704378044A0133137057
:102F10007047C046802A00107D2A00107C2A0010CD
:102F20000E4A0F4B10B504001A60FFF7DFFF0122B5
:102F30000C4B0D481A700D4BDB321A800C4B2C3A9F
:102F40001A80FFF7DBFF11220A4B20001A800022B3
:102F5000094B1A80094B08321A7010BD8E2A0010D6
:102F60004C2A0010892A001010680000522A001014
:102F7000862A00101A0100107E2A0010502A001024
:102F800010B5084B09B21B6800B29B78D21A064BE9
:102F9000D2B21B78002B02D0FFF728FE01E0FFF72A
:102FA000CFFE10BD802A0010892A0010024B18782D
:102FB000431E9841C0B27047892A001009490A4A45
:102FC0000A4B002805D001200870DC211180B022B6
:102FD00005E00870064909781180064A12781A80BF
:102FE0007047C046892A0010522A0010862A001015
:102FF000180100101C01001010B50B4C0B490023E8
:10300000E25E0B4B09881B685B785800091A094877
:10301000007840B28A4203DDC018FFF7FDFE02E0EF
:10302000C3189B18238010BD8A2A0010862A00101E
:10303000802A00101001001070B52B4B04001A6894
:10304000D378002B03D0602801D9203CE4B20E2CA9
:1030500021D8200001F002FC461F1F1F1F1F1F1F49
:103060000E1F081F1F1B46000022204B1A80FFF76F
:10307000C3FF37E01D4910780B882022181A1C4B1B
:1030800080B208801978C0B2FFF77AFF2AE00022E8
:10309000164B1A8026E0154D12780023E85E154B7A
:1030A0001B889B1A98420BDB00232B80124B1B784A
:1030B000002B17D0FFF7A0FF0D4B2878197802E0FE
:1030C0000B4BC0B219782200FFF75AFF202C06D113
:1030D0000A4B1B785BB2002B01D0401001302B88CB
:1030E0001818288070BDC046802A0010842A00105D
:1030F0008A2A0010522A0010120100101701001035
:1031000010B504002078002803D00134FFF794FFA5
:10311000F8E710BD10B5FFF7F3FF10BD10B50D2097
:10312000FFF78AFF0A20FFF787FF10BD10B5FFF7F2
:10313000E7FFFFF7F3FF10BD024B1880024B198029
:103140007047C046842A00108A2A00100023F0B578
:10315000050089B00E00984203D13020FFF76CFFC4
:103160001CE05C1C28006B4431001F0001F006FCD1
:1031700028003970310001F07BFB2300051EF0D1DF
:103180006B46013C1B5D18003730C0B2092B01D8DB
:103190003033D8B2FFF750FF002CF1D109B0F0BDA9
:1031A00010B5041E03DA2D20FFF746FF64420A2102
:1031B0002000FFF7CBFF10BD10B5002903D1C0B22E
:1031C000FFF73AFF07E00A2902D1FFF7E9FF02E023
:1031D000C9B2FFF7BBFF10BD10B5FFF7EDFF10BD83
:1031E00010B5044C20800448018019001000FFF73E
:1031F000E3FF10BD842A00108A2A001010B50029B0
:1032000003D1C0B2FFF718FF02E0C9B2FFF79EFF7B
:1032100010BD10B5FFF7F2FFFFF780FF10BDFFFFF5
:1032200010B50248FEF70CFE10BDC046882A0010FB
:103230000023044AC15AD1520233202BFAD1024B47
:103240001A607047542A0010782A0010891049012A
:10325000D210C0100A43C0021043704770B504007A
:103260000025074EA27861782078FFF7EFFF6B000A
:103270000135F0520334102DF4D1024B1E6070BDA5
:10328000542A0010782A001070B51F24050025402C
:103290000C40641B23B253431B12EB183F2544110F
:1032A0004E112C40C00A3540C9122D1B091A554336
:1032B0004A4312122D1280181BB26419021C0028F6
:1032C00000DA002212B2D202181C002B00DA002011
:1032D0001043231C002C00DA00231BB25B011843AF
:1032E00080B270BD10B500F073FD012000F092FCBB
:1032F00010BDFFFF10B5031C002800DA00230A4AA6
:103300001BB21288934200DD13B2084A1380DA0F11
:10331000D3185B100A3B1BB2181C002B00DA0020EC
:10332000C0B200F04BFC10BD1E010010F04C0010AC
:1033300010B5002803DBFF2802DDFF2000E000209D
:10334000034B1880034B0020185EFFF7D3FF10BD1E
:103350001E010010F04C0010054B10B518882028F5
:1033600001D9103000E0083000B2FFF7C3FF10BDF4
:10337000F04C0010054B10B51888202801D92038D2
:1033800000E0083800B2FFF7B5FF10BDF04C0010A8
:10339000014B18887047C046F04C001010B5024829
:1033A000FEF74EFD10BDC046EF4C00100122014B50
:1033B0001A717047884E00100022014B1A71704735
:1033C000884E00100122014B5A717047884E001040
:1033D0000022014B5A717047884E00100122014BA8
:1033E0009A717047884E00100022014B9A71704705
:1033F000884E00100122014B5A707047884E001011
:103400000022014B5A707047884E00100122014B78
:10341000DA707047884E00100022014BDA70704756
:10342000884E00100022014B9A707047884E0010A1
:103430000022014B1A707047884E001010B5054BE2
:103440009A79002A02D0FFF787FF01E001229A70E3
:1034500010BDC046884E001010B5054B9A79002A61
:1034600002D0FFF787FF01E001221A7010BDC046AD
:10347000884E001010B5204C20492000FDF7D5FCE7
:1034800020001F49FDF7C2FC1E4C1F492000FDF71C
:10349000CCFC20001D49FDF7B9FC1D4C1D49200046
:1034A000FDF7C3FC20001C49FDF7B0FC1B4C1C4978
:1034B0002000FDF7BAFC20001A49FDF7A7FC1A4CC2
:1034C0001A492000FDF7B1FC20001949FDF79EFCC8
:1034D000184C19492000FDF7A8FC20001749FDF7FA
:1034E00095FC174C17492000FDF79FFC164920005A
:1034F000FDF78CFC10BDC046904E0010B9330000A3
:10350000AD330000E04E0010D1330000C5330000A1
:10351000F44C0010E9330000DD330000384E001099
:1035200001340000F5330000444D00101934000050
:103530000D340000984D0010313400005934000063
:10354000E84D0010253400003D340000014B18798F
:103550007047C046884E0010014B58797047C046EE
:10356000884E0010014B98797047C046884E001075
:10357000014B18787047C046884E0010014B987870
:103580007047C046884E001070B52648FFF7C8FC4B
:10359000254E26493000FDF715FC254D254C2A0007
:1035A00021003000FDF7F6FE234E24493000FDF7E0
:1035B00009FC2A0021003000FDF7ECFE204E2149D5
:1035C0003000FDF7FFFB2A0021003000FDF7E2FE8E
:1035D0001D4E1E493000FDF7F5FB2A00210030008A
:1035E000FDF7D8FE1A4E1B493000FDF7EBFB2A0011
:1035F00021003000FDF7CEFE174E18493000FDF7D0
:10360000E1FB2A0021003000FDF7C4FE144E1549ED
:103610003000FDF7D7FB2A0030002100FDF7BAFE8D
:1036200070BDC046944D0010904E001084120100F1
:1036300000010010990D0000E04E0010700801001C
:10364000F44C001088140100384E0010941A010048
:10365000444D00106C060100984D0010C43201006A
:10366000E84D00107C0E0100074B1A8882420AD0F8
:103670001880A023054A06491B0699500549C00039
:103680005850002199507047304F0010882000009A
:103690000700F8FF8821000070B58A23A0240422C7
:1036A00024069B01E2508023064D5B046351FFF723
:1036B000DBFF8023044A5B01A350C046C046635130
:1036C00070BDC046042200008422000070B588232B
:1036D000A024042224069B01E2508023064D5B04B3
:1036E0006351FFF7C1FF8023044A5B01A350C0462A
:1036F000C046635170BDC046042200008422000011
:1037000010B5074C07492000FEF75EF820000521A0
:10371000FEF739F804492000FEF712F810BDC04644
:10372000344F0010FC0402009A99993E10B5040031
:103730002020FFF7B1FF0020FFF7C8FF2120FFF78F
:10374000ABFF0020FFF7C2FF2220FFF7A5FF2000FC
:10375000FFF78AFFA023882204211B0692019950BB
:103760008021084A49049950802107484901074CA3
:1037700099501951C046C046013899500028F8D1D7
:1037800010BDC046042200004097000084220000C3
:1037900010B52020FFF780FF0020FFF797FF2120C2
:1037A000FFF77AFF0020FFF791FF2220FFF774FF59
:1037B0000020FFF759FFA023882204211B06920155
:1037C00099508021074A49049950802106484901AF
:1037D000064C99501951C046C046013899500028EE
:1037E000F8D110BD042200004097000084220000A0
:1037F00070B5A0250124784E2D06FFF781FFAC514E
:103800000A20FDF7FCFC754B0A20EC50FDF7F7FC95
:10381000AC510A20FDF7F3FC2000FFF73DFF8E209E
:103820004000FFF753FF0220FFF736FF80204000E3
:10383000FFF74CFF0320FFF72FFF6948FFF746FF14
:103840000820FFF729FF6748FFF740FF0C20FFF72C
:1038500023FF0020FFF73AFF0F20FFF71DFF200096
:10386000FFF734FF2020FFF717FF0020FFF72EFFA0
:103870002120FFF711FF0020FFF728FF1020FFF79E
:103880000BFF0020FFF722FF1120FFF705FF80202C
:103890004001FFF71BFF0A20FDF7B1FC3020FFF7C6
:1038A000FBFE0020FFF712FF3120FFF7F5FEDB20C3
:1038B000FFF70CFF3220FFF7EFFE0020FFF706FFB7
:1038C0003320FFF7E9FE0020FFF700FF3420FFF769
:1038D000E3FEDB20FFF7FAFE3520FFF7DDFE0020D8
:1038E000FFF7F4FE3620FFF7D7FEAF20FFF7EEFE1E
:1038F0003720FFF7D1FE0020FFF7E8FE3820FFF762
:10390000CBFEDB20FFF7E2FE3920FFF7C5FE0020EB
:10391000FFF7DCFE0A20FDF772FCFF20FFF7BCFE7C
:103920000320FFF7D3FE5020FFF7B6FE2E48FFF727
:10393000CDFE5120FFF7B0FE2C48FFF7C7FE522006
:10394000FFF7AAFE2A4D0520FFF7C0FE5320FFF720
:10395000A3FE2800FFF7BAFE5420FFF79DFE25487E
:10396000FFF7B4FE5520FFF797FE234C0320FFF727
:10397000ADFE5620FFF790FE2000FFF7A7FE572070
:10398000FFF78AFE1D48FFF7A1FE5820FFF784FECF
:103990002800FFF79BFE5920FFF77EFE2000FFF76F
:1039A00095FEB020FFF778FE1548FFF78FFEFF2049
:1039B000FFF772FE0020FFF789FE0720FFF76CFE7D
:1039C0001048FFF783FEC820FDF719FC2220FFF7FF
:1039D00063FEFFF7DDFE70BD0422000084220000BC
:1039E000301000000808000003020000090A00006F
:1039F0002110000002060000030700000705000078
:103A00000125000017100000F8B584B21500DB2C6A
:103A100026D88EB2AF2E23D82020FFF73DFE3000EF
:103A2000FFF754FE2120FFF737FE2000FFF74EFE80
:103A30002220FFF731FEA0248823042224069B01C4
:103A4000E25080278023074E5B047F01A3512800AA
:103A5000A751FFF709FE044BE750C046C046A751E7
:103A6000F8BDC0460422000084220000F0B587B0F3
:103A70001C000CAB1B880493904202DD0300100075
:103A80001A00A14202DD0B0021001C00DC284BDCE7
:103A9000B02949DC131CDC2A00DDDC231BB20393B4
:103AA000B02C00DDDC24061C002800DA002636B22B
:103AB0000B1C002900DA0023A0251BB202932D065F
:103AC000039B9E4230DC2020FFF7E6FD6B46188901
:103AD000FFF7FCFD2120FFF7DFFDB3B218000193D3
:103AE000FFF7F4FD2220FFF7D7FD8822042392017F
:103AF000AB50802780220D4B52047F01029EEA507A
:103B0000EF500593B4420BDD0498FFF7ADFD084B71
:103B1000EF50C046C046059B0136EF5036B2F1E784
:103B2000019E013636B2CBE707B0F0BD042200009B
:103B300084220000F8B5040020200E00FFF7ACFD41
:103B40000020FFF7C3FD2120FFF7A6FD0020FFF7AF
:103B5000BDFD2220FFF7A0FD104BE7180025635D97
:103B60005B00985BFFF7B2FD635D01355B00985B1E
:103B7000FFF7ACFD582DF2D10025635D5B00985B2B
:103B8000FFF7A4FD635D01355B00985BFFF79EFDC9
:103B9000582DF2D15834BC42E0D1F8BDD0250000F8
:103BA00070B504000D001822002100F01DFD290051
:103BB0002000FDF7ECF8200070BDFFFF7F2381217E
:103BC00010B50A4C8EB018402070094A09016846A9
:103BD00000F09AFB22785E21684600F0E0FB247832
:103BE000684600F0DBFB20000EB010BD45710010F0
:103BF000140A0000002210B5044B10201A70044B68
:103C000001321A70FFF7DAFF10BDC046457100108F
:103C10004A71001070B5094C05002368013304D1C6
:103C2000242207490748FDF731F8002D01D0E36849
:103C300000E0236962681A6070BDC046FC50001045
:103C4000CD6300001C640000A02280210300120646
:103C50004905D80701D5284800E028481150A0227E
:103C600080215B1012068905D80701D5224800E0A3
:103C700022481150A02280215B101206C905D807E6
:103C800001D51D4800E01D481150A02280215B1085
:103C900012060906D80701D5174800E01748115049
:103CA000A02280215B1012064903D80701D51448D1
:103CB00000E014481150A02280215B1012068903F5
:103CC000D80701D50E4800E00E481150A0228021EF
:103CD0005B101206C903D80701D5094800E009485E
:103CE000115080215B100904002B01D0044B00E02F
:103CF000044BD1507047C0460422000084220000CB
:103D0000082200008822000070B5244B00241A7895
:103D100001231340224A234D1370A34228D00026CA
:103D20002149224A0B68581C08601B789657DBB261
:103D3000A64203D00322921B1341DCB21C4A2C7012
:103D40001368984211D31B4B18680130186018682B
:103D5000042801D1002018601B681748DB02C31833
:103D60000B60802109015B1813602878FFF76CFF56
:103D7000200001F0F3FD114901F022F9011C104867
:103D8000FDF7DEFC2B780F4A1C190F4B64101C80CA
:103D90001378591C11700D4AD45470BDF85000109E
:103DA0004671001044510010544F001020010010C3
:103DB000705000108C5000104551001000007F43DF
:103DC000F05000106471001048710010584F00103E
:103DD00010B50C4C0C492000FDF7F6FC20001F210B
:103DE000FDF7D1FC20000949FDF7AAFC0848094B62
:103DF0005A2183610023C362FDF73FF9FFF7FAFE02
:103E000010BDC046F050001040270200CDCCCC3D84
:103E100014510010093D000010B5194C2000FDF7A9
:103E2000A7F9184B184A236000231849A361E362DD
:103E30002000FDF7AFFA16491648FFF7B1FE164904
:103E40001648FFF7ADFE16491648FFF7A9FE1649BA
:103E50001648FFF7A5FE16491648FFF7A1FE1649BA
:103E60001648FFF79DFE16491648FFF799FE1649BA
:103E70001648FFF795FE16491648FFF791FE10BD4C
:103E800014510010C0640000000100104D1000002B
:103E9000D038010058500010D43A01004C71001085
:103EA000D83C010074500010DC3E01003C4F001073
:103EB0004429020090500010482B0200A850001026
:103EC0004C2D0200C0500010502F0200D85000109E
:103ED000A4220100FC500010F0B585B0060002914C
:103EE00072B64D4B984202D8050B2B0313E04B4B97
:103EF0001C2598420CD84A4B013D984208D8494BA2
:103F0000013D984204D8484D8542AD416D42183577
:103F1000464BEB189B039B1B59425941CBB2019373
:103F20003223434C434F23606560434BA560390007
:103F300020009847404A3B680392002B01D00120A3
:103F400068E0E4229202964260D1019B002B3BD0B4
:103F5000012301933423FA212360384B8900186828
:103F60006560A56000F084FC324FE060324B3900A0
:103F7000200098473B68002BE1D132332360656015
:103F80002D4BA5603900200098473B68002BD6D107
:103F9000019B002B18D133232360029BFA21A360DD
:103FA00080235B00E360254B89001868666000F0A1
:103FB0005FFC204D2061290020001F4B9847286896
:103FC0000028BCD162B625E03B232360E023FA2120
:103FD0009B0063601A4B8900A360184B186800F0BF
:103FE00047FC144FE060144B3900200098473B68B1
:103FF000002BA4D13233236065600F4BA5603900DC
:10400000200098473B68002BC5D098E7019A002A0A
:10401000C1D09EE705B0F0BDFF7F0100FF7F030028
:10402000FFFF0200FF7F0200FFFF0100EEFF030021
:10403000687100107C710010F11FFF1F0801001053
:10404000FF030000024A13680A3313607047C0463A
:104050008C710010044B054A07215A6000229A60B7
:104060001960034B1A60704710E000E0FF52070030
:104070008C710010014B18687047C0468C7100109D
:104080007047FFFFA023802104201B0689015A5896
:1040900010B5024380205A50294A400199580143E3
:1040A0008020995099584004014301209950995813
:1040B00001439950234924485A5802435A502348EF
:1040C0000021FDF70FFB00212148FDF70BFB00212C
:1040D0002048FDF707FB00211F48FDF703FB0021E7
:1040E0001E48FDF7FFFA00211D48FDF7FBFA0021ED
:1040F0001C48FDF7F7FA00211B48FDF7F3FA0021F1
:104100001A48FDF7EFFA00211948FDF7EBFA0021F4
:104110001848FDF7E7FA00211748FDF7E3FA0021F8
:104120001648FDF7DFFA00211548FDF7DBFA0021FC
:104130001448FDF7D7FA00211348FDF7D3FA10BD54
:104140000420000008200000F8FF0700000702001C
:1041500004090200080B02000C0D0200100F0200FF
:1041600014110200181302001C150200201702008F
:1041700024190200281B02002C1D0200301F02001F
:1041800034210200382302003C250200036870B588
:1041900004000D00013304D1242206490648FCF72F
:1041A00075FD6368002D01D0E26800E022691360AC
:1041B00070BDC046CD6300001C640000036810B5EC
:1041C0000400013304D12C2205490648FCF75EFDAA
:1041D000636960681B681840431E984110BDC04663
:1041E000CD6300001C64000010B50121FDF74AF901
:1041F00010BD70B504002500FFF7F6FF1835606BA1
:10420000FCF7F2FF28000121FFF7C0FF0121200089
:10421000FFF7BCFF606BFCF7E7FF00212000FFF712
:10422000B5FF606BFCF7E0FF28000021FFF7AEFF51
:10423000606BFCF7D9FF70BD10B50400FFF7D4FF29
:10424000606BFCF7D1FF00212000FFF79FFF606B40
:10425000FCF7CAFF200001211830FFF797FF606BC1
:10426000FCF7C2FF01212000FFF790FF10BDF8B559
:1042700004000F000825FFF7B7FF606BFCF7B4FFE1
:104280000121013DA9402600394020001836FFF7E2
:104290007DFF01213000FFF779FF606BFCF7A4FF81
:1042A00000213000FFF772FF002DE6D10121200030
:1042B000FFF76CFFF8BD70B504002500FFF794FF11
:1042C000183501212000FFF761FF01212800FFF7C9
:1042D0005DFF00212000FDF7D5F804212000FDF747
:1042E000CBF8606BFCF780FF00212800FFF74EFF42
:1042F0002000FFF763FF0023984203D1606BFCF7B7
:1043000073FF0123180070BDF8B5182604000D00D6
:1043100017000021320000F067F929002000A519DC
:10432000FCF71BFD32002800002100F05DF9390088
:104330002800FCF712FD2800FFF756FF2800042193
:10434000FDF79AF82000FFF74FFF04212000FDF74A
:1043500093F823000026012730331E70280067637E
:10436000FFF742FF2000FFF73FFF39002000FFF773
:104370000DFF31002800FFF709FF606BFCF734FFE9
:104380002000FFF759FF2000FFF756FF2000FFF73E
:1043900053FF2000FFF750FF2000F8BD704770B5B5
:1043A0000D0016000400FFF724FF01232900200060
:1043B0009943FFF75CFF2000FFF77DFF31002000ED
:1043C000FFF755FF2000FFF776FF2000FFF734FFCF
:1043D00070BDFFFF10B5064B0648197800F0D2FA01
:1043E000054B186039235843044B188010BDC04654
:1043F00021010010983A000098710010947100108B
:1044000010B50248FDF71CFD10BDC0469C710010A0
:10441000454AF8B5564692464B005B0D9A444D46C8
:104420005F4644465246F0B4894605000C000E0033
:104430000700132A22DC002A47DB52463B4B13417C
:1044400098460B0042461340034311D0384A394B7B
:1044500001F0C2FA0022002300F0AAFB002805D0D8
:10446000002C41DB4E46434600279E433800310076
:104470003CBC90469946A246AB46F8BD5246332A0C
:1044800008DD8023DB009A45F2D102000B0001F029
:10449000A3FAEDE7284A9446012263445242DA40E7
:1044A00093460242E4D0224A224B01F095FA0022C0
:1044B000002300F07DFB0028D8D0002C1ADB5B46DF
:1044C0004E469F4338003100D2E7194A194B01F09C
:1044D00083FA0022002300F06BFB0028C6D0002CDA
:1044E00016DB00270026C1E7802352465B031341F9
:1044F0009944B7E75346142B12D034235246012770
:104500009B1A9F407F19AF429B415B429944D6E77B
:104510006400640825430027002DA7D0074EA5E7B7
:10452000133B9C46E144CAE701FCFFFFFFFF0F007D
:104530009C7500883CE4377EEDFBFFFF0000F0BF78
:10454000C317C01858407047084B10B50400002B23
:1045500002D0002100E000BF054B1868836A002BE1
:1045600000D098472000FCF7EBFCC046000000009C
:10457000BC7B00000E4B70B500251E000D4CE41AEC
:10458000A410A54204D0AB00F35898470135F8E7D2
:1045900003F076FB084B00251E00084CE41AA4101B
:1045A000A54204D0AB00F35898470135F8E770BD39
:1045B0008C7C00008C7C00008C7C0000B87C0000AF
:1045C00010B5034B0100186800F062F810BDC0463A
:1045D0008401001010B5034B0100186800F00CF8BE
:1045E00010BDC0468401001003008218934202D01F
:1045F00019700133FAE7704770B50500002944D0FF
:104600000C1F2368002B00DAE418280000F024F9BE
:104610001E4A13681100002B02D16360146031E060
:10462000A3420DD92268A018834203D118685B68A1
:104630008218226063600C6024E0A24203D8130059
:104640005A68002AF9D11E689819A0420BD1216836
:10465000711858181960824214D1106852684118B4
:1046600019605A600EE0A04202D90C232B6009E0C9
:1046700021686018824203D1106852684118216095
:1046800062605C60280000F0E8F870BDA471001062
:10469000032370B5CD1C9D43083506000C2D01D2B7
:1046A0000C2501E0002D01DBA94202D90C23336067
:1046B00048E0300000F0D0F8234B1C681A002100BD
:1046C000002913D00B685B1B0DD40B2B02D90B6098
:1046D000CC181EE08C4202D1636813601AE04B686C
:1046E00063600C0016E00C004968E9E7174C23688A
:1046F000002B03D1300000F095F820602900300035
:1047000000F090F8431C18D00323C41C9C43A04223
:104710000DD12560300000F0A0F8200007220B30FA
:10472000231D9043C31A0ED05A42E2500BE0211AC7
:10473000300000F077F8431CEBD10C2330003360DD
:1047400000F08BF8002070BDA4710010A071001063
:10475000104B70B51C680500A36B002B15D11820F9
:10476000FFF72EFF0C4BA06303800C4B012243800C
:104770000B4B83800B4BC3800B4B03810523438181
:10478000063383810023026143610022A36B1D6114
:104790005A6170BD840100100E330000CDABFFFFE5
:1047A000341200006DE6FFFFECDEFFFF154B10B585
:1047B0001C68A36B002B15D11820FFF701FF124BCB
:1047C000A0630380114B01224380114B8380114B66
:1047D000C380114B0381052343810633838100236A
:1047E00002614361A46B0D4A206961690C4B00F0C2
:1047F0002DFA01220023801859412061616148008F
:10480000400810BD840100100E330000CDABFFFF47
:10481000341200006DE6FFFFECDEFFFF2D7F954CAC
:104820002DF45158002370B5064C05000800236094
:10483000FCF772FB431C03D12368002B00D02B60D4
:1048400070BDC046A8710010031C0A7801311A70AF
:104850000133002AF9D170477047704702B471469E
:1048600049084900095C49008E4402BC7047C046B3
:10487000002243088B4274D303098B425FD3030A9F
:104880008B4244D3030B8B4228D3030C8B420DD3B2
:10489000FF22090212BA030C8B4202D31212090240
:1048A00065D0030B8B4219D300E0090AC30B8B427E
:1048B00001D3CB03C01A5241830B8B4201D38B032C
:1048C000C01A5241430B8B4201D34B03C01A5241D1
:1048D000030B8B4201D30B03C01A5241C30A8B4214
:1048E00001D3CB02C01A5241830A8B4201D38B02FF
:1048F000C01A5241430A8B4201D34B02C01A5241A3
:10490000030A8B4201D30B02C01A5241CDD2C30914
:104910008B4201D3CB01C01A524183098B4201D390
:104920008B01C01A524143098B4201D34B01C01A7B
:10493000524103098B4201D30B01C01A5241C308F3
:104940008B4201D3CB00C01A524183088B4201D362
:104950008B00C01A524143088B4201D34B00C01A4E
:104960005241411A00D20146524110467047FFE7BA
:1049700001B5002000F0F0F802BDC0460029F7D0D4
:1049800076E7704703460B437FD4002243088B42EF
:1049900074D303098B425FD3030A8B4244D3030BC6
:1049A0008B4228D3030C8B420DD3FF22090212BA8B
:1049B000030C8B4202D31212090265D0030B8B4207
:1049C00019D300E0090AC30B8B4201D3CB03C01AF1
:1049D0005241830B8B4201D38B03C01A5241430BCC
:1049E0008B4201D34B03C01A5241030B8B4201D3BC
:1049F0000B03C01A5241C30A8B4201D3CB02C01A27
:104A00005241830A8B4201D38B02C01A5241430A9E
:104A10008B4201D34B02C01A5241030A8B4201D38D
:104A20000B02C01A5241CDD2C3098B4201D3CB0134
:104A3000C01A524183098B4201D38B01C01A5241E3
:104A400043098B4201D34B01C01A524103098B42E7
:104A500001D30B01C01A5241C3088B4201D3CB00D2
:104A6000C01A524183088B4201D38B00C01A5241B5
:104A700043088B4201D34B00C01A5241411A00D265
:104A800001465241104670475DE0CA0F00D04942CE
:104A9000031000D34042534000229C4603098B423E
:104AA0002DD3030A8B4212D3FC22890112BA030AC6
:104AB0008B420CD3890192118B4208D38901921148
:104AC0008B4204D389013AD0921100E08909C309CD
:104AD0008B4201D3CB01C01A524183098B4201D3CF
:104AE0008B01C01A524143098B4201D34B01C01ABA
:104AF000524103098B4201D30B01C01A5241C30832
:104B00008B4201D3CB00C01A524183088B4201D3A0
:104B10008B00C01A5241D9D243088B4201D34B00BB
:104B2000C01A5241411A00D20146634652415B10FD
:104B3000104601D34042002B00D5494270476346DE
:104B40005B1000D3404201B5002000F005F802BD23
:104B50000029F8D016E770477047C0468446101CFD
:104B600062468C46191C634600E0C0461FB501F042
:104B700003FB002801D40021C8421FBD10B501F07D
:104B800057FA4042013010BD10B501F0F5FA002887
:104B900001DB002010BD012010BDC04610B501F0A2
:104BA000EBFA002801DD002010BD012010BDC04639
:104BB00010B501F07DFA002801DC002010BD0120B5
:104BC00010BDC04610B501F073FA002801DA0020CC
:104BD00010BD012010BDC0468446081C6146FFE799
:104BE0001FB500F073FB002801D40021C8421FBD8F
:104BF00010B500F0FFFA4042013010BD10B500F0D2
:104C000065FB002801DB002010BD012010BDC0465F
:104C100010B500F05BFB002801DD002010BD012075
:104C200010BDC04610B500F00DFB002801DC0020CF
:104C300010BD012010BDC04610B500F003FB0028D8
:104C400001DA002010BD012010BDC046F0B54F466E
:104C50004646C0B41604360C9946330005042C0CA5
:104C6000070C150C63437E436F4365431C0CAD1961
:104C700064199C46A64203D980235B0298464744A8
:104C80006346250CEF191D044B464A4343432D0C44
:104C9000240464199918C91920000CBC904699463F
:104CA000F0BDC0469E2110B5C905041CFFF7C4FF26
:104CB000002803D1201C00F0E7FD10BD9E21201C20
:104CC000C90500F05BFC00F0DFFD80231B069C465D
:104CD0006044F2E7F8B54A02430244004E00C50FB3
:104CE000240E28009B09360EC90F92098D4259D017
:104CF000A01B002800DC8DE0002E1AD1002A00D075
:104D000079E05A0704D00F221A40042A00D0043355
:104D10005A0138D50134FF2C00D189E028009B01CD
:104D20005B0AE4B25B02E4055B0A2343C007184355
:104D3000F8BDFF2CE5D08021C9040A431B2800DD03
:104D400089E016002021C640081A8240511E8A417F
:104D500032439B1A5A0114D59B019E09300001F081
:104D6000FFFA05388640844265DC041B33002020AE
:104D70000134E340041BA640721E964100243343D5
:104D8000BFE75A07BFD1DF082800FF2C2FD1002F23
:104D900000D187E08022D20313003B435B025B0A11
:104DA000FF24BFE7A11B002949DD002E29D0FF2CDD
:104DB000A7D08026F60432431B2900DD8DE01700C2
:104DC0002026CF40711A8A40511E8A413A439B18CF
:104DD0005A01D6D50134FF2C64D0012276491A40FD
:104DE0005B080B4013438CE7031ECAD100207B02F3
:104DF0005B0AE4B296E701380028AAD0FF2C9DD1C7
:104E00007FE7002A00D17CE701390029DFD0FF2CA1
:104E1000D2D176E7002820D1601CC0B2012853DD32
:104E200080279E1AFF0437402FD0D61A0D0095E731
:104E30002800002376E7614B241A334061E70029FC
:104E40004DD1611CCEB2012E2FDDFF292AD09B1837
:104E50005B080C0055E701227BE7002C1BD1002BDF
:104E60005BD0C04300280CD0FF2E7ED01B2800DD75
:104E700092E01D002024C540201A8340581E834123
:104E80002B43D31A34000D0064E7002E00D065E7F1
:104E900000200024ABE7FF2E67D08024E4044042CA
:104EA0002343E3E7FF2400233CE7002C61D1002BE0
:104EB0007ED0002A00D124E79B185A0100D460E775
:104EC0003E4A0C0013401CE7002C1ED1002B2FD1B2
:104ED000002A66D013000D0013E7012277E7002CAB
:104EE0001FD1002B5AD0C94300290BD0FF2E50D020
:104EF0001B295FDC1F002024CF40611A8B40591E04
:104F00008B413B439B18340062E7002B1CD1002AE5
:104F10004AD013000D00FF24F3E6130034000D0007
:104F2000EFE6FF2E35D08024E40449422343DFE737
:104F3000002A00D1E5E68027981AFF04074000D137
:104F400052E7D31A0D00DCE6FF24002A00D1D8E690
:104F50008020DB08C003034204D0D208024201D102
:104F600013000D00DB00FF24CBE61300FF240D002F
:104F7000C7E6002B0DD0FF24002A00D1C1E6802116
:104F8000DB08C9030B42EDD0D2080A42EAD1130074
:104F9000E8E71300FF24B4E6012372E713003400AE
:104FA000AFE60027002022E780270020FF03F1E67C
:104FB0001300A6E60123A5E7FFFFFF7DFFFFFFFB30
:104FC000F0B5564644465F464D46F0B444024600AE
:104FD000C70F83B08846650A360EBA463DD0FF2E0D
:104FE00022D00023EC00802599469B46ED04254302
:104FF0007F3E43465C025800DB0F640A000E984671
:1050000036D0FF2830D080230021E400DB041C438D
:105010007F38301A0190484642460843724E80005D
:1050200030587A4013008746002D44D10823994612
:10503000063B9B46DDE70122FF2000241A40640264
:10504000C305640AD2071C431443200003B03CBCD0
:1050500090469946A246AB46F0BD002D20D10423D0
:105060009946033B9B46C4E7002C17D1022102E07E
:10507000002C0AD10121321A01924A4643460A43C2
:105080005A48920082587B409746200001F068F908
:10509000431F76309C4040420021BAE70321B8E725
:1050A000280001F05DF9431F9D4000237630464201
:1050B00099469B469DE70C239946093B9B4698E7FA
:1050C00080240022E403FF20B9E70024C2468B4677
:1050D0005A465346022AAED0032A7DD0012A31D146
:1050E000012200201A400024A9E70122101A1B28DF
:1050F00056DD1A4000200024A1E78023DB031D4277
:105100004BD18023DB032B435C02640A3A00FF206F
:1051100095E76D016001854230D2019A0024013A81
:1051200001921B220127290064006D00002901DB88
:10513000A84201D82D1A3C43013A002AF3D16A1E35
:1051400095412C4301987F300028CEDD620704D0C2
:105150000F222240042A00D00434220103D5244A1D
:10516000019814408030FE2800DD64E70122A4018C
:10517000640AC0B21A4062E72C00A9E72D1A1A226D
:105180000124CFE76B02BCD500248023DB031C4342
:105190006402640A4246FF2051E71C42B3D1F4E79F
:1051A00021002022C140101A8440621E94410C4309
:1051B000620704D00F222240042A00D00434620186
:1051C00004D5012201201A40002438E70122A4015D
:1051D000640A1A40002032E78023DB031C43640288
:1051E000640A5246FF202AE7C07B0000007C0000D2
:1051F000FFFFFFF7430270B542004C005D0AC30F8A
:105200004802120E460A240EC90FFF2A0FD0FF2CA7
:1052100011D00120A24200D070BDB542FCD18B421A
:105220000DD0002AF8D12800431E9841F4E7012050
:10523000002DF1D1EBE70120002EEDD1E9E70020B0
:10524000EAE7C0464302F0B542005D0AC30F4802D8
:10525000440A4800120E000EC90FFF2A1FD0FF2873
:1052600022D0002A09D16E426E4100280FD1002CB5
:105270000DD10020002D09D005E0002801D1002C1F
:1052800001D08B4213D0584201231843F0BD002EA9
:10529000F7D048424141012049420843F6E7002D3A
:1052A000DDD002204042F1E7002CDAD0F9E782425B
:1052B000E9DC04DBA542E6D80020A542E6D258424C
:1052C000434101205B421843E0E7C0464302F0B58A
:1052D00042004C005E0AC30F4802120E450A240E1B
:1052E000C90FFF2A17D0FF2C19D0002A0BD170420A
:1052F0007041002C17D0002807D0484241410120BE
:1053000049420843F0BD002C13D08B4214D05842C0
:1053100001231843F6E70220002EF3D1E3E7022031
:10532000002DEFD1E1E7002DE5D10020002EE9D0DE
:10533000EDE7002DE9D1EAE7A242E8DC04DBAE426A
:10534000E5D80020AE42DDD25842434101205B4205
:105350001843D7E7F0B557464E4645464300E0B4FC
:1053600046028846760A1F0EC40F002F47D0FF2F33
:1053700025D0002380259A469946F600ED042E4359
:105380007F3F434642465D02D20F5B006D0A1B0E13
:10539000904640D0FF2B39D080220020ED00D2046F
:1053A00015437F3BFB1842465746591C62408C46CA
:1053B00007430F2F5CD86F49BF00C9598F46002E95
:1053C00045D108239A46063B9946DAE74246022829
:1053D0002DD0032800D1C3E0012800D0A2E0002591
:1053E00000260240D4B27602ED05760A2E43E40789
:1053F000264330001CBC90469946A246F0BD002EC4
:105400001AD104239A46033B9946BAE72A00511E53
:105410008A41901CC6E70120002DC3D0280000F06F
:105420009FFF431F76309D4043420020BAE701248E
:10543000FF2514400026D6E7300000F091FF431FFF
:105440009E400023763047429A46994699E70C23BE
:105450009A46093B994694E780260024F603FF25E7
:10546000C1E735004846B2E7350022004846AEE7BE
:105470002904090C0800370C3604360C2C0C79432F
:10548000704367437443060C64183619B14203D95C
:1054900080214902884647440004000C3104091861
:1054A0008D01681E8541890E2943350CED19AD012A
:1054B0000D43290104D5012369081D4063460D43AE
:1054C00019007F31002925DD680704D00F2028400E
:1054D000042800D00435280103D5274980330D4026
:1054E0001900FE29A3DC0124AD016E0A1440CDB2DF
:1054F00079E78020C003064207D0054205D1284342
:105500004602760A4446FF256DE706437602760A90
:10551000FF2568E70124611A1B2905DD14400025D9
:10552000002660E76346CBE72E002023CE40591AC1
:105530008D406B1E9D412E43730704D00F233340D3
:10554000042B00D00436730104D501240125144036
:10555000002648E70124B601760A1440002542E7F8
:1055600080260124F6032E437602760A1440FF2596
:1055700039E7C046407C0000FFFFFFF7F8B54A025C
:105580004E0043024400240EC50F9B09360EC90F7E
:105590009209FF2E00D183E001204140A01BA942C7
:1055A0005CD0002800DC95E0002E1CD1002A00D041
:1055B00081E05A0704D00F221A40042A00D0043395
:1055C0005A013BD50134FF2C00D191E001209B0111
:1055D0005B0AE4B205405B02E4055B0AED07234386
:1055E0002B431800F8BDFF2CE3D08021C9040A43E7
:1055F0001B2800DD90E016002021C640081A8240DA
:10560000511E8A4132439B1A5A0115D59B019E09AE
:10561000300000F0A5FE0538864084426CDC041B97
:10562000330020200134E340041BA640721E964143
:1056300000243343BDE70D005A07BCD1DF08012326
:105640001D40FF2C33D1002F00D190E08022D203E7
:1056500013003B435B025B0AFF24BCE700284FDDDD
:10566000002E2ED0FF2CA4D08025ED042A431B2829
:1056700000DD97E016002025C640281A8240501E03
:10568000824132439B185A01D5D50134FF2C6DD08D
:1056900001227B481A405B08034013430D0088E752
:1056A000002A00D07AE777E7031EC5D100257B02E8
:1056B0005B0AE4B28FE701380028A4D0FF2C97D111
:1056C00077E7002A00D174E701380028DAD0FF2CF0
:1056D000CDD16EE7002821D1601CC0B2012858DD71
:1056E00080279E1AFF0437402FD0D61A0D008FE76F
:1056F00001231D4000236EE7624B241A334058E714
:10570000002851D1601CC6B2012E33DDFF282DD0F8
:105710009B185B0804004CE7012274E7002C1AD0A8
:10572000FF2E1FD08024E404404223431B2800DDC9
:1057300096E01D002024C540201A8340581E834156
:105740002B43D31A34000D005EE7002E00D05FE734
:1057500000250024ABE7002B44D0C0430028F0D044
:10576000FF2EE3D11300FF240D0022E70D00FF24DC
:10577000002330E7002C5DD1002B7DD0002A00D122
:1057800017E79B185A0100D456E73E4A040013401D
:105790000FE7002C1ED1002B2FD1002A65D013005B
:1057A0000D0006E701226DE7002C1FD1002B59D018
:1057B000C04300280BD0FF2E4FD01B285EDC1D00FD
:1057C0002024C540201A8340581E83412B439B1838
:1057D000340058E7002B1CD1002A49D013000D00DB
:1057E000FF24E6E6130034000D00E2E6FF2E34D07D
:1057F0008024E40440422343DFE7002A00D1D8E6B6
:105800008027981AFF04074000D14DE7D31A0D00F6
:10581000CFE6FF24002A00D1CBE68020DB08C003BE
:10582000034204D0D208024201D113000D00DB0074
:10583000FF24BEE6002B10D0FF24002A00D1B8E6DA
:105840008020DB08C003034203D0D208024200D10B
:105850001300DB000D00FF24ABE61300FF24A8E6D5
:1058600001236EE713003400A3E6002700251EE79E
:1058700080270025FF03E9E613009AE60123A6E747
:10588000FFFFFF7DFFFFFFFB4302590A4300C20FEA
:105890001B0E00207E2B0EDD9D2B0DDC80200004D6
:1058A0000143952B0BDC9620C31AD9400B005842BC
:1058B000002A00D118007047034BD018FBE7963B35
:1058C00099400B00F3E7C046FFFFFF7F70B500284B
:1058D00030D0C317C5185D40C40F280000F040FD4C
:1058E0009E231B1A962B0DDC9622D21A95406A0233
:1058F000520AD8B25202C005520AE40702432243B8
:10590000100070BD992B19DC9922D21A9540124AC9
:105910002A40690704D00F210D40042D00D0043225
:10592000510103D50C4B1A409F231B1A9201520AB6
:10593000D8B2DFE7002400200022DBE705222E009A
:10594000121AB921D6402A00C91A8A40551EAA4106
:1059500035001543DBE7C046FFFFFFFB70B5041EB3
:1059600028D000F0FDFC9E231B1A962B0ADC962201
:10597000D21A94406202520AD8B25202520AC005A8
:10598000104370BD992B18DC9922D21A9440114A09
:105990002240610704D00F210C40042C00D00432B7
:1059A000510103D50B4B1A409F231B1A9201520A37
:1059B000D8B2E2E700200022DFE705222500121A14
:1059C000B921D5402200C91A8A40541EA2412C0098
:1059D0001443DCE7FFFFFFFBF8B556465F464D4634
:1059E0004446F0B40F00FD0FAA4609037C002E00C8
:1059F0005F00450F490A7F0D2943C5001803BC46C7
:105A0000400A570F640DDB0F3843D2009A4500D18E
:105A1000AAE06646A61B002E00DCFFE06346002BD2
:105A200039D10300134300D0D9E06B0709D00F230D
:105A30002B40042B05D02B1DAB42AD416D424919C3
:105A40001D000B0200D482E0CA4B01349C4200D1FD
:105A5000FEE00A005646C84BED081A4050076405A0
:105A600052020543120B640D002112030B0D1B059E
:105A70006405120B1A436308C04CF60714401C431C
:105A8000640064083443280021003CBC90469946D9
:105A9000A246AB46F8BDB74B9C42C6D080231B0440
:105AA0001843382E00DDEBE01F2E00DD1EE1202321
:105AB0009B1B9C4603006746BB4098461300474625
:105AC000F3403B436746BA40571EBA4113430200B6
:105AD000F240EB1A9D42B6411D008A1A7642911B94
