:1000000000800010FD0000006B1500006D15000061
:1000100000000000000000000000000000000000E0
:100020000000000000000000000000006F1500004C
:10003000000000000000000071150000314B0000BE
:1000400069150000691500006915000069150000B8
:1000500069150000691500006915000069150000A8
:100060006915000069150000691500006915000098
:100070006915000069150000691500006915000088
:100080006915000069150000691500006915000078
:100090006915000069150000691500006915000068
:1000A0006915000069150000691500006915000058
:1000B00069150000691500006915000000000000C6
:1000C000448A00000001001088000000448A0000FB
:1000D0000000002000000000448A000000400020D2
:1000E0000000000088010010842F000000000020A4
:1000F00000000000004000200000000010B5104C7F
:10010000104B9C4206D2A2686168206801F031FA67
:100110000C34F5E70C4B9C4205D26168206801F075
:1001200031FA0834F6E701F089F9084B002B02D0C8
:1001300000E000BF03E004F093FF00F077FAFEE771
:10014000C0000000E4000000FC000000000000000F
:1001500010B5064C2378002B07D1054B002B02D09D
:10016000044800E000BF0123237010BD8801001087
:1001700000000000448A0000084B10B5002B03D09B
:100180000749084800E000BF07480368002B00D17A
:1001900010BD064B002BFBD09847F9E7000000008C
:1001A0008C010010448A000088010010000000004B
:1001B000036810B50400013304D12C220549064818
:1001C00000F064FE636960681B681840431E984134
:1001D00010BDC046886E0000D76E000070B50400E8
:1001E0000D001822002104F075FF2900200000F006
:1001F000B4FE200070BDFFFF012310B54A080E4C6D
:100200001A4022540D4C8A081A4022540C4CCA0839
:100210001A4022540B4C0A091A4022540A4C4A092B
:100220001A4022548A09094C1A402254C909084A22
:100230000B40135410BDC0460B04001008040010FE
:10024000050400102C040010640400106704001062
:100250000E04001070B50B4C0B4D2378C1B220700A
:1002600000202B70FFF7C8FF2378297802209943DC
:10027000FFF7C2FF2B78217801209943FFF7BCFFDD
:1002800070BDC0462F0400100404001010B51948BA
:10029000FFF78EFF0400601E844117486400FFF7DB
:1002A00087FF002801D004231C431448FFF780FF78
:1002B000002801D008231C431148FFF779FF0028CC
:1002C00001D010231C430F48FFF772FF002801D014
:1002D00020231C430C48FFF76BFF002801D040236C
:1002E0001C430A48FFF764FF002801D080231C4309
:1002F000200010BDD4030010A40100104C04001015
:10030000EC0300101404001030040010BC030010B3
:10031000F0B51F0006000020214B224D1B7885B050
:1003200053430192EA19D35C0C00834235D10A9BF6
:10033000F01A04F07BFE0B9B0290E01A04F076FEAC
:10034000174B2A191B7803905E43905D0A9A0A2680
:1003500053430B9AAD18EB5CC51804F09DFF039A4C
:10036000029B944663441900714305F067F9080045
:10037000310005F07DF86D104519002D03DDFF2DCE
:1003800002DDFF2500E00125054B019A1B780120C5
:100390005A431300034AD219D55405B0F0BDC046E4
:1003A0001C01001062070010F0B507000C001500DA
:1003B0001E0089B0EB1B012B02DC331B012B71DD0E
:1003C000EB19DA0FD3185B100493A319DA0FD318C3
:1003D0005B100393049A23002100019400953800D8
:1003E000FFF796FF3300049A31000196009538001C
:1003F000FFF78EFF039B2A0021000196009528003D
:10040000FFF786FF039B3A00210001960097380012
:10041000FFF77EFF244B1A78049B53439C46039BB3
:10042000634419000593214B595C002925D13900FB
:1004300051436A4398180692025D079113000A001F
:100440001A49805D89180A5D9A181218039B885D05
:1004500016491218C818079BC15C63465218134905
:10046000C9180B5D895D9C46069B6244C05C059B78
:1004700012188A180D49D210CA542100039B049AFD
:100480003800FFF791FF2A00330003990498FFF723
:100490008BFF2A002100039B0498FFF785FF049D32
:1004A000039C87E709B0F0BD1C0100106207001033
:1004B000F7B5224D224E2A783378224F5A43002333
:1004C0001800934203D0F91808700133F9E704F0DB
:1004D000E3FEFF2105F0B2F82C780131397004F009
:1004E000DBFE3378013CFF215C43019305F0A6F865
:1004F000013139552C7804F0CFFE3378013C5C4350
:100500000093019BFF21FB181C1905F097F8013C93
:100510000131217004F0C0FE009BFF21FF1805F09F
:100520008DF8013F01313970002134782A78631E3B
:10053000013A0800FFF738FFF7BDC0461801001068
:100540001C01001062070010F8B5184E0024350099
:10055000803504235B421F1BFFB2002239002000BC
:1005600003F0ACFA2B00803B1880220000213800F9
:1005700003F0A4FA002128803A00080003F09EFA54
:100580002B000022803318802100100003F096FA1F
:100590006B1CFF331880064B04340235E4B29D42D5
:1005A000D7D1300003F030FAF8BDC046BC010010CE
:1005B000BC02001010B502F0C7F96E22044B1A708D
:1005C000044B163A1A70044B573A1A7010BDC046C5
:1005D000180100101C01001048070010002370B51E
:1005E0001A0004000521180003F0F4FA0023052581
:1005F0001A001900022003F0EDFA042265430A4EA6
:1006000000237419A256E178032003F0E3FA0023D3
:10061000A95D1A00012003F0DDFAA17860780022BC
:1006200003F01AFB70BDC0460D6F000010B5FFF758
:10063000C1FF04F095FA04F001FEFFF785FFFFF714
:1006400037FF0121552308006B2202F0ABFF012187
:10065000552308006B2202F035FE14222C2137208E
:1006600002F0A4FF082341221800190003F084F8C7
:10067000104803F03BF90020FFF7B0FF02F0F2F85A
:10068000002815D00C4C2078FFF700FE2070FFF7F3
:10069000E1FD0A4B5B78002B04D00020FFF79EFFA2
:1006A000FFF706FF102003F0C1F902F069FCE5E74F
:1006B000012010BD006F0000480400100504001068
:1006C00010B5104801F0BCFC0F491048FFF786FD3B
:1006D0000F491048FFF782FD0F491048FFF77EFDD4
:1006E0000F491048FFF77AFD0F491048FFF776FDD4
:1006F0000F491048FFF772FD0F491048FFF76EFDD4
:1007000010BDC04611040010841201004C040010FA
:1007100070080100A401001088140100D403001027
:10072000941A0100BC0300106C060100EC030010D9
:10073000C4320100140400107C0E010030040010CB
:1007400010B50100014800F059FD10BD0005001072
:1007500010B5FF21024800F051FDC0B210BDC046E7
:1007600000050010F8B543B204000D00002B07DAB5
:1007700000217720FFF7F6FF012831D87F231C40A6
:10078000A026882380279B013606F750FFF7E0FF5D
:100790008A239B01F750FFF7DBFF2000FFF7D0FF14
:1007A000280EFFF7CDFF280CC0B2FFF7C9FF280ABB
:1007B000C0B2FFF7C5FFE8B2FFF7C2FF9520402C9B
:1007C00003D09438482C00D18630FFF7B9FF0A24B3
:1007D000FFF7BEFF030603D5013CE4B2002CF7D1BE
:1007E000F8BDFFFF73B58823A02480223F4D9B01F5
:1007F0002406E25028003E4900F0F6FC28000022C2
:10080000082100F0E5FC842364259B01E358013DA9
:10081000EDB2FFF79DFF002DF9D129004020FFF731
:10082000A1FF040001284BD1D52148204900FFF742
:1008300099FF012815D1FFF78BFF01AC2855013531
:10084000042DF8D1A378012B3AD1E378AA2B37D124
:10085000284D8021E920C905FFF784FF011E11D131
:1008600015E02900E920FFF77DFF4126012801D886
:100870000224E926204D00213000FFF773FF0028F5
:1008800020D116E0013DADB2002D19D0E1E77A206C
:10089000FFF768FF002813D10500FFF759FF6055E7
:1008A0000135042DF9D123780C245B060FD42C00DC
:1008B0000DE0802150208900FFF754FF002806D06A
:1008C000002404E0013DADB2002DF9D0D3E70B4B7D
:1008D000A0221C70882380219B011206D150FFF7B3
:1008E00037FF60426041C0B276BDC04600050010CF
:1008F000801A0600E02E0000A86100006A040010C3
:10090000F8B51D00244B07001B7816001B0700D408
:1009100049025120FFF726FF002801D0012431E0D1
:100920001E4CFFF715FFFF2804D1013CA4B2002C98
:10093000F7D1F3E7FE28F1D1194C641BA41BA4B234
:10094000002E07D1002F11D0013DADB201353E0080
:100950007D1904E0013EFFF7FBFEB6B2F0E7FFF7BA
:10096000F7FE30700136B542F9D105E0013DADB278
:10097000FFF7EEFE002DF9D1013CA4B2FFF7E8FE2F
:10098000002CF9D18823A02280219B011206D1508E
:10099000FFF7DEFE2000F8BD6A040010307500008D
:1009A00002020000064B1A68831ED168002002393B
:1009B0008B4203D250784343906918187047C04661
:1009C0006C0400100F4B10B51A6800230380836875
:1009D00004001800012B13D0D16801208B420FD2E4
:1009E000002B03D11178032900D15369E360002B58
:1009F00003D01800FFF7D6FF00E050692061002007
:100A000010BDC0466C040010F0B5040085B001288C
:100A100054D92C4B1D68EB6898424FD22E78022E89
:100A200032D0032E38D0012E48D181B24B08C918DC
:100A300089B24B0A0193244BCA05D20D296903AF31
:100A40009A4204D0019B3800591802230EE0019B02
:100A5000380059183300FFF753FF021E2ED12969C1
:100A6000019B0131C918330002A80530FFF748FF88
:100A7000002823D17B7838781B0203431811E20742
:100A80001DD41805000D1AE02B69C2B2010AC9185D
:100A9000520003AD330007E07F220423296902409E
:100AA000C4099200611803AD2800FFF729FF002850
:100AB00004D168782B780002184300E0012005B0CB
:100AC000F0BDC0466C040010FF01000070B5048842
:100AD00005000134A4B2002C01D1032322E00369F4
:100AE000002BFAD022071BD101330F4A0361C068E3
:100AF0001668002803D1B388A342EED910E07378BA
:100B00002209013B1A420BD1FFF77EFF01239842D5
:100B100008D9F3689842E0D2E860FFF743FF286104
:100B200000232C80180070BD6C040010F7B5040081
:100B30000D002B78202B01D10135FAE72F3B5A42CB
:100B400053410027ED18A7602B78202B01D901977E
:100B50002EE02000FFF736FF404B06001B689B6825
:100B60001F7078E0009B1B78002B68D00822009B48
:100B7000DB7A13405BD162680099581CC95CD35C76
:100B8000994254D103000B28F6D1D37A002B62D1BD
:100B90003B689868C37ADB0656D5437D017D1B020E
:100BA0000B43C27E1904837E120213430B43A360DE
:100BB0006068020003000B32934203D10022082137
:100BC000130013E0202119700133F5E72F2B12D009
:100BD0002E2B3BD091420ED91F00613F192F01D817
:100BE000203BDBB2571C8354FAB233005E1CEB5C33
:100BF000F6B2202BEAD8AD192026019A9E42524126
:100C0000C2722000FFF7DEFE061E16D1134F3B68AE
:100C10009B6800930F23228821691A4052011133E7
:100C20000098FFF76DFE00289CD0012613E02000FD
:100C3000FFF74CFF0028EDD00600032E0BD16368B0
:100C40000326DB7A002B06D1042604E00829D2D142
:100C50000A000331C9E73000FEBDC0466C04001035
:100C600070B5164B01001C6890B00620002C23D0F4
:100C70000023A3706B4608ADA56003A80493FFF79B
:100C800055FF002818D12B780330002B14D01023E7
:100C9000EE7A1E4010D16B7D297D1B02EA7E0B434C
:100CA0001904AB7E120213430B4363620F9B3000A7
:100CB00023620123E661A37010B070BD6C040010C4
:100CC0002F4BF7B51C68002307000D00019213801D
:100CD00006209C4253D0A3780138DB074FD5236A06
:100CE000E2699B1A8B4200D29DB20097002D45D03D
:100CF000E669F3051BD1700A617804F0B5FB0029A1
:100D00000BD1002E01D1606A02E0A06AFFF77CFEE1
:100D100001282FD90023A062E370A06AFFF742FEEA
:100D2000002827D0E3785A1C1818E270E062E369C3
:100D30002E1CDA058023D20D9B009B1A9BB29D428C
:100D400000D91E1CB6B2381E00D000983300E16AEC
:100D5000FFF7D6FD00280DD1E369AD1B9B19E361B8
:100D6000009BADB29B190093019B1B88F618019B59
:100D70001E80BBE700230120A37000E02800FEBD19
:100D80006C040010294BF7B51C680623002C4AD0D0
:100D9000A278013BD20746D5256A854200D90500D5
:100DA0000022E369E261954238D066787602002B32
:100DB00012D03100681E5F1E04F0D0FA310001909D
:100DC000380004F0CBFA019B834205D373423B40C9
:100DD000E361ED1AA06A01E0606AA062B5420CD935
:100DE000FFF712FE01281BD9E368984218D2E36985
:100DF000A0629B19E361AD1BF0E7E3695B19E36156
:100E0000FFF7D0FD00280BD06B0ADAB2ED0501D157
:100E1000E27003E00132C318E270E362002302E0F3
:100E20000023A37001331800FEBDC0466C040010FF
:100E300030B5154B04001B688DB00620002B20D068
:100E400004AD9D6001AB63602000FFF76FFE0028DA
:100E500015D12B78002B0FD0EB7ADB0601D40420C0
:100E60000FE06B7D297D1B020B43EA7E1904AB7EEC
:100E7000120213430B43A3602000FFF7A3FD0328D6
:100E8000EDD00DB030BDC0466C04001010B513009D
:100E90000A000100014800F031F810BD2B6F00007E
:100EA00000B589B072B6124902A800F070F8029B32
:100EB0000193013304D124220E490F48FFF7E6FFC6
:100EC000059B039A96201A60019200F098FA029B03
:100ED0000193013304D1242206490748FFF7D6FFC6
:100EE000039A069B96201A60019200F088FADEE7CA
:100EF00038230200886E0000D76E00000FB4012076
:100F000010B504F097F8FFFF036870B504000D00FA
:100F1000013304D1242206490648FFF7B7FF63686E
:100F2000002D01D0E26800E02269136070BDC04668
:100F3000886E0000D76E000070B50D00040016002A
:100F400000F078FB6B1C07D00021200000F09AFB1A
:100F50003100200000F090FB70BD10B50122FFF7BA
:100F6000EBFF10BD70B50D000400160000F062FB31
:100F70006B1C0BD031002000FFF7C6FF01212000C1
:100F800000F080FB0021200000F076FB70BD10B562
:100F90000022FFF7E7FF10BD10B50400034B083334
:100FA00003601C3000F048FC200010BD5C6F0000A6
:100FB00010B50400FFF7F0FF200000F0EDFA20006C
:100FC00010BDFFFF70B5050004000E4B0E00083386
:100FD00008C528001822002104F07CF80023200016
:100FE0003100E36123626363A363E364064A230081
:100FF0001C3000F0BFFB28003100FFF7AEFF2000DF
:1010000070BDC0465C6F00006710000003000A005E
:1010100010B51C300121002A04D01A6200225A6344
:101020000132110000F01CFC10BD030010B50A00D5
:101030001C30002903D000229963DA6401320221B6
:1010400000F00EFC10BD436910B50100002B04D167
:101050000368002B06D0984704E00068002801D000
:101060000431984710BD10B5012903D0022904D1DD
:10107000383000E02030FFF7E6FF10BD10B5040067
:10108000431C12D00B685A1C0CD09C4208D1200083
:10109000896800F00BFC0021200000F023FC04E034
:1010A0000C31EFE70148FFF729FF10BD6C6F00001E
:1010B00010B5030088420AD00B00421C07D0030081
:1010C0004A1C04D00348FFF719FF01235B421800B4
:1010D00010BDC0467D6F00000B685A1C05D08342CE
:1010E00001D1486802E00C31F6E718007047FFFFB5
:1010F00010B50400431C07D0FFF7EEFF0400431CAB
:1011000002D10248FFF7FAFE200010BD8E6F0000EA
:1011100010B5012003F08EFF074A13681818EFF38B
:101120000881884205D30C220120044B40421A60FA
:1011300001E0106018007047040100100831001031
:1011400010B5002801D0FFF7ABFEFEE7704710B5E1
:10115000040000F021FA200010BDFFFF73B5040069
:101160000E480025083020600820E0600C48261D4D
:10117000606106986560257225610090300000F07E
:10118000E9FC2B0030002269E16800F063FD3000CB
:10119000616900F095FD200076BDC046CC6F00006F
:1011A00040420F0070B5094D04002B6883420BD0FC
:1011B000061D0269C1680023300000F04BFD616923
:1011C000300000F07DFD2C6070BDC0467004001042
:1011D0000261002210B5034BC1601A60FFF7E2FF05
:1011E00010BDC04670040010002210B5024B4161D2
:1011F0001A60FFF7D7FF10BD7004001070B50D0026
:101200000400FFF7CFFF2900201D00F09DFD70BDF9
:1012100010B5040043684269991800F0BFF8E36A0A
:10122000002B04D1A369002B07D0984705E0A069E3
:10123000002802D021001C31984710BD10B50400D1
:1012400000F0B4F80023A361E36210BD10B5040000
:10125000044B08330360FFF7F1FF200000F0ACF807
:10126000200010BDE06F000010B50400FFF7EEFF96
:10127000200000F091F9200010BD70B50D000400B1
:1012800000F094F86561206900F068F829182000E2
:1012900000F084F870BD70B504000D0003681B6891
:1012A000984763681D6070BD036870B5DB68040013
:1012B000984763685A682368002A02D19B68984758
:1012C00013E05B681568984763682D1A5A68002D0B
:1012D00007DC916859601B68002BEAD0506898477A
:1012E000E7E7236810681B69984770BD70B50D006B
:1012F00072B64B60002346680A607468002C05D003
:101300002168511A02D42300A468F7E7002B05D105
:10131000036875601B691000984700E09D60AC6031
:1013200062B670BD10B572B6426853688B420CD17C
:101330009B6853600268002B02D1936898470BE0CA
:1013400012691868904707E01300002B04D09A68D0
:101350009142F9D18A689A6062B610BD10B50368EF
:101360005B68984710BD10B503689B68984710BD2F
:10137000084B10B508330360002343608360C360EB
:10138000040000F025F804492061FFF784FF2000E5
:1013900010BDC046F46F00006713000010B50A00CE
:1013A0000300011D0069FFF7A1FF10BD10B5011D6D
:1013B0000069FFF7B7FF10BD10B50400034B0833F9
:1013C0000360FFF7F3FF200010BDC046F46F00007C
:1013D000004870471C70000010B50248FFF764FF1A
:1013E00010BDC0461C70000070B5040000F0E8FCA1
:1013F000050000F0E5FC401BA042FAD370BDFA23C3
:1014000010B59B005843FFF7EFFF10BD70B50A4CB5
:10141000A568A3682A00002B0AD180225E595205D4
:101420009A1804331660C02BF7D180225205A260AF
:1014300010308000815070BD00ED00E07FB580204D
:101440003F494002CA6F8E240243CA67232200200C
:1014500020253C4B3C499A60223A0A603B49A40053
:101460000A60186219593A4A114001910199A94339
:10147000C825019101992D02294319510090354841
:101480000099814204D8C046009901310091F7E7E4
:101490000121002019645964586459645C6C29481E
:1014A0000C42FBD08E218026C825890044582D028D
:1014B00014400394039C34430394039C2C434450F2
:1014C00023248460445822400292029CB443029434
:1014D000029A2A4342500120DC681A490122044240
:1014E000FAD00320086700204A67486710004A675F
:1014F0005C6F144A01210442FAD08E20916780006B
:101500001558154C2C4014501558144C2C401450A0
:1015100000209164D164D064D164DA6C0A42FCD0BA
:101520002321084A1161012259691142FCD000228D
:101530000B4B1A601A600B4B01321A607FBDC0461C
:101540000480044000800440F0400440F440044023
:10155000FF250000C3090000FFFBFFFFFFFEFFFFA8
:10156000C0800440C880044070477047704770478F
:101570007047002310B5934203D21C585C500433CB
:10158000F9E710BD00231A008B4202D21A5004332F
:10159000FAE770470020704710B503F091FD10BDC9
:1015A00010B50400431C04D11E2217491748FFF749
:1015B0006DFC174B1A68002A06D101321A60154AD1
:1015C0001549D36F0B43D3670122002C12D0134B64
:1015D0009C420FD0124B9C420CD0124B9C4209D023
:1015E000114B9C4206D0114B9C4203D0104BE1188A
:1015F0004A424A412000110000F058F90120A40499
:10160000E40EA04010BDC04624700000DC6E000057
:101610007C040010048004404000010028140000F5
:101620002C16000030180000341A0000381C00008E
:10163000C4E1FFFF70B505000C0029604B1C11D000
:101640000800FFF7ADFF2414074BA400E318EB607C
:10165000064B6860E3182B61054BE3186B61054B83
:10166000E418AC6070BDC046002200A0802200A03B
:10167000002100A0002000A010B5006800F032F9A1
:1016800010BDFFFF036870B504000D00013304D1E5
:10169000432209490948FFF7F9FB002D06D0012D27
:1016A00009D1A268636811680B4303E0A26861680E
:1016B00013688B43136070BD24700000D76E000068
:1016C000F7B501210D008540134C636A2B4221D0F0
:1016D000124B8600F058019300281BD023682B4240
:1016E00018D163682B4206D0E3692B4203D00C4B20
:1016F0001B689847E5612369074F2B4209D03B6A75
:101700002B4206D0064B019A1B680221905998473C
:101710003D626562F7BDC046004000A08404001031
:101720008004001010B50020FFF7CAFF10BD10B5EF
:101730000120FFF7C5FF10BD10B50220FFF7C0FF65
:1017400010BD10B50320FFF7BBFF10BD10B504207E
:10175000FFF7B6FF10BD10B50520FFF7B1FF10BDB4
:1017600010B50620FFF7ACFF10BD10B50720FFF73E
:10177000A7FF10BDF7B505002748814202DD012013
:10178000404248E02548264C02600020820016595D
:101790000096002E3BD11351224C2860E36F224F5C
:1017A000224E3B43E3671F248B0349120C40182150
:1017B000A44604009B0F59435E346144A400A15128
:1017C00081210124890071589B000F002100814074
:1017D0000F4339008127BF00F151A021802609065F
:1017E0005B18B60199592700019161468F40019914
:1017F00040B2B94399510E4BD158FFF707FE1F2253
:101800002B68009813409C400A4B1C6003E0013099
:101810000828BBD1B3E7FEBD1311020080040010FD
:10182000840400100480044080000900008004400B
:101830007070000000E100E000210368064A9B0090
:1018400010B59950012281210068044C8240890022
:1018500063589343635010BD84040010008004401B
:1018600003680120984070B50F4C2368034200D1F3
:101870006062C54326680C4B2E402660012909D1C1
:10188000002A03D05A68104358600CE05A6815408B
:101890005D6008E0002A03D01A691043186102E075
:1018A0001A6915401D6170BD004000A070B50400AC
:1018B0000D00431C04D1152207490848FFF7E6FA3A
:1018C000074BE405E40DE418072322681D409A4302
:1018D0001543256070BDC04690700000DC6E0000AE
:1018E0000040044070B504000D00431C05D11D22CA
:1018F0000F491048FFF7CAFA06E081231B019842FE
:1019000014D00D4B984211D00C4BE405E40DE418B3
:101910002368042D04D18022D2001343236005E004
:101920001822ED00934315401D43256070BDC0464D
:1019300090700000DC6E0000140A000000400440BB
:1019400070B50C1C05000021201C03F0CDFE002802
:1019500009D1FE21201C890503F0DAFE002803D0FE
:10196000FE24A40500E0002480232D689B00E85895
:1019700004F06AFD211C04F063FA03F009FF8123DF
:101980009B00E85070BD8023F7B5812704689B0059
:10199000E258BF00E059E15001920D0004F054FDFF
:1019A000061C019804F050FD011C301C04F07EF868
:1019B000061C280004F000FD011C301C04F040FA55
:1019C00003F0E6FEE051F7BDF7B50F000600504901
:1019D0003800FFF78DFBC3B20500FF2B02D14D4845
:1019E000FFF78CFA4C4B01211A7801931000084044
:1019F000031E04D00A410B000A4200D081E00124FA
:101A000021009940019A4548127873600A43019970
:101A10000A70434A99008A5809333260C26F110034
:101A2000802212061143C1672000984003003D4AFE
:101A300038005268364913433A4A5360FFF71EFB99
:101A40003768394A3B68394913430C223B607B684D
:101A500013437B607A68364B13407B607B6801934D
:101A6000344B186803F07AFCFE2301381B01400157
:101A70001840019B18437860E8B207281DD803F08E
:101A800063FC040A1016040A1016A023DB00FC50A5
:101A90000222294B10E0A123DB00FC500222274B3D
:101AA0000AE0A223DB00FC500222254B04E0A32322
:101AB0000222DB00FC50234BFA508022C12352014A
:101AC0009B00FA500123C0225B4292001E49BB508A
:101AD0000C32B950043ABB5080231C499B00F9508A
:101AE000FB58053A9B08FF3ABB5004227B68300044
:101AF00093437B60FFF747FF30000021FFF720FF93
:101B0000F7BD1348FFF7FAF901235B4277E7C046B8
:101B1000D870000044710000A40400100480044048
:101B200070710000008004400100060040420F0078
:101B30001FF0FFFF08010010040500000C05000065
:101B4000140500001C05000001100000204E0000DC
:101B50005E710000F0B5334E87B000910400310093
:101B6000009801920293FFF7C3FA2F4D0700290056
:101B70000198FFF7BDFA2D4903900298FFF7B8FAD4
:101B80002B4904900C98FFF7B3FA0399059038009D
:101B9000FFF78EFA059907000498FFF789FA01000C
:101BA0003800FFF785FA2060431C04D14822214900
:101BB0002148FFF76BF92368204A93420FD0204A4F
:101BC000934219D180201F49C002CB6F1E4A0343A4
:101BD000CB6701211D4B1960536803310AE0802057
:101BE00018490001CB6F184A0343CB670121184BFA
:101BF000196053680B43536031000098FFF73EFAB9
:101C000029000198FFF73AFA08490298FFF736FAD7
:101C10000C9B013303D006490C98FFF72FFA07B04D
:101C2000F0BDC046C072000078710000B4710000C1
:101C3000FC720000FC7100004572000000000440CE
:101C40000080054004800440008004409C800440E3
:101C500094800440F8B50E000221140002681D00B3
:101C6000536807008B435360331F0C2B06D9032C9A
:101C700004D9652210491148FFF708F98023E001D3
:101C80000340013E1E43A30734003968DB0F0A6896
:101C90009B01120C12041C4314430D220C604B6870
:101CA00093436A1E95410222AD001D434D604B686F
:101CB00013434B60F8BDC046FC7100005972000030
:101CC000F7B5022405000E0002685368A343536071
:101CD0001A4B1B6801932100019803F03FFB04F0AD
:101CE0006BFB071C300004F067FB011C381C03F081
:101CF000DDFEFC21890503F063FD05F053F803F0D8
:101D0000FDF805F019F8FF280FDC2B680C4A1C6160
:101D1000196801380A4002211A601A68000210434B
:101D200018605A680A435A6007E0802302345B0057
:101D30009C42D0D10348FFF7E1F8F7BD080100103D
:101D4000FF0000FF9772000002220368D86810426B
:101D5000FCD004229960D9681142FCD09868704781
:101D6000104B70B51A68002A1AD1012580210E4A3D
:101D70001D60D36FC9000B43D3670C4B0C4C186824
:101D800002230C49636003F0E9FA0138E0600A4974
:101D900065601320FFF73AFB8022084B12031A609C
:101DA00070BDC046A8040010048004400801001063
:101DB0000080014040420F00D913000000E100E024
:101DC000044B10B51B68002B01D1FFF7C9FF024B74
:101DD000986810BDA8040010008001400121034B49
:101DE00098615A690A435A617047C04600800140B1
:101DF0000121024A53698B435361704700800140BF
:101E00000122014B1A607047008001407047704703
:101E10007047FFFFFF22014B1A707047AC0400109F
:101E200010B502F0A7F810BD0D4B30B51A8800238D
:101E30009A4213D1FF250B4C0B4AE15C002902D0DA
:101E4000D15C013104E0D05C002804D0FF2801D12E
:101E5000D15400E0D5540133072BEED130BDC0463C
:101E6000BE040010F82E0010AE040010034B185CE6
:101E7000013843425841C0B27047C046AE0400101A
:101E8000002210B51D4B19781A701D4A5078002891
:101E900001D001201870D078002803D002241878CF
:101EA000204318701078002803D0042418782043A9
:101EB00018709078002803D00824187820431870F0
:101EC0001079002803D01024187820431870507916
:101ED000002803D020241878204318709279002A13
:101EE00003D040201A7802431A701B78054A180064
:101EF00008409943044B1070197010BDAD040010D8
:101F0000F82E0010B6040010B5040010014B18792B
:101F10007047C046F82E0010014B58787047C046F5
:101F2000F82E0010014BD8787047C046F82E0010EC
:101F30000023094A1380094A1370094A1370094A99
:101F400013700122084B52421A80084A084B1A604B
:101F50000922084B1A707047BE040010BD0400101F
:101F6000C4040010B7040010BA040010047D00007F
:101F7000C0040010BC04001010B50248FFF7D8FFE1
:101F800010BDC046B804001037B572B60021042257
:101F9000244B802559601961234BED001A608E2275
:101FA000224B92009C582C4380259C509C586D00DD
:101FB0002C439C5001225A671400596719004B6F3B
:101FC0001A4D01222340FAD114002B676A676B6710
:101FD0004B6F164A2340FBD18E245364516CA400EE
:101FE0009360136753601559114929408025019169
:101FF00001992943C825019101992D0229431151C5
:10200000A02284211206890153500A4953500A49DB
:1020100053500A4B9860001C01688D464068804709
:1020200037BDC046004000A010E000E00080044042
:10203000FF250000042100000821000000ED00E061
:102040007047FFFFF0B5C1B00E0000F04DFD00F08D
:1020500057FD8023DB029B1B0400984200D91C0023
:1020600000F038FD8027134801F04CFC00257F006C
:10207000A5421CD280216846490000F00FFDFF28D0
:1020800004D8631BBB4201D90B4806E0A819694676
:1020900002F098FC002804D0084801F033FC01202D
:1020A00006E001350648FF3501F020FCE0E700209E
:1020B00041B0F0BD6E7E00007A7E0000957E00008B
:1020C000E77E0000F7B501260024514B514D1E70EC
:1020D000514B1C80FC23DB002B8000F033FD2100E2
:1020E000200000F04DFD300001F054FB00940194FD
:1020F00006F087FC0421494800F0AAFCA0420FD159
:1021000000F0F2FC0820404200F0D0FC04216846B8
:1021100000F0C4FC042101A800F0C0FC00F0DAFCCF
:1021200001273F4E7F423F4C2368B34200D03E4CD4
:102130002368B34200D03D4C2368B34200D03C4CEE
:102140002368B34217D020233A485B422B8001F02A
:10215000D9FB009B002B03D0374B019A9A4240D801
:10216000364801F0CFFB364801F0CCFBFC23DB0006
:102170002B80344820E0344B34482B8001F0B6FBF0
:102180000A2160682F8001F030FC6368009A934256
:1021900027D3A068FFF7F8FE17E0FFF7C3FE00287B
:1021A00034D1FFF7B9FE0028F7D001990098FFF766
:1021B00049FF002826D0264801F0A4FB05E0FFF7E0
:1021C0005FFEFFF7A3FE002804D1FFF79FFE002863
:1021D000F5D01BE0FFF79AFE002817D0FFF750FE5E
:1021E000F8E71C4B1C482B8001F080FB00980A216B
:1021F0002F8001F0FAFBFC231848DB002B8001F054
:1022000081FBCEE7164801F07DFB8CE7F7BDC046A9
:10221000160100100E010010600700105B7F000027
:102220001EAB07B0F4FF030004FF030004FE03002D
:1022300004F00300637F0000FF7F0300777F00004E
:102240005B6F00008E7F0000FF070000A97F000089
:10225000B37F00001FF8FFFFD97F0000ED7F000073
:10226000CF7F0000F8B50024012001F093FA454B20
:10227000FC271C8000F066FC434D444B44482B80F7
:1022800001F022FA0123434E30213370424BFF000C
:102290001C70424B60201C702F8001F039FB4048BD
:1022A00001F024FB3821602001F032FB3D4801F0B1
:1022B0001DFB4021602001F02BFB3B4801F016FB89
:1022C0004821602001F024FB384801F00FFB602119
:1022D000282001F01DFB364801F008FB013C354881
:1022E0002C8001F003FB34482F8001F0FFFA022319
:1022F0002C80337002F034FC043485B2FFF7C0FD4B
:102300007821682001F004FB0A21200001F050FB35
:1023100002F026FCFA239B00EB18984203D902F046
:102320001FFC013C85B201F09DFE002808D001F0A1
:1023300099FE041E02D0FFF7A3FDF8E7FFF7C2FEE7
:1023400001F084FE002807D001F080FE002802D0B2
:10235000FFF796FDF8E7040001F07EFE002802D1A9
:10236000002CCBD106E001F077FE002802D0FFF769
:1023700087FDF8E70123337000F0E4FB002001F053
:1023800009FAF8BD600700100E01001000F8FFFF09
:10239000A0790000160100101701001010010010B4
:1023A00012800000178000001C80000021800000C7
:1023B000268000002C80000030800000F0B5714CB9
:1023C0001E0023888BB005000F0004920993002E95
:1023D00006D00020322300901A00010000F0C4FB58
:1023E000FC23DB002380002E16D001F0CBF9040083
:1023F000012001F0CFF901F04BFD39000200143942
:10240000681EC9B2C0B20A2301F0D6FA5E4801F0D4
:102410006DFA200001F0BEF9049B0B2B02DC5B4A35
:10242000584B1A803BB203930123594C009328B2B6
:102430002200039900F0AEFB049B172B02DC534BE8
:10244000504A1380ABB21D00012608352DB205930A
:102450002200330003992800009600F09BFBBBB2DA
:102460000693043B1BB207930096330022000799A2
:10247000280000F08FFB049B2F2B01DD454B00E073
:10248000424B0124059D424E3E4A10352DB2138029
:102490000399230032002800009400F07BFB230006
:1024A000320007992800009400F074FB069B00940A
:1024B000083B1BB20893320023000899280000F063
:1024C00069FB049B5F2B02DC304A2E4B1A800124EF
:1024D000059D2F4F18352DB223003A00039928008F
:1024E000009400F057FB23003A000799280000945D
:1024F00000F050FB23003A0008992800009400F0F7
:1025000049FB069E23000C3E36B200943A0031008F
:10251000280000F03FFB049B9F2B02DC1B4A194B59
:102520001A800125059C1A4F203424B22B003A0052
:1025300003992000009500F02DFB2B003A0007992D
:102540002000009500F026FB2B003A00089920009F
:10255000009500F01FFB2B003A0031002000009591
:1025600000F018FB06992B0010393A0009B20095CB
:10257000200000F00FFB6A46024B928C1A800BB0D1
:10258000F0BDC0460E010010BF8000008A5200005E
:102590008A86000000F8FFFFF7B50025012601201C
:1025A00001F0F8F88A4B20201D7001F041FC01F089
:1025B0006FFC03F049FF874B041C1D703500864BF0
:1025C0001B78002B00D101E1002D00D1FEE0012D90
:1025D00000D095E0814D002E36D0012700F0B2FAF0
:1025E0007F42102120202F8000F0CAFA7C4801F0A1
:1025F0007DF99921282000F0C3FA7A4801F076F994
:10260000FC237948DB002B8001F070F977482F809C
:1026100001F06CF9FC235821DB0000202B8000F036
:10262000AFFA734801F06EF9724F380001F06AF9A1
:10263000380001F067F9380001F064F9380001F062
:1026400061F96D4801F05EF99921302000F098FAA7
:1026500001F01EFC252802DC01235B4200E0674BF1
:102660002B800223664A00933021013BA42000F016
:1026700091FA3621182000F083FA624801F036F909
:102680004221182000F07CFA01F002FC282801DD2C
:102690005D4800E05D48FC2701F028F90223FF00B7
:1026A0005B4A2F8060210093A420013B00F072FA66
:1026B0006621182000F064FA564801F017F97221DB
:1026C000182000F05DFA01F0E3FB252802DD4B4BFA
:1026D0002B8000E02F8001F0DBFB0A2101F068F97C
:1026E0004D4801F003F9FC23DB002B8001F0D0FB07
:1026F0000023020076217020FFF760FE02255EE7CE
:10270000022D00D060E7FFF7BBFB01F09FFC002823
:1027100008D001F09BFC002801D105004FE7FFF72E
:10272000AFFBF6E701F0AAFC00282CD08421201C86
:10273000C90502F0F7FF002807D03849201C02F035
:10274000D3FF002808D0364909E08421201CC905A0
:1027500002F0E8FF002801D0324900E03249201C95
:1027600003F02EF83149041C02F0D2FF002802D0F9
:10277000FF2001F05DFB2E49201C02F0C9FF00285C
:102780001BD02B4C19E001F073FC002800D116E798
:102790002449201C03F068FC8421C905041C02F0B4
:1027A000ADFF002802D0202001F042FB0021201CB8
:1027B00002F09AFF002800D00024201C03F0DAFD6C
:1027C00000B201F017FB00260125F8E6F7BDC04670
:1027D00017010010C8040010C60400100E010010FC
:1027E0003B800000547F00004F80000051800000BB
:1027F0005C800000778000009280000000F8FFFFFE
:10280000468600000F7F0000AD800000B78000000A
:1028100068860000C2800000BF8000000000044203
:10282000CDCC4C3C0000A03F0000204000005042B6
:1028300000007F43012210B5084B00201A7000F001
:10284000A9FF074800F040FF02F07AF902F090F982
:1028500001F090FB02F08AF910BDC046C6040010DA
:1028600038730000014B18787047C046C60400104A
:10287000F7B50024FC2725005826FF00292D48D84D
:1028800002F06EF9234B1A689042F7D91E30186097
:10289000012D0BD0002D02D0022D22D035E01E4B91
:1028A00028001D8000F05CF901252EE0FC21E2B239
:1028B000C900002001F022F9184B194A18806E2334
:1028C00051781078490840081C34181A711A00957C
:1028D0002B00A4B200F05EF9FE2C16D900240225CC
:1028E00013E00E4B0E4A1F806E231078517840087B
:1028F000181A49086D3B0093711A00F04BF93F34E8
:10290000084BA4B29C4200D9FF25FFF7FFFA00282C
:10291000B4D0F7BDF0300010600700100E010010B9
:102920003C810000FF03000010B5202001F080FA78
:102930001022034B1A80034BEF321A7010BDC046B1
:102940003E2D0010C5040010F8B5FFF773FF1022EC
:102950000124FF252D4B1A702D4B1C602D4B1D7033
:10296000FFF7E2FFFFF752FA28000025FFF74FFAC2
:10297000FFF756FAFFF758FAFFF74AFA00F0FBF8AC
:10298000FFF776FF200000F005FF234F3D8000F0A9
:10299000D9F8224E300000F097FE200000F0FAFE39
:1029A000FC221F4BD2001A803D8000F0CBF8300093
:1029B00000F08AFE1B4F1C4E3D703470FFF752FC36
:1029C000FFF7EAFD01F048FA280000F0E3FE174B9C
:1029D00017481C70174B3C701C70347000F074FE6C
:1029E00001F0DCF8FFF716FA0520FFF73FFA0100C7
:1029F000A84207D1104B1B78AB4203D00F4801F01F
:102A0000B9F902E0002001F0F5F9F8BDC7040010A3
:102A1000CC040010C504001060070010A07900006D
:102A20000E01001017010010100100101601001017
:102A30003C76000012010010AC0400102E81000052
:102A400010B5024800F052FE10BDC046C904001087
:102A500070B50F4D06002B780C00102B0BD03000FA
:102A60002C70FEF7FDF8041E0DD13100094802F06C
:102A700061FC20000AE0084805F002FF0300012085
:102A8000002BECD002E0082301202B7070BDC04663
:102A90000C01001018050010D004001013B56B468F
:102AA0009C1D2200FEF70CF9208816BD10B5074BBF
:102AB000002804DADA6941428A4200D25042DB69D6
:102AC000C018FEF75FF9024B187010BDD00400105B
:102AD0002705001010B50020FEF754F9014B1870BF
:102AE00010BDC04627050010034B10B5186AFEF74D
:102AF00049F9024B187010BDD004001027050010D2
:102B0000014BD8697047C046D004001001238122D0
:102B100013B5074C5B4200935201064B0649200057
:102B2000FEF71CFB054A06492000FEF733FD13BDE6
:102B300000050010180C0000241200000001001015
:102B40004D11000010B5002001F06CFB0023024A7B
:102B50001380024A138010BD580700105E07001052
:102B600010B501F05FFB10BD13B504AC24880094D0
:102B700001F00FFD13BD10B501F0B2FB10BDFFFF5A
:102B8000024B1880024B19807047C046580700104E
:102B90005E070010F0B58FB00B9114A909780A9068
:102BA0000891117805915178023209910092012B18
:102BB00076D1059B0733DB100C936B461B8D079377
:102BC0000493002303936B460C21595E059B8B42B3
:102BD00000DCF0E00723CA171A405218D21053B293
:102BE0000A93764B0B4004D50822013B5242134313
:102BF000013380221BB21A416B469B8D0D920693C6
:102C00000293002301936B4604229B5E099A934230
:102C10003EDA0C9A0A995343009A5218D35C0D9AE3
:102C20001A422DD0089B664C012B09D1069B0199B5
:102C300003985918079B2288181809B200B21DE0A2
:102C40006B461027DF5F6B4608269E5F22883100A7
:102C5000380001F083FC049B31005D1C2DB22288FA
:102C6000280001F07BFC029B22885E1C36B23100FA
:102C7000380001F073FC31002800228801F06EFC5E
:102C8000019B01330193029B02339BB20293BAE78B
:102C9000039B01330393049B02339BB2049392E79B
:102CA000042B00D087E00023099A934200DB82E0E6
:102CB0009BB202936B469B8D00250793029B079A5C
:102CC0005B00D3189BB21AB201331BB204936B465C
:102CD0001B8D039206930193059BAB4267DD009B1E
:102CE000384A1B7812681B115B009E5A089B022B06
:102CF00019D1069B6C001C19A4B227B20134320012
:102D00000399380024B201F029FC32000399200015
:102D100001F024FC32000499200001F01FFC320075
:102D20000499380007E0029B079A99186B46320015
:102D30000420185E09B201F011FC0F22009B1B78E1
:102D40001340204A5B0012689E5A089B022B1AD13E
:102D5000069B6C001C19A4B2A71C3FB203343200BE
:102D60000399380024B201F0F9FB320003992000E6
:102D700001F0F4FB32000499200001F0EFFB320077
:102D80000499380007E0029B079A99183200019BCA
:102D900009B2581C00B201F0E1FB009B023501337F
:102DA0000093019B2DB202339BB2019394E7029BE7
:102DB00001331BB278E70FB0F0BDC04607000080BA
:102DC0000E0100104C070010F0B513004D4A8DB0F5
:102DD0000B9010680491427811000592F72208398F
:102DE0000A40511E8A410599C91052180992099941
:102DF00002784A43511C4B431A008218127905335A
:102E000052B20A920022C31803926A46127B0A99B0
:102E100052B291426BDD09991A78022903D001332D
:102E2000089393B204E0991C5B7808911B0213434A
:102E300000936B469B89002506936B469B8D0793F9
:102E4000069B079A5B00D3189BB21AB201331BB2E0
:102E500001920293059BAB4244DD0122009B134289
:102E60000ED0294B1B78022B07D1049B6C00E41871
:102E7000264EA4B227B2328811E0244B1A8822E0F1
:102E8000234E244B32881B88934225D01E4B1B783F
:102E9000022B18D1049B6C00E418A4B227B23900AD
:102EA0000198013401F05AFB24B2328839000298AB
:102EB00001F054FB32882100019801F04FFB328869
:102EC0002100029806E0049B0798E918069B09B2C6
:102ED000181800B201F042FB009B01355B0800931B
:102EE0006DB2B7E7039B01330393089B8DE7002086
:102EF000094B18560A9BC018034B1B7858430DB05A
:102F0000F0BDC04654070010160100100E0100105D
:102F1000600700101A0100101701001010B5124BC5
:102F20001888124BC2B21B78012B03D1FF21002855
:102F30000AD00EE0022B07D101331A401100930092
:102F400019430A01114304E00F23110103401943FF
:102F5000C9B2074B074A186802F0BCF80023064ABA
:102F60001380064A138010BD520700101101001093
:102F700040050010D0250000580700105E07001023
:102F8000064B10B51968064B186801F029FB054B74
:102F90001B78002B01D1FFF7C1FF10BD4C070010BB
:102FA000400500104807001010B5024800F08EFDE3
:102FB00010BDC0463E7E00000A4B10B51B889342F0
:102FC0000ED0094B1C7883B29C4209D9074B8CB2B6
:102FD0001B78A34204D94343054800684118CA54EA
:102FE00010BDC0461A010010180100101C0100108D
:102FF00040050010F0B51300274A87B00490106810
:1030000005914778F722390008390A40511E8A4154
:10301000F91052180292029902784A43511C4B430C
:103020001A0082181279053352B203926A46158A41
:10303000C318049A0399AA1A52B2914224DD029A43
:103040001C78022A03D001330193A4B204E09A1C35
:103050005B7801921B021C430026B74210DB059BE4
:1030600028B2F11801231C4201D00C4B00E00C4B9C
:103070001A7809B20136FFF79FFF640876B2ECE7D1
:103080000135ADB2019BD4E70020064B1856039BD7
:10309000C01807B0F0BDC04654070010140100105E
:1030A0005207001017010010084B1A7883B29A4299
:1030B0000BD9074B8AB21B78934206D9054A434382
:1030C00012685118044A1288CA5470471801001037
:1030D0001C0100104005001014010010F0B585B06F
:1030E000019313000C00009200229A5E0021435EBF
:1030F00005009A4204DA2300009D019C0090019390
:103100000023EE5E494B1B7802939E4201DB0027B1
:1031100089E0002E18DA009B0021595E0029F6DBB9
:103120000023E75E019B891B0020185E09B2C01BCB
:10313000000200B202F09CF9002300B2764246433E
:103140003612F71927802B80009B00269E5F029B7A
:10315000B34217DC019B29880027DF5F0023E05E74
:10316000711A381A000200B209B202F081F9029B0A
:1031700000B2013B9E1B4643019A3612F719178095
:10318000009A1380019B00229A5E0021635E9A429E
:1031900005DA2300019C01932B00009D009300237E
:1031A000E65E234B1B7802939E42B0DA002E18DABB
:1031B000019B0021595E0029A9DB0023EF5E009BE3
:1031C000891B0020185E09B2C01B000200B202F089
:1031D0004FF9002300B2764246433612F7192F808A
:1031E0002380019B012700269E5F029BB3421ADCCD
:1031F000009B218800229B5E711A03930023E85EE6
:10320000039B09B2181A000200B202F031F9029BC6
:1032100000B2013B9E1B4643039A3612B618009A31
:103220001680019A1380380005B0F0BD1801001017
:103230001C01001070B50F4B15001B788AB20600F8
:10324000934202D8AAB2934212D90B4B1A78B3B266
:103250009A420DD9A94202DD0B0029001D000C0085
:10326000A54205DB21B23000FFF71EFF0134F7E76E
:1032700070BDC0461C0100101801001070B50F4B46
:1032800016001B7882B20D00934202D88AB2934294
:1032900012D90B4B1A78B3B29A420DD9A84202DD6B
:1032A000030028001D000400A54205DB20B2310008
:1032B000FFF7FAFE0134F7E770BDC04618010010B1
:1032C0001C010010F0B589B006ACA61D07AC21802A
:1032D00006A90B803D4B8D1C2A801A78308080B265
:1032E000904219D23A4B21881B78994214D22988EE
:1032F000914211D206AA12889A420DD20023F05EA2
:103300000023E95E884210D106AB00229A5E0023BA
:10331000E15EFFF78FFF56E006AB2A002100300088
:10332000FFF7DCFE0028E9D14DE00023E25E06ABAA
:1033300000241B5F9A4202D1FFF7A0FF43E0050083
:103340001600884203DD441A0121494201E00C1AAB
:10335000012103919A4203DDD21A01235B4201E06D
:103360009A1A0123019300230293A24204DD230051
:1033700014001A0001230293530004931F1B6300DF
:10338000059300230093009B9C421CDB31B228B2C2
:10339000FFF78AFE002F09DB029B012B02D1039B62
:1033A000ED1801E0019BF618059BFF1A029B012B0B
:1033B00002D1019BF61801E0039BED18049BFF1856
:1033C000009B0133DEE709B0F0BDC04618010010D4
:1033D0001C010010F8B5060014000F00CB181DB238
:1033E00034192A0024B2FFF725FF2A0039002000F3
:1033F000FFF720FF3A0030002100FFF73FFF2A00CF
:1034000030002100FFF73AFFF8BDFFFFF8B5821842
:10341000CB1805000C0012B21BB2002801DA002AFA
:103420002DDB174909788D4201DB914227DD002C05
:1034300001DA002B23DB134909788C4201DB994226
:103440001DDD954202DC11002A000D009C4202DCC9
:10345000190023000C00161C002A00DA002636B2E0
:10346000191C002B00DA00210FB2AE4207DA30003F
:10347000220039000136FFF7DDFE36B2F5E7F8BD70
:10348000180100101C010010F0B587B0002878D09A
:103490003D4B1B78984201DB581E00B23B4A147822
:1034A000042C07D13A4A11784143CA0F51184910E8
:1034B00089B20AE0022C64D10321354A12784243D2
:1034C000D51729408A18921091B2324A1588019571
:1034D000314D2D8815802E4A00282DDD1278181ABE
:1034E000D5086C430294002425000490049884427B
:1034F0001BDA2800491B89B203916F46461BFE82E6
:10350000FE8A0399B446029E411889B2B44508DA8E
:10351000461CB446214E715C31546146F982F88AEA
:10352000EBE70134A4B20500E0E71D491BB200201F
:10353000095E12B200201EE012789BB25443174F6E
:10354000E41085B202940393039BAB420FD90C00A5
:10355000661A029BB6B29E4205DA661CB6B2BB5D25
:103560003B553400F4E70135ADB22100ECE7002112
:103570000300080012B2FFF749FF6A46054B928824
:103580001A8007B0F0BDC0461C01001011010010E8
:1035900018010010140100105207001062070010FB
:1035A0005E07001010B5FFF715FF10BDF0B589B02C
:1035B0006B4601260D00070002921C89331B1BB2CB
:1035C000009363005B421BB206938BB2E11809B211
:1035D0000493FFF769FDABB2191B380009B2FFF77E
:1035E00063FDBBB2E01800B229000193FFF75CFD58
:1035F000019B2900181B00B2FFF756FD37007B1E08
:10360000029A1BB29A425CDD009B002B0CDB13007C
:10361000013B1BB20293069B02339BB21AB2069285
:10362000009A9B181BB200937D00009AABB20593E1
:1036300001339B181BB20093019BDC196B461B895D
:10364000A4B20393039A049B26B29D182DB22900BD
:103650003000FFF729FD059B2900E41A24B2200061
:10366000FFF722FD049B039A30009D1A2DB229001A
:10367000FFF71AFD29002000FFF716FD019B039AB2
:103680009E18049B36B2DD19ADB22BB21900300082
:103690000793FFF709FD039A019B07999C1A24B22F
:1036A0002000FFF701FD059B3000ED1A2DB2290027
:1036B000FFF7FAFC29002000FFF7F6FC7B1C9FB205
:1036C0009DE709B0F0BDFFFF054B064A186003787F
:1036D000013313704378044A013313707047C046B6
:1036E0005407001051070010500700100E4A0F4BEE
:1036F00010B504001A60FFF757FC01220C4B0D486F
:103700001A700D4BDB321A800C4B2C3A1A80FFF7E3
:10371000DBFF11220A4B20001A800022094B1A807D
:10372000094B08321A7010BD6207001040050010E6
:103730005D07001038730000460500105A0700109E
:103740001A010010520700104405001010B5084B74
:1037500009B21B6800B29B78D21A064BD2B21B7812
:10376000002B02D0FFF730FB01E0FFF743FC10BD58
:10377000540700105D07001010B5C9B2C0B2FFF7C2
:10378000E5FF10BD024B1878431E9841C0B2704748
:103790005D07001009490A4A0A4B002805D001209C
:1037A0000870DC211180B02205E008700649097814
:1037B0001180064A12781A807047C0465D070010D3
:1037C000460500105A070010180100101C010010D7
:1037D00010B50B4C0B490023E25E0B4B09881B68AC
:1037E0005B785800091A0948007840B28A4203DD24
:1037F000C018FFF749FE02E0C3189B18238010BDD4
:103800005E0700105A070010540700101001001046
:1038100070B52B4B04001A68D378002B03D06028B6
:1038200001D9203CE4B20E2C21D8200001F08CFDFF
:10383000461F1F1F1F1F1F1F0E1F081F1F1B460095
:103840000022204B1A80FFF7C3FF37E01D49107894
:103850000B882022181A1C4B80B208801978C0B23D
:10386000FFF774FF2AE00022164B1A8026E0154D60
:1038700012780023E85E154B1B889B1A98420BDBDD
:1038800000232B80124B1B78002B17D0FFF7A0FFD3
:103890000D4B2878197802E00B4BC0B21978220042
:1038A000FFF754FF202C06D10A4B1B785BB2002B8C
:1038B00001D0401001302B881818288070BDC046F8
:1038C00054070010580700105E070010460500104E
:1038D000120100101701001010B504002078002814
:1038E00003D00134FFF794FFF8E710BD10B5FFF7E0
:1038F000F3FF10BD10B50D20FFF78AFF0A20FFF778
:1039000087FF10BD10B5FFF7E7FFFFF7F3FF10BD0E
:10391000024B1880024B19807047C04658070010B0
:103920005E0700100023F0B5050089B00E00984234
:1039300003D13020FFF76CFF1CE05C1C28006B44B7
:1039400031001F0001F090FD28003970310001F0B6
:1039500005FD2300051EF0D16B46013C1B5D1800E0
:103960003730C0B2092B01D83033D8B2FFF750FF3F
:10397000002CF1D109B0F0BD10B5041E03DA2D20E2
:10398000FFF746FF64420A212000FFF7CBFF10BD7E
:1039900010B5002903D1C0B2FFF73AFF07E00A29AA
:1039A00002D1FFF7E9FF02E0C9B2FFF7BBFF10BD8C
:1039B00010B5FFF7EDFF10BD10B5044C2080044892
:1039C000018019001000FFF7E3FF10BD5807001039
:1039D0005E07001010B5002903D1C0B2FFF718FF31
:1039E00002E0C9B2FFF79EFF10BD10B5FFF7F2FF6E
:1039F000FFF780FF10BDFFFF10B50248FEF720FB68
:103A000010BDC0465C0700108021002310B5054A98
:103A10008900C45AD45202338B42FAD1024B1A6045
:103A200010BDC046480500104C070010F3B5FFB0AC
:103A300000283FD0404240B241001F4A00281ADD12
:103A40000D00802400236D446400D65A0130EE52EC
:103A50000233A042F9D100234C428025E018AD008A
:103A600040196D46105AE85202339942F5D180212F
:103A70000023890018E0FF30002384464C421719C8
:103A8000634505DC68465D007E5B01334653F7E71E
:103A90000023A342EBD080256E465818AD00401994
:103AA000D55A02333552F4E76846C05AD052023331
:103AB0008B42F9D17FB0F3BD480500108910490150
:103AC000D210C0100A43C00210437047F8B58027D7
:103AD00004000025074E7F00A27861782078FFF768
:103AE000EDFF6B000135F0520334BD42F4D1024BBF
:103AF0001E60F8BD480500104C07001070B51F246B
:103B0000050025400C40641B23B253431B12EB18E5
:103B10003F2544114E112C40C00A3540C9122D1BBF
:103B2000091A55434A4312122D1280181BB2641908
:103B3000021C002800DA002212B2D202181C002B4C
:103B400000DA00201043231C002C00DA00231BB2F3
:103B50005B01184380B270BD0B4B8A00D35810B57F
:103B60008000C35809480A4C13501B88094A107832
:103B70001A004243D2B262541B12934200DD13007A
:103B80004343054A535410BD542D0010442D0010DA
:103B9000482D00103C2D0010582D001010B500F0DD
:103BA0008DFE012000F010FE01220021054B0800CF
:103BB0001A70054B03321A70044A054B1A60FFF75E
:103BC000CBFF10BD3C2D0010342D0010908600005E
:103BD000542D001010B50C00002B2CD104282AD82D
:103BE00001F0B2FB030F141B220000234CB29C42D5
:103BF00004DB231C0A2C00DD0A23DBB20E4A1370FF
:103C000019E000212000FFF7A7FF14E00B4B1B7801
:103C10005C430B4B1C700B4B0CE0084B1B785C435C
:103C2000094B1C70094B05E0044B1B785C43084BA7
:103C30001C70084B1A7010BD362D00103C2D001062
:103C40004A2D0010612D0010632D00104E2D001024
:103C50004C2D00104F2D0010002A11D1094B187067
:103C6000094B1B785943094B1970094B09491A70C4
:103C7000094B1A8001230B7008490B70084B1A700E
:103C80007047C046332D00103C2D0010412D001010
:103C9000322D0010622D0010502D0010422D00100A
:103CA000382D001010B50024054B1B78A34201D01D
:103CB000044B1C78200000F0A1FD034B1C8010BDBC
:103CC000422D00104B2D00109030001010B5002830
:103CD0000FD1084B1870084B1870084B1880084B10
:103CE0001870084B1870084B1870084B1870FFF7C5
:103CF000D9FF10BD622D0010412D0010502D001075
:103D0000382D00104B2D0010602D0010422D00109A
:103D100010B5041E03D1FFF7D9FF014B1C7010BD75
:103D2000372D001070B50C0005000800FFF7F0FFFC
:103D3000094BA200D5500023084A61008B52012193
:103D4000074A1155074A08311155074A1355074AC2
:103D50001355074A135570BD5C2D00103A2D001005
:103D6000372D0010362D00104A2D0010632D001045
:103D70004C2D001010B5002901D1FFF7D3FF10BD65
:103D800010B5134B1978002920D0124A1248137825
:103D900000780133DBB21370984217D801240F4822
:103DA000037863400370002313700D4B1B78002BC6
:103DB0000AD043230B4A107858434730C0B21070E2
:103DC00001F052FB084B1970FFF76CFF10BDC046A5
:103DD000602D0010402D0010492D0010422D0010C4
:103DE0004D2D00101D0100104B2D001010B5FFF7D8
:103DF000C7FF10BD10B5031C002800DA00230A4AD3
:103E00001BB21288934200DD13B2084A1380DA0F06
:103E1000D3185B100A3B1BB2181C002B00DA0020E1
:103E2000C0B200F0A5FC10BD1E0100103E2D001018
:103E300010B5002803DBFF2802DDFF2000E0002092
:103E4000034B1880034B0020185EFFF7D3FF10BD13
:103E50001E0100103E2D0010054B10B518882028BB
:103E600001D9103000E0083000B2FFF7C3FF10BDE9
:103E70003E2D0010054B10B51888202801D9203898
:103E800000E0083800B2FFF7B5FF10BD3E2D00106E
:103E9000014B18887047C0463E2D001010B50248EF
:103EA000FEF7CEF810BDC046352D00100122014BA3
:103EB0001A717047F82E00100022014B1A717047DA
:103EC000F82E00100122014B5A717047F82E001095
:103ED0000022014B5A717047F82E00100122014B4D
:103EE0009A717047F82E00100022014B9A717047AA
:103EF000F82E00100122014B5A707047F82E001066
:103F00000022014B5A707047F82E00100122014B1D
:103F1000DA707047F82E00100022014BDA707047FB
:103F2000F82E00100022014B9A707047F82E0010F6
:103F30000022014B1A707047F82E001010B5054B87
:103F40009A79002A02D0FFF787FF01E001229A70D8
:103F500010BDC046F82E001010B5054B9A79002A06
:103F600002D0FFF787FF01E001221A7010BDC046A2
:103F7000F82E001010B5204C20492000FDF755F810
:103F800020001F49FDF742F81E4C1F492000FDF795
:103F90004CF820001D49FDF739F81D4C1D49200043
:103FA000FDF743F820001C49FDF730F81B4C1C4975
:103FB0002000FDF73AF820001A49FDF727F81A4CBF
:103FC0001A492000FDF731F820001949FDF71EF8C5
:103FD000184C19492000FDF728F820001749FDF773
:103FE00015F8174C17492000FDF71FF81649200057
:103FF000FDF70CF810BDC046002F0010B93E0000C0
:10400000AD3E0000502F0010D13E0000C53E000024
:10401000642D0010E93E0000DD3E0000A82E0010D7
:10402000013F0000F53E0000B42D0010193F0000D4
:104030000D3F0000082E0010313F0000593F0000E6
:10404000582E0010253F00003D3F0000014B18791D
:104050007047C046F82E0010014B58797047C04693
:10406000F82E0010014B98797047C046F82E0010CA
:10407000014B18787047C046F82E0010014B987815
:104080007047C046F82E001070B52648FFF72EFB8B
:10409000254E26493000FCF795FF254D254C2A007A
:1040A00021003000FDF776FA234E24493000FCF75A
:1040B00089FF2A0021003000FDF76CFA204E2149CB
:1040C0003000FCF77FFF2A0021003000FDF762FA84
:1040D0001D4E1E493000FCF775FF2A0021003000FC
:1040E000FDF758FA1A4E1B493000FCF76BFF2A0007
:1040F00021003000FDF74EFA174E18493000FCF74A
:1041000061FF2A0021003000FDF744FA144E1549E2
:104110003000FCF757FF2A0030002100FDF73AFA83
:1041200070BDC046042E0010002F00108412010044
:1041300000010010990F0000502F001070080100BE
:10414000642D001088140100A82E0010941A01009C
:10415000B42D00106C060100082E0010C4320100BE
:10416000582E00107C0E0100074B1A8882420AD09C
:104170001880A023054A06491B0699500549C0002E
:104180005850002199507047A02F0010882000003F
:104190000700F8FF8821000070B58A23A0240422BC
:1041A00024069B01E2508023054D5B046351FFF719
:1041B000DBFF8023034A5B01A350635170BDC046FF
:1041C000042200008422000070B58823A024042269
:1041D00024069B01E2508023054D5B046351FFF7E9
:1041E000C3FF8023034A5B01A350635170BDC046E7
:1041F000042200008422000010B5074C074920006B
:10420000FDF7E2FB20000521FDF7BDFB044920007E
:10421000FDF796FB10BDC046A42F0010FC04020061
:104220009A99993E10B504002020FFF7B5FF0020B1
:10423000FFF7CAFF2120FFF7AFFF0020FFF7C4FF01
:104240002220FFF7A9FF2000FFF78EFFA02388227E
:1042500004211B06920199508021074A4904995074
:10426000802106484901064C99500138195199504E
:104270000028FAD110BDC04604220000409700007B
:104280008422000010B52020FFF786FF0020FFF7F2
:104290009BFF2120FFF780FF0020FFF795FF2220E2
:1042A000FFF77AFF0020FFF75FFFA0238822042199
:1042B0001B06920199508021064A49049950802199
:1042C00005484901054C9950013819519950002869
:1042D000FAD110BD042200004097000084220000A3
:1042E00070B5A02501247C4E2D06FFF785FFAC514B
:1042F0000A20FDF784F8794B0A20EC50FDF77FF88F
:10430000AC510A20FDF77BF82000FFF745FF8E2017
:104310004000FFF759FF0220FFF73EFF80204000DA
:10432000FFF752FF0320FFF737FF6D48FFF74CFF01
:104330000820FFF731FF8120C000FFF745FF0B2069
:10434000FFF72AFF0020FFF73FFF0C20FFF724FFB5
:104350000020FFF739FF0F20FFF71EFF2000FFF7B7
:1043600033FF2020FFF718FF0020FFF72DFF21204B
:10437000FFF712FF0020FFF727FF1020FFF70CFFC9
:104380000020FFF721FF1120FFF706FF80204001EA
:10439000FFF71AFF0A20FDF732F83020FFF7FCFE86
:1043A0000020FFF711FF3120FFF7F6FEDB20FFF7BB
:1043B0000BFF3220FFF7F0FE0020FFF705FF332050
:1043C000FFF7EAFE0020FFF7FFFE3420FFF7E4FED0
:1043D000DB20FFF7F9FE3520FFF7DEFE0020FFF7B8
:1043E000F3FE3620FFF7D8FEAF20FFF7EDFE3720B3
:1043F000FFF7D2FE0020FFF7E7FE3820FFF7CCFEE4
:10440000DB20FFF7E1FE3920FFF7C6FE0020FFF7B3
:10441000DBFE0A20FCF7F3FFFF20FFF7BDFE0320C1
:10442000FFF7D2FE5020FFF7B7FE2E48FFF7CCFE75
:104430005120FFF7B1FE2C48FFF7C6FE5220FFF7D0
:10444000ABFE2A4D0520FFF7BFFE5320FFF7A4FE69
:104450002800FFF7B9FE5420FFF79EFE2448FFF71F
:10446000B3FE5520FFF798FE224C0320FFF7ACFE69
:104470005620FFF791FE2000FFF7A6FE5720FFF71A
:104480008BFE1D48FFF7A0FE5820FFF785FE280091
:10449000FFF79AFE5920FFF77FFE2000FFF794FEFA
:1044A000B020FFF779FE1548FFF78EFEFF20FFF7DB
:1044B00073FE0020FFF788FE0720FFF76DFE10480F
:1044C000FFF782FEC820FCF79AFF2220FFF764FE68
:1044D000FFF7D8FE70BDC046042200008422000011
:1044E0003010000003020000090A00002110000043
:1044F0000206000003070000070500000125000078
:1045000017100000F8B5050017000C001E00ADB232
:104510003720FFF741FE2800FFF756FE3620FFF751
:104520003BFEB8B2FFF750FEA4B23920FFF734FECD
:104530002000FFF749FE3820FFF72EFEB0B2FFF74C
:1045400043FE2020FFF728FE2800FFF73DFE212034
:10455000FFF722FE2000FFF737FEF8BD70B584B2EA
:104560001600DB2C14D88DB2AF2D11D82020FFF708
:1045700013FE2800FFF728FE2120FFF70DFE200084
:10458000FFF722FE2220FFF707FE3000FFF71CFE98
:1045900070BDF7B51C0008AB1B8807000E001500A6
:1045A0000193824201DC451C2DB2B44201DC741C33
:1045B00024B26B1E621EDBB2D2B2F9B2F0B2FFF7C8
:1045C000A1FF2220FFF7E8FDED1BA41B6C43002C8C
:1045D00004D00198FFF7F8FD013CF8E7F7BDFFFFB5
:1045E000F7B5040020200D00FFF7D6FD0020FFF7EF
:1045F000EBFD2120FFF7D0FD0020FFF7E5FD222095
:10460000FFF7CAFD524BE3180193230026005833ED
:10461000009333785B005F5B3800FFF7D5FD38000F
:10462000FFF7D2FD73785B005F5B3800FFF7CCFDCE
:104630003800FFF7C9FDB3785B005F5B3800FFF718
:10464000C3FD3800FFF7C0FDF3785B005F5B380007
:10465000FFF7BAFD3800FFF7B7FD33795B005F5B0A
:104660003800FFF7B1FD3800FFF7AEFD73795B004E
:104670005F5B3800FFF7A8FD3800FFF7A5FDB379B1
:104680005B005F5B3800FFF79FFD3800FFF79CFD84
:10469000F37908365B005F5B3800FFF795FD380063
:1046A000FFF792FD009BB342B3D123785B005E5BC2
:1046B0003000FFF789FD3000FFF786FD63785B006F
:1046C0005E5B3000FFF780FD3000FFF77DFDA378D3
:1046D0005B005E5B3000FFF777FD3000FFF774FD95
:1046E000E3785B005E5B3000FFF76EFD3000FFF7A4
:1046F0006BFD23795B005E5B3000FFF765FD3000EA
:10470000FFF762FD63795B005E5B3000FFF75CFDE5
:104710003000FFF759FDA3795B005E5B3000FFF7C7
:1047200053FD3000FFF750FDE37908345B005E5B1A
:104730003000FFF749FD3000FFF746FD009BA34224
:10474000B3D11C00019BA34200D05EE7F7BDC04679
:10475000D025000070B504000D001822002100F0E3
:10476000B9FC29002000FCF712FC200070BDFFFFFF
:104770007F23812110B50A4C8EB018402070094A61
:104780000901684600F036FB22785E21684600F099
:104790007CFB2478684600F077FB20000EB010BD4B
:1047A000C4300010140A0000002210B5044B102081
:1047B0001A70044B01321A70FFF7DAFF10BDC046C1
:1047C000C4300010DC2F001070B5094C05002368C0
:1047D000013304D1242207490748FCF757FB002D79
:1047E00001D0E36800E0236962681A6070BDC046CA
:1047F000AC2F0010886E0000D76E0000A022802130
:10480000030012064905D80701D5284800E02848CA
:104810001150A02280215B1012068905D80701D50E
:10482000224800E022481150A02280215B1012068D
:10483000C905D80701D51D4800E01D481150A02228
:1048400080215B1012060906D80701D5174800E041
:1048500017481150A02280215B1012064903D80787
:1048600001D5144800E014481150A02280215B10AB
:1048700012068903D80701D50E4800E00E481150F2
:10488000A02280215B101206C903D80701D5094870
:1048900000E00948115080215B100904002B01D071
:1048A000044B00E0044BD1507047C0460422000086
:1048B00084220000082200008822000010B50C4C61
:1048C0000C492000FDF780F820001F21FDF75BF860
:1048D00020000949FDF734F80848094B5A21836143
:1048E0000023C362FCF7C9FCFFF75EFF10BDC046A2
:1048F0004030001040270200CDCCCC3DF82F0010F6
:10490000ED3D000010B5194C2000FCF731FD184BAF
:10491000184A236000231849A361E3622000FCF7D2
:1049200039FE16491648FFF715FF16491648FFF7D6
:1049300011FF16491648FFF70DFF16491648FFF7F5
:1049400009FF16491648FFF705FF16491648FFF7F5
:1049500001FF16491648FFF7FDFE16491648FFF7F6
:10496000F9FE16491648FFF7F5FE10BDF82F0010A6
:10497000E86F0000000100104D120000D038010067
:1049800028300010D43A0100AC300010D83C0100AF
:1049900048300010DC3E0100603000104429020065
:1049A000C42F0010482B0200E02F00104C2D0200F5
:1049B00094300010502F020078300010A422010023
:1049C000AC2F0010F0B585B00600029172B64D4BC9
:1049D000984202D8050B2B0313E04B4B1C25984241
:1049E0000CD84A4B013D984208D8494B013D9842AA
:1049F00004D8484D8542AD416D421835464BEB1801
:104A00009B039B1B59425941CBB201933223434C28
:104A1000434F23606560434BA560390020009847F1
:104A2000404A3B680392002B01D0012068E0E42259
:104A30009202964260D1019B002B3BD0012301934F
:104A40003423FA212360384B890018686560A5601B
:104A500000F084FC324FE060324B39002000984770
:104A60003B68002BE1D13233236065602D4BA5609C
:104A70003900200098473B68002BD6D1019B002BC2
:104A800018D133232360029BFA21A36080235B00AB
:104A9000E360254B89001868666000F05FFC204DDC
:104AA0002061290020001F4B984728680028BCD1AE
:104AB00062B625E03B232360E023FA219B0063607C
:104AC0001A4B8900A360184B186800F047FC144F7C
:104AD000E060144B3900200098473B68002BA4D1BC
:104AE0003233236065600F4BA56039002000984782
:104AF0003B68002BC5D098E7019A002AC1D09EE7F9
:104B000005B0F0BDFF7F0100FF7F0300FFFF020043
:104B1000FF7F0200FFFF0100EEFF0300C83000101E
:104B2000DC300010F11FFF1F08010010FF03000020
:104B3000024A13680A3313607047C046EC30001015
:104B4000044B054A07215A6000229A601960034B02
:104B50001A60704710E000E0FF520700EC300010D0
:104B6000014B18687047C046EC3000107047FFFFDB
:104B7000A023802104201B0689015A5810B5024346
:104B800080205A50294A4001995801438020995069
:104B90009958400401430120995099580143995074
:104BA000234924485A5802435A5023480021FCF70D
:104BB00099FE00212148FCF795FE00212048FCF7D2
:104BC00091FE00211F48FCF78DFE00211E48FCF7D6
:104BD00089FE00211D48FCF785FE00211C48FCF7DA
:104BE00081FE00211B48FCF77DFE00211A48FCF7DE
:104BF00079FE00211948FCF775FE00211848FCF7E2
:104C000071FE00211748FCF76DFE00211648FCF7E5
:104C100069FE00211548FCF765FE00211448FCF7E9
:104C200061FE00211348FCF75DFE10BD042000006A
:104C300008200000F8FF0700000702000409020036
:104C4000080B02000C0D0200100F020014110200EC
:104C5000181302001C15020020170200241902007C
:104C6000281B02002C1D0200301F0200342102000C
:104C7000382302003C250200036870B504000D00D3
:104C8000013304D1242206490648FCF7FFF8636883
:104C9000002D01D0E26800E02269136070BDC046BB
:104CA000886E0000D76E0000036810B50400013361
:104CB00004D12C2205490648FCF7E8F863696068CE
:104CC0001B681840431E984110BDC046886E000006
:104CD000D76E000010B50121FCF7D4FC10BD70B5F3
:104CE00004002500FFF7F6FF1835606BFCF77CFB2E
:104CF00028000121FFF7C0FF01212000FFF7BCFFC2
:104D0000606BFCF771FB00212000FFF7B5FF606BC3
:104D1000FCF76AFB28000021FFF7AEFF606BFCF791
:104D200063FB70BD10B50400FFF7D4FF606BFCF7A8
:104D30005BFB00212000FFF79FFF606BFCF754FB3B
:104D4000200001211830FFF797FF606BFCF74CFB48
:104D500001212000FFF790FF10BDF8B504000F00FF
:104D60000825FFF7B7FF606BFCF73EFB0121013D13
:104D7000A9402600394020001836FFF77DFF0121A9
:104D80003000FFF779FF606BFCF72EFB002130004D
:104D9000FFF772FF002DE6D101212000FFF76CFF25
:104DA000F8BD70B504002500FFF794FF1835012108
:104DB0002000FFF761FF01212800FFF75DFF0021C0
:104DC0002000FCF75FFC04212000FCF755FC606B21
:104DD000FCF70AFB00212800FFF74EFF2000FFF739
:104DE00063FF0023984203D1606BFCF7FDFA0123B7
:104DF000180070BDF8B5182604000D00170000213A
:104E0000320000F067F929002000A519FCF7A5F889
:104E100032002800002100F05DF939002800FCF77D
:104E20009CF82800FFF756FF28000421FCF724FC1B
:104E30002000FFF74FFF04212000FCF71DFC23009A
:104E40000026012730331E7028006763FFF742FFFA
:104E50002000FFF73FFF39002000FFF70DFF310072
:104E60002800FFF709FF606BFCF7BEFA2000FFF790
:104E700059FF2000FFF756FF2000FFF753FF2000E7
:104E8000FFF750FF2000F8BD704770B50D00160009
:104E90000400FFF724FF0123290020009943FFF7B6
:104EA0005CFF2000FFF77DFF31002000FFF755FF7A
:104EB0002000FFF776FF2000FFF734FF70BDFFFFF3
:104EC00010B5064B0648197800F0D2FA054B186069
:104ED00039235843044B188010BDC04620010010F0
:104EE000983A0000F8300010F430001010B5024875
:104EF000FDF7A6F810BDC046FC300010454AF8B5D5
:104F0000564692464B005B0D9A444D465F464446DA
:104F10005246F0B4894605000C000E000700132A23
:104F200022DC002A47DB52463B4B134198460B00DC
:104F300042461340034311D0384A394B01F0C2FABC
:104F40000022002300F0AAFB002805D0002C41DB42
:104F50004E46434600279E43380031003CBC9046F5
:104F60009946A246AB46F8BD5246332A08DD802357
:104F7000DB009A45F2D102000B0001F0A3FAEDE745
:104F8000284A9446012263445242DA409346024240
:104F9000E4D0224A224B01F095FA0022002300F0CF
:104FA0007DFB0028D8D0002C1ADB5B464E469F4381
:104FB00038003100D2E7194A194B01F083FA002278
:104FC000002300F06BFB0028C6D0002C16DB002766
:104FD0000026C1E7802352465B0313419944B7E79B
:104FE0005346142B12D03423524601279B1A9F405C
:104FF0007F19AF429B415B429944D6E76400640845
:1050000025430027002DA7D0074EA5E7133B9C465C
:10501000E144CAE701FCFFFFFFFF0F009C75008819
:105020003CE4377EEDFBFFFF0000F0BFC317C01864
:1050300058407047084B10B50400002B02D00021E7
:1050400000E000BF054B1868836A002B00D098472A
:105050002000FCF775F8C046000000000087000043
:105060000E4B70B500251E000D4CE41AA410A5428D
:1050700004D0AB00F35898470135F8E703F0A2FBE2
:10508000084B00251E00084CE41AA410A54204D0C9
:10509000AB00F35898470135F8E770BDD0870000A2
:1050A000D0870000D0870000FC87000010B5034BBC
:1050B0000100186800F062F810BDC04684010010BD
:1050C00010B5034B0100186800F00CF810BDC04685
:1050D0008401001003008218934202D0197001333A
:1050E000FAE7704770B50500002944D00C1F23680B
:1050F000002B00DAE418280000F024F91E4A136897
:105100001100002B02D16360146031E0A3420DD97D
:105110002268A018834203D118685B688218226055
:1051200063600C6024E0A24203D813005A68002A8E
:10513000F9D11E689819A0420BD12168711858182E
:105140001960824214D110685268411819605A607F
:105150000EE0A04202D90C232B6009E02168601800
:10516000824203D1106852684118216062605C601D
:10517000280000F0E8F870BD04310010032370B57A
:10518000CD1C9D43083506000C2D01D20C2501E0F5
:10519000002D01DBA94202D90C23336048E0300026
:1051A00000F0D0F8234B1C681A002100002913D00E
:1051B0000B685B1B0DD40B2B02D90B60CC181EE0C7
:1051C0008C4202D1636813601AE04B6863600C0084
:1051D00016E00C004968E9E7174C2368002B03D15F
:1051E000300000F095F820602900300000F090F8C1
:1051F000431C18D00323C41C9C43A0420DD125603E
:10520000300000F0A0F8200007220B30231D90434F
:10521000C31A0ED05A42E2500BE0211A300000F0BF
:1052200077F8431CEBD10C233000336000F08BF88F
:10523000002070BD0431001000310010104B70B51B
:105240001C680500A36B002B15D11820FFF72EFF5B
:105250000C4BA06303800C4B012243800B4B8380DB
:105260000B4BC3800B4B03810523438106338381A2
:105270000023026143610022A36B1D615A6170BD6E
:10528000840100100E330000CDABFFFF341200008C
:105290006DE6FFFFECDEFFFF154B10B51C68A36B3E
:1052A000002B15D11820FFF701FF124BA0630380DC
:1052B000114B01224380114B8380114BC380114B52
:1052C0000381052343810633838100230261436107
:1052D000A46B0D4A206961690C4B00F02DFA012284
:1052E000002380185941206161614800400810BDC9
:1052F000840100100E330000CDABFFFF341200001C
:105300006DE6FFFFECDEFFFF2D7F954C2DF451582D
:10531000002370B5064C050008002360FBF7FCFE77
:10532000431C03D12368002B00D02B6070BDC04606
:1053300008310010031C0A7801311A700133002A69
:10534000F9D170477047704702B471464908490067
:10535000095C49008E4402BC7047C04600224308E5
:105360008B4274D303098B425FD3030A8B4244D32D
:10537000030B8B4228D3030C8B420DD3FF2209026F
:1053800012BA030C8B4202D31212090265D0030B2E
:105390008B4219D300E0090AC30B8B4201D3CB0324
:1053A000C01A5241830B8B4201D38B03C01A524166
:1053B000430B8B4201D34B03C01A5241030B8B4268
:1053C00001D30B03C01A5241C30A8B4201D3CB0253
:1053D000C01A5241830A8B4201D38B02C01A524138
:1053E000430A8B4201D34B02C01A5241030A8B423B
:1053F00001D30B02C01A5241CDD2C3098B4201D353
:10540000CB01C01A524183098B4201D38B01C01AD0
:10541000524143098B4201D34B01C01A5241030947
:105420008B4201D30B01C01A5241C3088B4201D3F6
:10543000CB00C01A524183088B4201D38B00C01AA3
:10544000524143088B4201D34B00C01A5241411ACA
:1054500000D20146524110467047FFE701B50020D7
:1054600000F0F0F802BDC0460029F7D076E770479B
:1054700003460B437FD4002243088B4274D30309B5
:105480008B425FD3030A8B4244D3030B8B4228D356
:10549000030C8B420DD3FF22090212BA030C8B427C
:1054A00002D31212090265D0030B8B4219D300E01C
:1054B000090AC30B8B4201D3CB03C01A5241830BA1
:1054C0008B4201D38B03C01A5241430B8B4201D351
:1054D0004B03C01A5241030B8B4201D30B03C01A7A
:1054E0005241C30A8B4201D3CB02C01A5241830AF4
:1054F0008B4201D38B02C01A5241430A8B4201D323
:105500004B02C01A5241030A8B4201D30B02C01A4C
:105510005241CDD2C3098B4201D3CB01C01A5241B3
:1055200083098B4201D38B01C01A524143098B423C
:1055300001D34B01C01A524103098B4201D30B0125
:10554000C01A5241C3088B4201D3CB00C01A52414A
:1055500083088B4201D38B00C01A524143088B420F
:1055600001D34B00C01A5241411A00D201465241A8
:10557000104670475DE0CA0F00D04942031000D3C7
:105580004042534000229C4603098B422DD3030A1C
:105590008B4212D3FC22890112BA030A8B420CD32C
:1055A000890192118B4208D3890192118B4204D355
:1055B00089013AD0921100E08909C3098B4201D3D5
:1055C000CB01C01A524183098B4201D38B01C01A0F
:1055D000524143098B4201D34B01C01A5241030986
:1055E0008B4201D30B01C01A5241C3088B4201D335
:1055F000CB00C01A524183088B4201D38B00C01AE2
:105600005241D9D243088B4201D34B00C01A5241B8
:10561000411A00D20146634652415B10104601D345
:105620004042002B00D54942704763465B1000D3CF
:10563000404201B5002000F005F802BD0029F8D075
:1056400016E770477047C0468446101C62468C4679
:10565000191C634600E0C0461FB501F003FB00289B
:1056600001D40021C8421FBD10B501F057FA4042D5
:10567000013010BD10B501F0F5FA002801DB002063
:1056800010BD012010BDC04610B501F0EBFA002896
:1056900001DD002010BD012010BDC04610B501F095
:1056A0007DFA002801DC002010BD012010BDC0469D
:1056B00010B501F073FA002801DA002010BD0120B6
:1056C00010BDC0468446081C6146FFE71FB500F0C8
:1056D00073FB002801D40021C8421FBD10B500F0A3
:1056E000FFFA4042013010BD10B500F065FB002804
:1056F00001DB002010BD012010BDC04610B500F038
:105700005BFB002801DD002010BD012010BDC0465C
:1057100010B500F00DFB002801DC002010BD0120B9
:1057200010BDC04610B500F003FB002801DA0020D0
:1057300010BD012010BDC046F0B54F464646C0B46E
:105740001604360C9946330005042C0C070C150C76
:1057500063437E436F4365431C0CAD1964199C463B
:10576000A64203D980235B02984647446346250C32
:10577000EF191D044B464A4343432D0C240464197E
:105780009918C91920000CBC90469946F0BDC04636
:105790009E2110B5C905041CFFF7C4FF002803D1E2
:1057A000201C00F0E7FD10BD9E21201CC90500F063
:1057B0005BFC00F0DFFD80231B069C466044F2E7A3
:1057C000F8B54A02430244004E00C50F240E2800DB
:1057D0009B09360EC90F92098D4259D0A01B002893
:1057E00000DC8DE0002E1AD1002A00D079E05A07A3
:1057F00004D00F221A40042A00D004335A0138D5AD
:105800000134FF2C00D189E028009B015B0AE4B23F
:105810005B02E4055B0A2343C0071843F8BDFF2C75
:10582000E5D08021C9040A431B2800DD89E0160069
:105830002021C640081A8240511E8A4132439B1AD9
:105840005A0114D59B019E09300001F0FFFA05387A
:105850008640844265DC041B330020200134E34091
:10586000041BA640721E964100243343BFE75A072B
:10587000BFD1DF082800FF2C2FD1002F00D187E0F7
:105880008022D20313003B435B025B0AFF24BFE785
:10589000A11B002949DD002E29D0FF2CA7D080268E
:1058A000F60432431B2900DD8DE017002026CF408F
:1058B000711A8A40511E8A413A439B185A01D6D523
:1058C0000134FF2C64D0012276491A405B080B405A
:1058D00013438CE7031ECAD100207B025B0AE4B2AB
:1058E00096E701380028AAD0FF2C9DD17FE7002A37
:1058F00000D17CE701390029DFD0FF2CD2D176E737
:10590000002820D1601CC0B2012853DD80279E1AD8
:10591000FF0437402FD0D61A0D0095E7280000234A
:1059200076E7614B241A334061E700294DD1611CB1
:10593000CEB2012E2FDDFF292AD09B185B080C0068
:1059400055E701227BE7002C1BD1002B5BD0C04325
:1059500000280CD0FF2E7ED01B2800DD92E01D0019
:105960002024C540201A8340581E83412B43D31A5C
:1059700034000D0064E7002E00D065E7002000240D
:10598000ABE7FF2E67D08024E40440422343E3E7E3
:10599000FF2400233CE7002C61D1002B7ED0002A9D
:1059A00000D124E79B185A0100D460E73E4A0C005E
:1059B00013401CE7002C1ED1002B2FD1002A66D0EB
:1059C00013000D0013E7012277E7002C1FD1002BF5
:1059D0005AD0C94300290BD0FF2E50D01B295FDCC1
:1059E0001F002024CF40611A8B40591E8B413B433E
:1059F0009B18340062E7002B1CD1002A4AD0130008
:105A00000D00FF24F3E6130034000D00EFE6FF2E37
:105A100035D08024E40449422343DFE7002A00D143
:105A2000E5E68027981AFF04074000D152E7D31A11
:105A30000D00DCE6FF24002A00D1D8E68020DB0838
:105A4000C003034204D0D208024201D113000D006A
:105A5000DB00FF24CBE61300FF240D00C7E6002B7C
:105A60000DD0FF24002A00D1C1E68021DB08C90344
:105A70000B42EDD0D2080A42EAD11300E8E7130046
:105A8000FF24B4E6012372E713003400AFE60027D9
:105A9000002022E780270020FF03F1E61300A6E69E
:105AA0000123A5E7FFFFFF7DFFFFFFFBF0B5564693
:105AB00044465F464D46F0B444024600C70F83B0EB
:105AC0008846650A360EBA463DD0FF2E22D0002306
:105AD000EC00802599469B46ED0425437F3E4346D6
