:1000000000800010FD000000F7140000F91400004B
:1000100000000000000000000000000000000000E0
:10002000000000000000000000000000FB140000C1
:100030000000000000000000FD14000081500000DE
:10004000F5140000F5140000F5140000F51400008C
:10005000F5140000F5140000F5140000F51400007C
:10006000F5140000F5140000F5140000F51400006C
:10007000F5140000F5140000F5140000F51400005C
:10008000F5140000F5140000F5140000F51400004C
:10009000F5140000F5140000F5140000F51400003C
:1000A000F5140000F5140000F5140000F51400002C
:1000B000F5140000F5140000F51400000000000025
:1000C000808F00000001001088000000808F000079
:1000D0000000002000000000808F00000040002091
:1000E0000000000088010010C8500000000000203F
:1000F00000000000004000200000000010B5104C7F
:10010000104B9C4206D2A2686168206801F0F7F9A2
:100110000C34F5E70C4B9C4205D26168206801F075
:10012000F7F90834F6E701F04FF9084B002B02D03D
:1001300000E000BF03E005F03BFA00F04FFAFEE7F5
:10014000C0000000E4000000FC000000000000000F
:1001500010B5064C2378002B07D1054B002B02D09D
:10016000044800E000BF0123237010BD8801001087
:1001700000000000808F0000084B10B5002B03D05A
:100180000749084800E000BF07480368002B00D17A
:1001900010BD064B002BFBD09847F9E7000000008C
:1001A0008C010010808F000088010010000000000A
:1001B000036810B50400013304D12C220549064818
:1001C00000F02AFE636960681B681840431E98416E
:1001D00010BDC046D87300002774000070B504003D
:1001E0000D001822002105F01DFA2900200000F062
:1001F0007AFE200070BDFFFF012310B54A080E4CA7
:100200001A4022540D4C8A081A4022540C4CCA0839
:100210001A4022540B4C0A091A4022540A4C4A092B
:100220001A4022548A09094C1A402254C909084A22
:100230000B40135410BDC0460B04001008040010FE
:10024000050400102C040010640400106704001062
:100250000E04001070B50B4C0B4D2378C1B220700A
:1002600000202B70FFF7C8FF2378297802209943DC
:10027000FFF7C2FF2B78217801209943FFF7BCFFDD
:1002800070BDC0462F0400100404001010B51948BA
:10029000FFF78EFF0400601E844117486400FFF7DB
:1002A00087FF002801D004231C431448FFF780FF78
:1002B000002801D008231C431148FFF779FF0028CC
:1002C00001D010231C430F48FFF772FF002801D014
:1002D00020231C430C48FFF76BFF002801D040236C
:1002E0001C430A48FFF764FF002801D080231C4309
:1002F000200010BDD4030010A40100104C04001015
:10030000EC0300101404001030040010BC030010B3
:10031000F0B51F0006000020214B224D1B7885B050
:1003200053430192EA19D35C0C00834235D10A9BF6
:10033000F01A05F023F90B9B0290E01A05F01EF964
:10034000174B2A191B7803905E43905D0A9A0A2680
:1003500053430B9AAD18EB5CC51805F045FA039AA8
:10036000029B944663441900714305F00FFC08009A
:10037000310005F025FB6D104519002D03DDFF2D23
:1003800002DDFF2500E00125054B019A1B780120C5
:100390005A431300034AD219D55405B0F0BDC046E4
:1003A0001C0100107A070010F0B507000C001500C2
:1003B0001E0089B0EB1B012B02DC331B012B71DD0E
:1003C000EB19DA0FD3185B100493A319DA0FD318C3
:1003D0005B100393049A23002100019400953800D8
:1003E000FFF796FF3300049A31000196009538001C
:1003F000FFF78EFF039B2A0021000196009528003D
:10040000FFF786FF039B3A00210001960097380012
:10041000FFF77EFF244B1A78049B53439C46039BB3
:10042000634419000593214B595C002925D13900FB
:1004300051436A4398180692025D079113000A001F
:100440001A49805D89180A5D9A181218039B885D05
:1004500016491218C818079BC15C63465218134905
:10046000C9180B5D895D9C46069B6244C05C059B78
:1004700012188A180D49D210CA542100039B049AFD
:100480003800FFF791FF2A00330003990498FFF723
:100490008BFF2A002100039B0498FFF785FF049D32
:1004A000039C87E709B0F0BD1C0100107A0700101B
:1004B000F7B5224D224E2A783378224F5A43002333
:1004C0001800934203D0F91808700133F9E705F0DA
:1004D0008BF9FF2105F05AFB2C780131397005F0BA
:1004E00083F93378013CFF215C43019305F04EFB17
:1004F000013139552C7805F077F93378013C5C43AC
:100500000093019BFF21FB181C1905F03FFB013CE8
:100510000131217005F068F9009BFF21FF1805F0FB
:1005200035FB013F01313970002134782A78631E90
:10053000013A0800FFF738FFF7BDC0461801001068
:100540001C0100107A070010F8B5184E0024350081
:10055000803504235B421F1BFFB2002239002000BC
:1005600003F05CFB2B00803B188022000021380048
:1005700003F054FB002128803A00080003F04EFBF2
:100580002B000022803318802100100003F046FB6E
:100590006B1CFF331880064B04340235E4B29D42D5
:1005A000D7D1300003F0E0FAF8BDC046BC0100101E
:1005B000BC02001010B502F08DF96E22044B1A70C7
:1005C000044B163A1A70044B573A1A7010BDC046C5
:1005D000180100101C0100106007001010B5FFF793
:1005E000E9FF04F065FD05F0D1F8FFF7ADFFFFF777
:1005F0005FFF02F0FDF800281DD0002002F090FA05
:100600000028F6D00D4C2078FFF740FE2070FFF751
:1006100021FE0B4B5B78002B01D0FFF749FF094807
:1006200003F010FA084A2C21372002F04FFB01207A
:1006300003F0ACFADDE7012010BDC046480400100D
:100640000504001050740000FFFF000010B51048B2
:1006500001F0BCFC0F491048FFF7C0FD0F491048DE
:10066000FFF7BCFD0F491048FFF7B8FD0F491048D0
:10067000FFF7B4FD0F491048FFF7B0FD0F491048D0
:10068000FFF7ACFD0F491048FFF7A8FD10BDC046AD
:1006900011040010841201004C04001070080100C5
:1006A000A401001088140100D4030010941A010062
:1006B000BC0300106C060100EC030010C432010002
:1006C000140400107C0E01003004001010B501006D
:1006D000014800F059FD10BD1805001010B5FF21AC
:1006E000024800F051FDC0B210BDC0461805001010
:1006F000F8B543B204000D00002B07DA0021772083
:10070000FFF7F6FF012831D87F231C40A02688235D
:1007100080279B013606F750FFF7E0FF8A239B01F5
:10072000F750FFF7DBFF2000FFF7D0FF280EFFF7A1
:10073000CDFF280CC0B2FFF7C9FF280AC0B2FFF7EF
:10074000C5FFE8B2FFF7C2FF9520402C03D09438D4
:10075000482C00D18630FFF7B9FF0A24FFF7BEFF0F
:10076000030603D5013CE4B2002CF7D1F8BDFFFF2E
:1007700073B58823A02480223F4D9B012406E250BC
:1007800028003E4900F0F6FC28000022082100F075
:10079000E5FC842364259B01E358013DEDB2FFF79E
:1007A0009DFF002DF9D129004020FFF7A1FF040093
:1007B00001284BD1D52148204900FFF799FF012896
:1007C00015D1FFF78BFF01AC28550135042DF8D169
:1007D000A378012B3AD1E378AA2B37D1284D802179
:1007E000E920C905FFF784FF011E11D115E029009A
:1007F000E920FFF77DFF4126012801D80224E926E0
:10080000204D00213000FFF773FF002820D116E0B3
:10081000013DADB2002D19D0E1E77A20FFF768FF66
:10082000002813D10500FFF759FF60550135042D4D
:10083000F9D123780C245B060FD42C000DE0802125
:1008400050208900FFF754FF002806D0002404E060
:10085000013DADB2002DF9D0D3E70B4BA0221C70A7
:10086000882380219B011206D150FFF737FF604299
:100870006041C0B276BDC04618050010801A06005F
:10088000E02E0000A86100006A040010F8B51D0009
:10089000244B07001B7816001B0700D44902512087
:1008A000FFF726FF002801D0012431E01E4CFFF79E
:1008B00015FFFF2804D1013CA4B2002CF7D1F3E7C7
:1008C000FE28F1D1194C641BA41BA4B2002E07D141
:1008D000002F11D0013DADB201353E007D1904E07D
:1008E000013EFFF7FBFEB6B2F0E7FFF7F7FE307010
:1008F0000136B542F9D105E0013DADB2FFF7EEFE9C
:10090000002DF9D1013CA4B2FFF7E8FE002CF9D18B
:100910008823A02280219B011206D150FFF7DEFE22
:100920002000F8BD6A0400103075000002020000CB
:10093000064B1A68831ED168002002398B4203D20D
:1009400050784343906918187047C0466C040010F3
:100950000F4B10B51A680023038083680400180049
:10096000012B13D0D16801208B420FD2002B03D171
:100970001178032900D15369E360002B03D01800DC
:10098000FFF7D6FF00E050692061002010BDC0468F
:100990006C040010F0B5040085B0012854D92C4B2C
:1009A0001D68EB6898424FD22E78022E32D0032E6B
:1009B00038D0012E48D181B24B08C91889B24B0AF0
:1009C0000193244BCA05D20D296903AF9A4204D082
:1009D000019B3800591802230EE0019B380059187A
:1009E0003300FFF753FF021E2ED12969019B01310D
:1009F000C918330002A80530FFF748FF002823D1AB
:100A00007B7838781B0203431811E2071DD41805C0
:100A1000000D1AE02B69C2B2010AC918520003ADD9
:100A2000330007E07F22042329690240C4099200B1
:100A3000611803AD2800FFF729FF002804D168786A
:100A40002B780002184300E0012005B0F0BDC0463D
:100A50006C040010FF01000070B50488050001342B
:100A6000A4B2002C01D1032322E00369002BFAD0A9
:100A700022071BD101330F4A0361C06816680028A2
:100A800003D1B388A342EED910E073782209013B69
:100A90001A420BD1FFF77EFF0123984208D9F36871
:100AA0009842E0D2E860FFF743FF286100232C80E2
:100AB000180070BD6C040010F7B504000D002B7811
:100AC000202B01D10135FAE72F3B5A425341002731
:100AD000ED18A7602B78202B01D901972EE020007C
:100AE000FFF736FF404B06001B689B681F7078E0DD
:100AF000009B1B78002B68D00822009BDB7A1340F8
:100B00005BD162680099581CC95CD35C994254D18E
:100B100003000B28F6D1D37A002B62D13B6898688A
:100B2000C37ADB0656D5437D017D1B020B43C27E93
:100B30001904837E120213430B43A3606068020012
:100B400003000B32934203D100220821130013E06B
:100B5000202119700133F5E72F2B12D02E2B3BD01B
:100B600091420ED91F00613F192F01D8203BDBB203
:100B7000571C8354FAB233005E1CEB5CF6B2202B98
:100B8000EAD8AD192026019A9E425241C272200035
:100B9000FFF7DEFE061E16D1134F3B689B680093DD
:100BA0000F23228821691A40520111330098FFF760
:100BB0006DFE00289CD0012613E02000FFF74CFFBB
:100BC0000028EDD00600032E0BD163680326DB7AE4
:100BD000002B06D1042604E00829D2D10A000331F3
:100BE000C9E73000FEBDC0466C04001070B5164B5E
:100BF00001001C6890B00620002C23D00023A370B5
:100C00006B4608ADA56003A80493FFF755FF0028C5
:100C100018D12B780330002B14D01023EE7A1E400D
:100C200010D16B7D297D1B02EA7E0B431904AB7E3C
:100C3000120213430B4363620F9B300023620123B4
:100C4000E661A37010B070BD6C0400102F4BF7B5B7
:100C50001C68002307000D000192138006209C42AF
:100C600053D0A3780138DB074FD5236AE2699B1A7A
:100C70008B4200D29DB20097002D45D0E669F30566
:100C80001BD1700A617804F097FE00290BD1002E69
:100C900001D1606A02E0A06AFFF77CFE01282FD92B
:100CA0000023A062E370A06AFFF742FE002827D06D
:100CB000E3785A1C1818E270E062E3692E1CDA052A
:100CC0008023D20D9B009B1A9BB29D4200D91E1C13
:100CD000B6B2381E00D000983300E16AFFF7D6FDA7
:100CE00000280DD1E369AD1B9B19E361009BADB2F8
:100CF0009B190093019B1B88F618019B1E80BBE784
:100D000000230120A37000E02800FEBD6C04001049
:100D1000294BF7B51C680623002C4AD0A278013B6A
:100D2000D20746D5256A854200D905000022E3692D
:100D3000E261954238D066787602002B12D03100FD
:100D4000681E5F1E04F0B2FD31000190380004F00F
:100D5000ADFD019B834205D373423B40E361ED1A35
:100D6000A06A01E0606AA062B5420CD9FFF712FEEA
:100D700001281BD9E368984218D2E369A0629B1945
:100D8000E361AD1BF0E7E3695B19E361FFF7D0FDB9
:100D900000280BD06B0ADAB2ED0501D1E27003E056
:100DA0000132C318E270E362002302E00023A37063
:100DB00001331800FEBDC0466C04001030B5154B61
:100DC00004001B688DB00620002B20D004AD9D6070
:100DD00001AB63602000FFF76FFE002815D12B7870
:100DE000002B0FD0EB7ADB0601D404200FE06B7DE3
:100DF000297D1B020B43EA7E1904AB7E12021343CA
:100E00000B43A3602000FFF7A3FD0328EDD00DB036
:100E100030BDC0466C04001010B513000A0001007C
:100E2000014800F031F810BD5D74000000B589B0D4
:100E300072B6124902A800F070F8029B01930133C8
:100E400004D124220E490F48FFF7E6FF059B039AC1
:100E500096201A60019200F098FA029B01930133E8
:100E600004D1242206490748FFF7D6FF039A069BC0
:100E700096201A60019200F088FADEE7382302001B
:100E8000D8730000277400000FB4012010B504F0DF
:100E900079FBFFFF036870B504000D00013304D136
:100EA000242206490648FFF7B7FF6368002D01D0EA
:100EB000E26800E02269136070BDC046D87300008C
:100EC0002774000070B50D000400160000F078FBD8
:100ED0006B1C07D00021200000F09AFB310020009D
:100EE00000F090FB70BD10B50122FFF7EBFF10BDC5
:100EF00070B50D000400160000F062FB6B1C0BD0F7
:100F000031002000FFF7C6FF0121200000F080FB28
:100F10000021200000F076FB70BD10B50022FFF725
:100F2000E7FF10BD10B50400034B083303601C300D
:100F300000F048FC200010BD9074000010B50400C3
:100F4000FFF7F0FF200000F0EDFA200010BDFFFFDA
:100F500070B5050004000E4B0E00083308C52800CC
:100F60001822002104F05EFB002320003100E36121
:100F700023626363A363E364064A23001C3000F02A
:100F8000BFFB28003100FFF7AEFF200070BDC04658
:100F900090740000F30F000003000A0010B51C302D
:100FA0000121002A04D01A6200225A630132110082
:100FB00000F01CFC10BD030010B50A001C30002915
:100FC00003D000229963DA640132022100F00EFCA2
:100FD00010BD436910B50100002B04D10368002B3C
:100FE00006D0984704E00068002801D004319847F3
:100FF00010BD10B5012903D0022904D1383000E01A
:101000002030FFF7E6FF10BD10B50400431C12D0DE
:101010000B685A1C0CD09C4208D12000896800F053
:101020000BFC0021200000F023FC04E00C31EFE772
:101030000148FFF729FF10BDA074000010B50300A0
:1010400088420AD00B00421C07D003004A1C04D07F
:101050000348FFF719FF01235B42180010BDC0468B
:10106000B17400000B685A1C05D0834201D1486856
:1010700002E00C31F6E718007047FFFF10B50400DE
:10108000431C07D0FFF7EEFF0400431C02D10248C7
:10109000FFF7FAFE200010BDC274000010B5012059
:1010A00004F070FA074A13681818EFF308818842B1
:1010B00005D30C220120044B40421A6001E010606D
:1010C00018007047040100104C52001010B50028A1
:1010D00001D0FFF7ABFEFEE7704710B5040000F04B
:1010E00021FA200010BDFFFF73B504000E48002553
:1010F000083020600820E0600C48261D60610698DA
:101100006560257225610090300000F0E9FC2B003D
:1011100030002269E16800F063FD3000616900F091
:1011200095FD200076BDC0460075000040420F00CE
:1011300070B5094D04002B6883420BD0061D02696F
:10114000C1680023300000F04BFD6169300000F001
:101150007DFD2C6070BDC04670040010026100224D
:1011600010B5034BC1601A60FFF7E2FF10BDC04627
:1011700070040010002210B5024B41611A60FFF7A5
:10118000D7FF10BD7004001070B50D000400FFF70C
:10119000CFFF2900201D00F09DFD70BD10B504009B
:1011A00043684269991800F0BFF8E36A002B04D144
:1011B000A369002B07D0984705E0A069002802D05A
:1011C00021001C31984710BD10B5040000F0B4F8A0
:1011D0000023A361E36210BD10B50400044B083383
:1011E0000360FFF7F1FF200000F0ACF8200010BD15
:1011F0001475000010B50400FFF7EEFF200000F0AA
:1012000091F9200010BD70B50D00040000F094F8B5
:101210006561206900F068F82918200000F084F862
:1012200070BD70B504000D0003681B6898476368C3
:101230001D6070BD036870B5DB6804009847636883
:101240005A682368002A02D19B68984713E05B68BC
:101250001568984763682D1A5A68002D07DC916855
:1012600059601B68002BEAD050689847E7E723686D
:1012700010681B69984770BD70B50D0072B64B6061
:10128000002346680A607468002C05D02168511A52
:1012900002D42300A468F7E7002B05D1036875602A
:1012A0001B691000984700E09D60AC6062B670BD9D
:1012B00010B572B6426853688B420CD19B6853607C
:1012C0000268002B02D1936898470BE012691868F6
:1012D000904707E01300002B04D09A689142F9D19F
:1012E0008A689A6062B610BD10B503685B6898475B
:1012F00010BD10B503689B68984710BD084B10B52A
:1013000008330360002343608360C360040000F07F
:1013100025F804492061FFF784FF200010BDC04676
:1013200028750000F312000010B50A000300011D2B
:101330000069FFF7A1FF10BD10B5011D0069FFF79F
:10134000B7FF10BD10B50400034B08330360FFF76F
:10135000F3FF200010BDC04628750000004870470C
:101360005075000010B50248FFF764FF10BDC0467D
:101370005075000070B5040000F0E8FC050000F0B6
:10138000E5FC401BA042FAD370BDFA2310B59B00C8
:101390005843FFF7EFFF10BD70B50A4CA568A3686E
:1013A0002A00002B0AD180225E5952059A18043374
:1013B0001660C02BF7D180225205A2601030800049
:1013C000815070BD00ED00E07FB580203F494002B4
:1013D000CA6F8E240243CA672322002020253C4B7B
:1013E0003C499A60223A0A603B49A4000A601862AC
:1013F00019593A4A114001910199A943C82501910F
:1014000001992D02294319510090354800998142D4
:1014100004D8C046009901310091F7E7012100206E
:1014200019645964586459645C6C29480C42FBD0B7
:101430008E218026C825890044582D02144003942B
:10144000039C34430394039C2C4344502324846022
:10145000445822400292029CB4430294029A2A43C6
:1014600042500120DC681A4901220442FAD00320CC
:10147000086700204A67486710004A675C6F144A93
:1014800001210442FAD08E20916780001558154C36
:101490002C4014501558144C2C40145000209164CA
:1014A000D164D064D164DA6C0A42FCD02321084AAA
:1014B0001161012259691142FCD000220B4B1A60C4
:1014C0001A600B4B01321A607FBDC0460480044095
:1014D00000800440F0400440F4400440FF25000038
:1014E000C3090000FFFBFFFFFFFEFFFFC0800440B9
:1014F000C8800440704770477047704770470023AA
:1015000010B5934203D21C585C500433F9E710BD68
:1015100000231A008B4202D21A500433FAE77047B4
:101520000020704710B504F073F810BD10B504002A
:10153000431C04D11E2217491748FFF76DFC174BB7
:101540001A68002A06D101321A60154A1549D36F6C
:101550000B43D3670122002C12D0134B9C420FD0B7
:10156000124B9C420CD0124B9C4209D0114B9C4216
:1015700006D0114B9C4203D0104BE1184A424A411D
:101580002000110000F058F90120A404E40EA0404E
:1015900010BDC046587500002C7400007C0400107B
:1015A0000480044040000100281400002C160000B4
:1015B00030180000341A0000381C0000C4E1FFFF9E
:1015C00070B505000C0029604B1C11D00800FFF716
:1015D000ADFF2414074BA400E318EB60064B6860D2
:1015E000E3182B61054BE3186B61054BE418AC6005
:1015F00070BDC046002200A0802200A0002100A0F3
:10160000002000A010B5006800F032F910BDFFFF07
:10161000036870B504000D00013304D14322094969
:101620000948FFF7F9FB002D06D0012D09D1A2686A
:10163000636811680B4303E0A268616813688B4319
:10164000136070BD5875000027740000F7B50121C4
:101650000D008540134C636A2B4221D0124B86004B
:10166000F058019300281BD023682B4218D16368DF
:101670002B4206D0E3692B4203D00C4B1B689847E2
:10168000E5612369074F2B4209D03B6A2B4206D004
:10169000064B019A1B680221905998473D6265628A
:1016A000F7BDC046004000A0840400108004001074
:1016B00010B50020FFF7CAFF10BD10B50120FFF7DD
:1016C000C5FF10BD10B50220FFF7C0FF10BD10B55B
:1016D0000320FFF7BBFF10BD10B50420FFF7B6FFD6
:1016E00010BD10B50520FFF7B1FF10BD10B50620E5
:1016F000FFF7ACFF10BD10B50720FFF7A7FF10BD27
:10170000F7B505002748814202DD0120404248E04C
:101710002548264C02600020820016590096002EB3
:101720003BD11351224C2860E36F224F224E3B43A2
:10173000E3671F248B0349120C401821A4460400C0
:101740009B0F59435E346144A400A15181210124BF
:10175000890071589B000F00210081400F43390020
:101760008127BF00F151A021802609065B18B60130
:1017700099592700019161468F40019940B2B943C0
:1017800099510E4BD158FFF707FE1F222B68009886
:1017900013409C400A4B1C6003E001300828BBD179
:1017A000B3E7FEBD13110200800400108404001092
:1017B000048004408000090000800440A4750000FB
:1017C00000E100E000210368064A9B0010B5995033
:1017D000012281210068044C8240890063589343B0
:1017E000635010BD84040010008004400368012091
:1017F000984070B50F4C2368034200D16062C54326
:1018000026680C4B2E402660012909D1002A03D0FE
:101810005A68104358600CE05A6815405D6008E053
:10182000002A03D01A691043186102E01A691540B2
:101830001D6170BD004000A070B504000D00431C88
:1018400004D1152207490848FFF7E6FA074BE405DB
:10185000E40DE418072322681D409A4315432560D0
:1018600070BDC046C47500002C74000000400440E8
:1018700070B504000D00431C05D11D220F4910480E
:10188000FFF7CAFA06E081231B01984214D00D4BE2
:10189000984211D00C4BE405E40DE4182368042DA4
:1018A00004D18022D2001343236005E01822ED000A
:1018B000934315401D43256070BDC046C4750000AC
:1018C0002C740000140A00000040044070B50C1C89
:1018D00005000021201C04F0AFF9002809D1FE21E9
:1018E000201C890504F0BCF9002803D0FE24A405BF
:1018F00000E0002480232D689B00E85805F04CF898
:10190000211C04F045FD04F0EBF981239B00E85015
:1019100070BD8023F7B5812704689B00E258BF00A3
:10192000E059E15001920D0005F036F8061C0198CF
:1019300005F032F8011C301C04F060FB061C280086
:1019400004F0E2FF011C301C04F022FD04F0C8F991
:10195000E051F7BDF7B50F00060050493800FFF71A
:101960008DFBC3B20500FF2B02D14D48FFF78CFA67
:101970004C4B01211A78019310000840031E04D03B
:101980000A410B000A4200D081E001242100994065
:10199000019A4548127873600A4301990A70434AD4
:1019A00099008A5809333260C26F110080221206F2
:1019B0001143C1672000984003003D4A3800526837
:1019C000364913433A4A5360FFF71EFB3768394ADA
:1019D0003B68394913430C223B607B6813437B60AF
:1019E0007A68364B13407B607B680193344B1868F0
:1019F00003F05CFFFE2301381B0140011840019BEE
:101A000018437860E8B207281DD803F045FF040AA0
:101A10001016040A1016A023DB00FC500222294BEA
:101A200010E0A123DB00FC500222274B0AE0A22396
:101A3000DB00FC500222254B04E0A3230222DB0042
:101A4000FC50234BFA508022C12352019B00FA50D4
:101A50000123C0225B4292001E49BB500C32B95098
:101A6000043ABB5080231C499B00F950FB58053AAF
:101A70009B08FF3ABB5004227B68300093437B6095
:101A8000FFF747FF30000021FFF720FFF7BD1348A5
:101A9000FFF7FAF901235B4277E7C0460C760000B6
:101AA00078760000A404001004800440A4760000AE
:101AB000008004400100060040420F001FF0FFFFBD
:101AC00008010010040500000C05000014050000CA
:101AD0001C05000001100000204E0000927600005E
:101AE000F0B5334E87B000910400310000980192A8
:101AF0000293FFF7C3FA2F4D070029000198FFF763
:101B0000BDFA2D4903900298FFF7B8FA2B490490CB
:101B10000C98FFF7B3FA039905903800FFF78EFA97
:101B2000059907000498FFF789FA01003800FFF7CC
:101B300085FA2060431C04D1482221492148FFF73F
:101B40006BF92368204A93420FD0204A934219D15F
:101B500080201F49C002CB6F1E4A0343CB6701217F
:101B60001D4B1960536803310AE0802018490001B9
:101B7000CB6F184A0343CB670121184B1960536898
:101B80000B43536031000098FFF73EFA290001989B
:101B9000FFF73AFA08490298FFF736FA0C9B01332F
:101BA00003D006490C98FFF72FFA07B0F0BDC046E6
:101BB000F4770000AC760000E87600003078000092
:101BC0003077000079770000000004400080054075
:101BD00004800440008004409C80044094800440C1
:101BE000F8B50E000221140002681D0053680700BA
:101BF0008B435360331F0C2B06D9032C04D9652269
:101C000010491148FFF708F98023E0010340013E25
:101C10001E43A30734003968DB0F0A689B01120CCE
:101C200012041C4314430D220C604B6893436A1E3C
:101C300095410222AD001D434D604B6813434B603C
:101C4000F8BDC046307700008D770000F7B502245C
:101C500005000E0002685368A34353601A4B1B68CB
:101C600001932100019803F021FE04F04DFE071CB2
:101C7000300004F049FE011C381C04F0BFF9FC21BF
:101C8000890504F045F805F035FB03F0DFFB05F0AE
:101C9000FBFAFF280FDC2B680C4A1C61196801381D
:101CA0000A4002211A601A680002104318605A683C
:101CB0000A435A6007E0802302345B009C42D0D183
:101CC0000348FFF7E1F8F7BD08010010FF0000FF2F
:101CD000CB77000002220368D8681042FCD00422AF
:101CE0009960D9681142FCD098687047104B70B564
:101CF0001A68002A1AD1012580210E4A1D60D36F6F
:101D0000C9000B43D3670C4B0C4C186802230C49D9
:101D1000636003F0CBFD0138E0600A496560132081
:101D2000FFF73AFB8022084B12031A6070BDC046D1
:101D3000A804001004800440080100100080014045
:101D400040420F006513000000E100E0044B10B5B5
:101D50001B68002B01D1FFF7C9FF024B986810BD2B
:101D6000A8040010008001400121034B98615A69CA
:101D70000A435A617047C046008001400121024A6F
:101D800053698B4353617047008001400122014B2E
:101D90001A60704700800140704770477047704775
:101DA000FF22014B1A707047AE04001010B502F00C
:101DB00023FB10BD0D4B30B51A8800239A4213D176
:101DC000FF250B4C0B4AE15C002902D0D15C0131AC
:101DD00004E0D05C002804D0FF2801D1D15400E0F9
:101DE000D5540133072BEED130BDC046C0040010DE
:101DF000202F0010B1040010034B185C013843423F
:101E00005841C0B27047C046B1040010002210B55E
:101E10001D4B19781A701D4A5078002801D00120F6
:101E20001870D078002803D0022418782043187046
:101E30001078002803D00424187820431870907874
:101E4000002803D00824187820431870107900283F
:101E500003D010241878204318705079002803D03C
:101E600020241878204318709279002A03D040204B
:101E70001A7802431A701B78054A180008409943E3
:101E8000044B1070197010BDB0040010202F00100A
:101E9000B9040010B8040010014B18797047C0460F
:101EA000202F0010014B58787047C046202F00109B
:101EB000014BD8787047C046202F00100023094AF4
:101EC0001380094A1370094A1370094A13700122DA
:101ED000084B52421A80084A084B1A600922084BE4
:101EE0001A707047C0040010BF040010C80400102E
:101EF000BA040010BC04001038820000C4040010B2
:101F0000BE04001010B50248FFF7D8FF10BDC04650
:101F1000BB04001037B572B600210422244B802583
:101F200059601961234BED001A608E22224B9200FA
:101F30009C582C4380259C509C586D002C439C50F1
:101F400001225A671400596719004B6F1A4D01227C
:101F50002340FAD114002B676A676B674B6F164AF0
:101F60002340FBD18E245364516CA400936013670B
:101F70005360155911492940802501910199294340
:101F8000C825019101992D0229431151A0228421D4
:101F90001206890153500A4953500A4953500A4BBB
:101FA0009860001C01688D464068804737BDC04678
:101FB000004000A010E000E000800440FF25000089
:101FC000042100000821000000ED00E07047FFFF41
:101FD000F0B5C1B00E0000F039FE00F043FE8023E2
:101FE000DB029B1B0400984200D91C0000F024FE79
:101FF0008027134801F032FD00257F00A5421CD246
:1020000080216846490000F0FBFDFF2804D8631BCF
:10201000BB4201D90B4806E0A819694602F07AFFD5
:10202000002804D0084801F019FD012006E0013520
:102030000648FF3501F006FDE0E7002041B0F0BDA5
:10204000A2830000AE830000C98300001B8400004F
:10205000F7B501260024514B514D1E70514B1C8089
:10206000FC23DB002B8000F01FFE2100200000F08D
:102070003DFE300001F03AFC0094019406F05FFF51
:102080000421494800F096FDA0420FD100F0DEFD8A
:102090000820404200F0BCFD0421684600F0B0FD7D
:1020A000042101A800F0ACFD00F0C6FD01273F4E61
:1020B0007F423F4C2368B34200D03E4C2368B3427A
:1020C00000D03D4C2368B34200D03C4C2368B3425F
:1020D00017D020233A485B422B8001F0BFFC009BC5
:1020E000002B03D0374B019A9A4240D8364801F072
:1020F000B5FC364801F0B2FCFC23DB002B803448F1
:1021000020E0344B34482B8001F09CFC0A216068AD
:102110002F8001F01AFD6368009A934227D3A068CC
:10212000FFF7F8FE17E0FFF7C3FE002834D1FFF7F2
:10213000B9FE0028F7D001990098FFF749FF002861
:1021400026D0264801F08AFC05E0FFF75FFEFFF786
:10215000A3FE002804D1FFF79FFE0028F5D01BE066
:10216000FFF79AFE002817D0FFF750FEF8E71C4B48
:102170001C482B8001F066FC00980A212F8001F09A
:10218000E4FCFC231848DB002B8001F067FCCEE761
:10219000164801F063FC8CE7F7BDC046160100103D
:1021A0000E010010780700108F8400001EAB07B0EE
:1021B000F4FF030004FF030004FE030004F0030027
:1021C00097840000FF7F0300AB8400008D74000043
:1021D000C2840000FF070000DD840000E7840000E7
:1021E0001FF8FFFF0D85000021850000038500001A
:1021F000F8B50024012001F079FB454BFC271C8039
:1022000000F052FD434D444B44482B8001F00EFB3F
:102210000123434E30213370424BFF001C70424B70
:1022200060201C702F8001F01FFC404801F00AFC68
:102230003821602001F018FC3D4801F003FC4021EA
:10224000602001F011FC3B4801F0FCFB48216020BC
:1022500001F00AFC384801F0F5FB6021282001F06C
:1022600003FC364801F0EEFB013C35482C8001F0C0
:10227000E9FB34482F8001F0E5FB02232C8033700A
:1022800002F016FF043485B2FFF7C0FD7821682004
:1022900001F0EAFB0A21200001F03AFC02F008FFFD
:1022A000FA239B00EB18984203D902F001FF013C8E
:1022B00085B202F019F9002808D002F015F9041EC1
:1022C00002D0FFF7A3FDF8E7FFF7C2FE02F000F926
:1022D000002807D002F0FCF8002802D0FFF796FD96
:1022E000F8E7040002F0FAF8002802D1002CCBD164
:1022F00006E002F0F3F8002802D0FFF787FDF8E7C8
:102300000123337000F0D0FC002001F0EFFAF8BD9B
:10231000780700100E01001000F8FFFFD47E0000C7
:102320001601001017010010100100104685000072
:102330004B85000050850000558500005A8500003F
:102340006085000064850000F0B5714C1E00238894
:102350008BB005000F0004920993002E06D00020D8
:10236000322300901A00010000F0B4FCFC23DB00D3
:102370002380002E16D001F0B1FA0400012001F0F4
:10238000B5FA01F0C7FF390002001439681EC9B25E
:10239000C0B20A2301F0C0FB5E4801F053FB2000ED
:1023A00001F0A4FA049B0B2B02DC5B4A584B1A8009
:1023B0003BB203930123594C009328B222000399A6
:1023C00000F09EFC049B172B02DC534B504A1380F9
:1023D000ABB21D00012608352DB205932200330053
:1023E00003992800009600F08BFCBBB20693043BD7
:1023F0001BB207930096330022000799280000F0D3
:102400007FFC049B2F2B01DD454B00E0424B012458
:10241000059D424E3E4A10352DB21380039923008C
:1024200032002800009400F06BFC23003200079972
:102430002800009400F064FC069B0094083B1BB24B
:102440000893320023000899280000F059FC049BEF
:102450005F2B02DC304A2E4B1A800124059D2F4F42
:1024600018352DB223003A0003992800009400F09B
:1024700047FC23003A0007992800009400F040FC34
:1024800023003A0008992800009400F039FC069EC9
:1024900023000C3E36B200943A003100280000F0D0
:1024A0002FFC049B9F2B02DC1B4A194B1A80012531
:1024B000059C1A4F203424B22B003A0003992000C7
:1024C000009500F01DFC2B003A00079920000095B4
:1024D00000F016FC2B003A0008992000009500F04F
:1024E0000FFC2B003A0031002000009500F008FCA2
:1024F00006992B0010393A0009B20095200000F02F
:10250000FFFB6A46024B928C1A800BB0F0BDC046AE
:102510000E010010F38500008A520000B08B00000D
:1025200000F8FFFFF7B500250126012001F0DEF9D4
:102530008A4B20201D7001F0BDFE01F0EBFE04F07F
:102540002BFA874B041C1D703500864B1B78002B23
:1025500000D101E1002D00D1FEE0012D00D095E079
:10256000814D002E36D0012700F09EFB7F421021C6
:1025700020202F8000F0BAFB7C4801F063FA9921FB
:10258000282000F0B3FB7A4801F05CFAFC2379487C
:10259000DB002B8001F056FA77482F8001F052FAC9
:1025A000FC235821DB0000202B8000F09FFB7348A8
:1025B00001F054FA724F380001F050FA380001F07F
:1025C0004DFA380001F04AFA380001F047FA6D4838
:1025D00001F044FA9921302000F088FB01F09AFEC6
:1025E000252802DC01235B4200E0674B2B8002239D
:1025F000664A00933021013BA42000F081FB362184
:10260000182000F073FB624801F01CFA42211820E8
:1026100000F06CFB01F07EFE282801DD5D4800E043
:102620005D48FC2701F00EFA0223FF005B4A2F8071
:1026300060210093A420013B00F062FB662118207A
:1026400000F054FB564801F0FDF97221182000F00B
:102650004DFB01F05FFE252802DD4B4B2B8000E097
:102660002F8001F057FE0A2101F052FA4D4801F087
:10267000E9F9FC23DB002B8001F04CFE0023020073
:1026800076217020FFF760FE02255EE7022D00D064
:1026900060E7FFF7BBFB01F01BFF002808D001F04B
:1026A00017FF002801D105004FE7FFF7AFFBF6E762
:1026B00001F026FF00282CD08421201CC90503F03E
:1026C000D9FA002807D03849201C03F0B5FA0028B1
:1026D00008D0364909E08421201CC90503F0CAFA54
:1026E000002801D0324900E03249201C03F010FBE1
:1026F0003149041C03F0B4FA002802D0FF2001F095
:10270000D9FD2E49201C03F0ABFA00281BD02B4C1E
:1027100019E001F0EFFE002800D116E72449201C43
:1027200003F04AFF8421C905041C03F08FFA002836
:1027300002D0202001F0BEFD0021201C03F07CFA15
:10274000002800D00024201C04F0BCF800B201F0E6
:1027500093FD00260125F8E6F7BDC04617010010DD
:10276000D3040010D10400100E0100106F8500008A
:102770008884000083850000858500009085000026
:10278000AB850000C685000000F8FFFF6C8B0000E1
:1027900043840000E1850000EB8500008E8B000083
:1027A000F6850000F385000000000442CDCC4C3CCF
:1027B0000000A03F000020400000504200007F4386
:1027C000012210B5084B00201A7001F08FF807485D
:1027D00001F02CF802F05CFC02F072FC01F00CFE3F
:1027E00002F06CFC10BDC046D10400106C780000F3
:1027F000014B18787047C046D1040010F7B500248B
:10280000FC2725005826FF00292D48D802F050FC4F
:10281000234B1A689042F7D91E301860012D0BD057
:10282000002D02D0022D22D035E01E4B28001D8045
:1028300000F048FA01252EE0FC21E2B2C900002098
:1028400001F00CFA184B194A18806E235178107851
:10285000490840081C34181A711A00952B00A4B2BC
:1028600000F04EFAFE2C16D90024022513E00E4B80
:102870000E4A1F806E23107851784008181A4908B4
:102880006D3B0093711A00F03BFA3F34084BA4B241
:102890009C4200D9FF25FFF7FFFA0028B4D0F7BD0E
:1028A00034520010780700100E01001062860000FC
:1028B000FF03000010B5202001F0FCFC1022034BA8
:1028C0001A80034BEF321A7010BDC046762D0010EF
:1028D000D0040010F8B5FFF773FF10220124FF2584
:1028E0002B4B1A702B4B1C602B4B1D70FFF7E2FF1C
:1028F000FFF752FA28000025FFF74FFAFFF756FAC4
:10290000FFF758FAFFF74BFA00F0EBF9FFF776FF05
:10291000200000F0EBFF214F3D8000F0C5F9204E74
:10292000300000F083FF200000F0E0FFFC221D4B90
:10293000D2001A803D8000F0B7F9300000F076FF39
:10294000194F1A4E3D703470FFF752FCFFF7EAFD45
:1029500001F0C4FC280000F0C9FF154B15481C709D
:10296000154B3C701C70347000F060FF01F0EEF904
:10297000FFF716FA0520FFF73FFAA84203D10F4BE5
:102980001B78AB4202D1002001F076FCF8BDC046B6
:10299000D2040010D8040010D004001078070010F2
:1029A000D47E00000E01001017010010100100106D
:1029B00016010010707B000012010010AE04001020
:1029C000F8B5274D274C0023EE5E0023E75E264B2B
:1029D00000211A786F239B1A2B80244B21801B78AF
:1029E000042B2FD8180002F057FF031B25252500C4
:1029F00001F0E9FA0020FFF7D0F900F045FB0122D1
:102A00001B4B1C481A7001F01DF81B4B0A2118883B
:102A100001F07EF8194801F015F800F067FB18E0A6
:102A2000174B00211A680F2307201340072B0ED9DC
:102A300078200CE0134A1278002A0AD00533D8B265
:102A4000002104E00F4B1B78002B02D02F2001F057
:102A50005BF8FF231E401F402E802780F8BDC04634
:102A6000700700107607001069070010AE04001010
:102A70001601001001860000AC0400100E86000054
:102A8000CC040010AF040010F0B51F4B85B01A78CD
:102A90000393002A36D000240B2A02D80C239C1A58
:102AA000E4B20127194B002055251F7000F03AFBB6
:102AB0000322174EA4B231780020CB1C691A61188A
:102AC0000092513200F075FE380000F02BFB03221B
:102AD00031780020CB1C691A61180092513200F045
:102AE00002FE04220B4B1A803378E41A0A4B573447
:102AF0001C800A4B186800F0A5FF039B039A1B7803
:102B0000013B137005B0F0BDE40400101601001085
:102B1000680700107007001076070010DC04001032
:102B2000F8B5070001F0C8F81A4D2C6802F0C0FA99
:102B3000194E201A3378194C984202D92368002B79
:102B400014D12368002B0FD101F038FA01F09AFA62
:102B500001F08CFBFFF798FFFFF732FF002F01D148
:102B600000F0C4FA01232360002011E002F0A0FA73
:102B70000B4A337818181368286001331360002358
:102B80002360FFF70BF9FFF715F9FFF709F90120AB
:102B9000F8BDC046E0040010D2040010D8040010B4
:102BA000CC04001010B5024800F052FE10BDC04623
:102BB000D404001070B50F4D06002B780C00102BBC
:102BC0000BD030002C70FEF711F8041E0DD131002F
:102BD000094802F057FE20000AE0084806F0EEF827
:102BE00003000120002BECD002E0082301202B7011
:102BF00070BDC0460C01001030050010E804001044
:102C000013B56B469C1D2200FEF720F8208816BDE8
:102C100010B5074B002804DADA6941428A4200D233
:102C20005042DB69C018FEF773F8024B187010BDF4
:102C3000E80400103F05001010B50020FEF768F80A
:102C4000014B187010BDC0463F050010034B10B576
:102C5000186AFEF75DF8024B187010BDE80400100A
:102C60003F050010014BD8697047C046E8040010CA
:102C70000123812213B5074C5B4200935201064B9E
:102C800006492000FEF730FA054A06492000FEF703
:102C900047FC13BD18050010180C0000241200009A
:102CA00000010010D910000010B5002001F000FD57
:102CB0000023024A1380024A138010BD70070010DF
:102CC0007607001010B501F0F3FC10BD10B501F04F
:102CD00089FE10BD13B504AC2488009401F09DFE5C
:102CE00013BD10B501F046FD10BDFFFF024B18806B
:102CF000024B19807047C04670070010760700101D
:102D0000F0B58FB00B9114A909780A900891117849
:102D100005915178023209910092012B76D1059BE1
:102D20000733DB100C936B461B8D07930493002332
:102D300003936B460C21595E059B8B4200DCF0E04F
:102D40000723CA171A405218D21053B20A93764B6F
:102D50000B4004D50822013B524213430133802229
:102D60001BB21A416B469B8D0D9206930293002372
:102D700001936B4604229B5E099A93423EDA0C9AB9
:102D80000A995343009A5218D35C0D9A1A422DD0D7
:102D9000089B664C012B09D1069B01990398591891
:102DA000079B2288181809B200B21DE06B46102755
:102DB000DF5F6B4608269E5F22883100380001F0F5
:102DC00011FE049B31005D1C2DB22288280001F009
:102DD00009FE029B22885E1C36B23100380001F0E9
:102DE00001FE31002800228801F0FCFD019B013327
:102DF0000193029B02339BB20293BAE7039B013318
:102E00000393049B02339BB2049392E7042B00D0FC
:102E100087E00023099A934200DB82E09BB2029391
:102E20006B469B8D00250793029B079A5B00D31886
:102E30009BB21AB201331BB204936B461B8D0392F3
:102E400006930193059BAB4267DD009B384A1B78D4
:102E500012681B115B009E5A089B022B19D1069B1E
:102E60006C001C19A4B227B2013432000399380057
:102E700024B201F0B7FD32000399200001F0B2FD49
:102E800032000499200001F0ADFD320004993800B1
:102E900007E0029B079A99186B4632000420185EDF
:102EA00009B201F09FFD0F22009B1B781340204ABE
:102EB0005B0012689E5A089B022B1AD1069B6C007D
:102EC0001C19A4B2A71C3FB2033432000399380086
:102ED00024B201F087FD32000399200001F082FD49
:102EE00032000499200001F07DFD32000499380081
:102EF00007E0029B079A99183200019B09B2581CFF
:102F000000B201F06FFD009B023501330093019B7D
:102F10002DB202339BB2019394E7029B01331BB2A3
:102F200078E70FB0F0BDC046070000800E0100102A
:102F300064070010F0B513004D4A8DB00B90106877
:102F40000491427811000592F72208390A40511E77
:102F50008A410599C91052180992099902784A4381
:102F6000511C4B431A0082181279053352B20A924F
:102F70000022C31803926A46127B0A9952B2914208
:102F80006BDD09991A78022903D00133089393B2B3
:102F900004E0991C5B7808911B02134300936B4675
:102FA0009B89002506936B469B8D0793069B079A8A
:102FB0005B00D3189BB21AB201331BB20192029389
:102FC000059BAB4244DD0122009B13420ED0294BEE
:102FD0001B78022B07D1049B6C00E418264EA4B288
:102FE00027B2328811E0244B1A8822E0234E244B6A
:102FF00032881B88934225D01E4B1B78022B18D198
:10300000049B6C00E418A4B227B239000198013483
:1030100001F0E8FC24B232883900029801F0E2FCA9
:1030200032882100019801F0DDFC328821000298ED
:1030300006E0049B0798E918069B09B2181800B22D
:1030400001F0D0FC009B01355B0800936DB2B7E73F
:10305000039B01330393089B8DE70020094B18560F
:103060000A9BC018034B1B7858430DB0F0BDC046F7
:103070006C070010160100100E01001078070010F8
:103080001A0100101701001010B5124B1888124BCE
:10309000C2B21B78012B03D1FF2100280AD00EE019
:1030A000022B07D101331A401100930019430A0182
:1030B000114304E00F23110103401943C9B2074B28
:1030C000074A186802F0AEFA0023064A1380064A3F
:1030D000138010BD6A070010110100105805001080
:1030E000D02500007007001076070010064B10B5C1
:1030F0001968064B186801F0B7FC054B1B78002BCC
:1031000001D1FFF7C1FF10BD640700105805001082
:103110006007001010B5024800F088FD10BDC046E1
:1031200072830000014B18807047C04614010010E4
:103130000A4B10B51B8893420FD0094B80B21B7805
:1031400083420AD9074C89B224788C4205D9594365
:10315000054B41181B6889B25A5410BD1A01001062
:10316000180100101C01001058050010F0B51300E4
:10317000274A87B00490106805914778F7223900F4
:1031800008390A40511E8A41F910521802920299D8
:1031900002784A43511C4B431A00821812790533B6
:1031A00052B203926A46158AC318049A0399AA1A5E
:1031B00052B2914224DD029A1C78022A03D00133D4
:1031C0000193A4B204E09A1C5B7801921B021C4399
:1031D0000026B74210DB059B28B2F11801231C42E0
:1031E00001D00C4B00E00C4B1A7809B20136FFF706
:1031F0009FFF640876B2ECE70135ADB2019BD4E7DE
:103200000020064B1856039BC01807B0F0BDC046FF
:103210006C070010140100106A070010170100105D
:10322000094A80B2127882420CD9084B89B21B78C5
:103230008B4207D95143064B064A41181B68128836
:1032400089B25A547047C046180100101C01001082
:10325000580500101401001070B50F4B15001B78B5
:103260008AB20600934202D8AAB2934212D90B4BFB
:103270001A78B3B29A420DD9A94202DD0B00290097
:103280001D000C00A54205DB21B23000FFF7C8FF8E
:103290000134F7E770BDC0461C0100101801001092
:1032A00070B50F4B16001B7882B20D00934202D806
:1032B0008AB2934212D90B4B1A78B3B29A420DD903
:1032C000A84202DD030028001D000400A54205DB22
:1032D00020B23100FFF7A4FF0134F7E770BDC0460C
:1032E000180100101C01001010B5002A04DA92B277
:1032F0005118524209B212B28A1812B2FFF7ACFF4B
:1033000010BD10B50B00002A04DA92B21018524218
:1033100000B212B28218013A11B21A00FFF7C0FFD0
:1033200010BDF8B5060014000F00CB181DB23419FB
:103330002A0024B2FFF790FF2A0039002000FFF78F
:103340008BFF3A0030002100FFF7AAFF2A0030006F
:103350002100FFF7A5FFF8BDF8B58218CB180500CE
:103360000C0012B21BB2002801DA002A2DDB17492B
:1033700009788D4201DB914227DD002C01DA002B18
:1033800023DB134909788C4201DB99421DDD95420C
:1033900002DC11002A000D009C4202DC190023000F
:1033A0000C00161C002A00DA002636B2191C002B6D
:1033B00000DA00210FB2AE4207DA300022003900F5
:1033C0000136FFF749FF36B2F5E7F8BD18010010E6
:1033D0001C010010F0B587B0002878D03D4B1B7859
:1033E000984201DB581E00B23B4A1478042C07D1E6
:1033F0003A4A11784143CA0F5118491089B20AE07C
:10340000022C64D10321354A12784243D517294052
:103410008A18921091B2324A15880195314D2D8843
:1034200015802E4A00282DDD1278181AD5086C4315
:103430000294002425000490049884421BDA28009A
:10344000491B89B203916F46461BFE82FE8A03998F
:10345000B446029E411889B2B44508DA461CB44607
:10346000214E715C31546146F982F88AEBE70134F0
:10347000A4B20500E0E71D491BB20020095E12B2AC
:1034800000201EE012789BB25443174FE41085B21F
:1034900002940393039BAB420FD90C00661A029B64
:1034A000B6B29E4205DA661CB6B2BB5D3B5534002F
:1034B000F4E70135ADB22100ECE70021030008007C
:1034C00012B2FFF749FF6A46054B92881A8007B08F
:1034D000F0BDC0461C0100101101001018010010C1
:1034E000140100106A0700107A0700107607001018
:1034F000F0B587B004936B46012400921B880290BC
:10350000E21AA3405B4212B21BB2039101920593EF
:10351000631E009A1BB29A4267DD019B002B0CDBF5
:103520001300013B1BB20093059B02339BB21AB2FE
:103530000592019A9B181BB20193019A6300013313
:103540009B1804221BB20193049B13420FD06B46BD
:103550001F899D891E883819A91909B200B22D1931
:10356000BE19FFF75DFE29B230B2FFF759FE022205
:10357000049B13420FD06B461F899D891E88E0195A
:10358000A91B09B200B2FFF74BFEBE19291B09B2F5
:1035900030B2FFF745FE049B1B070FD56B461D8914
:1035A0001F889E89E81BA11909B200B2FFF738FEF7
:1035B000BE19281B31B200B2FFF732FE049BDB07B5
:1035C00002D40134A4B2A3E76B461D891F889E89EB
:1035D000E81B311B09B200B2FFF722FEF61B281BC5
:1035E00031B200B2FFF71CFEEBE707B0F0BDF0B55B
:1035F0008BB01600089393B201220790D01A934023
:103600005B421BB206938BB20493013B9BB20293C5
:1036100010AB1B8800B2059302339BB201930023C9
:10362000009003930992039BB3425ADA009B002B4C
:103630000ADB069B013E02339BB21AB20692009A45
:1036400036B29B181BB20093039C009A0134A4B2BB
:1036500023B20393630001339B181BB20093099AB2
:10366000089B134217D06B46B5B29F8B059B6A002F
:103670009A18049B3819591B12B209B200B2FFF70D
:1036800033FE6B4604229A5E6B467D190821595E13
:1036900028B2FFF729FE0222089B134208D1029BA1
:1036A000013B9BB20293019B02339BB20193BAE7A9
:1036B0006B46B7B29D8B059B7A009A18049B281B1A
:1036C000D91B12B209B200B2FFF70EFE6B460422FC
:1036D0009A5E6B46ED1B0821595E28B2FFF704FE87
:1036E000DDE70BB0F0BDF0B587B01F000CAB0024D8
:1036F0001C5F01900E00012C03DC3B00FFF711FE64
:1037000055E06B469B88A1B202935B181BB20093F5
:1037100093B203934B009BB20493049A039B310032
:103720009D1A2DB22A000098BFB2FFF7EAFDB6B28B
:103730007B1EF3189BB205936B462A001421595E39
:103740000098FFF7DEFDA3B29E19049B36B2FF1A64
:103750003FB231003A000198FFF7C6FD039B3100EC
:103760005D1E029B3A005D19ADB228B2FFF7BCFDA9
:103770003100012322000098FFF7BAFEA3B2ED1A30
:103780002DB23100022322002800FFF7B1FE059B75
:10379000A2B29E1A36B20423220031002800FFF79D
:1037A000A7FE0823220031000098FFF7A1FE07B012
:1037B000F0BDF0B587B00C000CA900268E5F012E7D
:1037C00003DC2100FFF7C8FD2DE0B7B281B292B251
:1037D0007D0004920291AAB2C919059209B203911F
:1037E000049A0599013B9DB2521A2BB2210012B2E4
:1037F0000398FFF7B1FD059B3C19ED1A049B24B219
:10380000581E029B2DB21818C01B00B201233200B3
:1038100021000095FFF7EBFE009502233200210006
:103820000398FFF7E4FE07B0F0BDFFFF054B064A23
:1038300018600378013313704378044A013313701E
:103840007047C0466C070010690700106807001039
:103850000E4A0F4B10B504001A60FFF75BFC012203
:103860000C4B0D481A700D4BDB321A800C4B2C3A66
:103870001A80FFF7DBFF11220A4B20001A8000227A
:10388000094B1A80094B08321A7010BD7A070010D4
:1038900058050010750700106C7800005E050010D8
:1038A000720700101A0100106A0700105C05001072
:1038B00010B5084B09B21B6800B29B78D21A064BB0
:1038C000D2B21B78002B02D0FFF734FB01E0FFF7E8
:1038D0004DFC10BD6C07001075070010024B1878E6
:1038E000431E9841C0B270477507001009490A4A43
:1038F0000A4B002805D001200870DC211180B0227D
:1039000005E00870064909781180064A12781A8085
:103910007047C046750700105E0500107207001062
:10392000180100101C01001010B50B4C0B490023AE
:10393000E25E0B4B09881B685B785800091A09483E
:10394000007840B28A4203DDC018FFF743FD02E071
:10395000C3189B18238010BD760700107207001053
:103960006C0700101001001070B52B4B04001A6892
:10397000D378002B03D0602801D9203CE4B20E2C70
:1039800021D8200001F088FF461F1F1F1F1F1F1F87
:103990000E1F081F1F1B46000022204B1A80FFF736
:1039A000C3FF37E01D4910780B882022181A1C4BE2
:1039B00080B208801978C0B2FFF77AFF2AE00022AF
:1039C000164B1A8026E0154D12780023E85E154B41
:1039D0001B889B1A98420BDB00232B80124B1B7811
:1039E000002B17D0FFF7A0FF0D4B2878197802E0C5
:1039F0000B4BC0B219782200FFF75AFF202C06D1DA
:103A00000A4B1B785BB2002B01D0401001302B8891
:103A10001818288070BDC0466C0700107007001091
:103A2000760700105E05001012010010170100104B
:103A300010B504002078002803D00134FFF794FF6C
:103A4000F8E710BD10B5FFF7F3FF10BD10B50D205E
:103A5000FFF78AFF0A20FFF787FF10BD10B5FFF7B9
:103A6000E7FFFFF7F3FF10BD024B1880024B1980F0
:103A70007047C04670070010760700100023F0B5AD
:103A8000050089B00E00984203D13020FFF76CFF8B
:103A90001CE05C1C28006B4431001F0001F08CFF0F
:103AA00028003970310001F001FF2300051EF0D11C
:103AB0006B46013C1B5D18003730C0B2092B01D8A2
:103AC0003033D8B2FFF750FF002CF1D109B0F0BD70
:103AD00010B5041E03DA2D20FFF746FF64420A21C9
:103AE0002000FFF7CBFF10BD10B5002903D1C0B2F5
:103AF000FFF73AFF07E00A2902D1FFF7E9FF02E0EA
:103B0000C9B2FFF7BBFF10BD10B5FFF7EDFF10BD49
:103B100010B5FFF7E9FF10BD10B5044C2080044834
:103B2000018019001000FFF7DFFF10BD70070010C3
:103B30007607001010B5002903D1C0B2FFF714FFBB
:103B400002E0C9B2FFF79AFF10BD10B5FFF7F2FF10
:103B5000FFF77CFF10BDFFFF10B50248FEF736FAF5
:103B600010BDC046740700108021002310B5054A1F
:103B70008900C45AD45202338B42FAD1024B1A60E4
:103B800010BDC0466005001064070010F3B5FFB01B
:103B900000283FD0404240B241001F4A00281ADDB1
:103BA0000D00802400236D446400D65A0130EE528B
:103BB0000233A042F9D100234C428025E018AD0029
:103BC00040196D46105AE85202339942F5D18021CE
:103BD0000023890018E0FF30002384464C42171967
:103BE000634505DC68465D007E5B01334653F7E7BD
:103BF0000023A342EBD080256E465818AD00401933
:103C0000D55A02333552F4E76846C05AD0520233CF
:103C10008B42F9D17FB0F3BD6005001089104901D6
:103C2000D210C0100A43C00210437047F8B5802775
:103C300004000025074E7F00A27861782078FFF706
:103C4000EDFF6B000135F0520334BD42F4D1024B5D
:103C50001E60F8BD600500106407001070B51F24D9
:103C6000050025400C40641B23B253431B12EB1884
:103C70003F2544114E112C40C00A3540C9122D1B5E
:103C8000091A55434A4312122D1280181BB26419A7
:103C9000021C002800DA002212B2D202181C002BEB
:103CA00000DA00201043231C002C00DA00231BB292
:103CB0005B01184380B270BD70B51A4B1A4C19687D
:103CC00022681E00194D91421DD02368002B03D19C
:103CD0008021174809010DE02368012B03D18021C1
:103CE0001448090106E08021236809011248022BCB
:103CF00000D01248FEF784FF80222368120133604F
:103D00002B689B182B600E4B0E4A1B6A9B182A6867
:103D1000934205D200242C60FEF78EFF0A4B1C70E4
:103D200070BDC046AC31001024310010E8510010C5
:103D3000E1490010E1310010E1390010E1410010CB
:103D4000E804001000F8FFFF9031001010B501F0FA
:103D50005DF8012000F07CFF10BDFFFF00B5002BD7
:103D60003CD104283AD801F097FD030E242B3200F1
:103D7000002349B2994204DB0B1C0A2900DD0A2307
:103D8000DBB2174A13E0174B89001B68164ACB5861
:103D9000164813601B88164A11781A004A43D2B29B
:103DA00002701B12934200DD13004B43114A137043
:103DB00014E00F4B1B7859430F4B19700F4B0CE05D
:103DC0000B4B1B7859430E4B19700E4B05E0084BFB
:103DD0001B7859430C4B19700C4B1A7000BDC04630
:103DE000882D0010842D0010682D0010732D0010F8
:103DF0004F2D0010502D00107C2D00104B2D001069
:103E0000892D0010642D00107E2D00104C2D001007
:103E1000002A11D1094B1870094B1B785943094BE3
:103E20001970094B09491A70094B1A8001230B704C
:103E300008490B70084B1A707047C046532D00108C
:103E40004F2D0010612D0010702D00104E2D001010
:103E50008A2D00104D2D0010542D001010B5002497
:103E60000D4B1B78A34201D00C4B1C780C4B1B78DC
:103E7000002B0AD00B4B187802F08EFD0A4902F095
:103E8000BDF8011C0948FDF721FD200000F0FAFEF5
:103E9000074B1C8010BDC0464D2D0010712D001029
:103EA000E2510010782D001000007F43883100108F
:103EB000E451001010B500280FD1084B1870084BC2
:103EC0001870084B1880084B1870084B1870084B76
:103ED0001870084B1870FFF7C1FF10BD4E2D001071
:103EE000612D00108A2D0010542D0010712D00102E
:103EF000742D00104D2D001010B5041E03D1FFF7D6
:103F0000D9FF014B1C7010BD4A2D001070B5050083
:103F10000C1E12D10800FFF7EFFF0122074B1D60B6
:103F2000074B1C80074B1A70074B08321A70074B5F
:103F30001C70074B1C70074B1C7070BD5C2D001073
:103F4000622D00104A2D0010882D00107C2D0010CD
:103F5000892D00107E2D001010B500281FD1104AA9
:103F60001378002B1BD00F4B1978002917D10E4C5A
:103F70000E48237800685B001B5A0D48834201D12C
:103F800011700CE00B4A181210700B4ADBB2126869
:103F90009B009858FFF7BAFF23780133237010BDB8
:103FA000582D00104A2D00107A2D0010802D001081
:103FB000FFFF0000792D00106C2D001010B50020BF
:103FC000FFF7CAFF10BD10B50020FFF795FF10BD29
:103FD000F8B5002848D1254A1378002B44D0244B4B
:103FE0001B78002B40D1234C234D238828685B008D
:103FF000195A002912D1214B1B78002B02D02180A5
:1040000001880BE01E4B11701878002809D00800B9
:10401000FFF7A2FF23882A685B00995A01271F2611
:1040200002E0FFF747FF1FE00A008B103A4013D071
:104030008811C9120A0001000F20103A52B2314013
:1040400018400023FFF78AFE23882A6801339BB2B9
:1040500023805B00995AE7E73F20090A1840FFF7E1
:10406000D7FE238801332380F8BDC0464A2D0010B7
:10407000612D0010622D00105C2D0010552D0010D8
:10408000582D001010B50020FFF7A2FF10BDFFFF54
:10409000F7B5002800D0ABE0564B1B78002B00D1C1
:1040A000A6E0554B1878002802D1FFF703FF9FE0E8
:1040B000524C013818702378002B26D1504D5148AE
:1040C0002B885A1C504B51001B68CB5A07211940B2
:1040D00001704E49981208704D4899050078890E74
:1040E00041431B0721704B49DB0F0B7093B24A4AC7
:1040F0002B801278934208D3484B1878002802D0BE
:10410000121A2A8001E0FFF7D5FE2378013B2370C5
:10411000434B444C1D7801356DB21D70424B1B78EA
:1041200001933A4B1E78019B9E19404B1B78F61861
:104130003F4BF6B219782670002907D0280001F00D
:104140003FFC3C4B1B7858433618267020782421BE
:10415000243001F01BFD002721700E000021364B9A
:10416000364CDF57364B27705956002907D02800A8
:1041700001F026FC334B1B7858433F182770324B15
:104180001978002910D0280001F01AFC2F4B184094
:1041900004D5022301385B42184301302C4B1B78B5
:1041A00058432378C0182070019B3F2B0AD02278F7
:1041B000131C52B2092A01DD092304E01A0602D5B4
:1041C000002300E000232370224B9A5D224B1A70DB
:1041D0000C4A237812785343204A12785A43204BD2
:1041E0001B885B1153431F4ADBB213701E4A1370C6
:1041F000F7BDC0464E2D0010612D0010702D00102F
:104200008A2D0010602D0010682D00107D2D0010EB
:104210004F2D00107B2D0010732D0010502D00101D
:10422000542D0010722D0010532D0010792D001008
:10423000892D0010642D0010882D0010562D0010BF
:104240007C2D00104B2D00107E2D001001000080F1
:104250004C2D0010B68B0000572D0010512D001072
:10426000762D0010742D0010712D001010B5002057
:10427000FFF70EFF10BDFFFF10B5031C002800DA8A
:1042800000230A4A1BB21288934200DD13B2084A87
:104290001380DA0FD3185B100A3B1BB2181C002BDB
:1042A00000DA0020C0B200F0A7FC10BD1E01001013
:1042B000762D001010B5002803DBFF2802DDFF205B
:1042C00000E00020034B1880034B0020185EFFF72E
:1042D000D3FF10BD1E010010762D0010054B10B548
:1042E0001888202801D9103000E0083000B2FFF70C
:1042F000C3FF10BD762D0010054B10B5188820287F
:1043000001D9203800E0083800B2FFF7B5FF10BD32
:10431000762D0010014B18887047C046762D00108E
:1043200010B50248FDF752FE10BDC046522D0010D8
:104330000122014B1A717047202F00100022014BFF
:104340001A717047202F00100122014B5A717047DB
:10435000202F00100022014B5A717047202F0010AF
:104360000122014B9A717047202F00100022014B4F
:104370009A717047202F00100122014B5A7070472C
:10438000202F00100022014B5A707047202F001080
:104390000122014BDA707047202F00100022014BE0
:1043A000DA707047202F00100022014B9A7070477E
:1043B000202F00100022014B1A707047202F001090
:1043C00010B5054B9A79002A02D0FFF787FF01E06C
:1043D00001229A7010BDC046202F001010B5054B69
:1043E0009A79002A02D0FFF787FF01E001221A70B4
:1043F00010BDC046202F001010B5204C20492000D1
:10440000FCF7D9FD20001F49FCF7C6FD1E4C1F49D3
:104410002000FCF7D0FD20001D49FCF7BDFD1D4C20
:104420001D492000FCF7C7FD20001C49FCF7B4FD26
:104430001B4C1C492000FCF7BEFD20001A49FCF76C
:10444000ABFD1A4C1A492000FCF7B5FD20001949B4
:10445000FCF7A2FD184C19492000FCF7ACFD200028
:104460001749FCF799FD174C17492000FCF7A3FDED
:1044700016492000FCF790FD10BDC046282F001003
:104480003D43000031430000782F001055430000E9
:10449000494300008C2D00106D4300006143000073
:1044A000D02E00108543000079430000DC2D001061
:1044B0009D43000091430000302E0010B5430000E2
:1044C000DD430000802E0010A9430000C14300001E
:1044D000014B18797047C046202F0010014B5879C6
:1044E0007047C046202F0010014B98797047C04696
:1044F000202F0010014B18787047C046202F001065
:10450000014B98787047C046202F001070B52648A0
:10451000FFF79EF9254E26493000FCF719FD254D81
:10452000254C2A0021003000FCF7FAFF234E2449D5
:104530003000FCF70DFD2A0021003000FCF7F0FFF1
:10454000204E21493000FCF703FD2A0021003000F5
:10455000FCF7E6FF1D4E1E493000FCF7F9FC2A006F
:1045600021003000FCF7DCFF1A4E1B493000FCF73D
:10457000EFFC2A0021003000FCF7D2FF174E18494B
:104580003000FCF7E5FC2A0021003000FCF7C8FFF2
:10459000144E15493000FCF7DBFC2A0030002100E6
:1045A000FCF7BEFF70BDC0462C2E0010282F001057
:1045B0008412010000010010250F0000782F001068
:1045C000700801008C2D001088140100D02E0010FE
:1045D000941A0100DC2D00106C060100302E001032
:1045E000C4320100802E00107C0E0100074B1A8897
:1045F00082420AD01880A023054A06491B0699501A
:104600000549C0005850002199507047C82F00102C
:10461000882000000700F8FF8821000070B58A2379
:10462000A024042224069B01E2508023064D5B0453
:104630006351FFF7DBFF8023044A5B01A350C046B0
:10464000C046635170BDC0460422000084220000B1
:1046500070B58823A024042224069B01E250802305
:10466000064D5B046351FFF7C1FF8023044A5B01E1
:10467000A350C046C046635170BDC046042200002E
:104680008422000010B5074C07492000FDF762F9AD
:1046900020000521FDF73DF904492000FDF716F93A
:1046A00010BDC046CC2F0010FC0402009A99993E20
:1046B00010B504002020FFF7B1FF0020FFF7C8FF6E
:1046C0002120FFF7ABFF0020FFF7C2FF2220FFF7FA
:1046D000A5FF2000FFF78AFFA023882204211B06E4
:1046E000920199508021084A490499508021074835
:1046F0004901074C99501951C046C046013899509C
:104700000028F8D110BDC0460422000040970000E8
:104710008422000010B52020FFF780FF0020FFF763
:1047200097FF2120FFF77AFF0020FFF791FF22205B
:10473000FFF774FF0020FFF759FFA0238822042110
:104740001B06920199508021074A49049950802103
:1047500006484901064C99501951C046C0460138D7
:1047600099500028F8D110BD0422000040970000A5
:104770008422000070B5A0250124784E2D06FFF795
:1047800081FFAC510A20FCF700FE754B0A20EC506B
:10479000FCF7FBFDAC510A20FCF7F7FD2000FFF70A
:1047A0003DFF8E204000FFF753FF0220FFF736FF4A
:1047B00080204000FFF74CFF0320FFF72FFF6948E0
:1047C000FFF746FF0820FFF729FF6748FFF740FF84
:1047D0000C20FFF723FF0020FFF73AFF0F20FFF721
:1047E0001DFF2000FFF734FF2020FFF717FF0020F8
:1047F000FFF72EFF2120FFF711FF0020FFF728FF12
:104800001020FFF70BFF0020FFF722FF1120FFF71A
:1048100005FF80204001FFF71BFF0A20FCF7B5FDD4
:104820003020FFF7FBFE0020FFF712FF3120FFF7DB
:10483000F5FEDB20FFF70CFF3220FFF7EFFE002034
:10484000FFF706FF3320FFF7E9FE0020FFF700FF28
:104850003420FFF7E3FEDB20FFF7FAFE3520FFF7F9
:10486000DDFE0020FFF7F4FE3620FFF7D7FEAF2075
:10487000FFF7EEFE3720FFF7D1FE0020FFF7E8FE3E
:104880003820FFF7CBFEDB20FFF7E2FE3920FFF7F1
:10489000C5FE0020FFF7DCFE0A20FCF776FDFF20B6
:1048A000FFF7BCFE0320FFF7D3FE5020FFF7B6FE54
:1048B0002E48FFF7CDFE5120FFF7B0FE2C48FFF742
:1048C000C7FE5220FFF7AAFE2A4D0520FFF7C0FEC3
:1048D0005320FFF7A3FE2800FFF7BAFE5420FFF78E
:1048E0009DFE2548FFF7B4FE5520FFF797FE234CA9
:1048F0000320FFF7ADFE5620FFF790FE2000FFF7E4
:10490000A7FE5720FFF78AFE1D48FFF7A1FE58209B
:10491000FFF784FE2800FFF79BFE5920FFF77EFE7D
:104920002000FFF795FEB020FFF778FE1548FFF74F
:104930008FFEFF20FFF772FE0020FFF789FE0720A1
:10494000FFF76CFE1048FFF783FEC820FCF71DFD43
:104950002220FFF763FEFFF7DDFE70BD042200009A
:10496000842200003010000008080000030200004C
:10497000090A0000211000000206000003070000E1
:10498000070500000125000017100000F8B505001C
:1049900017000C001E00ADB23720FFF73FFE2800C5
:1049A000FFF756FE3620FFF739FEB8B2FFF750FE8C
:1049B000A4B23920FFF732FE2000FFF749FE38206D
:1049C000FFF72CFEB0B2FFF743FE2020FFF726FED4
:1049D0002800FFF73DFE2120FFF720FE2000FFF713
:1049E00037FEF8BD70B584B21600DB2C14D88DB23A
:1049F000AF2D11D82020FFF711FE2800FFF728FE69
:104A00002120FFF70BFE2000FFF722FE2220FFF7F8
:104A100005FE3000FFF71CFE70BDF7B51C0008ABAB
:104A20001B8807000E0015000193824201DC451C23
:104A30002DB2B44201DC741C24B26B1E621EDBB2C8
:104A4000D2B2F9B2F0B2FFF7A1FF2220FFF7E6FDE4
:104A5000ED1BA41B6C43002C04D00198FFF7F8FD5C
:104A6000013CF8E7F7BDFFFFF7B5040020200D007B
:104A7000FFF7D4FD0020FFF7EBFD2120FFF7CEFD6F
:104A80000020FFF7E5FD2220FFF7C8FD524BE31899
:104A90000193230026005833009333785B005F5B5B
:104AA0003800FFF7D5FD3800FFF7D2FD73785B00C3
:104AB0005F5B3800FFF7CCFD3800FFF7C9FDB37826
:104AC0005B005F5B3800FFF7C3FD3800FFF7C0FDF8
:104AD000F3785B005F5B3800FFF7BAFD3800FFF743
:104AE000B7FD33795B005F5B3800FFF7B1FD38003D
:104AF000FFF7AEFD73795B005F5B3800FFF7A8FD41
:104B00003800FFF7A5FDB3795B005F5B3800FFF766
:104B10009FFD3800FFF79CFDF37908365B005F5B73
:104B20003800FFF795FD3800FFF792FD009BB34278
:104B3000B3D123785B005E5B3000FFF789FD300066
:104B4000FFF786FD63785B005E5B3000FFF780FD5A
:104B50003000FFF77DFDA3785B005E5B3000FFF760
:104B600077FD3000FFF774FDE3785B005E5B30009B
:104B7000FFF76EFD3000FFF76BFD23795B005E5B96
:104B80003000FFF765FD3000FFF762FD63795B00E1
:104B90005E5B3000FFF75CFD3000FFF759FDA37945
:104BA0005B005E5B3000FFF753FD3000FFF750FD08
:104BB000E37908345B005E5B3000FFF749FD3000AD
:104BC000FFF746FD009BA342B3D11C00019BA3420B
:104BD00000D05EE7F7BDC046D025000070B50400E8
:104BE0000D001822002100F01DFD29002000FCF717
:104BF00094F9200070BDFFFF7F23812110B50A4C7E
:104C00008EB018402070094A0901684600F09AFBEE
:104C100022785E21684600F0E0FB2478684600F0C8
:104C2000DBFB20000EB010BDE1510010140A0000A3
:104C3000002210B5044B10201A70044B01321A7078
:104C4000FFF7DAFF10BDC046E1510010EC51001033
:104C500070B5094C05002368013304D124220749AB
:104C60000748FCF7D9F8002D01D0E36800E023697C
:104C700062681A6070BDC04694310010D87300009D
:104C800027740000A0228021030012064905D807DE
:104C900001D5284800E028481150A02280215B104F
:104CA00012068905D80701D5224800E02248115094
:104CB000A02280215B101206C905D80701D51D4826
:104CC00000E01D481150A02280215B101206090649
:104CD000D80701D5174800E017481150A0228021BD
:104CE0005B1012064903D80701D5144800E01448A8
:104CF0001150A02280215B1012068903D80701D52C
:104D00000E4800E00E481150A02280215B101206D0
:104D1000C903D80701D5094800E00948115080218E
:104D20005B100904002B01D0044B00E0044BD15070
:104D30007047C046042200008422000008220000C0
:104D40008822000070B5244B00241A7801231340F8
:104D5000224A234D1370A34228D000262149224A1B
:104D60000B68581C08601B789657DBB2A64203D02C
:104D70000322921B1341DCB21C4A2C701368984228
:104D800011D31B4B1868013018601868042801D132
:104D9000002018601B681748DB02C3180B608021D5
:104DA00009015B1813602878FFF76CFF200001F001
:104DB000F3FD114901F022F9011C1048FCF786FDB2
:104DC0002B780F4A1C190F4B64101C801378591C48
:104DD00011700D4AD45470BD90310010E251001092
:104DE000E0310010EC2F00102001001008310010FD
:104DF00024310010E131001000007F4388310010A1
:104E000008520010E4510010F02F001010B50C4CA7
:104E10000C492000FCF79EFD20001F21FCF779FDC6
:104E200020000949FCF752FD0848094B5A218361CB
:104E30000023C362FCF7E7F9FFF7FAFE10BDC04696
:104E40008831001040270200CDCCCC3DB03100109D
:104E5000454D000010B5194C2000FCF74FFA184BD7
:104E6000184A236000231849A361E3622000FCF77D
:104E700057FB16491648FFF7B1FE16491648FFF7CB
:104E8000ADFE16491648FFF7A9FE16491648FFF76A
:104E9000A5FE16491648FFF7A1FE16491648FFF76A
:104EA0009DFE16491648FFF799FE16491648FFF76A
:104EB00095FE16491648FFF791FE10BDB03100105F
:104EC0001C75000000010010D9110000D03801004D
:104ED000F0300010D43A0100F0510010D83C01002D
:104EE0000C310010DC3E0100D42F001044290200D8
:104EF00028310010482B0200403100104C2D0200D8
:104F000058310010502F020070310010A42201000F
:104F100094310010F0B585B00600029172B64D4B89
:104F2000984202D8050B2B0313E04B4B1C259842EB
:104F30000CD84A4B013D984208D8494B013D984254
:104F400004D8484D8542AD416D421835464BEB18AB
:104F50009B039B1B59425941CBB201933223434CD3
:104F6000434F23606560434BA5603900200098479C
:104F7000404A3B680392002B01D0012068E0E42204
:104F80009202964260D1019B002B3BD001230193FA
:104F90003423FA212360384B890018686560A560C6
:104FA00000F084FC324FE060324B3900200098471B
:104FB0003B68002BE1D13233236065602D4BA56047
:104FC0003900200098473B68002BD6D1019B002B6D
:104FD00018D133232360029BFA21A36080235B0056
:104FE000E360254B89001868666000F05FFC204D87
:104FF0002061290020001F4B984728680028BCD159
:1050000062B625E03B232360E023FA219B00636026
:105010001A4B8900A360184B186800F047FC144F26
:10502000E060144B3900200098473B68002BA4D166
:105030003233236065600F4BA5603900200098472C
:105040003B68002BC5D098E7019A002AC1D09EE7A3
:1050500005B0F0BDFF7F0100FF7F0300FFFF0200EE
:10506000FF7F0200FFFF0100EEFF03000C52001063
:1050700020520010F11FFF1F08010010FF03000065
:10508000024A13680A3313607047C046305200105A
:10509000044B054A07215A6000229A601960034BAD
:1050A0001A60704710E000E0FF5207003052001015
:1050B000014B18687047C046305200107047FFFF20
:1050C000A023802104201B0689015A5810B50243F1
:1050D00080205A50294A4001995801438020995014
:1050E000995840040143012099509958014399501F
:1050F000234924485A5802435A5023480021FCF7B8
:10510000B7FB00212148FCF7B3FB00212048FCF746
:10511000AFFB00211F48FCF7ABFB00211E48FCF74A
:10512000A7FB00211D48FCF7A3FB00211C48FCF74E
:105130009FFB00211B48FCF79BFB00211A48FCF752
:1051400097FB00211948FCF793FB00211848FCF756
:105150008FFB00211748FCF78BFB00211648FCF75A
:1051600087FB00211548FCF783FB00211448FCF75E
:105170007FFB00211348FCF77BFB10BD04200000DF
:1051800008200000F8FF07000007020004090200E1
:10519000080B02000C0D0200100F02001411020097
:1051A000181302001C150200201702002419020027
:1051B000281B02002C1D0200301F020034210200B7
:1051C000382302003C250200036870B504000D007E
:1051D000013304D1242206490648FBF71DFE63680B
:1051E000002D01D0E26800E02269136070BDC04666
:1051F000D873000027740000036810B50400013361
:1052000004D12C2205490648FBF706FE6369606855
:105210001B681840431E984110BDC046D87300005B
:105220002774000010B50121FCF7F2F910BD70B52C
:1052300004002500FFF7F6FF1835606BFCF79AF8BD
:1052400028000121FFF7C0FF01212000FFF7BCFF6C
:10525000606BFCF78FF800212000FFF7B5FF606B53
:10526000FCF788F828000021FFF7AEFF606BFCF721
:1052700081F870BD10B50400FFF7D4FF606BFCF738
:1052800079F800212000FFF79FFF606BFCF772F8B0
:10529000200001211830FFF797FF606BFCF76AF8D8
:1052A00001212000FFF790FF10BDF8B504000F00AA
:1052B0000825FFF7B7FF606BFCF75CF80121013DA3
:1052C000A9402600394020001836FFF77DFF012154
:1052D0003000FFF779FF606BFCF74CF800213000DD
:1052E000FFF772FF002DE6D101212000FFF76CFFD0
:1052F000F8BD70B504002500FFF794FF18350121B3
:105300002000FFF761FF01212800FFF75DFF00216A
:105310002000FCF77DF904212000FCF773F9606B95
:10532000FCF728F800212800FFF74EFF2000FFF7C8
:1053300063FF0023984203D1606BFCF71BF8012345
:10534000180070BDF8B5182604000D0017000021E4
:10535000320000F067F929002000A519FBF7C3FD12
:1053600032002800002100F05DF939002800FBF729
:10537000BAFD2800FFF756FF28000421FCF742F988
:105380002000FFF74FFF04212000FCF73BF923002A
:105390000026012730331E7028006763FFF742FFA5
:1053A0002000FFF73FFF39002000FFF70DFF31001D
:1053B0002800FFF709FF606BFBF7DCFF2000FFF719
:1053C00059FF2000FFF756FF2000FFF753FF200092
:1053D000FFF750FF2000F8BD704770B50D001600B4
:1053E0000400FFF724FF0123290020009943FFF761
:1053F0005CFF2000FFF77DFF31002000FFF755FF25
:105400002000FFF776FF2000FFF734FF70BDFFFF9D
:1054100010B5064B0648197800F0D2FA054B186013
:1054200039235843044B188010BDC0462101001099
:10543000983A00003C5200103852001010B5024853
:10544000FCF7C4FD10BDC04640520010454AF8B5F7
:10545000564692464B005B0D9A444D465F46444685
:105460005246F0B4894605000C000E000700132ACE
:1054700022DC002A47DB52463B4B134198460B0087
:1054800042461340034311D0384A394B01F0C2FA67
:105490000022002300F0AAFB002805D0002C41DBED
:1054A0004E46434600279E43380031003CBC9046A0
:1054B0009946A246AB46F8BD5246332A08DD802302
:1054C000DB009A45F2D102000B0001F0A3FAEDE7F0
:1054D000284A9446012263445242DA4093460242EB
:1054E000E4D0224A224B01F095FA0022002300F07A
:1054F0007DFB0028D8D0002C1ADB5B464E469F432C
:1055000038003100D2E7194A194B01F083FA002222
:10551000002300F06BFB0028C6D0002C16DB002710
:105520000026C1E7802352465B0313419944B7E745
:105530005346142B12D03423524601279B1A9F4006
:105540007F19AF429B415B429944D6E764006408EF
:1055500025430027002DA7D0074EA5E7133B9C4607
:10556000E144CAE701FCFFFFFFFF0F009C750088C4
:105570003CE4377EEDFBFFFF0000F0BFC317C0180F
:1055800058407047084B10B50400002B02D0002192
:1055900000E000BF054B1868836A002B00D09847D5
:1055A0002000FBF793FDC046000000003C8C00008B
:1055B0000E4B70B500251E000D4CE41AA410A54238
:1055C00004D0AB00F35898470135F8E703F098FB97
:1055D000084B00251E00084CE41AA410A54204D074
:1055E000AB00F35898470135F8E770BD0C8D00000B
:1055F0000C8D00000C8D0000388D000010B5034BA1
:105600000100186800F062F810BDC0468401001067
:1056100010B5034B0100186800F00CF810BDC0462F
:105620008401001003008218934202D019700133E4
:10563000FAE7704770B50500002944D00C1F2368B5
:10564000002B00DAE418280000F024F91E4A136841
:105650001100002B02D16360146031E0A3420DD928
:105660002268A018834203D118685B688218226000
:1056700063600C6024E0A24203D813005A68002A39
:10568000F9D11E689819A0420BD1216871185818D9
:105690001960824214D110685268411819605A602A
:1056A0000EE0A04202D90C232B6009E021686018AB
:1056B000824203D1106852684118216062605C60C8
:1056C000280000F0E8F870BD48520010032370B5C0
:1056D000CD1C9D43083506000C2D01D20C2501E0A0
:1056E000002D01DBA94202D90C23336048E03000D1
:1056F00000F0D0F8234B1C681A002100002913D0B9
:105700000B685B1B0DD40B2B02D90B60CC181EE071
:105710008C4202D1636813601AE04B6863600C002E
:1057200016E00C004968E9E7174C2368002B03D109
:10573000300000F095F820602900300000F090F86B
:10574000431C18D00323C41C9C43A0420DD12560E8
:10575000300000F0A0F8200007220B30231D9043FA
:10576000C31A0ED05A42E2500BE0211A300000F06A
:1057700077F8431CEBD10C233000336000F08BF83A
:10578000002070BD4852001044520010104B70B5FC
:105790001C680500A36B002B15D11820FFF72EFF06
:1057A0000C4BA06303800C4B012243800B4B838086
:1057B0000B4BC3800B4B038105234381063383814D
:1057C0000023026143610022A36B1D615A6170BD19
:1057D000840100100E330000CDABFFFF3412000037
:1057E0006DE6FFFFECDEFFFF154B10B51C68A36BE9
:1057F000002B15D11820FFF701FF124BA063038087
:10580000114B01224380114B8380114BC380114BFC
:1058100003810523438106338381002302614361B1
:10582000A46B0D4A206961690C4B00F02DFA01222E
:10583000002380185941206161614800400810BD73
:10584000840100100E330000CDABFFFF34120000C6
:105850006DE6FFFFECDEFFFF2D7F954C2DF45158D8
:10586000002370B5064C050008002360FBF71AFC06
:10587000431C03D12368002B00D02B6070BDC046B1
:105880004C520010031C0A7801311A700133002AAF
:10589000F9D170477047704702B471464908490012
:1058A000095C49008E4402BC7047C0460022430890
:1058B0008B4274D303098B425FD3030A8B4244D3D8
:1058C000030B8B4228D3030C8B420DD3FF2209021A
:1058D00012BA030C8B4202D31212090265D0030BD9
:1058E0008B4219D300E0090AC30B8B4201D3CB03CF
:1058F000C01A5241830B8B4201D38B03C01A524111
:10590000430B8B4201D34B03C01A5241030B8B4212
:1059100001D30B03C01A5241C30A8B4201D3CB02FD
:10592000C01A5241830A8B4201D38B02C01A5241E2
:10593000430A8B4201D34B02C01A5241030A8B42E5
:1059400001D30B02C01A5241CDD2C3098B4201D3FD
:10595000CB01C01A524183098B4201D38B01C01A7B
:10596000524143098B4201D34B01C01A52410309F2
:105970008B4201D30B01C01A5241C3088B4201D3A1
:10598000CB00C01A524183088B4201D38B00C01A4E
:10599000524143088B4201D34B00C01A5241411A75
:1059A00000D20146524110467047FFE701B5002082
:1059B00000F0F0F802BDC0460029F7D076E7704746
:1059C00003460B437FD4002243088B4274D3030960
:1059D0008B425FD3030A8B4244D3030B8B4228D301
:1059E000030C8B420DD3FF22090212BA030C8B4227
:1059F00002D31212090265D0030B8B4219D300E0C7
:105A0000090AC30B8B4201D3CB03C01A5241830B4B
:105A10008B4201D38B03C01A5241430B8B4201D3FB
:105A20004B03C01A5241030B8B4201D30B03C01A24
:105A30005241C30A8B4201D3CB02C01A5241830A9E
:105A40008B4201D38B02C01A5241430A8B4201D3CD
:105A50004B02C01A5241030A8B4201D30B02C01AF7
:105A60005241CDD2C3098B4201D3CB01C01A52415E
:105A700083098B4201D38B01C01A524143098B42E7
:105A800001D34B01C01A524103098B4201D30B01D0
:105A9000C01A5241C3088B4201D3CB00C01A5241F5
:105AA00083088B4201D38B00C01A524143088B42BA
:105AB00001D34B00C01A5241411A00D20146524153
:105AC000104670475DE0CA0F00D04942031000D372
:105AD0004042534000229C4603098B422DD3030AC7
